{"contracts/LaunchpadFactory.sol":{"LaunchpadFactory":{"abi":[{"inputs":[{"internalType":"address","name":"_platformWallet","type":"address"},{"internalType":"address","name":"_dexRouter","type":"address"}],"stateMutability":"nonpayable","type":"constructor"},{"anonymous":false,"inputs":[{"indexed":true,"internalType":"address","name":"token","type":"address"},{"indexed":true,"internalType":"address","name":"bondingCurve","type":"address"},{"indexed":true,"internalType":"address","name":"creator","type":"address"},{"indexed":false,"internalType":"string","name":"tokenName","type":"string"},{"indexed":false,"internalType":"string","name":"tokenSymbol","type":"string"},{"indexed":false,"internalType":"uint256","name":"totalSupply","type":"uint256"},{"indexed":false,"internalType":"uint256","name":"basePrice","type":"uint256"},{"indexed":false,"internalType":"uint256","name":"graduationCap","type":"uint256"}],"name":"LaunchCreated","type":"event"},{"anonymous":false,"inputs":[{"indexed":true,"internalType":"address","name":"previousOwner","type":"address"},{"indexed":true,"internalType":"address","name":"newOwner","type":"address"}],"name":"OwnershipTransferred","type":"event"},{"anonymous":false,"inputs":[{"indexed":false,"internalType":"bool","name":"paused","type":"bool"}],"name":"PauseToggled","type":"event"},{"anonymous":false,"inputs":[{"indexed":true,"internalType":"address","name":"oldWallet","type":"address"},{"indexed":true,"internalType":"address","name":"newWallet","type":"address"}],"name":"PlatformWalletUpdated","type":"event"},{"inputs":[],"name":"MAX_LAUNCHES_PER_CREATOR","outputs":[{"internalType":"uint256","name":"","type":"uint256"}],"stateMutability":"view","type":"function"},{"inputs":[],"name":"MIN_BASE_PRICE","outputs":[{"internalType":"uint256","name":"","type":"uint256"}],"stateMutability":"view","type":"function"},{"inputs":[],"name":"MIN_GRADUATION_CAP","outputs":[{"internalType":"uint256","name":"","type":"uint256"}],"stateMutability":"view","type":"function"},{"inputs":[],"name":"MIN_SUPPLY","outputs":[{"internalType":"uint256","name":"","type":"uint256"}],"stateMutability":"view","type":"function"},{"inputs":[{"internalType":"uint256","name":"","type":"uint256"}],"name":"allLaunches","outputs":[{"internalType":"address","name":"","type":"address"}],"stateMutability":"view","type":"function"},{"inputs":[{"internalType":"string","name":"name","type":"string"},{"internalType":"string","name":"symbol","type":"string"},{"internalType":"uint256","name":"totalSupply","type":"uint256"},{"internalType":"uint256","name":"basePrice","type":"uint256"},{"internalType":"uint256","name":"slope","type":"uint256"},{"internalType":"uint256","name":"graduationCap","type":"uint256"},{"internalType":"bytes32","name":"salt","type":"bytes32"},{"internalType":"uint256","name":"launchDate","type":"uint256"}],"name":"createLaunch","outputs":[{"internalType":"address","name":"token","type":"address"},{"internalType":"address","name":"bondingCurve","type":"address"}],"stateMutability":"nonpayable","type":"function"},{"inputs":[{"internalType":"address","name":"","type":"address"},{"internalType":"uint256","name":"","type":"uint256"}],"name":"creatorLaunches","outputs":[{"internalType":"address","name":"","type":"address"}],"stateMutability":"view","type":"function"},{"inputs":[],"name":"dexRouter","outputs":[{"internalType":"address","name":"","type":"address"}],"stateMutability":"view","type":"function"},{"inputs":[{"internalType":"uint256","name":"offset","type":"uint256"},{"internalType":"uint256","name":"limit","type":"uint256"}],"name":"getAllLaunches","outputs":[{"internalType":"address[]","name":"","type":"address[]"}],"stateMutability":"view","type":"function"},{"inputs":[{"internalType":"address","name":"creator","type":"address"}],"name":"getCreatorLaunches","outputs":[{"internalType":"address[]","name":"","type":"address[]"}],"stateMutability":"view","type":"function"},{"inputs":[],"name":"getLaunchCount","outputs":[{"internalType":"uint256","name":"","type":"uint256"}],"stateMutability":"view","type":"function"},{"inputs":[{"internalType":"address","name":"","type":"address"}],"name":"launches","outputs":[{"internalType":"address","name":"token","type":"address"},{"internalType":"address","name":"bondingCurve","type":"address"},{"internalType":"address","name":"creator","type":"address"},{"internalType":"string","name":"tokenName","type":"string"},{"internalType":"string","name":"tokenSymbol","type":"string"},{"internalType":"uint256","name":"totalSupply","type":"uint256"},{"internalType":"uint256","name":"basePrice","type":"uint256"},{"internalType":"uint256","name":"graduationCap","type":"uint256"},{"internalType":"uint256","name":"createdAt","type":"uint256"},{"internalType":"bool","name":"exists","type":"bool"}],"stateMutability":"view","type":"function"},{"inputs":[],"name":"owner","outputs":[{"internalType":"address","name":"","type":"address"}],"stateMutability":"view","type":"function"},{"inputs":[],"name":"paused","outputs":[{"internalType":"bool","name":"","type":"bool"}],"stateMutability":"view","type":"function"},{"inputs":[],"name":"platformWallet","outputs":[{"internalType":"address","name":"","type":"address"}],"stateMutability":"view","type":"function"},{"inputs":[{"internalType":"bytes32","name":"salt","type":"bytes32"},{"internalType":"string","name":"name","type":"string"},{"internalType":"string","name":"symbol","type":"string"},{"internalType":"uint256","name":"totalSupply","type":"uint256"},{"internalType":"uint256","name":"launchDate","type":"uint256"},{"internalType":"address","name":"creator","type":"address"}],"name":"precomputeTokenAddress","outputs":[{"internalType":"address","name":"predictedToken","type":"address"}],"stateMutability":"view","type":"function"},{"inputs":[],"name":"renounceOwnership","outputs":[],"stateMutability":"nonpayable","type":"function"},{"inputs":[{"internalType":"bytes32","name":"","type":"bytes32"}],"name":"saltUsed","outputs":[{"internalType":"bool","name":"","type":"bool"}],"stateMutability":"view","type":"function"},{"inputs":[{"internalType":"address","name":"_router","type":"address"}],"name":"setDexRouter","outputs":[],"stateMutability":"nonpayable","type":"function"},{"inputs":[{"internalType":"address","name":"_wallet","type":"address"}],"name":"setPlatformWallet","outputs":[],"stateMutability":"nonpayable","type":"function"},{"inputs":[],"name":"togglePause","outputs":[],"stateMutability":"nonpayable","type":"function"},{"inputs":[{"internalType":"address","name":"newOwner","type":"address"}],"name":"transferOwnership","outputs":[],"stateMutability":"nonpayable","type":"function"}],"evm":{"bytecode":{"linkReferences":{},"object":"6080346200011b57601f62005d1e38819003918201601f19168301916001600160401b03831184841017620001205780849260409485528339810103126200011b576200005a6020620000528362000136565b920162000136565b60008054336001600160a01b03198083168217845560405190956001600160a01b039594919386939192908416907f8be0079c531659141344cd1fd0a4f28419497f9722a3daafe3b4186f6b6457e09080a316908115620000d9575083600154161760015516906002541617600255604051615bd290816200014c8239f35b62461bcd60e51b815260206004820152601760248201527f496e76616c696420706c6174666f726d2077616c6c65740000000000000000006044820152606490fd5b600080fd5b634e487b7160e01b600052604160045260246000fd5b51906001600160a01b03821682036200011b5756fe60808060405260043610156200001457600080fd5b600090813560e01c9081630758d9241462001466575080631a60be5714620014485780631f2d8550146200136657806335917c64146200134757806340ab1873146200121357806341d6e9d314620011ca578063422551bb14620011995780635c975abb14620011715780635d7587af146200110f5780636b3a98f4146200108e578063715018a6146200103057806378aba8ea14620010125780638831e9cf1462000f635780638da5cb5b1462000f3a578063947df097146200035a5780639f1c2d8814620003365780639ff0251f1462000316578063c4ae316814620002a3578063cf7734c5146200026a578063f2fde38b146200019d578063f72f863b14620001575763fa2af9da146200012a57600080fd5b3462000154578060031936011262000154576001546040516001600160a01b039091168152602090f35b80fd5b5034620001545760203660031901126200015457620001756200148d565b6200017f6200173e565b60018060a01b03166001600160601b0360a01b600254161760025580f35b5034620001545760203660031901126200015457620001bb6200148d565b620001c56200173e565b6001600160a01b039081169081156200021657600054826001600160601b0360a01b821617600055167f8be0079c531659141344cd1fd0a4f28419497f9722a3daafe3b4186f6b6457e0600080a380f35b60405162461bcd60e51b815260206004820152602660248201527f4f776e61626c653a206e6577206f776e657220697320746865207a65726f206160448201526564647265737360d01b6064820152608490fd5b50346200015457604036600319011262000154576200029f62000292602435600435620018cf565b60405191829182620016f8565b0390f35b50346200015457806003193601126200015457620002c06200173e565b7f9077d36bc00859b5c3f320310707208543dd35092cb0a0fe117d0c6a558b148b602060025460ff60a01b60ff8260a01c161560a01b169060ff60a01b1916178060025560ff6040519160a01c1615158152a180f35b503462000154578060031936011262000154576020600454604051908152f35b503462000154578060031936011262000154576020604051662386f26fc100008152f35b5034620001545761010036600319011262000154576004356001600160401b03811162000c39576200039190369060040162001636565b6024356001600160401b03811162000f3657620003b390369060040162001636565b9160ff60025460a01c1662000efc578151801515908162000eef575b501562000ebb578251801515908162000eae575b501562000e78576103e86044351062000e425760016064351062000e08576084351562000dcf57662386f26fc1000060a4351062000d91574260e435111562000d425760c4358152600660205260ff60408220541662000d09573381526005602052600a6040822054101562000cd05760c4358152600660205260408120600160ff19825416179055604051602081019060c4358252643a37b5b2b760d91b6040820152602581526200049681620014fa565b51902091604051602081019060c435825264637572766560d81b604082015260258152620004c481620014fa565b519020926200057b6200055f6200056c602061193f60405190620004eb8382018362001516565b8082526200425e8383013960018060a01b036001541687620005358c620005266040519384928884019660e435923392604435918a62001797565b03601f19810183528262001516565b60405195836200054f8895518092888089019101620015ea565b84019151809386840190620015ea565b0103808452018262001516565b6001600160a01b0392620017e5565b1692831562000c95576040519062000599602061283e018362001516565b61283e825261283e62001a20602084013960018060a01b03600154169160018060a01b0360025416604051938760208601526040850152336060850152606435608085015260843560a085015260a43560c085015260e084015260e08352826101008101106001600160401b036101008501111762000ae557906200066a6020846200067e9461010082016040526200063d815180928561012086019101620015ea565b810181519062000655826101208301868601620015ea565b01038061010087015201610100850162001516565b6001600160a01b03926101000190620017e5565b1691821562000c5a576044356050604435020460501460443515171562000c465760405163a9059cbb60e01b8152836004820152606460506044350204602482015260208160448185895af1801562000be65762000c03575b50823b15620001545760405163204a7f0760e21b8152818160048183885af1801562000be65762000bf1575b50833b15620001545760405163f2fde38b60e01b8152336004820152818160248183895af1801562000be65790829162000bce575b5050604051806101408101106001600160401b036101408301111762000a0257610140810160405284815283602082015233604082015282606082015285608082015260443560a082015260643560c082015260a43560e082015242610100820152600161012082015284825260036020526040822060018060a01b038251166001600160601b0360a01b90818354161782556001820160018060a01b0360208501511682825416179055600282019060018060a01b036040850151169082541617905560608201518051906001600160401b03821162000ae5578190620008246003850154620014a9565b601f811162000b79575b50602090601f831160011462000b0557869262000af9575b50508160011b916000199060031b1c19161760038201555b60808201518051906001600160401b03821162000ae557620008846004840154620014a9565b601f811162000a9c575b50602090601f831160011462000a245791806101209492600994889262000a18575b50508160011b916000199060031b1c19161760048201555b60a0840151600582015560c0840151600682015560e08401516007820155610100840151600882015501910151151560ff8019835416911617905560045490600160401b82101562000a0257620009288260016040940160045562001691565b81546001600160a01b0360039290921b91821b19169087901b17905533815260056020522080549094600160401b82101562000a02577ff895513ebe0cc201f473504ee6b316fc136a93b62ba5f80d6dfaf6bc3ccef073620009d886926200099a8560409a60018a98018155620016df565b81549060031b9086821b9160018060a01b03901b1916179055620009c989519660a0885260a08801906200160f565b9086820360208801526200160f565b9360443588820152606435606082015260a43560808201528033950390a482519182526020820152f35b634e487b7160e01b600052604160045260246000fd5b015190503880620008b0565b906004840186526020862091865b601f198516811062000a83575092610120949260019260099583601f1981161062000a69575b505050811b016004820155620008c8565b015160001960f88460031b161c1916905538808062000a58565b9192602060018192868501518155019401920162000a32565b60048401865260208620601f840160051c81016020851062000add575b601f830160051c8201811062000ad15750506200088e565b87815560010162000ab9565b508062000ab9565b634e487b7160e01b85526041600452602485fd5b01519050388062000846565b9250600384018652602086209086935b601f198416851062000b5d576001945083601f1981161062000b43575b505050811b0160038201556200085e565b015160001960f88460031b161c1916905538808062000b32565b8181015183556020948501946001909301929091019062000b15565b90915060038401865260208620601f840160051c81016020851062000bc6575b90849392915b601f830160051c8201811062000bb75750506200082e565b88815585945060010162000b9f565b508062000b99565b62000bd990620014e6565b6200015457803862000738565b6040513d84823e3d90fd5b62000bfc90620014e6565b3862000703565b6020813d60201162000c3d575b8162000c1f6020938362001516565b8101031262000c39575180151503620001545738620006d7565b5080fd5b3d915062000c10565b634e487b7160e01b81526011600452602490fd5b60405162461bcd60e51b815260206004820152601360248201527210dd5c9d994819195c1b1bde4819985a5b1959606a1b6044820152606490fd5b60405162461bcd60e51b8152602060048201526013602482015272151bdad95b8819195c1b1bde4819985a5b1959606a1b6044820152606490fd5b60405162461bcd60e51b8152602060048201526011602482015270546f6f206d616e79206c61756e6368657360781b6044820152606490fd5b60405162461bcd60e51b815260206004820152601160248201527014d85b1d08185b1c9958591e481d5cd959607a1b6044820152606490fd5b60405162461bcd60e51b815260206004820152602160248201527f4c61756e63682064617465206d75737420626520696e207468652066757475726044820152606560f81b6064820152608490fd5b60405162461bcd60e51b815260206004820152601660248201527547726164756174696f6e2063617020746f6f206c6f7760501b6044820152606490fd5b60405162461bcd60e51b81526020600482015260116024820152700536c6f7065206d757374206265203e203607c1b6044820152606490fd5b60405162461bcd60e51b81526020600482015260126024820152714261736520707269636520746f6f206c6f7760701b6044820152606490fd5b60405162461bcd60e51b815260206004820152600e60248201526d537570706c7920746f6f206c6f7760901b6044820152606490fd5b60405162461bcd60e51b815260206004820152600e60248201526d125b9d985b1a59081cde5b589bdb60921b6044820152606490fd5b600a9150111538620003e3565b60405162461bcd60e51b815260206004820152600c60248201526b496e76616c6964206e616d6560a01b6044820152606490fd5b60329150111538620003cf565b60405162461bcd60e51b815260206004820152601260248201527110dbdb9d1c9858dd081a5cc81c185d5cd95960721b6044820152606490fd5b8280fd5b50346200015457806003193601126200015457546040516001600160a01b039091168152602090f35b503462000154576020366003190112620001545762000f816200148d565b62000f8b6200173e565b6001600160a01b0390811690811562000fdb57600154826001600160601b0360a01b821617600155167ff84f6b525c89a18c80bbbc0c62a7eb5390956d6b8432ab067b49963a98f8c38f8380a380f35b60405162461bcd60e51b815260206004820152600f60248201526e496e76616c6964206164647265737360881b6044820152606490fd5b503462000154578060031936011262000154576020604051600a8152f35b503462000154578060031936011262000154576200104d6200173e565b80546001600160a01b03198116825581906001600160a01b03167f8be0079c531659141344cd1fd0a4f28419497f9722a3daafe3b4186f6b6457e08280a380f35b5034620001545760208060031936011262000c39576001600160a01b039182620010b76200148d565b168152600582526040812092604051908193808654938481520195845280842093915b838310620010f5576200029f8662000292818a038262001516565b8454811687529581019560019485019490920191620010da565b50346200015457604036600319011262000154576200112d6200148d565b6001600160a01b039081168252600560205260408220805460243593908410156200015457506020926200116191620016df565b9190546040519260031b1c168152f35b50346200015457806003193601126200015457602060ff60025460a01c166040519015158152f35b503462000154576020366003190112620001545760ff60406020926004358152600684522054166040519015158152f35b50346200015457602036600319011262000154576004359060045482101562000154576020620011fa8362001691565b905460405160039290921b1c6001600160a01b03168152f35b5034620001545760c036600319011262000154576001600160401b039060243582811162000c39576200124b90369060040162001636565b9160443590811162000c39576200126790369060040162001636565b916001600160a01b039160a435908382168203620001545750605591600b916200055f62001324604051602098818a809301906004358252643a37b5b2b760d91b604082015260258152620012bc81620014fa565b5190209561193f956200130a60405193620012da868a018662001516565b888552858501986200425e8a39620005268d60015416916040519485938985019760843593606435918a62001797565b6040519586936200054f868601998a9251928391620015ea565b51902090604051916040830152858201523081520160ff81532060405191168152f35b5034620001545780600319360112620001545760206040516103e88152f35b50346200015457602036600319011262000154576001600160a01b039060409082620013916200148d565b16815260036020522081815416908260018201541692600282015416620013bb6003830162001538565b91620013ca6004820162001538565b92600582015493620014266006840154916200141760078601549460ff6009600889015498015416976040519b8c9b8c5260208c015260408b01526101408060608c01528a01906200160f565b9088820360808a01526200160f565b9460a087015260c086015260e085015261010084015215156101208301520390f35b50346200015457806003193601126200015457602060405160018152f35b90503462000c39578160031936011262000c39576002546001600160a01b03168152602090f35b600435906001600160a01b0382168203620014a457565b600080fd5b90600182811c92168015620014db575b6020831014620014c557565b634e487b7160e01b600052602260045260246000fd5b91607f1691620014b9565b6001600160401b03811162000a0257604052565b606081019081106001600160401b0382111762000a0257604052565b90601f801991011681019081106001600160401b0382111762000a0257604052565b90604051918260008254926200154e84620014a9565b908184526001948581169081600014620015c557506001146200157e575b50506200157c9250038362001516565b565b9093915060005260209081600020936000915b818310620015ac5750506200157c935082010138806200156c565b8554888401850152948501948794509183019162001591565b9150506200157c94506020925060ff191682840152151560051b82010138806200156c565b60005b838110620015fe5750506000910152565b8181015183820152602001620015ed565b906020916200162a81518092818552858086019101620015ea565b601f01601f1916010190565b81601f82011215620014a4578035906001600160401b03821162000a0257604051926200166e601f8401601f19166020018562001516565b82845260208383010111620014a457816000926020809301838601378301015290565b600454811015620016c95760046000527f8a35acfbc15ff81a39ae7d344fd709f28e8600b4aa8c65c6b64bfe7fe36bd19b0190600090565b634e487b7160e01b600052603260045260246000fd5b8054821015620016c95760005260206000200190600090565b6020908160408183019282815285518094520193019160005b82811062001720575050505090565b83516001600160a01b03168552938101939281019260010162001711565b6000546001600160a01b031633036200175357565b606460405162461bcd60e51b815260206004820152602060248201527f4f776e61626c653a2063616c6c6572206973206e6f7420746865206f776e65726044820152fd5b929695949060a09492620017b8620017c79260c0875260c08701906200160f565b9085820360208701526200160f565b966040840152600180851b0380921660608401521660808201520152565b908051156200184f576020815191016000f5906001600160a01b038216156200180a57565b60405162461bcd60e51b815260206004820152601960248201527f437265617465323a204661696c6564206f6e206465706c6f79000000000000006044820152606490fd5b606460405162461bcd60e51b815260206004820152602060248201527f437265617465323a2062797465636f6465206c656e677468206973207a65726f6044820152fd5b91908201809211620018a157565b634e487b7160e01b600052601160045260246000fd5b6001600160401b03811162000a025760051b60200190565b90620018dc908262001893565b6004805480831162001a16575b831015620019d357828203918211620019be576200190782620018b7565b9262001917604051948562001516565b828452601f196200192884620018b7565b0190602091368387013760005b8481106200194557505050505090565b6200195b62001955828462001893565b62001691565b90548751831015620019a95760039190911b1c6001600160a01b0316600582901b87018401526000198114620019945760010162001935565b601184634e487b7160e01b6000525260246000fd5b603286634e487b7160e01b6000525260246000fd5b601190634e487b7160e01b6000525260246000fd5b60405192506020830191506001600160401b0382118383101762001a01575060405260008152600036813790565b604190634e487b7160e01b6000525260246000fd5b915081620018e956fe60a034620002c757601f6200283e38819003918201601f191683019291906001600160401b03841183851017620002cc578160e09284926040968752833981010312620002c7576200005181620002e2565b90602062000061818301620002e2565b6200006e858401620002e2565b916060840151916080850151936200008e60c060a08801519701620002e2565b60008054336001600160a01b0319808316821784558c51949b90966001600160a01b03949093859391908416907f8be0079c531659141344cd1fd0a4f28419497f9722a3daafe3b4186f6b6457e09080a3600180551692831562000295575081169283156200025157169384156200021c578515620001d95787156200019657506080528160025416176002556003541617600355600455600555600655600a5490610100600160a81b039060081b1690610100600160a81b03191617600a55516125469081620002f882396080518181816101f80152818161045301528181610a3e01528181610d3901528181610f48015281816112e50152818161144901526123cf0152f35b6064908a519062461bcd60e51b82526004820152601a60248201527f47726164756174696f6e20636170206d757374206265203e20300000000000006044820152fd5b6064908a519062461bcd60e51b82526004820152601660248201527f42617365207072696365206d757374206265203e2030000000000000000000006044820152fd5b6064908a519062461bcd60e51b82526004820152600f60248201526e24b73b30b634b21031b932b0ba37b960891b6044820152fd5b8a5162461bcd60e51b815260048101879052601760248201527f496e76616c696420706c6174666f726d2077616c6c65740000000000000000006044820152606490fd5b62461bcd60e51b815260048101879052600d60248201526c24b73b30b634b2103a37b5b2b760991b6044820152606490fd5b600080fd5b634e487b7160e01b600052604160045260246000fd5b51906001600160a01b0382168203620002c75756fe6040608081526004908136101561001557600080fd5b600091823560e01c908162f2d656146113fb57816302d05d3f146113d257816305eb6f0e146112365781630758d924146112095781630d4b0a54146111e0578163158ef93e146111b957816325d2a3f31461117f578163340478a51461115857816335486a2f1461109b5781633fb168c414610f0157816342b07a4b14610ed35781635bd9328214610bc75781635c975abb14610eac57816360a97e9514610e8d578163715018a614610e335781638129fc1c14610cf757816382944e2d14610cd957816383c4613714610c9f57816383caf27514610c805781638831e9cf14610bf45781638da5cb5b14610bcc57816390165dd714610bc75781639106d7ba14610ba85781639d1b464a14610b8b5781639e1a4d1914610b6c5781639e5f260214610b48578163a6f2ae3a14610985578163a8808d0814610966578163bf65073e14610924578163c4ae3168146108b7578163c5c4744c14610898578163c7876ea41461087a578163c8ae000c1461085d578163d294f093146107a3578163db2e21bc14610653578163dd4d7bf714610637578163e4849b3214610381578163eb5b7cc214610322578163f2fde38b1461025357508063fa2af9da1461022b5763fc0c546a146101e557600080fd5b34610227578160031936011261022757517f00000000000000000000000000000000000000000000000000000000000000006001600160a01b03168152602090f35b5080fd5b503461022757816003193601126102275760025490516001600160a01b039091168152602090f35b9190503461031e57602036600319011261031e576001600160a01b0382358181169391929084900361031a57610287611a9e565b83156102c857505082546001600160a01b0319811683178455167f8be0079c531659141344cd1fd0a4f28419497f9722a3daafe3b4186f6b6457e08380a380f35b906020608492519162461bcd60e51b8352820152602660248201527f4f776e61626c653a206e6577206f776e657220697320746865207a65726f206160448201526564647265737360d01b6064820152fd5b8480fd5b8280fd5b82843461037e57602036600319011261037e5782359060648202908282046064148315171561036b5760208461036461035f612710860487611bf8565b611fa6565b9051908152f35b634e487b7160e01b815260118552602490fd5b80fd5b839150346102275760208060031936011261031e578135916103a1611c51565b60ff600a546103b5828260a81c1615611b2e565b166105f6576103c5831515611f06565b82600754106105bf576103d783612139565b908115610583574780831161057b575b5060648202828104606414831517156105685761271090049261040a8484611bf8565b87516323b872dd60e01b838201523360248201523060448201526064808201889052815260a0810167ffffffffffffffff81118282101761055557888093610477829483948e527f0000000000000000000000000000000000000000000000000000000000000000611cfa565b6104838a600754611bf8565b60075561049288600854611bf8565b6008556104a18a600954611c44565b600955335af16104af611df2565b501561051d5750506105137f910f01659f782fde3d5c0ee026adfbae451c6accad6884192f12bcfb9b2f13e59394956104e78461216f565b6104ef611f88565b90519384933397859094939260609260808301968352602083015260408201520152565b0390a26001805580f35b865162461bcd60e51b8152918201526013602482015272115512081d1c985b9cd9995c8819985a5b1959606a1b604482015260649150fd5b634e487b7160e01b895260418552602489fd5b634e487b7160e01b865260118252602486fd5b9150866103e7565b855162461bcd60e51b81529081018390526016602482015275151bdad95b88185b5bdd5b9d081d1bdbc81cdb585b1b60521b6044820152606490fd5b60649185519162461bcd60e51b83528201526013602482015272115e18d959591cc81cdbdb1908185b5bdd5b9d606a1b6044820152fd5b60649185519162461bcd60e51b8352820152601e60248201527f416c7265616479206772616475617465642c2073656c6c206f6e2044455800006044820152fd5b5050346102275781600319360112610227576020905160648152f35b9190503461031e578260031936011261031e5761066e611a9e565b61067f60ff600a5460a81c1661248f565b600c5480156107605742106107265782600c554780156106f65760025484918291829182916001600160a01b03165af16106b7611df2565b50156106c1578280f35b906020606492519162461bcd60e51b8352820152600f60248201526e15da5d1a191c985dc819985a5b1959608a1b6044820152fd5b815162461bcd60e51b8152602081850152600a6024820152694e6f2062616c616e636560b01b6044820152606490fd5b906020606492519162461bcd60e51b83528201526014602482015273151a5b595b1bd8dac81b9bdd08195e1c1a5c995960621b6044820152fd5b815162461bcd60e51b8152602081850152601760248201527f456d657267656e6379206e6f7420696e697469617465640000000000000000006044820152606490fd5b9190503461031e578260031936011261031e57338352600b602052808320548015610828578380808093338252600b6020528186812055335af16107e5611df2565b50156107ef578280f35b602090606493339052600b8252519162461bcd60e51b8352820152600c60248201526b10db185a5b4819985a5b195960a21b6044820152fd5b815162461bcd60e51b8152602081850152600f60248201526e4e6f2070656e64696e67206665657360881b6044820152606490fd5b505034610227578160031936011261022757602090610364611f47565b90503461031e578260031936011261031e5760209250549051908152f35b5050346102275781600319360112610227576020906008549051908152f35b50503461022757816003193601126102275760207f9077d36bc00859b5c3f320310707208543dd35092cb0a0fe117d0c6a558b148b916108f5611a9e565b60ff600a548160a81b828260a81c161560a81b16908260a81b1916179182600a55519160a81c1615158152a180f35b82843461037e57602036600319011261037e5761094183356120d5565b9060648202908282046064148315171561036b576020846103646126ac850486611c44565b505034610227578160031936011261022757602090600c549051908152f35b9190508260031936011261031e5761099b611c51565b6109b960ff600a546109b2828260a81c1615611b2e565b1615611b6f565b3415610b155760643402348104606403610b02576127109004916109e061035f8434611bf8565b906109ec821515611c05565b6009548211610abf57509081610a257f7ca4a3cad3bac410861af1b25202900ff3c8dd2174eaaa6c0ef89f2a04e65fd593600754611c44565b600755610a3434600854611c44565b600855610a6281337f0000000000000000000000000000000000000000000000000000000000000000611ca7565b610a6b8461216f565b610a9b610a76611f88565b9251928392339634859094939260609260808301968352602083015260408201520152565b0390a26008546006541115610ab2575b6001805580f35b610aba61229f565b610aab565b606490602084519162461bcd60e51b8352820152601860248201527f4578636565647320617661696c61626c6520737570706c7900000000000000006044820152fd5b634e487b7160e01b845260118352602484fd5b906020606492519162461bcd60e51b8352820152600d60248201526c09aeae6e840e6cadcc8408aa89609b1b6044820152fd5b50503461022757816003193601126102275760209060ff600a541690519015158152f35b5050346102275781600319360112610227576020906009549051908152f35b505034610227578160031936011261022757602090610364611f88565b5050346102275781600319360112610227576020906007549051908152f35b611a7c565b505034610227578160031936011261022757905490516001600160a01b039091168152602090f35b90503461031e57602036600319011261031e5780356001600160a01b0381169290839003610c7c57610c24611a9e565b8215610c475750506bffffffffffffffffffffffff60a01b600254161760025580f35b906020606492519162461bcd60e51b8352820152600f60248201526e496e76616c6964206164647265737360881b6044820152fd5b8380fd5b5050346102275781600319360112610227576020906005549051908152f35b50503461022757816003193601126102275760209060ff600a5416159081610cca575b519015158152f35b60085460065411159150610cc2565b505034610227578160031936011261022757602090516202a3008152f35b90503461031e578260031936011261031e57610d11611a9e565b600d549160ff8360a81c16610dfa5780516370a0823160e01b815230838201526020816024817f00000000000000000000000000000000000000000000000000000000000000006001600160a01b03165afa908115610df0578591610dbf575b508060095515610d9057505060ff60a81b1916600160a81b17600d5580f35b906020606492519162461bcd60e51b835282015260096024820152684e6f20746f6b656e7360b81b6044820152fd5b90506020813d8211610de8575b81610dd960209383611af6565b8101031261031a575138610d71565b3d9150610dcc565b82513d87823e3d90fd5b906020606492519162461bcd60e51b83528201526013602482015272105b1c9958591e481a5b9a5d1a585b1a5e9959606a1b6044820152fd5b833461037e578060031936011261037e57610e4c611a9e565b80546001600160a01b03198116825581906001600160a01b03167f8be0079c531659141344cd1fd0a4f28419497f9722a3daafe3b4186f6b6457e08280a380f35b5050346102275781600319360112610227576020906006549051908152f35b50503461022757816003193601126102275760209060ff600a5460a81c1690519015158152f35b505034610227578160031936011261022757602090610ef061233b565b90516001600160a01b039091168152f35b9190503461031e578260031936011261031e57610f1c611a9e565b610f2a60ff600a54166122e0565b80516370a0823160e01b815230818401526001600160a01b039290917f000000000000000000000000000000000000000000000000000000000000000091906020904782866024818a89165afa95861561109157889661105e575b50801580158091611055575b1561101c57908891610fc5575b505050505081610fac578380f35b610fbe92846009556002541690611ca7565b3880808380f35b818080928a600254165af1610fd8611df2565b5015610fe5578681610f9e565b5162461bcd60e51b8152918201526013602482015272115512081dda5d1a191c985dc819985a5b1959606a1b604482015260649150fd5b50505162461bcd60e51b81529182015260136024820152724e6f7468696e6720746f20776974686472617760681b604482015260649150fd5b50861515610f91565b9095508281813d831161108a575b6110768183611af6565b8101031261108657519438610f85565b8780fd5b503d61106c565b82513d8a823e3d90fd5b9190503461031e578260031936011261031e576110b6611a9e565b6110c760ff600a5460a81c1661248f565b600c54611121576202a30042019182421161110e5750816020917f321e4e6edd055ebd12e269436c1562c06efff25f3532cc5fdcb9909193e3031493600c5551908152a180f35b634e487b7160e01b845260119052602483fd5b906020606492519162461bcd60e51b83528201526011602482015270105b1c9958591e481a5b9a5d1a585d1959607a1b6044820152fd5b50503461022757816003193601126102275760209060ff600d5460a01c1690519015158152f35b90503461031e57602036600319011261031e57356001600160a01b0381169081900361031e5782829160209452600b845220549051908152f35b50503461022757816003193601126102275760209060ff600d5460a81c1690519015158152f35b505034610227578160031936011261022757600d5490516001600160a01b039091168152602090f35b505034610227578160031936011261022757600a54905160089190911c6001600160a01b03168152602090f35b839150602036600319011261022757803561124f611c51565b61126660ff600a546109b2828260a81c1615611b2e565b611271811515611f06565b6009549182821161139b57611285826120d5565b90606482028281046064148315171561056857836112ab6126ac6112db93048095611c44565b956112b887341015611c05565b6112c482600754611c44565b6007556112d387600854611c44565b600855611bf8565b60095561130983337f0000000000000000000000000000000000000000000000000000000000000000611ca7565b6113128261216f565b83341161134a575b50610a9b7f7ca4a3cad3bac410861af1b25202900ff3c8dd2174eaaa6c0ef89f2a04e65fd59394956104ef611f88565b848080806113588834611bf8565b335af1611363611df2565b5061131a57606490602087519162461bcd60e51b8352820152600d60248201526c1499599d5b990819985a5b1959609a1b6044820152fd5b606490602086519162461bcd60e51b835282015260116024820152704578636565647320617661696c61626c6560781b6044820152fd5b50503461022757816003193601126102275760035490516001600160a01b039091168152602090f35b9190503461031e578260031936011261031e57611416611a9e565b600a5461142560ff82166122e0565b60081c6001600160a01b03908116918215611a455760ff600d5460a01c16611a13577f000000000000000000000000000000000000000000000000000000000000000092828416908251936370a0823160e01b92838652308887015260209660249388888681865afa978815611a09578b986119d6575b504791881580159081806119cd575b1561199c579061191b575b156118ba57875163095ea7b360e01b818c01526001600160a01b03909216868301908152602081018a90526115049291906114ff9083906040015b03601f198101845283611af6565b611cfa565b82600a5460081c16610e1042018042116118a8579260c48b82946060948f98978c519d8e96879563f305d71960e01b8752860152808c860152604485015282606485015230608485015260a48401525af1801561189e57839084988591611842575b507f7d6df569e0f84786358976a64cd2b9d072436fdd44c7eaeafc6859e69e751b5f91606091600d549a600160a01b97888d60ff60a01b191617600d556009558a519283528c83015289820152a1600a54865163c45a015560e01b8152919060081c831689838c81845afa928c841561181857918b918d95949394611823575b5089516315ab88c960e31b815294859182905afa928c841561181857918b9391611647956117f9575b50895163e6a4390560e01b81526001600160a01b039182168e8201908152939091166020840152938492839187918391604090910190565b0392165afa9081156117ef578a916117c2575b501694851561178d576001600160a81b031916851717600d558251918252308683015284828281875afa918215611783578792611750575b50816116c6575b50507fc950eca7ebef0c17a14892ff3f205bb3188bc3ddcd1d50f7e72595ebe8e913fa935051908152a180f35b61dead83519663a9059cbb60e01b8852870152850152828460448188865af1938415611746577fc950eca7ebef0c17a14892ff3f205bb3188bc3ddcd1d50f7e72595ebe8e913fa94611719575b80611699565b61173890843d861161173f575b6117308183611af6565b810190611ce2565b5038611713565b503d611726565b81513d87823e3d90fd5b9091508481813d831161177c575b6117688183611af6565b8101031261177857519038611692565b8680fd5b503d61175e565b83513d89823e3d90fd5b845162461bcd60e51b81528089018890526010818501526f14185a5c881b9bdd0818dc99585d195960821b6044820152606490fd5b6117e29150883d8a116117e8575b6117da8183611af6565b81019061231c565b3861165a565b503d6117d0565b86513d8c823e3d90fd5b611811919350843d86116117e8576117da8183611af6565b913861160f565b8951903d90823e3d90fd5b61183b919450823d84116117e8576117da8183611af6565b92386115e6565b985050506060873d8211611896575b8161185e60609383611af6565b8101031261031e57865188880151978701517f7d6df569e0f84786358976a64cd2b9d072436fdd44c7eaeafc6859e69e751b5f611566565b3d9150611851565b86513d85823e3d90fd5b634e487b7160e01b8c5260118b52858cfd5b875162461bcd60e51b8152808c018b90526036818801527f5361666545524332303a20617070726f76652066726f6d206e6f6e2d7a65726f60448201527520746f206e6f6e2d7a65726f20616c6c6f77616e636560501b6064820152608490fd5b508751636eb1769f60e11b815230818d019081526001600160a01b03841660208201528b90829081906040010381885afa908115611992578d91611961575b50156114b6565b90508a81813d831161198b575b6119788183611af6565b8101031261198757513861195a565b8c80fd5b503d61196e565b89513d8f823e3d90fd5b895162461bcd60e51b8152808e018d9052600c818a01526b4e6f206c697175696469747960a01b6044820152606490fd5b508415156114ab565b9097508881813d8311611a02575b6119ee8183611af6565b810103126119fe5751963861149c565b8a80fd5b503d6119e4565b87513d8d823e3d90fd5b5162461bcd60e51b8152602081850152600d60248201526c105b1c9958591e481859191959609a1b6044820152606490fd5b5162461bcd60e51b81526020818501526012602482015271111156081c9bdd5d195c881b9bdd081cd95d60721b6044820152606490fd5b34611a99576000366003190112611a995760206040516113888152f35b600080fd5b6000546001600160a01b03163303611ab257565b606460405162461bcd60e51b815260206004820152602060248201527f4f776e61626c653a2063616c6c6572206973206e6f7420746865206f776e65726044820152fd5b90601f8019910116810190811067ffffffffffffffff821117611b1857604052565b634e487b7160e01b600052604160045260246000fd5b15611b3557565b60405162461bcd60e51b815260206004820152601260248201527110dbdb9d1c9858dd081a5cc81c185d5cd95960721b6044820152606490fd5b15611b7657565b60405162461bcd60e51b8152602060048201526011602482015270105b1c9958591e4819dc98591d585d1959607a1b6044820152606490fd5b81810292918115918404141715611bc257565b634e487b7160e01b600052601160045260246000fd5b8115611be2570490565b634e487b7160e01b600052601260045260246000fd5b91908203918211611bc257565b15611c0c57565b60405162461bcd60e51b815260206004820152601060248201526f092dce6eaccccd2c6d2cadce8408aa8960831b6044820152606490fd5b91908201809211611bc257565b600260015414611c62576002600155565b60405162461bcd60e51b815260206004820152601f60248201527f5265656e7472616e637947756172643a207265656e7472616e742063616c6c006044820152606490fd5b60405163a9059cbb60e01b60208201526001600160a01b0390921660248301526044820192909252611ce0916114ff82606481016114f1565b565b90816020910312611a9957518015158103611a995790565b60408051908101916001600160a01b031667ffffffffffffffff831182841017611b1857611d6a926040526000806020958685527f5361666545524332303a206c6f772d6c6576656c2063616c6c206661696c656487860152868151910182855af1611d64611df2565b91611e32565b805190828215928315611dda575b50505015611d835750565b6084906040519062461bcd60e51b82526004820152602a60248201527f5361666545524332303a204552433230206f7065726174696f6e20646964206e6044820152691bdd081cdd58d8d9595960b21b6064820152fd5b611dea9350820181019101611ce2565b388281611d78565b3d15611e2d573d9067ffffffffffffffff8211611b185760405191611e21601f8201601f191660200184611af6565b82523d6000602084013e565b606090565b91929015611e945750815115611e46575090565b3b15611e4f5790565b60405162461bcd60e51b815260206004820152601d60248201527f416464726573733a2063616c6c20746f206e6f6e2d636f6e74726163740000006044820152606490fd5b825190915015611ea75750805190602001fd5b6040519062461bcd60e51b82528160208060048301528251908160248401526000935b828510611eed575050604492506000838284010152601f80199101168101030190fd5b8481018201518686016044015293810193859350611eca565b15611f0d57565b60405162461bcd60e51b81526020600482015260126024820152710416d6f756e74206d757374206265203e20360741b6044820152606490fd5b6006548015611f82576008546127109182820291808304841490151715611bc257611f7191611bd8565b81811115611f7d575090565b905090565b50600090565b611fa3600454611f9d60055460075490611baf565b90611c44565b90565b8015611f8257670de0b6b3a7640000908160075404906005546004928354908160011b91808304600214901517156120c057611fe29083611baf565b908160011b91808304600214901517156120c0579061200091611c44565b918060031b9081046008036120ab5761202a61202f91611f9d6120238680611baf565b9185611baf565b6124cc565b60009290818111156120a357612046929350611bf8565b906001600160ff1b038116810361208e57906120659160011b90611bd8565b828102928184041490151715612079575090565b601190634e487b7160e01b6000525260246000fd5b601183634e487b7160e01b6000525260246000fd5b505050612065565b601184634e487b7160e01b6000525260246000fd5b601185634e487b7160e01b6000525260246000fd5b670de0b6b3a76400008091049060075404906120f381600454611baf565b6005549091906001600160ff1b0384168403611bc25761212a82611f9d61212361213095611fa39860011b611baf565b9180611baf565b90611baf565b60011c90611c44565b600754818110612168578190612159670de0b6b3a7640000928392611bf8565b0491046120f381600454611baf565b5050600090565b801561229c5761138881026113871982820401611bc25761271061219591048092611bf8565b908061221c575b50806121a55750565b600060018060a01b0390808080808686600254165af16121c3611df2565b50156121ce57505050565b8160406020927fb34171a8c0ed2c9d3b07233081b6aa6240a6e90cff3f7bfad76b07664538197b94600254168152600b84522061220c858254611c44565b90556002541692604051908152a2565b600060018060a01b0390808080808686600354165af161223a611df2565b5015612248575b505061219c565b8160406020927fb34171a8c0ed2c9d3b07233081b6aa6240a6e90cff3f7bfad76b07664538197b94600354168152600b845220612286858254611c44565b90556003541692604051908152a2388080612241565b50565b600160ff19600a541617600a557facfdce92da76539f5af2efc3aa76d42a7a92af4d723a23d144f58fdf1472921e60404760095482519182526020820152a1565b156122e757565b60405162461bcd60e51b815260206004820152600d60248201526c139bdd0819dc98591d585d1959609a1b6044820152606490fd5b90816020910312611a9957516001600160a01b0381168103611a995790565b600d546001600160a01b0390811680611f7d575080600a5460081c16908115612168576040805163c45a015560e01b815290926020918281600481855afa90811561246457839060009261246f575b5085516315ab88c960e31b81529192829060049082905afa908115612464579161240e918493600091612447575b50865163e6a4390560e01b81526001600160a01b037f0000000000000000000000000000000000000000000000000000000000000000881681166004830152909116602482015294859283919082906044820190565b0392165afa92831561243d575060009261242757505090565b611fa39250803d106117e8576117da8183611af6565b513d6000823e3d90fd5b61245e9150843d86116117e8576117da8183611af6565b386123b8565b85513d6000823e3d90fd5b6004925061248990823d84116117e8576117da8183611af6565b9161238a565b1561249657565b60405162461bcd60e51b815260206004820152600e60248201526d135d5cdd081899481c185d5cd95960921b6044820152606490fd5b8015611f82576001808201808311611bc257811c90825b8383106124f05750505090565b90919250612507836125028184611bd8565b611c44565b821c91906124e356fea26469706673582212205d0e147b7622b5e5846cbb5361929295e02faf1988192af22e83d7c4fc6345ff64736f6c63430008140033604060c081523462000564576200193f803803806200001e8162000569565b928339810160c082820312620005645781516001600160401b03908181116200056457826200004f9185016200058f565b90602092838501519082821162000564576200006d9186016200058f565b918585015194620000816060820162000601565b60a0620000916080840162000601565b92015192805194808611620004615760038054966001938489811c9916801562000559575b8b8a1014620005435781908b601f9a8b8111620004ea575b50508b908a8311600114620004835760009262000477575b505060001982841b1c191690841b1781555b8751918211620004615760049788548481811c9116801562000456575b8b8210146200044157888111620003f6575b50899088841160011462000389579383949184926000956200037d575b50501b92600019911b1c19161785555b6005549160018060a01b0319913383851617600555895160018060a01b0394853391167f8be0079c531659141344cd1fd0a4f28419497f9722a3daafe3b4186f6b6457e0600080a3891562000347575083169283156200030457811615620002cf578760805260a05260065416176006558060075562ed4e008101809111620002ba5760085533156200027b5750600254908382018092116200026657506000917fddf252ad1be2c89b69c2b068fc378daa952ba7f163c4a11628f55a4df523b3ef9160025533835282815284832084815401905584519384523393a3516113289081620006178239608051816103b5015260a05181818161065d0152818161078701528181610e6701526110780152f35b601190634e487b7160e01b6000525260246000fd5b60649285519262461bcd60e51b845283015260248201527f45524332303a206d696e7420746f20746865207a65726f2061646472657373006044820152fd5b601183634e487b7160e01b6000525260246000fd5b885162461bcd60e51b8152808701889052600f60248201526e24b73b30b634b21031b932b0ba37b960891b6044820152606490fd5b895162461bcd60e51b8152808801899052601760248201527f496e76616c696420706c6174666f726d2077616c6c65740000000000000000006044820152606490fd5b62461bcd60e51b815287810189905260126024820152710537570706c79206d757374206265203e20360741b6044820152606490fd5b01519350388062000144565b9190601f198416928a600052848c600020948d6000905b89838310620003dd5750505010620003c2575b50505050811b01855562000154565b01519060f884600019921b161c1916905538808080620003b3565b8686015189559097019694850194889350018e620003a0565b896000528a6000208980860160051c8201928d871062000437575b0160051c019085905b8281106200042a57505062000127565b600081550185906200041a565b9250819262000411565b60228a634e487b7160e01b6000525260246000fd5b90607f169062000115565b634e487b7160e01b600052604160045260246000fd5b015190503880620000e6565b60008581528d8120889550929190601f198516908f5b828210620004d25750508411620004b9575b505050811b018155620000f8565b015160001983861b60f8161c19169055388080620004ab565b8385015186558a979095019493840193018f62000499565b90919250846000528a826000209181860160051c830193861062000539575b918891869594930160051c01915b8281106200052957508d9150620000ce565b6000815585945088910162000517565b9250819262000509565b634e487b7160e01b600052602260045260246000fd5b98607f1698620000b6565b600080fd5b6040519190601f01601f191682016001600160401b038111838210176200046157604052565b919080601f84011215620005645782516001600160401b0381116200046157602090620005c5601f8201601f1916830162000569565b92818452828287010111620005645760005b818110620005ed57508260009394955001015290565b8581018301518482018401528201620005d7565b51906001600160a01b0382168203620005645756fe608060408181526004918236101561001657600080fd5b600092833560e01c91826302d05d3f14610e535750816306fdde0314610d79578163095ea7b314610d4f578163158ef93e14610d2b57816318160ddd14610d0c57816323b872dd14610c42578163313ce56714610c265781633150344a14610c0a5781633950935114610ba357816342966c68146109e35781634cfc4d30146109c5578163554bb2b0146109a357816358e5c3fb146109875781636f293d591461096b57816370a0823114610934578163715018a6146108d757816373346abc146108495781638611f0151461080b578163882c17e9146107555781638831e9cf146106185781638da5cb5b146105ef57816395d89b41146104d0578163a457c2d714610428578163a9059cbb146103f7578163d207b672146103d8578163d5abeb011461039d578163dd62ed3e14610354578163e46e46df14610330578163f2c5c06d1461029e578163f2fde38b146101ce57508063f8eeed62146101b05763fa2af9da1461018557600080fd5b346101ac57816003193601126101ac5760065490516001600160a01b039091168152602090f35b5080fd5b50346101ac57816003193601126101ac576020906007549051908152f35b90503461029a57602036600319011261029a576101e9610edf565b906101f2610f10565b6001600160a01b03918216928315610248575050600554826bffffffffffffffffffffffff60a01b821617600555167f8be0079c531659141344cd1fd0a4f28419497f9722a3daafe3b4186f6b6457e08380a380f35b906020608492519162461bcd60e51b8352820152602660248201527f4f776e61626c653a206e6577206f776e657220697320746865207a65726f206160448201526564647265737360d01b6064820152fd5b8280fd5b90503461029a57602036600319011261029a576102b9610edf565b906102c2610f10565b6006546001600160a01b03928316921682146102ed5750825260096020528120805460ff1916905580f35b606490602084519162461bcd60e51b8352820152602060248201527f43616e6e6f742072656d6f766520706c6174666f726d206578656d7074696f6e6044820152fd5b5050346101ac57816003193601126101ac5760209061034d611280565b9051908152f35b5050346101ac57806003193601126101ac5780602092610372610edf565b61037a610efa565b6001600160a01b0391821683526001865283832091168252845220549051908152f35b5050346101ac57816003193601126101ac57602090517f00000000000000000000000000000000000000000000000000000000000000008152f35b5050346101ac57816003193601126101ac576020906008549051908152f35b5050346101ac57806003193601126101ac57602090610421610417610edf565b602435903361106a565b5160018152f35b905082346104cd57826003193601126104cd57610443610edf565b918360243592338152600160205281812060018060a01b038616825260205220549082821061047c576020856104218585038733610f68565b608490602086519162461bcd60e51b8352820152602560248201527f45524332303a2064656372656173656420616c6c6f77616e63652062656c6f77604482015264207a65726f60d81b6064820152fd5b80fd5b8383346101ac57816003193601126101ac57805190828454600181811c908083169283156105e5575b60209384841081146105d2578388529081156105b65750600114610561575b505050829003601f01601f191682019267ffffffffffffffff84118385101761054e575082918261054a925282610e96565b0390f35b634e487b7160e01b815260418552602490fd5b8787529192508591837f8a35acfbc15ff81a39ae7d344fd709f28e8600b4aa8c65c6b64bfe7fe36bd19b5b8385106105a25750505050830101858080610518565b80548886018301529301928490820161058c565b60ff1916878501525050151560051b8401019050858080610518565b634e487b7160e01b895260228a52602489fd5b91607f16916104f9565b5050346101ac57816003193601126101ac5760055490516001600160a01b039091168152602090f35b9190503461029a57602036600319011261029a57610634610edf565b6006546001600160a01b039384821693923385900361071b5785169461065b8615156112b4565b7f00000000000000000000000000000000000000000000000000000000000000001685146106e057506001600160a01b03191683176006558184526009602052808420805460ff19908116909155838552908420805490911660011790557ff84f6b525c89a18c80bbbc0c62a7eb5390956d6b8432ab067b49963a98f8c38f8380a380f35b606490602084519162461bcd60e51b8352820152601560248201527421b0b73737ba1039b2ba103a379031b932b0ba37b960591b6044820152fd5b835162461bcd60e51b8152602081840152601460248201527313db9b1e481c1b185d199bdc9b481dd85b1b195d60621b6044820152606490fd5b90503461029a57602036600319011261029a57610770610edf565b90610779610f10565b6001600160a01b03918216917f00000000000000000000000000000000000000000000000000000000000000001682146107d057506107b98115156112b4565b825260096020528120805460ff1916600117905580f35b606490602084519162461bcd60e51b8352820152601560248201527421b0b73737ba1032bc32b6b83a1031b932b0ba37b960591b6044820152fd5b5050346101ac5760203660031901126101ac5760209160ff9082906001600160a01b03610836610edf565b1681526009855220541690519015158152f35b9190503461029a578260031936011261029a57610864610f10565b600a549160ff831661089f5750600160ff199283168117600a556006546001600160a01b031684526009602052908320805490921617905580f35b6020606492519162461bcd60e51b83528201526013602482015272105b1c9958591e481a5b9a5d1a585b1a5e9959606a1b6044820152fd5b83346104cd57806003193601126104cd576108f0610f10565b600580546001600160a01b0319811690915581906001600160a01b03167f8be0079c531659141344cd1fd0a4f28419497f9722a3daafe3b4186f6b6457e08280a380f35b5050346101ac5760203660031901126101ac5760209181906001600160a01b0361095c610edf565b16815280845220549051908152f35b5050346101ac57816003193601126101ac576020905160508152f35b5050346101ac57816003193601126101ac5760209051600f8152f35b5050346101ac57816003193601126101ac576020906008544210159051908152f35b5050346101ac57816003193601126101ac576020905162ed4e008152f35b9190503461029a5760209081600319360112610b9f578235928315610b6957338552848352838286205410610b31573315610ae6573385528483528185205490848210610a98575090837ffd38818f5291bf0bb3a2a48aadc06ba8757865d1dabd804585338aab3009dcb69392338752868452038186205583600254036002558481518581527fddf252ad1be2c89b69c2b068fc378daa952ba7f163c4a11628f55a4df523b3ef843392a3519283523392a280f35b825162461bcd60e51b8152908101849052602260248201527f45524332303a206275726e20616d6f756e7420657863656564732062616c616e604482015261636560f01b6064820152608490fd5b82608492519162461bcd60e51b8352820152602160248201527f45524332303a206275726e2066726f6d20746865207a65726f206164647265736044820152607360f81b6064820152fd5b82606492519162461bcd60e51b83528201526014602482015273496e73756666696369656e742062616c616e636560601b6044820152fd5b82606492519162461bcd60e51b835282015260126024820152710416d6f756e74206d757374206265203e20360741b6044820152fd5b8380fd5b8284346104cd57816003193601126104cd57610bbd610edf565b338252600160209081528383206001600160a01b0383168452905282822054602435810192908310610bf757602084610421858533610f68565b634e487b7160e01b815260118552602490fd5b5050346101ac57816003193601126101ac576020905160058152f35b5050346101ac57816003193601126101ac576020905160128152f35b839150346101ac5760603660031901126101ac57610c5e610edf565b610c66610efa565b91846044359460018060a01b038416815260016020528181203382526020522054906000198203610ca0575b60208661042187878761106a565b848210610cc95750918391610cbe6020969561042195033383610f68565b919394819350610c92565b606490602087519162461bcd60e51b8352820152601d60248201527f45524332303a20696e73756666696369656e7420616c6c6f77616e63650000006044820152fd5b5050346101ac57816003193601126101ac576020906002549051908152f35b5050346101ac57816003193601126101ac5760209060ff600a541690519015158152f35b5050346101ac57806003193601126101ac57602090610421610d6f610edf565b6024359033610f68565b8383346101ac57816003193601126101ac5780519082600354600181811c90808316928315610e49575b60209384841081146105d2578388529081156105b65750600114610df357505050829003601f01601f191682019267ffffffffffffffff84118385101761054e575082918261054a925282610e96565b600387529192508591837fc2575a0e9e593c00f959f8c92f12db2869c3395a3b0502d05e2516446f71f85b5b838510610e355750505050830101858080610518565b805488860183015293019284908201610e1f565b91607f1691610da3565b8490346101ac57816003193601126101ac577f00000000000000000000000000000000000000000000000000000000000000006001600160a01b03168152602090f35b6020808252825181830181905290939260005b828110610ecb57505060409293506000838284010152601f8019910116010190565b818101860151848201604001528501610ea9565b600435906001600160a01b0382168203610ef557565b600080fd5b602435906001600160a01b0382168203610ef557565b6005546001600160a01b03163303610f2457565b606460405162461bcd60e51b815260206004820152602060248201527f4f776e61626c653a2063616c6c6572206973206e6f7420746865206f776e65726044820152fd5b6001600160a01b039081169182156110195716918215610fc95760207f8c5be1e5ebec7d5bd14f71427d1e84f3dd0314c0f7b2291e5b200ac8c7c3b925918360005260018252604060002085600052825280604060002055604051908152a3565b60405162461bcd60e51b815260206004820152602260248201527f45524332303a20617070726f766520746f20746865207a65726f206164647265604482015261737360f01b6064820152608490fd5b60405162461bcd60e51b8152602060048201526024808201527f45524332303a20617070726f76652066726f6d20746865207a65726f206164646044820152637265737360e01b6064820152608490fd5b6001600160a01b03908116917f00000000000000000000000000000000000000000000000000000000000000008216831480611267575b611208575b82156111b557169182156111645760008281528060205260408120549180831061111057604082827fddf252ad1be2c89b69c2b068fc378daa952ba7f163c4a11628f55a4df523b3ef958760209652828652038282205586815220818154019055604051908152a3565b60405162461bcd60e51b815260206004820152602660248201527f45524332303a207472616e7366657220616d6f756e7420657863656564732062604482015265616c616e636560d01b6064820152608490fd5b60405162461bcd60e51b815260206004820152602360248201527f45524332303a207472616e7366657220746f20746865207a65726f206164647260448201526265737360e81b6064820152608490fd5b60405162461bcd60e51b815260206004820152602560248201527f45524332303a207472616e736665722066726f6d20746865207a65726f206164604482015264647265737360d81b6064820152608490fd5b6008544210156110a65760405162461bcd60e51b815260206004820152602760248201527f43726561746f7220746f6b656e73206c6f636b656420756e74696c20756e6c6f604482015266636b206461746560c81b6064820152608490fd5b5082600052600960205260ff60406000205416156110a1565b600854804210156112ae574281039081116112985790565b634e487b7160e01b600052601160045260246000fd5b50600090565b156112bb57565b60405162461bcd60e51b815260206004820152600f60248201526e496e76616c6964206164647265737360881b6044820152606490fdfea2646970667358221220584f7980b773e5e380c2d4700d05a3f352fa319f8801f12225cef79d58a3b22f64736f6c63430008140033a2646970667358221220c44ca15d484a2d5a74c5edc8c28f24e142d43a78685f961eedd5023167559be264736f6c63430008140033","opcodes":"PUSH1 0x80 CALLVALUE PUSH3 0x11B JUMPI PUSH1 0x1F PUSH3 0x5D1E CODESIZE DUP2 SWAP1 SUB SWAP2 DUP3 ADD PUSH1 0x1F NOT AND DUP4 ADD SWAP2 PUSH1 0x1 PUSH1 0x1 PUSH1 0x40 SHL SUB DUP4 GT DUP5 DUP5 LT OR PUSH3 0x120 JUMPI DUP1 DUP5 SWAP3 PUSH1 0x40 SWAP5 DUP6 MSTORE DUP4 CODECOPY DUP2 ADD SUB SLT PUSH3 0x11B JUMPI PUSH3 0x5A PUSH1 0x20 PUSH3 0x52 DUP4 PUSH3 0x136 JUMP JUMPDEST SWAP3 ADD PUSH3 0x136 JUMP JUMPDEST PUSH1 0x0 DUP1 SLOAD CALLER PUSH1 0x1 PUSH1 0x1 PUSH1 0xA0 SHL SUB NOT DUP1 DUP4 AND DUP3 OR DUP5 SSTORE PUSH1 0x40 MLOAD SWAP1 SWAP6 PUSH1 0x1 PUSH1 0x1 PUSH1 0xA0 SHL SUB SWAP6 SWAP5 SWAP2 SWAP4 DUP7 SWAP4 SWAP2 SWAP3 SWAP1 DUP5 AND SWAP1 PUSH32 0x8BE0079C531659141344CD1FD0A4F28419497F9722A3DAAFE3B4186F6B6457E0 SWAP1 DUP1 LOG3 AND SWAP1 DUP2 ISZERO PUSH3 0xD9 JUMPI POP DUP4 PUSH1 0x1 SLOAD AND OR PUSH1 0x1 SSTORE AND SWAP1 PUSH1 0x2 SLOAD AND OR PUSH1 0x2 SSTORE PUSH1 0x40 MLOAD PUSH2 0x5BD2 SWAP1 DUP2 PUSH3 0x14C DUP3 CODECOPY RETURN JUMPDEST PUSH3 0x461BCD PUSH1 0xE5 SHL DUP2 MSTORE PUSH1 0x20 PUSH1 0x4 DUP3 ADD MSTORE PUSH1 0x17 PUSH1 0x24 DUP3 ADD MSTORE PUSH32 0x496E76616C696420706C6174666F726D2077616C6C6574000000000000000000 PUSH1 0x44 DUP3 ADD MSTORE PUSH1 0x64 SWAP1 REVERT JUMPDEST PUSH1 0x0 DUP1 REVERT JUMPDEST PUSH4 0x4E487B71 PUSH1 0xE0 SHL PUSH1 0x0 MSTORE PUSH1 0x41 PUSH1 0x4 MSTORE PUSH1 0x24 PUSH1 0x0 REVERT JUMPDEST MLOAD SWAP1 PUSH1 0x1 PUSH1 0x1 PUSH1 0xA0 SHL SUB DUP3 AND DUP3 SUB PUSH3 0x11B JUMPI JUMP INVALID PUSH1 0x80 DUP1 PUSH1 0x40 MSTORE PUSH1 0x4 CALLDATASIZE LT ISZERO PUSH3 0x14 JUMPI PUSH1 0x0 DUP1 REVERT JUMPDEST PUSH1 0x0 SWAP1 DUP2 CALLDATALOAD PUSH1 0xE0 SHR SWAP1 DUP2 PUSH4 0x758D924 EQ PUSH3 0x1466 JUMPI POP DUP1 PUSH4 0x1A60BE57 EQ PUSH3 0x1448 JUMPI DUP1 PUSH4 0x1F2D8550 EQ PUSH3 0x1366 JUMPI DUP1 PUSH4 0x35917C64 EQ PUSH3 0x1347 JUMPI DUP1 PUSH4 0x40AB1873 EQ PUSH3 0x1213 JUMPI DUP1 PUSH4 0x41D6E9D3 EQ PUSH3 0x11CA JUMPI DUP1 PUSH4 0x422551BB EQ PUSH3 0x1199 JUMPI DUP1 PUSH4 0x5C975ABB EQ PUSH3 0x1171 JUMPI DUP1 PUSH4 0x5D7587AF EQ PUSH3 0x110F JUMPI DUP1 PUSH4 0x6B3A98F4 EQ PUSH3 0x108E JUMPI DUP1 PUSH4 0x715018A6 EQ PUSH3 0x1030 JUMPI DUP1 PUSH4 0x78ABA8EA EQ PUSH3 0x1012 JUMPI DUP1 PUSH4 0x8831E9CF EQ PUSH3 0xF63 JUMPI DUP1 PUSH4 0x8DA5CB5B EQ PUSH3 0xF3A JUMPI DUP1 PUSH4 0x947DF097 EQ PUSH3 0x35A JUMPI DUP1 PUSH4 0x9F1C2D88 EQ PUSH3 0x336 JUMPI DUP1 PUSH4 0x9FF0251F EQ PUSH3 0x316 JUMPI DUP1 PUSH4 0xC4AE3168 EQ PUSH3 0x2A3 JUMPI DUP1 PUSH4 0xCF7734C5 EQ PUSH3 0x26A JUMPI DUP1 PUSH4 0xF2FDE38B EQ PUSH3 0x19D JUMPI DUP1 PUSH4 0xF72F863B EQ PUSH3 0x157 JUMPI PUSH4 0xFA2AF9DA EQ PUSH3 0x12A JUMPI PUSH1 0x0 DUP1 REVERT JUMPDEST CALLVALUE PUSH3 0x154 JUMPI DUP1 PUSH1 0x3 NOT CALLDATASIZE ADD SLT PUSH3 0x154 JUMPI PUSH1 0x1 SLOAD PUSH1 0x40 MLOAD PUSH1 0x1 PUSH1 0x1 PUSH1 0xA0 SHL SUB SWAP1 SWAP2 AND DUP2 MSTORE PUSH1 0x20 SWAP1 RETURN JUMPDEST DUP1 REVERT JUMPDEST POP CALLVALUE PUSH3 0x154 JUMPI PUSH1 0x20 CALLDATASIZE PUSH1 0x3 NOT ADD SLT PUSH3 0x154 JUMPI PUSH3 0x175 PUSH3 0x148D JUMP JUMPDEST PUSH3 0x17F PUSH3 0x173E JUMP JUMPDEST PUSH1 0x1 DUP1 PUSH1 0xA0 SHL SUB AND PUSH1 0x1 PUSH1 0x1 PUSH1 0x60 SHL SUB PUSH1 0xA0 SHL PUSH1 0x2 SLOAD AND OR PUSH1 0x2 SSTORE DUP1 RETURN JUMPDEST POP CALLVALUE PUSH3 0x154 JUMPI PUSH1 0x20 CALLDATASIZE PUSH1 0x3 NOT ADD SLT PUSH3 0x154 JUMPI PUSH3 0x1BB PUSH3 0x148D JUMP JUMPDEST PUSH3 0x1C5 PUSH3 0x173E JUMP JUMPDEST PUSH1 0x1 PUSH1 0x1 PUSH1 0xA0 SHL SUB SWAP1 DUP2 AND SWAP1 DUP2 ISZERO PUSH3 0x216 JUMPI PUSH1 0x0 SLOAD DUP3 PUSH1 0x1 PUSH1 0x1 PUSH1 0x60 SHL SUB PUSH1 0xA0 SHL DUP3 AND OR PUSH1 0x0 SSTORE AND PUSH32 0x8BE0079C531659141344CD1FD0A4F28419497F9722A3DAAFE3B4186F6B6457E0 PUSH1 0x0 DUP1 LOG3 DUP1 RETURN JUMPDEST PUSH1 0x40 MLOAD PUSH3 0x461BCD PUSH1 0xE5 SHL DUP2 MSTORE PUSH1 0x20 PUSH1 0x4 DUP3 ADD MSTORE PUSH1 0x26 PUSH1 0x24 DUP3 ADD MSTORE PUSH32 0x4F776E61626C653A206E6577206F776E657220697320746865207A65726F2061 PUSH1 0x44 DUP3 ADD MSTORE PUSH6 0x646472657373 PUSH1 0xD0 SHL PUSH1 0x64 DUP3 ADD MSTORE PUSH1 0x84 SWAP1 REVERT JUMPDEST POP CALLVALUE PUSH3 0x154 JUMPI PUSH1 0x40 CALLDATASIZE PUSH1 0x3 NOT ADD SLT PUSH3 0x154 JUMPI PUSH3 0x29F PUSH3 0x292 PUSH1 0x24 CALLDATALOAD PUSH1 0x4 CALLDATALOAD PUSH3 0x18CF JUMP JUMPDEST PUSH1 0x40 MLOAD SWAP2 DUP3 SWAP2 DUP3 PUSH3 0x16F8 JUMP JUMPDEST SUB SWAP1 RETURN JUMPDEST POP CALLVALUE PUSH3 0x154 JUMPI DUP1 PUSH1 0x3 NOT CALLDATASIZE ADD SLT PUSH3 0x154 JUMPI PUSH3 0x2C0 PUSH3 0x173E JUMP JUMPDEST PUSH32 0x9077D36BC00859B5C3F320310707208543DD35092CB0A0FE117D0C6A558B148B PUSH1 0x20 PUSH1 0x2 SLOAD PUSH1 0xFF PUSH1 0xA0 SHL PUSH1 0xFF DUP3 PUSH1 0xA0 SHR AND ISZERO PUSH1 0xA0 SHL AND SWAP1 PUSH1 0xFF PUSH1 0xA0 SHL NOT AND OR DUP1 PUSH1 0x2 SSTORE PUSH1 0xFF PUSH1 0x40 MLOAD SWAP2 PUSH1 0xA0 SHR AND ISZERO ISZERO DUP2 MSTORE LOG1 DUP1 RETURN JUMPDEST POP CALLVALUE PUSH3 0x154 JUMPI DUP1 PUSH1 0x3 NOT CALLDATASIZE ADD SLT PUSH3 0x154 JUMPI PUSH1 0x20 PUSH1 0x4 SLOAD PUSH1 0x40 MLOAD SWAP1 DUP2 MSTORE RETURN JUMPDEST POP CALLVALUE PUSH3 0x154 JUMPI DUP1 PUSH1 0x3 NOT CALLDATASIZE ADD SLT PUSH3 0x154 JUMPI PUSH1 0x20 PUSH1 0x40 MLOAD PUSH7 0x2386F26FC10000 DUP2 MSTORE RETURN JUMPDEST POP CALLVALUE PUSH3 0x154 JUMPI PUSH2 0x100 CALLDATASIZE PUSH1 0x3 NOT ADD SLT PUSH3 0x154 JUMPI PUSH1 0x4 CALLDATALOAD PUSH1 0x1 PUSH1 0x1 PUSH1 0x40 SHL SUB DUP2 GT PUSH3 0xC39 JUMPI PUSH3 0x391 SWAP1 CALLDATASIZE SWAP1 PUSH1 0x4 ADD PUSH3 0x1636 JUMP JUMPDEST PUSH1 0x24 CALLDATALOAD PUSH1 0x1 PUSH1 0x1 PUSH1 0x40 SHL SUB DUP2 GT PUSH3 0xF36 JUMPI PUSH3 0x3B3 SWAP1 CALLDATASIZE SWAP1 PUSH1 0x4 ADD PUSH3 0x1636 JUMP JUMPDEST SWAP2 PUSH1 0xFF PUSH1 0x2 SLOAD PUSH1 0xA0 SHR AND PUSH3 0xEFC JUMPI DUP2 MLOAD DUP1 ISZERO ISZERO SWAP1 DUP2 PUSH3 0xEEF JUMPI JUMPDEST POP ISZERO PUSH3 0xEBB JUMPI DUP3 MLOAD DUP1 ISZERO ISZERO SWAP1 DUP2 PUSH3 0xEAE JUMPI JUMPDEST POP ISZERO PUSH3 0xE78 JUMPI PUSH2 0x3E8 PUSH1 0x44 CALLDATALOAD LT PUSH3 0xE42 JUMPI PUSH1 0x1 PUSH1 0x64 CALLDATALOAD LT PUSH3 0xE08 JUMPI PUSH1 0x84 CALLDATALOAD ISZERO PUSH3 0xDCF JUMPI PUSH7 0x2386F26FC10000 PUSH1 0xA4 CALLDATALOAD LT PUSH3 0xD91 JUMPI TIMESTAMP PUSH1 0xE4 CALLDATALOAD GT ISZERO PUSH3 0xD42 JUMPI PUSH1 0xC4 CALLDATALOAD DUP2 MSTORE PUSH1 0x6 PUSH1 0x20 MSTORE PUSH1 0xFF PUSH1 0x40 DUP3 KECCAK256 SLOAD AND PUSH3 0xD09 JUMPI CALLER DUP2 MSTORE PUSH1 0x5 PUSH1 0x20 MSTORE PUSH1 0xA PUSH1 0x40 DUP3 KECCAK256 SLOAD LT ISZERO PUSH3 0xCD0 JUMPI PUSH1 0xC4 CALLDATALOAD DUP2 MSTORE PUSH1 0x6 PUSH1 0x20 MSTORE PUSH1 0x40 DUP2 KECCAK256 PUSH1 0x1 PUSH1 0xFF NOT DUP3 SLOAD AND OR SWAP1 SSTORE PUSH1 0x40 MLOAD PUSH1 0x20 DUP2 ADD SWAP1 PUSH1 0xC4 CALLDATALOAD DUP3 MSTORE PUSH5 0x3A37B5B2B7 PUSH1 0xD9 SHL PUSH1 0x40 DUP3 ADD MSTORE PUSH1 0x25 DUP2 MSTORE PUSH3 0x496 DUP2 PUSH3 0x14FA JUMP JUMPDEST MLOAD SWAP1 KECCAK256 SWAP2 PUSH1 0x40 MLOAD PUSH1 0x20 DUP2 ADD SWAP1 PUSH1 0xC4 CALLDATALOAD DUP3 MSTORE PUSH5 0x6375727665 PUSH1 0xD8 SHL PUSH1 0x40 DUP3 ADD MSTORE PUSH1 0x25 DUP2 MSTORE PUSH3 0x4C4 DUP2 PUSH3 0x14FA JUMP JUMPDEST MLOAD SWAP1 KECCAK256 SWAP3 PUSH3 0x57B PUSH3 0x55F PUSH3 0x56C PUSH1 0x20 PUSH2 0x193F PUSH1 0x40 MLOAD SWAP1 PUSH3 0x4EB DUP4 DUP3 ADD DUP4 PUSH3 0x1516 JUMP JUMPDEST DUP1 DUP3 MSTORE PUSH3 0x425E DUP4 DUP4 ADD CODECOPY PUSH1 0x1 DUP1 PUSH1 0xA0 SHL SUB PUSH1 0x1 SLOAD AND DUP8 PUSH3 0x535 DUP13 PUSH3 0x526 PUSH1 0x40 MLOAD SWAP4 DUP5 SWAP3 DUP9 DUP5 ADD SWAP7 PUSH1 0xE4 CALLDATALOAD SWAP3 CALLER SWAP3 PUSH1 0x44 CALLDATALOAD SWAP2 DUP11 PUSH3 0x1797 JUMP JUMPDEST SUB PUSH1 0x1F NOT DUP2 ADD DUP4 MSTORE DUP3 PUSH3 0x1516 JUMP JUMPDEST PUSH1 0x40 MLOAD SWAP6 DUP4 PUSH3 0x54F DUP9 SWAP6 MLOAD DUP1 SWAP3 DUP9 DUP1 DUP10 ADD SWAP2 ADD PUSH3 0x15EA JUMP JUMPDEST DUP5 ADD SWAP2 MLOAD DUP1 SWAP4 DUP7 DUP5 ADD SWAP1 PUSH3 0x15EA JUMP JUMPDEST ADD SUB DUP1 DUP5 MSTORE ADD DUP3 PUSH3 0x1516 JUMP JUMPDEST PUSH1 0x1 PUSH1 0x1 PUSH1 0xA0 SHL SUB SWAP3 PUSH3 0x17E5 JUMP JUMPDEST AND SWAP3 DUP4 ISZERO PUSH3 0xC95 JUMPI PUSH1 0x40 MLOAD SWAP1 PUSH3 0x599 PUSH1 0x20 PUSH2 0x283E ADD DUP4 PUSH3 0x1516 JUMP JUMPDEST PUSH2 0x283E DUP3 MSTORE PUSH2 0x283E PUSH3 0x1A20 PUSH1 0x20 DUP5 ADD CODECOPY PUSH1 0x1 DUP1 PUSH1 0xA0 SHL SUB PUSH1 0x1 SLOAD AND SWAP2 PUSH1 0x1 DUP1 PUSH1 0xA0 SHL SUB PUSH1 0x2 SLOAD AND PUSH1 0x40 MLOAD SWAP4 DUP8 PUSH1 0x20 DUP7 ADD MSTORE PUSH1 0x40 DUP6 ADD MSTORE CALLER PUSH1 0x60 DUP6 ADD MSTORE PUSH1 0x64 CALLDATALOAD PUSH1 0x80 DUP6 ADD MSTORE PUSH1 0x84 CALLDATALOAD PUSH1 0xA0 DUP6 ADD MSTORE PUSH1 0xA4 CALLDATALOAD PUSH1 0xC0 DUP6 ADD MSTORE PUSH1 0xE0 DUP5 ADD MSTORE PUSH1 0xE0 DUP4 MSTORE DUP3 PUSH2 0x100 DUP2 ADD LT PUSH1 0x1 PUSH1 0x1 PUSH1 0x40 SHL SUB PUSH2 0x100 DUP6 ADD GT OR PUSH3 0xAE5 JUMPI SWAP1 PUSH3 0x66A PUSH1 0x20 DUP5 PUSH3 0x67E SWAP5 PUSH2 0x100 DUP3 ADD PUSH1 0x40 MSTORE PUSH3 0x63D DUP2 MLOAD DUP1 SWAP3 DUP6 PUSH2 0x120 DUP7 ADD SWAP2 ADD PUSH3 0x15EA JUMP JUMPDEST DUP2 ADD DUP2 MLOAD SWAP1 PUSH3 0x655 DUP3 PUSH2 0x120 DUP4 ADD DUP7 DUP7 ADD PUSH3 0x15EA JUMP JUMPDEST ADD SUB DUP1 PUSH2 0x100 DUP8 ADD MSTORE ADD PUSH2 0x100 DUP6 ADD PUSH3 0x1516 JUMP JUMPDEST PUSH1 0x1 PUSH1 0x1 PUSH1 0xA0 SHL SUB SWAP3 PUSH2 0x100 ADD SWAP1 PUSH3 0x17E5 JUMP JUMPDEST AND SWAP2 DUP3 ISZERO PUSH3 0xC5A JUMPI PUSH1 0x44 CALLDATALOAD PUSH1 0x50 PUSH1 0x44 CALLDATALOAD MUL DIV PUSH1 0x50 EQ PUSH1 0x44 CALLDATALOAD ISZERO OR ISZERO PUSH3 0xC46 JUMPI PUSH1 0x40 MLOAD PUSH4 0xA9059CBB PUSH1 0xE0 SHL DUP2 MSTORE DUP4 PUSH1 0x4 DUP3 ADD MSTORE PUSH1 0x64 PUSH1 0x50 PUSH1 0x44 CALLDATALOAD MUL DIV PUSH1 0x24 DUP3 ADD MSTORE PUSH1 0x20 DUP2 PUSH1 0x44 DUP2 DUP6 DUP10 GAS CALL DUP1 ISZERO PUSH3 0xBE6 JUMPI PUSH3 0xC03 JUMPI JUMPDEST POP DUP3 EXTCODESIZE ISZERO PUSH3 0x154 JUMPI PUSH1 0x40 MLOAD PUSH4 0x204A7F07 PUSH1 0xE2 SHL DUP2 MSTORE DUP2 DUP2 PUSH1 0x4 DUP2 DUP4 DUP9 GAS CALL DUP1 ISZERO PUSH3 0xBE6 JUMPI PUSH3 0xBF1 JUMPI JUMPDEST POP DUP4 EXTCODESIZE ISZERO PUSH3 0x154 JUMPI PUSH1 0x40 MLOAD PUSH4 0xF2FDE38B PUSH1 0xE0 SHL DUP2 MSTORE CALLER PUSH1 0x4 DUP3 ADD MSTORE DUP2 DUP2 PUSH1 0x24 DUP2 DUP4 DUP10 GAS CALL DUP1 ISZERO PUSH3 0xBE6 JUMPI SWAP1 DUP3 SWAP2 PUSH3 0xBCE JUMPI JUMPDEST POP POP PUSH1 0x40 MLOAD DUP1 PUSH2 0x140 DUP2 ADD LT PUSH1 0x1 PUSH1 0x1 PUSH1 0x40 SHL SUB PUSH2 0x140 DUP4 ADD GT OR PUSH3 0xA02 JUMPI PUSH2 0x140 DUP2 ADD PUSH1 0x40 MSTORE DUP5 DUP2 MSTORE DUP4 PUSH1 0x20 DUP3 ADD MSTORE CALLER PUSH1 0x40 DUP3 ADD MSTORE DUP3 PUSH1 0x60 DUP3 ADD MSTORE DUP6 PUSH1 0x80 DUP3 ADD MSTORE PUSH1 0x44 CALLDATALOAD PUSH1 0xA0 DUP3 ADD MSTORE PUSH1 0x64 CALLDATALOAD PUSH1 0xC0 DUP3 ADD MSTORE PUSH1 0xA4 CALLDATALOAD PUSH1 0xE0 DUP3 ADD MSTORE TIMESTAMP PUSH2 0x100 DUP3 ADD MSTORE PUSH1 0x1 PUSH2 0x120 DUP3 ADD MSTORE DUP5 DUP3 MSTORE PUSH1 0x3 PUSH1 0x20 MSTORE PUSH1 0x40 DUP3 KECCAK256 PUSH1 0x1 DUP1 PUSH1 0xA0 SHL SUB DUP3 MLOAD AND PUSH1 0x1 PUSH1 0x1 PUSH1 0x60 SHL SUB PUSH1 0xA0 SHL SWAP1 DUP2 DUP4 SLOAD AND OR DUP3 SSTORE PUSH1 0x1 DUP3 ADD PUSH1 0x1 DUP1 PUSH1 0xA0 SHL SUB PUSH1 0x20 DUP6 ADD MLOAD AND DUP3 DUP3 SLOAD AND OR SWAP1 SSTORE PUSH1 0x2 DUP3 ADD SWAP1 PUSH1 0x1 DUP1 PUSH1 0xA0 SHL SUB PUSH1 0x40 DUP6 ADD MLOAD AND SWAP1 DUP3 SLOAD AND OR SWAP1 SSTORE PUSH1 0x60 DUP3 ADD MLOAD DUP1 MLOAD SWAP1 PUSH1 0x1 PUSH1 0x1 PUSH1 0x40 SHL SUB DUP3 GT PUSH3 0xAE5 JUMPI DUP2 SWAP1 PUSH3 0x824 PUSH1 0x3 DUP6 ADD SLOAD PUSH3 0x14A9 JUMP JUMPDEST PUSH1 0x1F DUP2 GT PUSH3 0xB79 JUMPI JUMPDEST POP PUSH1 0x20 SWAP1 PUSH1 0x1F DUP4 GT PUSH1 0x1 EQ PUSH3 0xB05 JUMPI DUP7 SWAP3 PUSH3 0xAF9 JUMPI JUMPDEST POP POP DUP2 PUSH1 0x1 SHL SWAP2 PUSH1 0x0 NOT SWAP1 PUSH1 0x3 SHL SHR NOT AND OR PUSH1 0x3 DUP3 ADD SSTORE JUMPDEST PUSH1 0x80 DUP3 ADD MLOAD DUP1 MLOAD SWAP1 PUSH1 0x1 PUSH1 0x1 PUSH1 0x40 SHL SUB DUP3 GT PUSH3 0xAE5 JUMPI PUSH3 0x884 PUSH1 0x4 DUP5 ADD SLOAD PUSH3 0x14A9 JUMP JUMPDEST PUSH1 0x1F DUP2 GT PUSH3 0xA9C JUMPI JUMPDEST POP PUSH1 0x20 SWAP1 PUSH1 0x1F DUP4 GT PUSH1 0x1 EQ PUSH3 0xA24 JUMPI SWAP2 DUP1 PUSH2 0x120 SWAP5 SWAP3 PUSH1 0x9 SWAP5 DUP9 SWAP3 PUSH3 0xA18 JUMPI JUMPDEST POP POP DUP2 PUSH1 0x1 SHL SWAP2 PUSH1 0x0 NOT SWAP1 PUSH1 0x3 SHL SHR NOT AND OR PUSH1 0x4 DUP3 ADD SSTORE JUMPDEST PUSH1 0xA0 DUP5 ADD MLOAD PUSH1 0x5 DUP3 ADD SSTORE PUSH1 0xC0 DUP5 ADD MLOAD PUSH1 0x6 DUP3 ADD SSTORE PUSH1 0xE0 DUP5 ADD MLOAD PUSH1 0x7 DUP3 ADD SSTORE PUSH2 0x100 DUP5 ADD MLOAD PUSH1 0x8 DUP3 ADD SSTORE ADD SWAP2 ADD MLOAD ISZERO ISZERO PUSH1 0xFF DUP1 NOT DUP4 SLOAD AND SWAP2 AND OR SWAP1 SSTORE PUSH1 0x4 SLOAD SWAP1 PUSH1 0x1 PUSH1 0x40 SHL DUP3 LT ISZERO PUSH3 0xA02 JUMPI PUSH3 0x928 DUP3 PUSH1 0x1 PUSH1 0x40 SWAP5 ADD PUSH1 0x4 SSTORE PUSH3 0x1691 JUMP JUMPDEST DUP2 SLOAD PUSH1 0x1 PUSH1 0x1 PUSH1 0xA0 SHL SUB PUSH1 0x3 SWAP3 SWAP1 SWAP3 SHL SWAP2 DUP3 SHL NOT AND SWAP1 DUP8 SWAP1 SHL OR SWAP1 SSTORE CALLER DUP2 MSTORE PUSH1 0x5 PUSH1 0x20 MSTORE KECCAK256 DUP1 SLOAD SWAP1 SWAP5 PUSH1 0x1 PUSH1 0x40 SHL DUP3 LT ISZERO PUSH3 0xA02 JUMPI PUSH32 0xF895513EBE0CC201F473504EE6B316FC136A93B62BA5F80D6DFAF6BC3CCEF073 PUSH3 0x9D8 DUP7 SWAP3 PUSH3 0x99A DUP6 PUSH1 0x40 SWAP11 PUSH1 0x1 DUP11 SWAP9 ADD DUP2 SSTORE PUSH3 0x16DF JUMP JUMPDEST DUP2 SLOAD SWAP1 PUSH1 0x3 SHL SWAP1 DUP7 DUP3 SHL SWAP2 PUSH1 0x1 DUP1 PUSH1 0xA0 SHL SUB SWAP1 SHL NOT AND OR SWAP1 SSTORE PUSH3 0x9C9 DUP10 MLOAD SWAP7 PUSH1 0xA0 DUP9 MSTORE PUSH1 0xA0 DUP9 ADD SWAP1 PUSH3 0x160F JUMP JUMPDEST SWAP1 DUP7 DUP3 SUB PUSH1 0x20 DUP9 ADD MSTORE PUSH3 0x160F JUMP JUMPDEST SWAP4 PUSH1 0x44 CALLDATALOAD DUP9 DUP3 ADD MSTORE PUSH1 0x64 CALLDATALOAD PUSH1 0x60 DUP3 ADD MSTORE PUSH1 0xA4 CALLDATALOAD PUSH1 0x80 DUP3 ADD MSTORE DUP1 CALLER SWAP6 SUB SWAP1 LOG4 DUP3 MLOAD SWAP2 DUP3 MSTORE PUSH1 0x20 DUP3 ADD MSTORE RETURN JUMPDEST PUSH4 0x4E487B71 PUSH1 0xE0 SHL PUSH1 0x0 MSTORE PUSH1 0x41 PUSH1 0x4 MSTORE PUSH1 0x24 PUSH1 0x0 REVERT JUMPDEST ADD MLOAD SWAP1 POP CODESIZE DUP1 PUSH3 0x8B0 JUMP JUMPDEST SWAP1 PUSH1 0x4 DUP5 ADD DUP7 MSTORE PUSH1 0x20 DUP7 KECCAK256 SWAP2 DUP7 JUMPDEST PUSH1 0x1F NOT DUP6 AND DUP2 LT PUSH3 0xA83 JUMPI POP SWAP3 PUSH2 0x120 SWAP5 SWAP3 PUSH1 0x1 SWAP3 PUSH1 0x9 SWAP6 DUP4 PUSH1 0x1F NOT DUP2 AND LT PUSH3 0xA69 JUMPI JUMPDEST POP POP POP DUP2 SHL ADD PUSH1 0x4 DUP3 ADD SSTORE PUSH3 0x8C8 JUMP JUMPDEST ADD MLOAD PUSH1 0x0 NOT PUSH1 0xF8 DUP5 PUSH1 0x3 SHL AND SHR NOT AND SWAP1 SSTORE CODESIZE DUP1 DUP1 PUSH3 0xA58 JUMP JUMPDEST SWAP2 SWAP3 PUSH1 0x20 PUSH1 0x1 DUP2 SWAP3 DUP7 DUP6 ADD MLOAD DUP2 SSTORE ADD SWAP5 ADD SWAP3 ADD PUSH3 0xA32 JUMP JUMPDEST PUSH1 0x4 DUP5 ADD DUP7 MSTORE PUSH1 0x20 DUP7 KECCAK256 PUSH1 0x1F DUP5 ADD PUSH1 0x5 SHR DUP2 ADD PUSH1 0x20 DUP6 LT PUSH3 0xADD JUMPI JUMPDEST PUSH1 0x1F DUP4 ADD PUSH1 0x5 SHR DUP3 ADD DUP2 LT PUSH3 0xAD1 JUMPI POP POP PUSH3 0x88E JUMP JUMPDEST DUP8 DUP2 SSTORE PUSH1 0x1 ADD PUSH3 0xAB9 JUMP JUMPDEST POP DUP1 PUSH3 0xAB9 JUMP JUMPDEST PUSH4 0x4E487B71 PUSH1 0xE0 SHL DUP6 MSTORE PUSH1 0x41 PUSH1 0x4 MSTORE PUSH1 0x24 DUP6 REVERT JUMPDEST ADD MLOAD SWAP1 POP CODESIZE DUP1 PUSH3 0x846 JUMP JUMPDEST SWAP3 POP PUSH1 0x3 DUP5 ADD DUP7 MSTORE PUSH1 0x20 DUP7 KECCAK256 SWAP1 DUP7 SWAP4 JUMPDEST PUSH1 0x1F NOT DUP5 AND DUP6 LT PUSH3 0xB5D JUMPI PUSH1 0x1 SWAP5 POP DUP4 PUSH1 0x1F NOT DUP2 AND LT PUSH3 0xB43 JUMPI JUMPDEST POP POP POP DUP2 SHL ADD PUSH1 0x3 DUP3 ADD SSTORE PUSH3 0x85E JUMP JUMPDEST ADD MLOAD PUSH1 0x0 NOT PUSH1 0xF8 DUP5 PUSH1 0x3 SHL AND SHR NOT AND SWAP1 SSTORE CODESIZE DUP1 DUP1 PUSH3 0xB32 JUMP JUMPDEST DUP2 DUP2 ADD MLOAD DUP4 SSTORE PUSH1 0x20 SWAP5 DUP6 ADD SWAP5 PUSH1 0x1 SWAP1 SWAP4 ADD SWAP3 SWAP1 SWAP2 ADD SWAP1 PUSH3 0xB15 JUMP JUMPDEST SWAP1 SWAP2 POP PUSH1 0x3 DUP5 ADD DUP7 MSTORE PUSH1 0x20 DUP7 KECCAK256 PUSH1 0x1F DUP5 ADD PUSH1 0x5 SHR DUP2 ADD PUSH1 0x20 DUP6 LT PUSH3 0xBC6 JUMPI JUMPDEST SWAP1 DUP5 SWAP4 SWAP3 SWAP2 JUMPDEST PUSH1 0x1F DUP4 ADD PUSH1 0x5 SHR DUP3 ADD DUP2 LT PUSH3 0xBB7 JUMPI POP POP PUSH3 0x82E JUMP JUMPDEST DUP9 DUP2 SSTORE DUP6 SWAP5 POP PUSH1 0x1 ADD PUSH3 0xB9F JUMP JUMPDEST POP DUP1 PUSH3 0xB99 JUMP JUMPDEST PUSH3 0xBD9 SWAP1 PUSH3 0x14E6 JUMP JUMPDEST PUSH3 0x154 JUMPI DUP1 CODESIZE PUSH3 0x738 JUMP JUMPDEST PUSH1 0x40 MLOAD RETURNDATASIZE DUP5 DUP3 RETURNDATACOPY RETURNDATASIZE SWAP1 REVERT JUMPDEST PUSH3 0xBFC SWAP1 PUSH3 0x14E6 JUMP JUMPDEST CODESIZE PUSH3 0x703 JUMP JUMPDEST PUSH1 0x20 DUP2 RETURNDATASIZE PUSH1 0x20 GT PUSH3 0xC3D JUMPI JUMPDEST DUP2 PUSH3 0xC1F PUSH1 0x20 SWAP4 DUP4 PUSH3 0x1516 JUMP JUMPDEST DUP2 ADD SUB SLT PUSH3 0xC39 JUMPI MLOAD DUP1 ISZERO ISZERO SUB PUSH3 0x154 JUMPI CODESIZE PUSH3 0x6D7 JUMP JUMPDEST POP DUP1 REVERT JUMPDEST RETURNDATASIZE SWAP2 POP PUSH3 0xC10 JUMP JUMPDEST PUSH4 0x4E487B71 PUSH1 0xE0 SHL DUP2 MSTORE PUSH1 0x11 PUSH1 0x4 MSTORE PUSH1 0x24 SWAP1 REVERT JUMPDEST PUSH1 0x40 MLOAD PUSH3 0x461BCD PUSH1 0xE5 SHL DUP2 MSTORE PUSH1 0x20 PUSH1 0x4 DUP3 ADD MSTORE PUSH1 0x13 PUSH1 0x24 DUP3 ADD MSTORE PUSH19 0x10DD5C9D994819195C1B1BDE4819985A5B1959 PUSH1 0x6A SHL PUSH1 0x44 DUP3 ADD MSTORE PUSH1 0x64 SWAP1 REVERT JUMPDEST PUSH1 0x40 MLOAD PUSH3 0x461BCD PUSH1 0xE5 SHL DUP2 MSTORE PUSH1 0x20 PUSH1 0x4 DUP3 ADD MSTORE PUSH1 0x13 PUSH1 0x24 DUP3 ADD MSTORE PUSH19 0x151BDAD95B8819195C1B1BDE4819985A5B1959 PUSH1 0x6A SHL PUSH1 0x44 DUP3 ADD MSTORE PUSH1 0x64 SWAP1 REVERT JUMPDEST PUSH1 0x40 MLOAD PUSH3 0x461BCD PUSH1 0xE5 SHL DUP2 MSTORE PUSH1 0x20 PUSH1 0x4 DUP3 ADD MSTORE PUSH1 0x11 PUSH1 0x24 DUP3 ADD MSTORE PUSH17 0x546F6F206D616E79206C61756E63686573 PUSH1 0x78 SHL PUSH1 0x44 DUP3 ADD MSTORE PUSH1 0x64 SWAP1 REVERT JUMPDEST PUSH1 0x40 MLOAD PUSH3 0x461BCD PUSH1 0xE5 SHL DUP2 MSTORE PUSH1 0x20 PUSH1 0x4 DUP3 ADD MSTORE PUSH1 0x11 PUSH1 0x24 DUP3 ADD MSTORE PUSH17 0x14D85B1D08185B1C9958591E481D5CD959 PUSH1 0x7A SHL PUSH1 0x44 DUP3 ADD MSTORE PUSH1 0x64 SWAP1 REVERT JUMPDEST PUSH1 0x40 MLOAD PUSH3 0x461BCD PUSH1 0xE5 SHL DUP2 MSTORE PUSH1 0x20 PUSH1 0x4 DUP3 ADD MSTORE PUSH1 0x21 PUSH1 0x24 DUP3 ADD MSTORE PUSH32 0x4C61756E63682064617465206D75737420626520696E20746865206675747572 PUSH1 0x44 DUP3 ADD MSTORE PUSH1 0x65 PUSH1 0xF8 SHL PUSH1 0x64 DUP3 ADD MSTORE PUSH1 0x84 SWAP1 REVERT JUMPDEST PUSH1 0x40 MLOAD PUSH3 0x461BCD PUSH1 0xE5 SHL DUP2 MSTORE PUSH1 0x20 PUSH1 0x4 DUP3 ADD MSTORE PUSH1 0x16 PUSH1 0x24 DUP3 ADD MSTORE PUSH22 0x47726164756174696F6E2063617020746F6F206C6F77 PUSH1 0x50 SHL PUSH1 0x44 DUP3 ADD MSTORE PUSH1 0x64 SWAP1 REVERT JUMPDEST PUSH1 0x40 MLOAD PUSH3 0x461BCD PUSH1 0xE5 SHL DUP2 MSTORE PUSH1 0x20 PUSH1 0x4 DUP3 ADD MSTORE PUSH1 0x11 PUSH1 0x24 DUP3 ADD MSTORE PUSH17 0x536C6F7065206D757374206265203E203 PUSH1 0x7C SHL PUSH1 0x44 DUP3 ADD MSTORE PUSH1 0x64 SWAP1 REVERT JUMPDEST PUSH1 0x40 MLOAD PUSH3 0x461BCD PUSH1 0xE5 SHL DUP2 MSTORE PUSH1 0x20 PUSH1 0x4 DUP3 ADD MSTORE PUSH1 0x12 PUSH1 0x24 DUP3 ADD MSTORE PUSH18 0x4261736520707269636520746F6F206C6F77 PUSH1 0x70 SHL PUSH1 0x44 DUP3 ADD MSTORE PUSH1 0x64 SWAP1 REVERT JUMPDEST PUSH1 0x40 MLOAD PUSH3 0x461BCD PUSH1 0xE5 SHL DUP2 MSTORE PUSH1 0x20 PUSH1 0x4 DUP3 ADD MSTORE PUSH1 0xE PUSH1 0x24 DUP3 ADD MSTORE PUSH14 0x537570706C7920746F6F206C6F77 PUSH1 0x90 SHL PUSH1 0x44 DUP3 ADD MSTORE PUSH1 0x64 SWAP1 REVERT JUMPDEST PUSH1 0x40 MLOAD PUSH3 0x461BCD PUSH1 0xE5 SHL DUP2 MSTORE PUSH1 0x20 PUSH1 0x4 DUP3 ADD MSTORE PUSH1 0xE PUSH1 0x24 DUP3 ADD MSTORE PUSH14 0x125B9D985B1A59081CDE5B589BDB PUSH1 0x92 SHL PUSH1 0x44 DUP3 ADD MSTORE PUSH1 0x64 SWAP1 REVERT JUMPDEST PUSH1 0xA SWAP2 POP GT ISZERO CODESIZE PUSH3 0x3E3 JUMP JUMPDEST PUSH1 0x40 MLOAD PUSH3 0x461BCD PUSH1 0xE5 SHL DUP2 MSTORE PUSH1 0x20 PUSH1 0x4 DUP3 ADD MSTORE PUSH1 0xC PUSH1 0x24 DUP3 ADD MSTORE PUSH12 0x496E76616C6964206E616D65 PUSH1 0xA0 SHL PUSH1 0x44 DUP3 ADD MSTORE PUSH1 0x64 SWAP1 REVERT JUMPDEST PUSH1 0x32 SWAP2 POP GT ISZERO CODESIZE PUSH3 0x3CF JUMP JUMPDEST PUSH1 0x40 MLOAD PUSH3 0x461BCD PUSH1 0xE5 SHL DUP2 MSTORE PUSH1 0x20 PUSH1 0x4 DUP3 ADD MSTORE PUSH1 0x12 PUSH1 0x24 DUP3 ADD MSTORE PUSH18 0x10DBDB9D1C9858DD081A5CC81C185D5CD959 PUSH1 0x72 SHL PUSH1 0x44 DUP3 ADD MSTORE PUSH1 0x64 SWAP1 REVERT JUMPDEST DUP3 DUP1 REVERT JUMPDEST POP CALLVALUE PUSH3 0x154 JUMPI DUP1 PUSH1 0x3 NOT CALLDATASIZE ADD SLT PUSH3 0x154 JUMPI SLOAD PUSH1 0x40 MLOAD PUSH1 0x1 PUSH1 0x1 PUSH1 0xA0 SHL SUB SWAP1 SWAP2 AND DUP2 MSTORE PUSH1 0x20 SWAP1 RETURN JUMPDEST POP CALLVALUE PUSH3 0x154 JUMPI PUSH1 0x20 CALLDATASIZE PUSH1 0x3 NOT ADD SLT PUSH3 0x154 JUMPI PUSH3 0xF81 PUSH3 0x148D JUMP JUMPDEST PUSH3 0xF8B PUSH3 0x173E JUMP JUMPDEST PUSH1 0x1 PUSH1 0x1 PUSH1 0xA0 SHL SUB SWAP1 DUP2 AND SWAP1 DUP2 ISZERO PUSH3 0xFDB JUMPI PUSH1 0x1 SLOAD DUP3 PUSH1 0x1 PUSH1 0x1 PUSH1 0x60 SHL SUB PUSH1 0xA0 SHL DUP3 AND OR PUSH1 0x1 SSTORE AND PUSH32 0xF84F6B525C89A18C80BBBC0C62A7EB5390956D6B8432AB067B49963A98F8C38F DUP4 DUP1 LOG3 DUP1 RETURN JUMPDEST PUSH1 0x40 MLOAD PUSH3 0x461BCD PUSH1 0xE5 SHL DUP2 MSTORE PUSH1 0x20 PUSH1 0x4 DUP3 ADD MSTORE PUSH1 0xF PUSH1 0x24 DUP3 ADD MSTORE PUSH15 0x496E76616C69642061646472657373 PUSH1 0x88 SHL PUSH1 0x44 DUP3 ADD MSTORE PUSH1 0x64 SWAP1 REVERT JUMPDEST POP CALLVALUE PUSH3 0x154 JUMPI DUP1 PUSH1 0x3 NOT CALLDATASIZE ADD SLT PUSH3 0x154 JUMPI PUSH1 0x20 PUSH1 0x40 MLOAD PUSH1 0xA DUP2 MSTORE RETURN JUMPDEST POP CALLVALUE PUSH3 0x154 JUMPI DUP1 PUSH1 0x3 NOT CALLDATASIZE ADD SLT PUSH3 0x154 JUMPI PUSH3 0x104D PUSH3 0x173E JUMP JUMPDEST DUP1 SLOAD PUSH1 0x1 PUSH1 0x1 PUSH1 0xA0 SHL SUB NOT DUP2 AND DUP3 SSTORE DUP2 SWAP1 PUSH1 0x1 PUSH1 0x1 PUSH1 0xA0 SHL SUB AND PUSH32 0x8BE0079C531659141344CD1FD0A4F28419497F9722A3DAAFE3B4186F6B6457E0 DUP3 DUP1 LOG3 DUP1 RETURN JUMPDEST POP CALLVALUE PUSH3 0x154 JUMPI PUSH1 0x20 DUP1 PUSH1 0x3 NOT CALLDATASIZE ADD SLT PUSH3 0xC39 JUMPI PUSH1 0x1 PUSH1 0x1 PUSH1 0xA0 SHL SUB SWAP2 DUP3 PUSH3 0x10B7 PUSH3 0x148D JUMP JUMPDEST AND DUP2 MSTORE PUSH1 0x5 DUP3 MSTORE PUSH1 0x40 DUP2 KECCAK256 SWAP3 PUSH1 0x40 MLOAD SWAP1 DUP2 SWAP4 DUP1 DUP7 SLOAD SWAP4 DUP5 DUP2 MSTORE ADD SWAP6 DUP5 MSTORE DUP1 DUP5 KECCAK256 SWAP4 SWAP2 JUMPDEST DUP4 DUP4 LT PUSH3 0x10F5 JUMPI PUSH3 0x29F DUP7 PUSH3 0x292 DUP2 DUP11 SUB DUP3 PUSH3 0x1516 JUMP JUMPDEST DUP5 SLOAD DUP2 AND DUP8 MSTORE SWAP6 DUP2 ADD SWAP6 PUSH1 0x1 SWAP5 DUP6 ADD SWAP5 SWAP1 SWAP3 ADD SWAP2 PUSH3 0x10DA JUMP JUMPDEST POP CALLVALUE PUSH3 0x154 JUMPI PUSH1 0x40 CALLDATASIZE PUSH1 0x3 NOT ADD SLT PUSH3 0x154 JUMPI PUSH3 0x112D PUSH3 0x148D JUMP JUMPDEST PUSH1 0x1 PUSH1 0x1 PUSH1 0xA0 SHL SUB SWAP1 DUP2 AND DUP3 MSTORE PUSH1 0x5 PUSH1 0x20 MSTORE PUSH1 0x40 DUP3 KECCAK256 DUP1 SLOAD PUSH1 0x24 CALLDATALOAD SWAP4 SWAP1 DUP5 LT ISZERO PUSH3 0x154 JUMPI POP PUSH1 0x20 SWAP3 PUSH3 0x1161 SWAP2 PUSH3 0x16DF JUMP JUMPDEST SWAP2 SWAP1 SLOAD PUSH1 0x40 MLOAD SWAP3 PUSH1 0x3 SHL SHR AND DUP2 MSTORE RETURN JUMPDEST POP CALLVALUE PUSH3 0x154 JUMPI DUP1 PUSH1 0x3 NOT CALLDATASIZE ADD SLT PUSH3 0x154 JUMPI PUSH1 0x20 PUSH1 0xFF PUSH1 0x2 SLOAD PUSH1 0xA0 SHR AND PUSH1 0x40 MLOAD SWAP1 ISZERO ISZERO DUP2 MSTORE RETURN JUMPDEST POP CALLVALUE PUSH3 0x154 JUMPI PUSH1 0x20 CALLDATASIZE PUSH1 0x3 NOT ADD SLT PUSH3 0x154 JUMPI PUSH1 0xFF PUSH1 0x40 PUSH1 0x20 SWAP3 PUSH1 0x4 CALLDATALOAD DUP2 MSTORE PUSH1 0x6 DUP5 MSTORE KECCAK256 SLOAD AND PUSH1 0x40 MLOAD SWAP1 ISZERO ISZERO DUP2 MSTORE RETURN JUMPDEST POP CALLVALUE PUSH3 0x154 JUMPI PUSH1 0x20 CALLDATASIZE PUSH1 0x3 NOT ADD SLT PUSH3 0x154 JUMPI PUSH1 0x4 CALLDATALOAD SWAP1 PUSH1 0x4 SLOAD DUP3 LT ISZERO PUSH3 0x154 JUMPI PUSH1 0x20 PUSH3 0x11FA DUP4 PUSH3 0x1691 JUMP JUMPDEST SWAP1 SLOAD PUSH1 0x40 MLOAD PUSH1 0x3 SWAP3 SWAP1 SWAP3 SHL SHR PUSH1 0x1 PUSH1 0x1 PUSH1 0xA0 SHL SUB AND DUP2 MSTORE RETURN JUMPDEST POP CALLVALUE PUSH3 0x154 JUMPI PUSH1 0xC0 CALLDATASIZE PUSH1 0x3 NOT ADD SLT PUSH3 0x154 JUMPI PUSH1 0x1 PUSH1 0x1 PUSH1 0x40 SHL SUB SWAP1 PUSH1 0x24 CALLDATALOAD DUP3 DUP2 GT PUSH3 0xC39 JUMPI PUSH3 0x124B SWAP1 CALLDATASIZE SWAP1 PUSH1 0x4 ADD PUSH3 0x1636 JUMP JUMPDEST SWAP2 PUSH1 0x44 CALLDATALOAD SWAP1 DUP2 GT PUSH3 0xC39 JUMPI PUSH3 0x1267 SWAP1 CALLDATASIZE SWAP1 PUSH1 0x4 ADD PUSH3 0x1636 JUMP JUMPDEST SWAP2 PUSH1 0x1 PUSH1 0x1 PUSH1 0xA0 SHL SUB SWAP2 PUSH1 0xA4 CALLDATALOAD SWAP1 DUP4 DUP3 AND DUP3 SUB PUSH3 0x154 JUMPI POP PUSH1 0x55 SWAP2 PUSH1 0xB SWAP2 PUSH3 0x55F PUSH3 0x1324 PUSH1 0x40 MLOAD PUSH1 0x20 SWAP9 DUP2 DUP11 DUP1 SWAP4 ADD SWAP1 PUSH1 0x4 CALLDATALOAD DUP3 MSTORE PUSH5 0x3A37B5B2B7 PUSH1 0xD9 SHL PUSH1 0x40 DUP3 ADD MSTORE PUSH1 0x25 DUP2 MSTORE PUSH3 0x12BC DUP2 PUSH3 0x14FA JUMP JUMPDEST MLOAD SWAP1 KECCAK256 SWAP6 PUSH2 0x193F SWAP6 PUSH3 0x130A PUSH1 0x40 MLOAD SWAP4 PUSH3 0x12DA DUP7 DUP11 ADD DUP7 PUSH3 0x1516 JUMP JUMPDEST DUP9 DUP6 MSTORE DUP6 DUP6 ADD SWAP9 PUSH3 0x425E DUP11 CODECOPY PUSH3 0x526 DUP14 PUSH1 0x1 SLOAD AND SWAP2 PUSH1 0x40 MLOAD SWAP5 DUP6 SWAP4 DUP10 DUP6 ADD SWAP8 PUSH1 0x84 CALLDATALOAD SWAP4 PUSH1 0x64 CALLDATALOAD SWAP2 DUP11 PUSH3 0x1797 JUMP JUMPDEST PUSH1 0x40 MLOAD SWAP6 DUP7 SWAP4 PUSH3 0x54F DUP7 DUP7 ADD SWAP10 DUP11 SWAP3 MLOAD SWAP3 DUP4 SWAP2 PUSH3 0x15EA JUMP JUMPDEST MLOAD SWAP1 KECCAK256 SWAP1 PUSH1 0x40 MLOAD SWAP2 PUSH1 0x40 DUP4 ADD MSTORE DUP6 DUP3 ADD MSTORE ADDRESS DUP2 MSTORE ADD PUSH1 0xFF DUP2 MSTORE8 KECCAK256 PUSH1 0x40 MLOAD SWAP2 AND DUP2 MSTORE RETURN JUMPDEST POP CALLVALUE PUSH3 0x154 JUMPI DUP1 PUSH1 0x3 NOT CALLDATASIZE ADD SLT PUSH3 0x154 JUMPI PUSH1 0x20 PUSH1 0x40 MLOAD PUSH2 0x3E8 DUP2 MSTORE RETURN JUMPDEST POP CALLVALUE PUSH3 0x154 JUMPI PUSH1 0x20 CALLDATASIZE PUSH1 0x3 NOT ADD SLT PUSH3 0x154 JUMPI PUSH1 0x1 PUSH1 0x1 PUSH1 0xA0 SHL SUB SWAP1 PUSH1 0x40 SWAP1 DUP3 PUSH3 0x1391 PUSH3 0x148D JUMP JUMPDEST AND DUP2 MSTORE PUSH1 0x3 PUSH1 0x20 MSTORE KECCAK256 DUP2 DUP2 SLOAD AND SWAP1 DUP3 PUSH1 0x1 DUP3 ADD SLOAD AND SWAP3 PUSH1 0x2 DUP3 ADD SLOAD AND PUSH3 0x13BB PUSH1 0x3 DUP4 ADD PUSH3 0x1538 JUMP JUMPDEST SWAP2 PUSH3 0x13CA PUSH1 0x4 DUP3 ADD PUSH3 0x1538 JUMP JUMPDEST SWAP3 PUSH1 0x5 DUP3 ADD SLOAD SWAP4 PUSH3 0x1426 PUSH1 0x6 DUP5 ADD SLOAD SWAP2 PUSH3 0x1417 PUSH1 0x7 DUP7 ADD SLOAD SWAP5 PUSH1 0xFF PUSH1 0x9 PUSH1 0x8 DUP10 ADD SLOAD SWAP9 ADD SLOAD AND SWAP8 PUSH1 0x40 MLOAD SWAP12 DUP13 SWAP12 DUP13 MSTORE PUSH1 0x20 DUP13 ADD MSTORE PUSH1 0x40 DUP12 ADD MSTORE PUSH2 0x140 DUP1 PUSH1 0x60 DUP13 ADD MSTORE DUP11 ADD SWAP1 PUSH3 0x160F JUMP JUMPDEST SWAP1 DUP9 DUP3 SUB PUSH1 0x80 DUP11 ADD MSTORE PUSH3 0x160F JUMP JUMPDEST SWAP5 PUSH1 0xA0 DUP8 ADD MSTORE PUSH1 0xC0 DUP7 ADD MSTORE PUSH1 0xE0 DUP6 ADD MSTORE PUSH2 0x100 DUP5 ADD MSTORE ISZERO ISZERO PUSH2 0x120 DUP4 ADD MSTORE SUB SWAP1 RETURN JUMPDEST POP CALLVALUE PUSH3 0x154 JUMPI DUP1 PUSH1 0x3 NOT CALLDATASIZE ADD SLT PUSH3 0x154 JUMPI PUSH1 0x20 PUSH1 0x40 MLOAD PUSH1 0x1 DUP2 MSTORE RETURN JUMPDEST SWAP1 POP CALLVALUE PUSH3 0xC39 JUMPI DUP2 PUSH1 0x3 NOT CALLDATASIZE ADD SLT PUSH3 0xC39 JUMPI PUSH1 0x2 SLOAD PUSH1 0x1 PUSH1 0x1 PUSH1 0xA0 SHL SUB AND DUP2 MSTORE PUSH1 0x20 SWAP1 RETURN JUMPDEST PUSH1 0x4 CALLDATALOAD SWAP1 PUSH1 0x1 PUSH1 0x1 PUSH1 0xA0 SHL SUB DUP3 AND DUP3 SUB PUSH3 0x14A4 JUMPI JUMP JUMPDEST PUSH1 0x0 DUP1 REVERT JUMPDEST SWAP1 PUSH1 0x1 DUP3 DUP2 SHR SWAP3 AND DUP1 ISZERO PUSH3 0x14DB JUMPI JUMPDEST PUSH1 0x20 DUP4 LT EQ PUSH3 0x14C5 JUMPI JUMP JUMPDEST PUSH4 0x4E487B71 PUSH1 0xE0 SHL PUSH1 0x0 MSTORE PUSH1 0x22 PUSH1 0x4 MSTORE PUSH1 0x24 PUSH1 0x0 REVERT JUMPDEST SWAP2 PUSH1 0x7F AND SWAP2 PUSH3 0x14B9 JUMP JUMPDEST PUSH1 0x1 PUSH1 0x1 PUSH1 0x40 SHL SUB DUP2 GT PUSH3 0xA02 JUMPI PUSH1 0x40 MSTORE JUMP JUMPDEST PUSH1 0x60 DUP2 ADD SWAP1 DUP2 LT PUSH1 0x1 PUSH1 0x1 PUSH1 0x40 SHL SUB DUP3 GT OR PUSH3 0xA02 JUMPI PUSH1 0x40 MSTORE JUMP JUMPDEST SWAP1 PUSH1 0x1F DUP1 NOT SWAP2 ADD AND DUP2 ADD SWAP1 DUP2 LT PUSH1 0x1 PUSH1 0x1 PUSH1 0x40 SHL SUB DUP3 GT OR PUSH3 0xA02 JUMPI PUSH1 0x40 MSTORE JUMP JUMPDEST SWAP1 PUSH1 0x40 MLOAD SWAP2 DUP3 PUSH1 0x0 DUP3 SLOAD SWAP3 PUSH3 0x154E DUP5 PUSH3 0x14A9 JUMP JUMPDEST SWAP1 DUP2 DUP5 MSTORE PUSH1 0x1 SWAP5 DUP6 DUP2 AND SWAP1 DUP2 PUSH1 0x0 EQ PUSH3 0x15C5 JUMPI POP PUSH1 0x1 EQ PUSH3 0x157E JUMPI JUMPDEST POP POP PUSH3 0x157C SWAP3 POP SUB DUP4 PUSH3 0x1516 JUMP JUMPDEST JUMP JUMPDEST SWAP1 SWAP4 SWAP2 POP PUSH1 0x0 MSTORE PUSH1 0x20 SWAP1 DUP2 PUSH1 0x0 KECCAK256 SWAP4 PUSH1 0x0 SWAP2 JUMPDEST DUP2 DUP4 LT PUSH3 0x15AC JUMPI POP POP PUSH3 0x157C SWAP4 POP DUP3 ADD ADD CODESIZE DUP1 PUSH3 0x156C JUMP JUMPDEST DUP6 SLOAD DUP9 DUP5 ADD DUP6 ADD MSTORE SWAP5 DUP6 ADD SWAP5 DUP8 SWAP5 POP SWAP2 DUP4 ADD SWAP2 PUSH3 0x1591 JUMP JUMPDEST SWAP2 POP POP PUSH3 0x157C SWAP5 POP PUSH1 0x20 SWAP3 POP PUSH1 0xFF NOT AND DUP3 DUP5 ADD MSTORE ISZERO ISZERO PUSH1 0x5 SHL DUP3 ADD ADD CODESIZE DUP1 PUSH3 0x156C JUMP JUMPDEST PUSH1 0x0 JUMPDEST DUP4 DUP2 LT PUSH3 0x15FE JUMPI POP POP PUSH1 0x0 SWAP2 ADD MSTORE JUMP JUMPDEST DUP2 DUP2 ADD MLOAD DUP4 DUP3 ADD MSTORE PUSH1 0x20 ADD PUSH3 0x15ED JUMP JUMPDEST SWAP1 PUSH1 0x20 SWAP2 PUSH3 0x162A DUP2 MLOAD DUP1 SWAP3 DUP2 DUP6 MSTORE DUP6 DUP1 DUP7 ADD SWAP2 ADD PUSH3 0x15EA JUMP JUMPDEST PUSH1 0x1F ADD PUSH1 0x1F NOT AND ADD ADD SWAP1 JUMP JUMPDEST DUP2 PUSH1 0x1F DUP3 ADD SLT ISZERO PUSH3 0x14A4 JUMPI DUP1 CALLDATALOAD SWAP1 PUSH1 0x1 PUSH1 0x1 PUSH1 0x40 SHL SUB DUP3 GT PUSH3 0xA02 JUMPI PUSH1 0x40 MLOAD SWAP3 PUSH3 0x166E PUSH1 0x1F DUP5 ADD PUSH1 0x1F NOT AND PUSH1 0x20 ADD DUP6 PUSH3 0x1516 JUMP JUMPDEST DUP3 DUP5 MSTORE PUSH1 0x20 DUP4 DUP4 ADD ADD GT PUSH3 0x14A4 JUMPI DUP2 PUSH1 0x0 SWAP3 PUSH1 0x20 DUP1 SWAP4 ADD DUP4 DUP7 ADD CALLDATACOPY DUP4 ADD ADD MSTORE SWAP1 JUMP JUMPDEST PUSH1 0x4 SLOAD DUP2 LT ISZERO PUSH3 0x16C9 JUMPI PUSH1 0x4 PUSH1 0x0 MSTORE PUSH32 0x8A35ACFBC15FF81A39AE7D344FD709F28E8600B4AA8C65C6B64BFE7FE36BD19B ADD SWAP1 PUSH1 0x0 SWAP1 JUMP JUMPDEST PUSH4 0x4E487B71 PUSH1 0xE0 SHL PUSH1 0x0 MSTORE PUSH1 0x32 PUSH1 0x4 MSTORE PUSH1 0x24 PUSH1 0x0 REVERT JUMPDEST DUP1 SLOAD DUP3 LT ISZERO PUSH3 0x16C9 JUMPI PUSH1 0x0 MSTORE PUSH1 0x20 PUSH1 0x0 KECCAK256 ADD SWAP1 PUSH1 0x0 SWAP1 JUMP JUMPDEST PUSH1 0x20 SWAP1 DUP2 PUSH1 0x40 DUP2 DUP4 ADD SWAP3 DUP3 DUP2 MSTORE DUP6 MLOAD DUP1 SWAP5 MSTORE ADD SWAP4 ADD SWAP2 PUSH1 0x0 JUMPDEST DUP3 DUP2 LT PUSH3 0x1720 JUMPI POP POP POP POP SWAP1 JUMP JUMPDEST DUP4 MLOAD PUSH1 0x1 PUSH1 0x1 PUSH1 0xA0 SHL SUB AND DUP6 MSTORE SWAP4 DUP2 ADD SWAP4 SWAP3 DUP2 ADD SWAP3 PUSH1 0x1 ADD PUSH3 0x1711 JUMP JUMPDEST PUSH1 0x0 SLOAD PUSH1 0x1 PUSH1 0x1 PUSH1 0xA0 SHL SUB AND CALLER SUB PUSH3 0x1753 JUMPI JUMP JUMPDEST PUSH1 0x64 PUSH1 0x40 MLOAD PUSH3 0x461BCD PUSH1 0xE5 SHL DUP2 MSTORE PUSH1 0x20 PUSH1 0x4 DUP3 ADD MSTORE PUSH1 0x20 PUSH1 0x24 DUP3 ADD MSTORE PUSH32 0x4F776E61626C653A2063616C6C6572206973206E6F7420746865206F776E6572 PUSH1 0x44 DUP3 ADD MSTORE REVERT JUMPDEST SWAP3 SWAP7 SWAP6 SWAP5 SWAP1 PUSH1 0xA0 SWAP5 SWAP3 PUSH3 0x17B8 PUSH3 0x17C7 SWAP3 PUSH1 0xC0 DUP8 MSTORE PUSH1 0xC0 DUP8 ADD SWAP1 PUSH3 0x160F JUMP JUMPDEST SWAP1 DUP6 DUP3 SUB PUSH1 0x20 DUP8 ADD MSTORE PUSH3 0x160F JUMP JUMPDEST SWAP7 PUSH1 0x40 DUP5 ADD MSTORE PUSH1 0x1 DUP1 DUP6 SHL SUB DUP1 SWAP3 AND PUSH1 0x60 DUP5 ADD MSTORE AND PUSH1 0x80 DUP3 ADD MSTORE ADD MSTORE JUMP JUMPDEST SWAP1 DUP1 MLOAD ISZERO PUSH3 0x184F JUMPI PUSH1 0x20 DUP2 MLOAD SWAP2 ADD PUSH1 0x0 CREATE2 SWAP1 PUSH1 0x1 PUSH1 0x1 PUSH1 0xA0 SHL SUB DUP3 AND ISZERO PUSH3 0x180A JUMPI JUMP JUMPDEST PUSH1 0x40 MLOAD PUSH3 0x461BCD PUSH1 0xE5 SHL DUP2 MSTORE PUSH1 0x20 PUSH1 0x4 DUP3 ADD MSTORE PUSH1 0x19 PUSH1 0x24 DUP3 ADD MSTORE PUSH32 0x437265617465323A204661696C6564206F6E206465706C6F7900000000000000 PUSH1 0x44 DUP3 ADD MSTORE PUSH1 0x64 SWAP1 REVERT JUMPDEST PUSH1 0x64 PUSH1 0x40 MLOAD PUSH3 0x461BCD PUSH1 0xE5 SHL DUP2 MSTORE PUSH1 0x20 PUSH1 0x4 DUP3 ADD MSTORE PUSH1 0x20 PUSH1 0x24 DUP3 ADD MSTORE PUSH32 0x437265617465323A2062797465636F6465206C656E677468206973207A65726F PUSH1 0x44 DUP3 ADD MSTORE REVERT JUMPDEST SWAP2 SWAP1 DUP3 ADD DUP1 SWAP3 GT PUSH3 0x18A1 JUMPI JUMP JUMPDEST PUSH4 0x4E487B71 PUSH1 0xE0 SHL PUSH1 0x0 MSTORE PUSH1 0x11 PUSH1 0x4 MSTORE PUSH1 0x24 PUSH1 0x0 REVERT JUMPDEST PUSH1 0x1 PUSH1 0x1 PUSH1 0x40 SHL SUB DUP2 GT PUSH3 0xA02 JUMPI PUSH1 0x5 SHL PUSH1 0x20 ADD SWAP1 JUMP JUMPDEST SWAP1 PUSH3 0x18DC SWAP1 DUP3 PUSH3 0x1893 JUMP JUMPDEST PUSH1 0x4 DUP1 SLOAD DUP1 DUP4 GT PUSH3 0x1A16 JUMPI JUMPDEST DUP4 LT ISZERO PUSH3 0x19D3 JUMPI DUP3 DUP3 SUB SWAP2 DUP3 GT PUSH3 0x19BE JUMPI PUSH3 0x1907 DUP3 PUSH3 0x18B7 JUMP JUMPDEST SWAP3 PUSH3 0x1917 PUSH1 0x40 MLOAD SWAP5 DUP6 PUSH3 0x1516 JUMP JUMPDEST DUP3 DUP5 MSTORE PUSH1 0x1F NOT PUSH3 0x1928 DUP5 PUSH3 0x18B7 JUMP JUMPDEST ADD SWAP1 PUSH1 0x20 SWAP2 CALLDATASIZE DUP4 DUP8 ADD CALLDATACOPY PUSH1 0x0 JUMPDEST DUP5 DUP2 LT PUSH3 0x1945 JUMPI POP POP POP POP POP SWAP1 JUMP JUMPDEST PUSH3 0x195B PUSH3 0x1955 DUP3 DUP5 PUSH3 0x1893 JUMP JUMPDEST PUSH3 0x1691 JUMP JUMPDEST SWAP1 SLOAD DUP8 MLOAD DUP4 LT ISZERO PUSH3 0x19A9 JUMPI PUSH1 0x3 SWAP2 SWAP1 SWAP2 SHL SHR PUSH1 0x1 PUSH1 0x1 PUSH1 0xA0 SHL SUB AND PUSH1 0x5 DUP3 SWAP1 SHL DUP8 ADD DUP5 ADD MSTORE PUSH1 0x0 NOT DUP2 EQ PUSH3 0x1994 JUMPI PUSH1 0x1 ADD PUSH3 0x1935 JUMP JUMPDEST PUSH1 0x11 DUP5 PUSH4 0x4E487B71 PUSH1 0xE0 SHL PUSH1 0x0 MSTORE MSTORE PUSH1 0x24 PUSH1 0x0 REVERT JUMPDEST PUSH1 0x32 DUP7 PUSH4 0x4E487B71 PUSH1 0xE0 SHL PUSH1 0x0 MSTORE MSTORE PUSH1 0x24 PUSH1 0x0 REVERT JUMPDEST PUSH1 0x11 SWAP1 PUSH4 0x4E487B71 PUSH1 0xE0 SHL PUSH1 0x0 MSTORE MSTORE PUSH1 0x24 PUSH1 0x0 REVERT JUMPDEST PUSH1 0x40 MLOAD SWAP3 POP PUSH1 0x20 DUP4 ADD SWAP2 POP PUSH1 0x1 PUSH1 0x1 PUSH1 0x40 SHL SUB DUP3 GT DUP4 DUP4 LT OR PUSH3 0x1A01 JUMPI POP PUSH1 0x40 MSTORE PUSH1 0x0 DUP2 MSTORE PUSH1 0x0 CALLDATASIZE DUP2 CALLDATACOPY SWAP1 JUMP JUMPDEST PUSH1 0x41 SWAP1 PUSH4 0x4E487B71 PUSH1 0xE0 SHL PUSH1 0x0 MSTORE MSTORE PUSH1 0x24 PUSH1 0x0 REVERT JUMPDEST SWAP2 POP DUP2 PUSH3 0x18E9 JUMP INVALID PUSH1 0xA0 CALLVALUE PUSH3 0x2C7 JUMPI PUSH1 0x1F PUSH3 0x283E CODESIZE DUP2 SWAP1 SUB SWAP2 DUP3 ADD PUSH1 0x1F NOT AND DUP4 ADD SWAP3 SWAP2 SWAP1 PUSH1 0x1 PUSH1 0x1 PUSH1 0x40 SHL SUB DUP5 GT DUP4 DUP6 LT OR PUSH3 0x2CC JUMPI DUP2 PUSH1 0xE0 SWAP3 DUP5 SWAP3 PUSH1 0x40 SWAP7 DUP8 MSTORE DUP4 CODECOPY DUP2 ADD SUB SLT PUSH3 0x2C7 JUMPI PUSH3 0x51 DUP2 PUSH3 0x2E2 JUMP JUMPDEST SWAP1 PUSH1 0x20 PUSH3 0x61 DUP2 DUP4 ADD PUSH3 0x2E2 JUMP JUMPDEST PUSH3 0x6E DUP6 DUP5 ADD PUSH3 0x2E2 JUMP JUMPDEST SWAP2 PUSH1 0x60 DUP5 ADD MLOAD SWAP2 PUSH1 0x80 DUP6 ADD MLOAD SWAP4 PUSH3 0x8E PUSH1 0xC0 PUSH1 0xA0 DUP9 ADD MLOAD SWAP8 ADD PUSH3 0x2E2 JUMP JUMPDEST PUSH1 0x0 DUP1 SLOAD CALLER PUSH1 0x1 PUSH1 0x1 PUSH1 0xA0 SHL SUB NOT DUP1 DUP4 AND DUP3 OR DUP5 SSTORE DUP13 MLOAD SWAP5 SWAP12 SWAP1 SWAP7 PUSH1 0x1 PUSH1 0x1 PUSH1 0xA0 SHL SUB SWAP5 SWAP1 SWAP4 DUP6 SWAP4 SWAP2 SWAP1 DUP5 AND SWAP1 PUSH32 0x8BE0079C531659141344CD1FD0A4F28419497F9722A3DAAFE3B4186F6B6457E0 SWAP1 DUP1 LOG3 PUSH1 0x1 DUP1 SSTORE AND SWAP3 DUP4 ISZERO PUSH3 0x295 JUMPI POP DUP2 AND SWAP3 DUP4 ISZERO PUSH3 0x251 JUMPI AND SWAP4 DUP5 ISZERO PUSH3 0x21C JUMPI DUP6 ISZERO PUSH3 0x1D9 JUMPI DUP8 ISZERO PUSH3 0x196 JUMPI POP PUSH1 0x80 MSTORE DUP2 PUSH1 0x2 SLOAD AND OR PUSH1 0x2 SSTORE PUSH1 0x3 SLOAD AND OR PUSH1 0x3 SSTORE PUSH1 0x4 SSTORE PUSH1 0x5 SSTORE PUSH1 0x6 SSTORE PUSH1 0xA SLOAD SWAP1 PUSH2 0x100 PUSH1 0x1 PUSH1 0xA8 SHL SUB SWAP1 PUSH1 0x8 SHL AND SWAP1 PUSH2 0x100 PUSH1 0x1 PUSH1 0xA8 SHL SUB NOT AND OR PUSH1 0xA SSTORE MLOAD PUSH2 0x2546 SWAP1 DUP2 PUSH3 0x2F8 DUP3 CODECOPY PUSH1 0x80 MLOAD DUP2 DUP2 DUP2 PUSH2 0x1F8 ADD MSTORE DUP2 DUP2 PUSH2 0x453 ADD MSTORE DUP2 DUP2 PUSH2 0xA3E ADD MSTORE DUP2 DUP2 PUSH2 0xD39 ADD MSTORE DUP2 DUP2 PUSH2 0xF48 ADD MSTORE DUP2 DUP2 PUSH2 0x12E5 ADD MSTORE DUP2 DUP2 PUSH2 0x1449 ADD MSTORE PUSH2 0x23CF ADD MSTORE RETURN JUMPDEST PUSH1 0x64 SWAP1 DUP11 MLOAD SWAP1 PUSH3 0x461BCD PUSH1 0xE5 SHL DUP3 MSTORE PUSH1 0x4 DUP3 ADD MSTORE PUSH1 0x1A PUSH1 0x24 DUP3 ADD MSTORE PUSH32 0x47726164756174696F6E20636170206D757374206265203E2030000000000000 PUSH1 0x44 DUP3 ADD MSTORE REVERT JUMPDEST PUSH1 0x64 SWAP1 DUP11 MLOAD SWAP1 PUSH3 0x461BCD PUSH1 0xE5 SHL DUP3 MSTORE PUSH1 0x4 DUP3 ADD MSTORE PUSH1 0x16 PUSH1 0x24 DUP3 ADD MSTORE PUSH32 0x42617365207072696365206D757374206265203E203000000000000000000000 PUSH1 0x44 DUP3 ADD MSTORE REVERT JUMPDEST PUSH1 0x64 SWAP1 DUP11 MLOAD SWAP1 PUSH3 0x461BCD PUSH1 0xE5 SHL DUP3 MSTORE PUSH1 0x4 DUP3 ADD MSTORE PUSH1 0xF PUSH1 0x24 DUP3 ADD MSTORE PUSH15 0x24B73B30B634B21031B932B0BA37B9 PUSH1 0x89 SHL PUSH1 0x44 DUP3 ADD MSTORE REVERT JUMPDEST DUP11 MLOAD PUSH3 0x461BCD PUSH1 0xE5 SHL DUP2 MSTORE PUSH1 0x4 DUP2 ADD DUP8 SWAP1 MSTORE PUSH1 0x17 PUSH1 0x24 DUP3 ADD MSTORE PUSH32 0x496E76616C696420706C6174666F726D2077616C6C6574000000000000000000 PUSH1 0x44 DUP3 ADD MSTORE PUSH1 0x64 SWAP1 REVERT JUMPDEST PUSH3 0x461BCD PUSH1 0xE5 SHL DUP2 MSTORE PUSH1 0x4 DUP2 ADD DUP8 SWAP1 MSTORE PUSH1 0xD PUSH1 0x24 DUP3 ADD MSTORE PUSH13 0x24B73B30B634B2103A37B5B2B7 PUSH1 0x99 SHL PUSH1 0x44 DUP3 ADD MSTORE PUSH1 0x64 SWAP1 REVERT JUMPDEST PUSH1 0x0 DUP1 REVERT JUMPDEST PUSH4 0x4E487B71 PUSH1 0xE0 SHL PUSH1 0x0 MSTORE PUSH1 0x41 PUSH1 0x4 MSTORE PUSH1 0x24 PUSH1 0x0 REVERT JUMPDEST MLOAD SWAP1 PUSH1 0x1 PUSH1 0x1 PUSH1 0xA0 SHL SUB DUP3 AND DUP3 SUB PUSH3 0x2C7 JUMPI JUMP INVALID PUSH1 0x40 PUSH1 0x80 DUP2 MSTORE PUSH1 0x4 SWAP1 DUP2 CALLDATASIZE LT ISZERO PUSH2 0x15 JUMPI PUSH1 0x0 DUP1 REVERT JUMPDEST PUSH1 0x0 SWAP2 DUP3 CALLDATALOAD PUSH1 0xE0 SHR SWAP1 DUP2 PUSH3 0xF2D656 EQ PUSH2 0x13FB JUMPI DUP2 PUSH4 0x2D05D3F EQ PUSH2 0x13D2 JUMPI DUP2 PUSH4 0x5EB6F0E EQ PUSH2 0x1236 JUMPI DUP2 PUSH4 0x758D924 EQ PUSH2 0x1209 JUMPI DUP2 PUSH4 0xD4B0A54 EQ PUSH2 0x11E0 JUMPI DUP2 PUSH4 0x158EF93E EQ PUSH2 0x11B9 JUMPI DUP2 PUSH4 0x25D2A3F3 EQ PUSH2 0x117F JUMPI DUP2 PUSH4 0x340478A5 EQ PUSH2 0x1158 JUMPI DUP2 PUSH4 0x35486A2F EQ PUSH2 0x109B JUMPI DUP2 PUSH4 0x3FB168C4 EQ PUSH2 0xF01 JUMPI DUP2 PUSH4 0x42B07A4B EQ PUSH2 0xED3 JUMPI DUP2 PUSH4 0x5BD93282 EQ PUSH2 0xBC7 JUMPI DUP2 PUSH4 0x5C975ABB EQ PUSH2 0xEAC JUMPI DUP2 PUSH4 0x60A97E95 EQ PUSH2 0xE8D JUMPI DUP2 PUSH4 0x715018A6 EQ PUSH2 0xE33 JUMPI DUP2 PUSH4 0x8129FC1C EQ PUSH2 0xCF7 JUMPI DUP2 PUSH4 0x82944E2D EQ PUSH2 0xCD9 JUMPI DUP2 PUSH4 0x83C46137 EQ PUSH2 0xC9F JUMPI DUP2 PUSH4 0x83CAF275 EQ PUSH2 0xC80 JUMPI DUP2 PUSH4 0x8831E9CF EQ PUSH2 0xBF4 JUMPI DUP2 PUSH4 0x8DA5CB5B EQ PUSH2 0xBCC JUMPI DUP2 PUSH4 0x90165DD7 EQ PUSH2 0xBC7 JUMPI DUP2 PUSH4 0x9106D7BA EQ PUSH2 0xBA8 JUMPI DUP2 PUSH4 0x9D1B464A EQ PUSH2 0xB8B JUMPI DUP2 PUSH4 0x9E1A4D19 EQ PUSH2 0xB6C JUMPI DUP2 PUSH4 0x9E5F2602 EQ PUSH2 0xB48 JUMPI DUP2 PUSH4 0xA6F2AE3A EQ PUSH2 0x985 JUMPI DUP2 PUSH4 0xA8808D08 EQ PUSH2 0x966 JUMPI DUP2 PUSH4 0xBF65073E EQ PUSH2 0x924 JUMPI DUP2 PUSH4 0xC4AE3168 EQ PUSH2 0x8B7 JUMPI DUP2 PUSH4 0xC5C4744C EQ PUSH2 0x898 JUMPI DUP2 PUSH4 0xC7876EA4 EQ PUSH2 0x87A JUMPI DUP2 PUSH4 0xC8AE000C EQ PUSH2 0x85D JUMPI DUP2 PUSH4 0xD294F093 EQ PUSH2 0x7A3 JUMPI DUP2 PUSH4 0xDB2E21BC EQ PUSH2 0x653 JUMPI DUP2 PUSH4 0xDD4D7BF7 EQ PUSH2 0x637 JUMPI DUP2 PUSH4 0xE4849B32 EQ PUSH2 0x381 JUMPI DUP2 PUSH4 0xEB5B7CC2 EQ PUSH2 0x322 JUMPI DUP2 PUSH4 0xF2FDE38B EQ PUSH2 0x253 JUMPI POP DUP1 PUSH4 0xFA2AF9DA EQ PUSH2 0x22B JUMPI PUSH4 0xFC0C546A EQ PUSH2 0x1E5 JUMPI PUSH1 0x0 DUP1 REVERT JUMPDEST CALLVALUE PUSH2 0x227 JUMPI DUP2 PUSH1 0x3 NOT CALLDATASIZE ADD SLT PUSH2 0x227 JUMPI MLOAD PUSH32 0x0 PUSH1 0x1 PUSH1 0x1 PUSH1 0xA0 SHL SUB AND DUP2 MSTORE PUSH1 0x20 SWAP1 RETURN JUMPDEST POP DUP1 REVERT JUMPDEST POP CALLVALUE PUSH2 0x227 JUMPI DUP2 PUSH1 0x3 NOT CALLDATASIZE ADD SLT PUSH2 0x227 JUMPI PUSH1 0x2 SLOAD SWAP1 MLOAD PUSH1 0x1 PUSH1 0x1 PUSH1 0xA0 SHL SUB SWAP1 SWAP2 AND DUP2 MSTORE PUSH1 0x20 SWAP1 RETURN JUMPDEST SWAP2 SWAP1 POP CALLVALUE PUSH2 0x31E JUMPI PUSH1 0x20 CALLDATASIZE PUSH1 0x3 NOT ADD SLT PUSH2 0x31E JUMPI PUSH1 0x1 PUSH1 0x1 PUSH1 0xA0 SHL SUB DUP3 CALLDATALOAD DUP2 DUP2 AND SWAP4 SWAP2 SWAP3 SWAP1 DUP5 SWAP1 SUB PUSH2 0x31A JUMPI PUSH2 0x287 PUSH2 0x1A9E JUMP JUMPDEST DUP4 ISZERO PUSH2 0x2C8 JUMPI POP POP DUP3 SLOAD PUSH1 0x1 PUSH1 0x1 PUSH1 0xA0 SHL SUB NOT DUP2 AND DUP4 OR DUP5 SSTORE AND PUSH32 0x8BE0079C531659141344CD1FD0A4F28419497F9722A3DAAFE3B4186F6B6457E0 DUP4 DUP1 LOG3 DUP1 RETURN JUMPDEST SWAP1 PUSH1 0x20 PUSH1 0x84 SWAP3 MLOAD SWAP2 PUSH3 0x461BCD PUSH1 0xE5 SHL DUP4 MSTORE DUP3 ADD MSTORE PUSH1 0x26 PUSH1 0x24 DUP3 ADD MSTORE PUSH32 0x4F776E61626C653A206E6577206F776E657220697320746865207A65726F2061 PUSH1 0x44 DUP3 ADD MSTORE PUSH6 0x646472657373 PUSH1 0xD0 SHL PUSH1 0x64 DUP3 ADD MSTORE REVERT JUMPDEST DUP5 DUP1 REVERT JUMPDEST DUP3 DUP1 REVERT JUMPDEST DUP3 DUP5 CALLVALUE PUSH2 0x37E JUMPI PUSH1 0x20 CALLDATASIZE PUSH1 0x3 NOT ADD SLT PUSH2 0x37E JUMPI DUP3 CALLDATALOAD SWAP1 PUSH1 0x64 DUP3 MUL SWAP1 DUP3 DUP3 DIV PUSH1 0x64 EQ DUP4 ISZERO OR ISZERO PUSH2 0x36B JUMPI PUSH1 0x20 DUP5 PUSH2 0x364 PUSH2 0x35F PUSH2 0x2710 DUP7 DIV DUP8 PUSH2 0x1BF8 JUMP JUMPDEST PUSH2 0x1FA6 JUMP JUMPDEST SWAP1 MLOAD SWAP1 DUP2 MSTORE RETURN JUMPDEST PUSH4 0x4E487B71 PUSH1 0xE0 SHL DUP2 MSTORE PUSH1 0x11 DUP6 MSTORE PUSH1 0x24 SWAP1 REVERT JUMPDEST DUP1 REVERT JUMPDEST DUP4 SWAP2 POP CALLVALUE PUSH2 0x227 JUMPI PUSH1 0x20 DUP1 PUSH1 0x3 NOT CALLDATASIZE ADD SLT PUSH2 0x31E JUMPI DUP2 CALLDATALOAD SWAP2 PUSH2 0x3A1 PUSH2 0x1C51 JUMP JUMPDEST PUSH1 0xFF PUSH1 0xA SLOAD PUSH2 0x3B5 DUP3 DUP3 PUSH1 0xA8 SHR AND ISZERO PUSH2 0x1B2E JUMP JUMPDEST AND PUSH2 0x5F6 JUMPI PUSH2 0x3C5 DUP4 ISZERO ISZERO PUSH2 0x1F06 JUMP JUMPDEST DUP3 PUSH1 0x7 SLOAD LT PUSH2 0x5BF JUMPI PUSH2 0x3D7 DUP4 PUSH2 0x2139 JUMP JUMPDEST SWAP1 DUP2 ISZERO PUSH2 0x583 JUMPI SELFBALANCE DUP1 DUP4 GT PUSH2 0x57B JUMPI JUMPDEST POP PUSH1 0x64 DUP3 MUL DUP3 DUP2 DIV PUSH1 0x64 EQ DUP4 ISZERO OR ISZERO PUSH2 0x568 JUMPI PUSH2 0x2710 SWAP1 DIV SWAP3 PUSH2 0x40A DUP5 DUP5 PUSH2 0x1BF8 JUMP JUMPDEST DUP8 MLOAD PUSH4 0x23B872DD PUSH1 0xE0 SHL DUP4 DUP3 ADD MSTORE CALLER PUSH1 0x24 DUP3 ADD MSTORE ADDRESS PUSH1 0x44 DUP3 ADD MSTORE PUSH1 0x64 DUP1 DUP3 ADD DUP9 SWAP1 MSTORE DUP2 MSTORE PUSH1 0xA0 DUP2 ADD PUSH8 0xFFFFFFFFFFFFFFFF DUP2 GT DUP3 DUP3 LT OR PUSH2 0x555 JUMPI DUP9 DUP1 SWAP4 PUSH2 0x477 DUP3 SWAP5 DUP4 SWAP5 DUP15 MSTORE PUSH32 0x0 PUSH2 0x1CFA JUMP JUMPDEST PUSH2 0x483 DUP11 PUSH1 0x7 SLOAD PUSH2 0x1BF8 JUMP JUMPDEST PUSH1 0x7 SSTORE PUSH2 0x492 DUP9 PUSH1 0x8 SLOAD PUSH2 0x1BF8 JUMP JUMPDEST PUSH1 0x8 SSTORE PUSH2 0x4A1 DUP11 PUSH1 0x9 SLOAD PUSH2 0x1C44 JUMP JUMPDEST PUSH1 0x9 SSTORE CALLER GAS CALL PUSH2 0x4AF PUSH2 0x1DF2 JUMP JUMPDEST POP ISZERO PUSH2 0x51D JUMPI POP POP PUSH2 0x513 PUSH32 0x910F01659F782FDE3D5C0EE026ADFBAE451C6ACCAD6884192F12BCFB9B2F13E5 SWAP4 SWAP5 SWAP6 PUSH2 0x4E7 DUP5 PUSH2 0x216F JUMP JUMPDEST PUSH2 0x4EF PUSH2 0x1F88 JUMP JUMPDEST SWAP1 MLOAD SWAP4 DUP5 SWAP4 CALLER SWAP8 DUP6 SWAP1 SWAP5 SWAP4 SWAP3 PUSH1 0x60 SWAP3 PUSH1 0x80 DUP4 ADD SWAP7 DUP4 MSTORE PUSH1 0x20 DUP4 ADD MSTORE PUSH1 0x40 DUP3 ADD MSTORE ADD MSTORE JUMP JUMPDEST SUB SWAP1 LOG2 PUSH1 0x1 DUP1 SSTORE DUP1 RETURN JUMPDEST DUP7 MLOAD PUSH3 0x461BCD PUSH1 0xE5 SHL DUP2 MSTORE SWAP2 DUP3 ADD MSTORE PUSH1 0x13 PUSH1 0x24 DUP3 ADD MSTORE PUSH19 0x115512081D1C985B9CD9995C8819985A5B1959 PUSH1 0x6A SHL PUSH1 0x44 DUP3 ADD MSTORE PUSH1 0x64 SWAP2 POP REVERT JUMPDEST PUSH4 0x4E487B71 PUSH1 0xE0 SHL DUP10 MSTORE PUSH1 0x41 DUP6 MSTORE PUSH1 0x24 DUP10 REVERT JUMPDEST PUSH4 0x4E487B71 PUSH1 0xE0 SHL DUP7 MSTORE PUSH1 0x11 DUP3 MSTORE PUSH1 0x24 DUP7 REVERT JUMPDEST SWAP2 POP DUP7 PUSH2 0x3E7 JUMP JUMPDEST DUP6 MLOAD PUSH3 0x461BCD PUSH1 0xE5 SHL DUP2 MSTORE SWAP1 DUP2 ADD DUP4 SWAP1 MSTORE PUSH1 0x16 PUSH1 0x24 DUP3 ADD MSTORE PUSH22 0x151BDAD95B88185B5BDD5B9D081D1BDBC81CDB585B1B PUSH1 0x52 SHL PUSH1 0x44 DUP3 ADD MSTORE PUSH1 0x64 SWAP1 REVERT JUMPDEST PUSH1 0x64 SWAP2 DUP6 MLOAD SWAP2 PUSH3 0x461BCD PUSH1 0xE5 SHL DUP4 MSTORE DUP3 ADD MSTORE PUSH1 0x13 PUSH1 0x24 DUP3 ADD MSTORE PUSH19 0x115E18D959591CC81CDBDB1908185B5BDD5B9D PUSH1 0x6A SHL PUSH1 0x44 DUP3 ADD MSTORE REVERT JUMPDEST PUSH1 0x64 SWAP2 DUP6 MLOAD SWAP2 PUSH3 0x461BCD PUSH1 0xE5 SHL DUP4 MSTORE DUP3 ADD MSTORE PUSH1 0x1E PUSH1 0x24 DUP3 ADD MSTORE PUSH32 0x416C7265616479206772616475617465642C2073656C6C206F6E204445580000 PUSH1 0x44 DUP3 ADD MSTORE REVERT JUMPDEST POP POP CALLVALUE PUSH2 0x227 JUMPI DUP2 PUSH1 0x3 NOT CALLDATASIZE ADD SLT PUSH2 0x227 JUMPI PUSH1 0x20 SWAP1 MLOAD PUSH1 0x64 DUP2 MSTORE RETURN JUMPDEST SWAP2 SWAP1 POP CALLVALUE PUSH2 0x31E JUMPI DUP3 PUSH1 0x3 NOT CALLDATASIZE ADD SLT PUSH2 0x31E JUMPI PUSH2 0x66E PUSH2 0x1A9E JUMP JUMPDEST PUSH2 0x67F PUSH1 0xFF PUSH1 0xA SLOAD PUSH1 0xA8 SHR AND PUSH2 0x248F JUMP JUMPDEST PUSH1 0xC SLOAD DUP1 ISZERO PUSH2 0x760 JUMPI TIMESTAMP LT PUSH2 0x726 JUMPI DUP3 PUSH1 0xC SSTORE SELFBALANCE DUP1 ISZERO PUSH2 0x6F6 JUMPI PUSH1 0x2 SLOAD DUP5 SWAP2 DUP3 SWAP2 DUP3 SWAP2 DUP3 SWAP2 PUSH1 0x1 PUSH1 0x1 PUSH1 0xA0 SHL SUB AND GAS CALL PUSH2 0x6B7 PUSH2 0x1DF2 JUMP JUMPDEST POP ISZERO PUSH2 0x6C1 JUMPI DUP3 DUP1 RETURN JUMPDEST SWAP1 PUSH1 0x20 PUSH1 0x64 SWAP3 MLOAD SWAP2 PUSH3 0x461BCD PUSH1 0xE5 SHL DUP4 MSTORE DUP3 ADD MSTORE PUSH1 0xF PUSH1 0x24 DUP3 ADD MSTORE PUSH15 0x15DA5D1A191C985DC819985A5B1959 PUSH1 0x8A SHL PUSH1 0x44 DUP3 ADD MSTORE REVERT JUMPDEST DUP2 MLOAD PUSH3 0x461BCD PUSH1 0xE5 SHL DUP2 MSTORE PUSH1 0x20 DUP2 DUP6 ADD MSTORE PUSH1 0xA PUSH1 0x24 DUP3 ADD MSTORE PUSH10 0x4E6F2062616C616E6365 PUSH1 0xB0 SHL PUSH1 0x44 DUP3 ADD MSTORE PUSH1 0x64 SWAP1 REVERT JUMPDEST SWAP1 PUSH1 0x20 PUSH1 0x64 SWAP3 MLOAD SWAP2 PUSH3 0x461BCD PUSH1 0xE5 SHL DUP4 MSTORE DUP3 ADD MSTORE PUSH1 0x14 PUSH1 0x24 DUP3 ADD MSTORE PUSH20 0x151A5B595B1BD8DAC81B9BDD08195E1C1A5C9959 PUSH1 0x62 SHL PUSH1 0x44 DUP3 ADD MSTORE REVERT JUMPDEST DUP2 MLOAD PUSH3 0x461BCD PUSH1 0xE5 SHL DUP2 MSTORE PUSH1 0x20 DUP2 DUP6 ADD MSTORE PUSH1 0x17 PUSH1 0x24 DUP3 ADD MSTORE PUSH32 0x456D657267656E6379206E6F7420696E69746961746564000000000000000000 PUSH1 0x44 DUP3 ADD MSTORE PUSH1 0x64 SWAP1 REVERT JUMPDEST SWAP2 SWAP1 POP CALLVALUE PUSH2 0x31E JUMPI DUP3 PUSH1 0x3 NOT CALLDATASIZE ADD SLT PUSH2 0x31E JUMPI CALLER DUP4 MSTORE PUSH1 0xB PUSH1 0x20 MSTORE DUP1 DUP4 KECCAK256 SLOAD DUP1 ISZERO PUSH2 0x828 JUMPI DUP4 DUP1 DUP1 DUP1 SWAP4 CALLER DUP3 MSTORE PUSH1 0xB PUSH1 0x20 MSTORE DUP2 DUP7 DUP2 KECCAK256 SSTORE CALLER GAS CALL PUSH2 0x7E5 PUSH2 0x1DF2 JUMP JUMPDEST POP ISZERO PUSH2 0x7EF JUMPI DUP3 DUP1 RETURN JUMPDEST PUSH1 0x20 SWAP1 PUSH1 0x64 SWAP4 CALLER SWAP1 MSTORE PUSH1 0xB DUP3 MSTORE MLOAD SWAP2 PUSH3 0x461BCD PUSH1 0xE5 SHL DUP4 MSTORE DUP3 ADD MSTORE PUSH1 0xC PUSH1 0x24 DUP3 ADD MSTORE PUSH12 0x10DB185A5B4819985A5B1959 PUSH1 0xA2 SHL PUSH1 0x44 DUP3 ADD MSTORE REVERT JUMPDEST DUP2 MLOAD PUSH3 0x461BCD PUSH1 0xE5 SHL DUP2 MSTORE PUSH1 0x20 DUP2 DUP6 ADD MSTORE PUSH1 0xF PUSH1 0x24 DUP3 ADD MSTORE PUSH15 0x4E6F2070656E64696E672066656573 PUSH1 0x88 SHL PUSH1 0x44 DUP3 ADD MSTORE PUSH1 0x64 SWAP1 REVERT JUMPDEST POP POP CALLVALUE PUSH2 0x227 JUMPI DUP2 PUSH1 0x3 NOT CALLDATASIZE ADD SLT PUSH2 0x227 JUMPI PUSH1 0x20 SWAP1 PUSH2 0x364 PUSH2 0x1F47 JUMP JUMPDEST SWAP1 POP CALLVALUE PUSH2 0x31E JUMPI DUP3 PUSH1 0x3 NOT CALLDATASIZE ADD SLT PUSH2 0x31E JUMPI PUSH1 0x20 SWAP3 POP SLOAD SWAP1 MLOAD SWAP1 DUP2 MSTORE RETURN JUMPDEST POP POP CALLVALUE PUSH2 0x227 JUMPI DUP2 PUSH1 0x3 NOT CALLDATASIZE ADD SLT PUSH2 0x227 JUMPI PUSH1 0x20 SWAP1 PUSH1 0x8 SLOAD SWAP1 MLOAD SWAP1 DUP2 MSTORE RETURN JUMPDEST POP POP CALLVALUE PUSH2 0x227 JUMPI DUP2 PUSH1 0x3 NOT CALLDATASIZE ADD SLT PUSH2 0x227 JUMPI PUSH1 0x20 PUSH32 0x9077D36BC00859B5C3F320310707208543DD35092CB0A0FE117D0C6A558B148B SWAP2 PUSH2 0x8F5 PUSH2 0x1A9E JUMP JUMPDEST PUSH1 0xFF PUSH1 0xA SLOAD DUP2 PUSH1 0xA8 SHL DUP3 DUP3 PUSH1 0xA8 SHR AND ISZERO PUSH1 0xA8 SHL AND SWAP1 DUP3 PUSH1 0xA8 SHL NOT AND OR SWAP2 DUP3 PUSH1 0xA SSTORE MLOAD SWAP2 PUSH1 0xA8 SHR AND ISZERO ISZERO DUP2 MSTORE LOG1 DUP1 RETURN JUMPDEST DUP3 DUP5 CALLVALUE PUSH2 0x37E JUMPI PUSH1 0x20 CALLDATASIZE PUSH1 0x3 NOT ADD SLT PUSH2 0x37E JUMPI PUSH2 0x941 DUP4 CALLDATALOAD PUSH2 0x20D5 JUMP JUMPDEST SWAP1 PUSH1 0x64 DUP3 MUL SWAP1 DUP3 DUP3 DIV PUSH1 0x64 EQ DUP4 ISZERO OR ISZERO PUSH2 0x36B JUMPI PUSH1 0x20 DUP5 PUSH2 0x364 PUSH2 0x26AC DUP6 DIV DUP7 PUSH2 0x1C44 JUMP JUMPDEST POP POP CALLVALUE PUSH2 0x227 JUMPI DUP2 PUSH1 0x3 NOT CALLDATASIZE ADD SLT PUSH2 0x227 JUMPI PUSH1 0x20 SWAP1 PUSH1 0xC SLOAD SWAP1 MLOAD SWAP1 DUP2 MSTORE RETURN JUMPDEST SWAP2 SWAP1 POP DUP3 PUSH1 0x3 NOT CALLDATASIZE ADD SLT PUSH2 0x31E JUMPI PUSH2 0x99B PUSH2 0x1C51 JUMP JUMPDEST PUSH2 0x9B9 PUSH1 0xFF PUSH1 0xA SLOAD PUSH2 0x9B2 DUP3 DUP3 PUSH1 0xA8 SHR AND ISZERO PUSH2 0x1B2E JUMP JUMPDEST AND ISZERO PUSH2 0x1B6F JUMP JUMPDEST CALLVALUE ISZERO PUSH2 0xB15 JUMPI PUSH1 0x64 CALLVALUE MUL CALLVALUE DUP2 DIV PUSH1 0x64 SUB PUSH2 0xB02 JUMPI PUSH2 0x2710 SWAP1 DIV SWAP2 PUSH2 0x9E0 PUSH2 0x35F DUP5 CALLVALUE PUSH2 0x1BF8 JUMP JUMPDEST SWAP1 PUSH2 0x9EC DUP3 ISZERO ISZERO PUSH2 0x1C05 JUMP JUMPDEST PUSH1 0x9 SLOAD DUP3 GT PUSH2 0xABF JUMPI POP SWAP1 DUP2 PUSH2 0xA25 PUSH32 0x7CA4A3CAD3BAC410861AF1B25202900FF3C8DD2174EAAA6C0EF89F2A04E65FD5 SWAP4 PUSH1 0x7 SLOAD PUSH2 0x1C44 JUMP JUMPDEST PUSH1 0x7 SSTORE PUSH2 0xA34 CALLVALUE PUSH1 0x8 SLOAD PUSH2 0x1C44 JUMP JUMPDEST PUSH1 0x8 SSTORE PUSH2 0xA62 DUP2 CALLER PUSH32 0x0 PUSH2 0x1CA7 JUMP JUMPDEST PUSH2 0xA6B DUP5 PUSH2 0x216F JUMP JUMPDEST PUSH2 0xA9B PUSH2 0xA76 PUSH2 0x1F88 JUMP JUMPDEST SWAP3 MLOAD SWAP3 DUP4 SWAP3 CALLER SWAP7 CALLVALUE DUP6 SWAP1 SWAP5 SWAP4 SWAP3 PUSH1 0x60 SWAP3 PUSH1 0x80 DUP4 ADD SWAP7 DUP4 MSTORE PUSH1 0x20 DUP4 ADD MSTORE PUSH1 0x40 DUP3 ADD MSTORE ADD MSTORE JUMP JUMPDEST SUB SWAP1 LOG2 PUSH1 0x8 SLOAD PUSH1 0x6 SLOAD GT ISZERO PUSH2 0xAB2 JUMPI JUMPDEST PUSH1 0x1 DUP1 SSTORE DUP1 RETURN JUMPDEST PUSH2 0xABA PUSH2 0x229F JUMP JUMPDEST PUSH2 0xAAB JUMP JUMPDEST PUSH1 0x64 SWAP1 PUSH1 0x20 DUP5 MLOAD SWAP2 PUSH3 0x461BCD PUSH1 0xE5 SHL DUP4 MSTORE DUP3 ADD MSTORE PUSH1 0x18 PUSH1 0x24 DUP3 ADD MSTORE PUSH32 0x4578636565647320617661696C61626C6520737570706C790000000000000000 PUSH1 0x44 DUP3 ADD MSTORE REVERT JUMPDEST PUSH4 0x4E487B71 PUSH1 0xE0 SHL DUP5 MSTORE PUSH1 0x11 DUP4 MSTORE PUSH1 0x24 DUP5 REVERT JUMPDEST SWAP1 PUSH1 0x20 PUSH1 0x64 SWAP3 MLOAD SWAP2 PUSH3 0x461BCD PUSH1 0xE5 SHL DUP4 MSTORE DUP3 ADD MSTORE PUSH1 0xD PUSH1 0x24 DUP3 ADD MSTORE PUSH13 0x9AEAE6E840E6CADCC8408AA89 PUSH1 0x9B SHL PUSH1 0x44 DUP3 ADD MSTORE REVERT JUMPDEST POP POP CALLVALUE PUSH2 0x227 JUMPI DUP2 PUSH1 0x3 NOT CALLDATASIZE ADD SLT PUSH2 0x227 JUMPI PUSH1 0x20 SWAP1 PUSH1 0xFF PUSH1 0xA SLOAD AND SWAP1 MLOAD SWAP1 ISZERO ISZERO DUP2 MSTORE RETURN JUMPDEST POP POP CALLVALUE PUSH2 0x227 JUMPI DUP2 PUSH1 0x3 NOT CALLDATASIZE ADD SLT PUSH2 0x227 JUMPI PUSH1 0x20 SWAP1 PUSH1 0x9 SLOAD SWAP1 MLOAD SWAP1 DUP2 MSTORE RETURN JUMPDEST POP POP CALLVALUE PUSH2 0x227 JUMPI DUP2 PUSH1 0x3 NOT CALLDATASIZE ADD SLT PUSH2 0x227 JUMPI PUSH1 0x20 SWAP1 PUSH2 0x364 PUSH2 0x1F88 JUMP JUMPDEST POP POP CALLVALUE PUSH2 0x227 JUMPI DUP2 PUSH1 0x3 NOT CALLDATASIZE ADD SLT PUSH2 0x227 JUMPI PUSH1 0x20 SWAP1 PUSH1 0x7 SLOAD SWAP1 MLOAD SWAP1 DUP2 MSTORE RETURN JUMPDEST PUSH2 0x1A7C JUMP JUMPDEST POP POP CALLVALUE PUSH2 0x227 JUMPI DUP2 PUSH1 0x3 NOT CALLDATASIZE ADD SLT PUSH2 0x227 JUMPI SWAP1 SLOAD SWAP1 MLOAD PUSH1 0x1 PUSH1 0x1 PUSH1 0xA0 SHL SUB SWAP1 SWAP2 AND DUP2 MSTORE PUSH1 0x20 SWAP1 RETURN JUMPDEST SWAP1 POP CALLVALUE PUSH2 0x31E JUMPI PUSH1 0x20 CALLDATASIZE PUSH1 0x3 NOT ADD SLT PUSH2 0x31E JUMPI DUP1 CALLDATALOAD PUSH1 0x1 PUSH1 0x1 PUSH1 0xA0 SHL SUB DUP2 AND SWAP3 SWAP1 DUP4 SWAP1 SUB PUSH2 0xC7C JUMPI PUSH2 0xC24 PUSH2 0x1A9E JUMP JUMPDEST DUP3 ISZERO PUSH2 0xC47 JUMPI POP POP PUSH12 0xFFFFFFFFFFFFFFFFFFFFFFFF PUSH1 0xA0 SHL PUSH1 0x2 SLOAD AND OR PUSH1 0x2 SSTORE DUP1 RETURN JUMPDEST SWAP1 PUSH1 0x20 PUSH1 0x64 SWAP3 MLOAD SWAP2 PUSH3 0x461BCD PUSH1 0xE5 SHL DUP4 MSTORE DUP3 ADD MSTORE PUSH1 0xF PUSH1 0x24 DUP3 ADD MSTORE PUSH15 0x496E76616C69642061646472657373 PUSH1 0x88 SHL PUSH1 0x44 DUP3 ADD MSTORE REVERT JUMPDEST DUP4 DUP1 REVERT JUMPDEST POP POP CALLVALUE PUSH2 0x227 JUMPI DUP2 PUSH1 0x3 NOT CALLDATASIZE ADD SLT PUSH2 0x227 JUMPI PUSH1 0x20 SWAP1 PUSH1 0x5 SLOAD SWAP1 MLOAD SWAP1 DUP2 MSTORE RETURN JUMPDEST POP POP CALLVALUE PUSH2 0x227 JUMPI DUP2 PUSH1 0x3 NOT CALLDATASIZE ADD SLT PUSH2 0x227 JUMPI PUSH1 0x20 SWAP1 PUSH1 0xFF PUSH1 0xA SLOAD AND ISZERO SWAP1 DUP2 PUSH2 0xCCA JUMPI JUMPDEST MLOAD SWAP1 ISZERO ISZERO DUP2 MSTORE RETURN JUMPDEST PUSH1 0x8 SLOAD PUSH1 0x6 SLOAD GT ISZERO SWAP2 POP PUSH2 0xCC2 JUMP JUMPDEST POP POP CALLVALUE PUSH2 0x227 JUMPI DUP2 PUSH1 0x3 NOT CALLDATASIZE ADD SLT PUSH2 0x227 JUMPI PUSH1 0x20 SWAP1 MLOAD PUSH3 0x2A300 DUP2 MSTORE RETURN JUMPDEST SWAP1 POP CALLVALUE PUSH2 0x31E JUMPI DUP3 PUSH1 0x3 NOT CALLDATASIZE ADD SLT PUSH2 0x31E JUMPI PUSH2 0xD11 PUSH2 0x1A9E JUMP JUMPDEST PUSH1 0xD SLOAD SWAP2 PUSH1 0xFF DUP4 PUSH1 0xA8 SHR AND PUSH2 0xDFA JUMPI DUP1 MLOAD PUSH4 0x70A08231 PUSH1 0xE0 SHL DUP2 MSTORE ADDRESS DUP4 DUP3 ADD MSTORE PUSH1 0x20 DUP2 PUSH1 0x24 DUP2 PUSH32 0x0 PUSH1 0x1 PUSH1 0x1 PUSH1 0xA0 SHL SUB AND GAS STATICCALL SWAP1 DUP2 ISZERO PUSH2 0xDF0 JUMPI DUP6 SWAP2 PUSH2 0xDBF JUMPI JUMPDEST POP DUP1 PUSH1 0x9 SSTORE ISZERO PUSH2 0xD90 JUMPI POP POP PUSH1 0xFF PUSH1 0xA8 SHL NOT AND PUSH1 0x1 PUSH1 0xA8 SHL OR PUSH1 0xD SSTORE DUP1 RETURN JUMPDEST SWAP1 PUSH1 0x20 PUSH1 0x64 SWAP3 MLOAD SWAP2 PUSH3 0x461BCD PUSH1 0xE5 SHL DUP4 MSTORE DUP3 ADD MSTORE PUSH1 0x9 PUSH1 0x24 DUP3 ADD MSTORE PUSH9 0x4E6F20746F6B656E73 PUSH1 0xB8 SHL PUSH1 0x44 DUP3 ADD MSTORE REVERT JUMPDEST SWAP1 POP PUSH1 0x20 DUP2 RETURNDATASIZE DUP3 GT PUSH2 0xDE8 JUMPI JUMPDEST DUP2 PUSH2 0xDD9 PUSH1 0x20 SWAP4 DUP4 PUSH2 0x1AF6 JUMP JUMPDEST DUP2 ADD SUB SLT PUSH2 0x31A JUMPI MLOAD CODESIZE PUSH2 0xD71 JUMP JUMPDEST RETURNDATASIZE SWAP2 POP PUSH2 0xDCC JUMP JUMPDEST DUP3 MLOAD RETURNDATASIZE DUP8 DUP3 RETURNDATACOPY RETURNDATASIZE SWAP1 REVERT JUMPDEST SWAP1 PUSH1 0x20 PUSH1 0x64 SWAP3 MLOAD SWAP2 PUSH3 0x461BCD PUSH1 0xE5 SHL DUP4 MSTORE DUP3 ADD MSTORE PUSH1 0x13 PUSH1 0x24 DUP3 ADD MSTORE PUSH19 0x105B1C9958591E481A5B9A5D1A585B1A5E9959 PUSH1 0x6A SHL PUSH1 0x44 DUP3 ADD MSTORE REVERT JUMPDEST DUP4 CALLVALUE PUSH2 0x37E JUMPI DUP1 PUSH1 0x3 NOT CALLDATASIZE ADD SLT PUSH2 0x37E JUMPI PUSH2 0xE4C PUSH2 0x1A9E JUMP JUMPDEST DUP1 SLOAD PUSH1 0x1 PUSH1 0x1 PUSH1 0xA0 SHL SUB NOT DUP2 AND DUP3 SSTORE DUP2 SWAP1 PUSH1 0x1 PUSH1 0x1 PUSH1 0xA0 SHL SUB AND PUSH32 0x8BE0079C531659141344CD1FD0A4F28419497F9722A3DAAFE3B4186F6B6457E0 DUP3 DUP1 LOG3 DUP1 RETURN JUMPDEST POP POP CALLVALUE PUSH2 0x227 JUMPI DUP2 PUSH1 0x3 NOT CALLDATASIZE ADD SLT PUSH2 0x227 JUMPI PUSH1 0x20 SWAP1 PUSH1 0x6 SLOAD SWAP1 MLOAD SWAP1 DUP2 MSTORE RETURN JUMPDEST POP POP CALLVALUE PUSH2 0x227 JUMPI DUP2 PUSH1 0x3 NOT CALLDATASIZE ADD SLT PUSH2 0x227 JUMPI PUSH1 0x20 SWAP1 PUSH1 0xFF PUSH1 0xA SLOAD PUSH1 0xA8 SHR AND SWAP1 MLOAD SWAP1 ISZERO ISZERO DUP2 MSTORE RETURN JUMPDEST POP POP CALLVALUE PUSH2 0x227 JUMPI DUP2 PUSH1 0x3 NOT CALLDATASIZE ADD SLT PUSH2 0x227 JUMPI PUSH1 0x20 SWAP1 PUSH2 0xEF0 PUSH2 0x233B JUMP JUMPDEST SWAP1 MLOAD PUSH1 0x1 PUSH1 0x1 PUSH1 0xA0 SHL SUB SWAP1 SWAP2 AND DUP2 MSTORE RETURN JUMPDEST SWAP2 SWAP1 POP CALLVALUE PUSH2 0x31E JUMPI DUP3 PUSH1 0x3 NOT CALLDATASIZE ADD SLT PUSH2 0x31E JUMPI PUSH2 0xF1C PUSH2 0x1A9E JUMP JUMPDEST PUSH2 0xF2A PUSH1 0xFF PUSH1 0xA SLOAD AND PUSH2 0x22E0 JUMP JUMPDEST DUP1 MLOAD PUSH4 0x70A08231 PUSH1 0xE0 SHL DUP2 MSTORE ADDRESS DUP2 DUP5 ADD MSTORE PUSH1 0x1 PUSH1 0x1 PUSH1 0xA0 SHL SUB SWAP3 SWAP1 SWAP2 PUSH32 0x0 SWAP2 SWAP1 PUSH1 0x20 SWAP1 SELFBALANCE DUP3 DUP7 PUSH1 0x24 DUP2 DUP11 DUP10 AND GAS STATICCALL SWAP6 DUP7 ISZERO PUSH2 0x1091 JUMPI DUP9 SWAP7 PUSH2 0x105E JUMPI JUMPDEST POP DUP1 ISZERO DUP1 ISZERO DUP1 SWAP2 PUSH2 0x1055 JUMPI JUMPDEST ISZERO PUSH2 0x101C JUMPI SWAP1 DUP9 SWAP2 PUSH2 0xFC5 JUMPI JUMPDEST POP POP POP POP POP DUP2 PUSH2 0xFAC JUMPI DUP4 DUP1 RETURN JUMPDEST PUSH2 0xFBE SWAP3 DUP5 PUSH1 0x9 SSTORE PUSH1 0x2 SLOAD AND SWAP1 PUSH2 0x1CA7 JUMP JUMPDEST CODESIZE DUP1 DUP1 DUP4 DUP1 RETURN JUMPDEST DUP2 DUP1 DUP1 SWAP3 DUP11 PUSH1 0x2 SLOAD AND GAS CALL PUSH2 0xFD8 PUSH2 0x1DF2 JUMP JUMPDEST POP ISZERO PUSH2 0xFE5 JUMPI DUP7 DUP2 PUSH2 0xF9E JUMP JUMPDEST MLOAD PUSH3 0x461BCD PUSH1 0xE5 SHL DUP2 MSTORE SWAP2 DUP3 ADD MSTORE PUSH1 0x13 PUSH1 0x24 DUP3 ADD MSTORE PUSH19 0x115512081DDA5D1A191C985DC819985A5B1959 PUSH1 0x6A SHL PUSH1 0x44 DUP3 ADD MSTORE PUSH1 0x64 SWAP2 POP REVERT JUMPDEST POP POP MLOAD PUSH3 0x461BCD PUSH1 0xE5 SHL DUP2 MSTORE SWAP2 DUP3 ADD MSTORE PUSH1 0x13 PUSH1 0x24 DUP3 ADD MSTORE PUSH19 0x4E6F7468696E6720746F207769746864726177 PUSH1 0x68 SHL PUSH1 0x44 DUP3 ADD MSTORE PUSH1 0x64 SWAP2 POP REVERT JUMPDEST POP DUP7 ISZERO ISZERO PUSH2 0xF91 JUMP JUMPDEST SWAP1 SWAP6 POP DUP3 DUP2 DUP2 RETURNDATASIZE DUP4 GT PUSH2 0x108A JUMPI JUMPDEST PUSH2 0x1076 DUP2 DUP4 PUSH2 0x1AF6 JUMP JUMPDEST DUP2 ADD SUB SLT PUSH2 0x1086 JUMPI MLOAD SWAP5 CODESIZE PUSH2 0xF85 JUMP JUMPDEST DUP8 DUP1 REVERT JUMPDEST POP RETURNDATASIZE PUSH2 0x106C JUMP JUMPDEST DUP3 MLOAD RETURNDATASIZE DUP11 DUP3 RETURNDATACOPY RETURNDATASIZE SWAP1 REVERT JUMPDEST SWAP2 SWAP1 POP CALLVALUE PUSH2 0x31E JUMPI DUP3 PUSH1 0x3 NOT CALLDATASIZE ADD SLT PUSH2 0x31E JUMPI PUSH2 0x10B6 PUSH2 0x1A9E JUMP JUMPDEST PUSH2 0x10C7 PUSH1 0xFF PUSH1 0xA SLOAD PUSH1 0xA8 SHR AND PUSH2 0x248F JUMP JUMPDEST PUSH1 0xC SLOAD PUSH2 0x1121 JUMPI PUSH3 0x2A300 TIMESTAMP ADD SWAP2 DUP3 TIMESTAMP GT PUSH2 0x110E JUMPI POP DUP2 PUSH1 0x20 SWAP2 PUSH32 0x321E4E6EDD055EBD12E269436C1562C06EFFF25F3532CC5FDCB9909193E30314 SWAP4 PUSH1 0xC SSTORE MLOAD SWAP1 DUP2 MSTORE LOG1 DUP1 RETURN JUMPDEST PUSH4 0x4E487B71 PUSH1 0xE0 SHL DUP5 MSTORE PUSH1 0x11 SWAP1 MSTORE PUSH1 0x24 DUP4 REVERT JUMPDEST SWAP1 PUSH1 0x20 PUSH1 0x64 SWAP3 MLOAD SWAP2 PUSH3 0x461BCD PUSH1 0xE5 SHL DUP4 MSTORE DUP3 ADD MSTORE PUSH1 0x11 PUSH1 0x24 DUP3 ADD MSTORE PUSH17 0x105B1C9958591E481A5B9A5D1A585D1959 PUSH1 0x7A SHL PUSH1 0x44 DUP3 ADD MSTORE REVERT JUMPDEST POP POP CALLVALUE PUSH2 0x227 JUMPI DUP2 PUSH1 0x3 NOT CALLDATASIZE ADD SLT PUSH2 0x227 JUMPI PUSH1 0x20 SWAP1 PUSH1 0xFF PUSH1 0xD SLOAD PUSH1 0xA0 SHR AND SWAP1 MLOAD SWAP1 ISZERO ISZERO DUP2 MSTORE RETURN JUMPDEST SWAP1 POP CALLVALUE PUSH2 0x31E JUMPI PUSH1 0x20 CALLDATASIZE PUSH1 0x3 NOT ADD SLT PUSH2 0x31E JUMPI CALLDATALOAD PUSH1 0x1 PUSH1 0x1 PUSH1 0xA0 SHL SUB DUP2 AND SWAP1 DUP2 SWAP1 SUB PUSH2 0x31E JUMPI DUP3 DUP3 SWAP2 PUSH1 0x20 SWAP5 MSTORE PUSH1 0xB DUP5 MSTORE KECCAK256 SLOAD SWAP1 MLOAD SWAP1 DUP2 MSTORE RETURN JUMPDEST POP POP CALLVALUE PUSH2 0x227 JUMPI DUP2 PUSH1 0x3 NOT CALLDATASIZE ADD SLT PUSH2 0x227 JUMPI PUSH1 0x20 SWAP1 PUSH1 0xFF PUSH1 0xD SLOAD PUSH1 0xA8 SHR AND SWAP1 MLOAD SWAP1 ISZERO ISZERO DUP2 MSTORE RETURN JUMPDEST POP POP CALLVALUE PUSH2 0x227 JUMPI DUP2 PUSH1 0x3 NOT CALLDATASIZE ADD SLT PUSH2 0x227 JUMPI PUSH1 0xD SLOAD SWAP1 MLOAD PUSH1 0x1 PUSH1 0x1 PUSH1 0xA0 SHL SUB SWAP1 SWAP2 AND DUP2 MSTORE PUSH1 0x20 SWAP1 RETURN JUMPDEST POP POP CALLVALUE PUSH2 0x227 JUMPI DUP2 PUSH1 0x3 NOT CALLDATASIZE ADD SLT PUSH2 0x227 JUMPI PUSH1 0xA SLOAD SWAP1 MLOAD PUSH1 0x8 SWAP2 SWAP1 SWAP2 SHR PUSH1 0x1 PUSH1 0x1 PUSH1 0xA0 SHL SUB AND DUP2 MSTORE PUSH1 0x20 SWAP1 RETURN JUMPDEST DUP4 SWAP2 POP PUSH1 0x20 CALLDATASIZE PUSH1 0x3 NOT ADD SLT PUSH2 0x227 JUMPI DUP1 CALLDATALOAD PUSH2 0x124F PUSH2 0x1C51 JUMP JUMPDEST PUSH2 0x1266 PUSH1 0xFF PUSH1 0xA SLOAD PUSH2 0x9B2 DUP3 DUP3 PUSH1 0xA8 SHR AND ISZERO PUSH2 0x1B2E JUMP JUMPDEST PUSH2 0x1271 DUP2 ISZERO ISZERO PUSH2 0x1F06 JUMP JUMPDEST PUSH1 0x9 SLOAD SWAP2 DUP3 DUP3 GT PUSH2 0x139B JUMPI PUSH2 0x1285 DUP3 PUSH2 0x20D5 JUMP JUMPDEST SWAP1 PUSH1 0x64 DUP3 MUL DUP3 DUP2 DIV PUSH1 0x64 EQ DUP4 ISZERO OR ISZERO PUSH2 0x568 JUMPI DUP4 PUSH2 0x12AB PUSH2 0x26AC PUSH2 0x12DB SWAP4 DIV DUP1 SWAP6 PUSH2 0x1C44 JUMP JUMPDEST SWAP6 PUSH2 0x12B8 DUP8 CALLVALUE LT ISZERO PUSH2 0x1C05 JUMP JUMPDEST PUSH2 0x12C4 DUP3 PUSH1 0x7 SLOAD PUSH2 0x1C44 JUMP JUMPDEST PUSH1 0x7 SSTORE PUSH2 0x12D3 DUP8 PUSH1 0x8 SLOAD PUSH2 0x1C44 JUMP JUMPDEST PUSH1 0x8 SSTORE PUSH2 0x1BF8 JUMP JUMPDEST PUSH1 0x9 SSTORE PUSH2 0x1309 DUP4 CALLER PUSH32 0x0 PUSH2 0x1CA7 JUMP JUMPDEST PUSH2 0x1312 DUP3 PUSH2 0x216F JUMP JUMPDEST DUP4 CALLVALUE GT PUSH2 0x134A JUMPI JUMPDEST POP PUSH2 0xA9B PUSH32 0x7CA4A3CAD3BAC410861AF1B25202900FF3C8DD2174EAAA6C0EF89F2A04E65FD5 SWAP4 SWAP5 SWAP6 PUSH2 0x4EF PUSH2 0x1F88 JUMP JUMPDEST DUP5 DUP1 DUP1 DUP1 PUSH2 0x1358 DUP9 CALLVALUE PUSH2 0x1BF8 JUMP JUMPDEST CALLER GAS CALL PUSH2 0x1363 PUSH2 0x1DF2 JUMP JUMPDEST POP PUSH2 0x131A JUMPI PUSH1 0x64 SWAP1 PUSH1 0x20 DUP8 MLOAD SWAP2 PUSH3 0x461BCD PUSH1 0xE5 SHL DUP4 MSTORE DUP3 ADD MSTORE PUSH1 0xD PUSH1 0x24 DUP3 ADD MSTORE PUSH13 0x1499599D5B990819985A5B1959 PUSH1 0x9A SHL PUSH1 0x44 DUP3 ADD MSTORE REVERT JUMPDEST PUSH1 0x64 SWAP1 PUSH1 0x20 DUP7 MLOAD SWAP2 PUSH3 0x461BCD PUSH1 0xE5 SHL DUP4 MSTORE DUP3 ADD MSTORE PUSH1 0x11 PUSH1 0x24 DUP3 ADD MSTORE PUSH17 0x4578636565647320617661696C61626C65 PUSH1 0x78 SHL PUSH1 0x44 DUP3 ADD MSTORE REVERT JUMPDEST POP POP CALLVALUE PUSH2 0x227 JUMPI DUP2 PUSH1 0x3 NOT CALLDATASIZE ADD SLT PUSH2 0x227 JUMPI PUSH1 0x3 SLOAD SWAP1 MLOAD PUSH1 0x1 PUSH1 0x1 PUSH1 0xA0 SHL SUB SWAP1 SWAP2 AND DUP2 MSTORE PUSH1 0x20 SWAP1 RETURN JUMPDEST SWAP2 SWAP1 POP CALLVALUE PUSH2 0x31E JUMPI DUP3 PUSH1 0x3 NOT CALLDATASIZE ADD SLT PUSH2 0x31E JUMPI PUSH2 0x1416 PUSH2 0x1A9E JUMP JUMPDEST PUSH1 0xA SLOAD PUSH2 0x1425 PUSH1 0xFF DUP3 AND PUSH2 0x22E0 JUMP JUMPDEST PUSH1 0x8 SHR PUSH1 0x1 PUSH1 0x1 PUSH1 0xA0 SHL SUB SWAP1 DUP2 AND SWAP2 DUP3 ISZERO PUSH2 0x1A45 JUMPI PUSH1 0xFF PUSH1 0xD SLOAD PUSH1 0xA0 SHR AND PUSH2 0x1A13 JUMPI PUSH32 0x0 SWAP3 DUP3 DUP5 AND SWAP1 DUP3 MLOAD SWAP4 PUSH4 0x70A08231 PUSH1 0xE0 SHL SWAP3 DUP4 DUP7 MSTORE ADDRESS DUP9 DUP8 ADD MSTORE PUSH1 0x20 SWAP7 PUSH1 0x24 SWAP4 DUP9 DUP9 DUP7 DUP2 DUP7 GAS STATICCALL SWAP8 DUP9 ISZERO PUSH2 0x1A09 JUMPI DUP12 SWAP9 PUSH2 0x19D6 JUMPI JUMPDEST POP SELFBALANCE SWAP2 DUP9 ISZERO DUP1 ISZERO SWAP1 DUP2 DUP1 PUSH2 0x19CD JUMPI JUMPDEST ISZERO PUSH2 0x199C JUMPI SWAP1 PUSH2 0x191B JUMPI JUMPDEST ISZERO PUSH2 0x18BA JUMPI DUP8 MLOAD PUSH4 0x95EA7B3 PUSH1 0xE0 SHL DUP2 DUP13 ADD MSTORE PUSH1 0x1 PUSH1 0x1 PUSH1 0xA0 SHL SUB SWAP1 SWAP3 AND DUP7 DUP4 ADD SWAP1 DUP2 MSTORE PUSH1 0x20 DUP2 ADD DUP11 SWAP1 MSTORE PUSH2 0x1504 SWAP3 SWAP2 SWAP1 PUSH2 0x14FF SWAP1 DUP4 SWAP1 PUSH1 0x40 ADD JUMPDEST SUB PUSH1 0x1F NOT DUP2 ADD DUP5 MSTORE DUP4 PUSH2 0x1AF6 JUMP JUMPDEST PUSH2 0x1CFA JUMP JUMPDEST DUP3 PUSH1 0xA SLOAD PUSH1 0x8 SHR AND PUSH2 0xE10 TIMESTAMP ADD DUP1 TIMESTAMP GT PUSH2 0x18A8 JUMPI SWAP3 PUSH1 0xC4 DUP12 DUP3 SWAP5 PUSH1 0x60 SWAP5 DUP16 SWAP9 SWAP8 DUP13 MLOAD SWAP14 DUP15 SWAP7 DUP8 SWAP6 PUSH4 0xF305D719 PUSH1 0xE0 SHL DUP8 MSTORE DUP7 ADD MSTORE DUP1 DUP13 DUP7 ADD MSTORE PUSH1 0x44 DUP6 ADD MSTORE DUP3 PUSH1 0x64 DUP6 ADD MSTORE ADDRESS PUSH1 0x84 DUP6 ADD MSTORE PUSH1 0xA4 DUP5 ADD MSTORE GAS CALL DUP1 ISZERO PUSH2 0x189E JUMPI DUP4 SWAP1 DUP5 SWAP9 DUP6 SWAP2 PUSH2 0x1842 JUMPI JUMPDEST POP PUSH32 0x7D6DF569E0F84786358976A64CD2B9D072436FDD44C7EAEAFC6859E69E751B5F SWAP2 PUSH1 0x60 SWAP2 PUSH1 0xD SLOAD SWAP11 PUSH1 0x1 PUSH1 0xA0 SHL SWAP8 DUP9 DUP14 PUSH1 0xFF PUSH1 0xA0 SHL NOT AND OR PUSH1 0xD SSTORE PUSH1 0x9 SSTORE DUP11 MLOAD SWAP3 DUP4 MSTORE DUP13 DUP4 ADD MSTORE DUP10 DUP3 ADD MSTORE LOG1 PUSH1 0xA SLOAD DUP7 MLOAD PUSH4 0xC45A0155 PUSH1 0xE0 SHL DUP2 MSTORE SWAP2 SWAP1 PUSH1 0x8 SHR DUP4 AND DUP10 DUP4 DUP13 DUP2 DUP5 GAS STATICCALL SWAP3 DUP13 DUP5 ISZERO PUSH2 0x1818 JUMPI SWAP2 DUP12 SWAP2 DUP14 SWAP6 SWAP5 SWAP4 SWAP5 PUSH2 0x1823 JUMPI JUMPDEST POP DUP10 MLOAD PUSH4 0x15AB88C9 PUSH1 0xE3 SHL DUP2 MSTORE SWAP5 DUP6 SWAP2 DUP3 SWAP1 GAS STATICCALL SWAP3 DUP13 DUP5 ISZERO PUSH2 0x1818 JUMPI SWAP2 DUP12 SWAP4 SWAP2 PUSH2 0x1647 SWAP6 PUSH2 0x17F9 JUMPI JUMPDEST POP DUP10 MLOAD PUSH4 0xE6A43905 PUSH1 0xE0 SHL DUP2 MSTORE PUSH1 0x1 PUSH1 0x1 PUSH1 0xA0 SHL SUB SWAP2 DUP3 AND DUP15 DUP3 ADD SWAP1 DUP2 MSTORE SWAP4 SWAP1 SWAP2 AND PUSH1 0x20 DUP5 ADD MSTORE SWAP4 DUP5 SWAP3 DUP4 SWAP2 DUP8 SWAP2 DUP4 SWAP2 PUSH1 0x40 SWAP1 SWAP2 ADD SWAP1 JUMP JUMPDEST SUB SWAP3 AND GAS STATICCALL SWAP1 DUP2 ISZERO PUSH2 0x17EF JUMPI DUP11 SWAP2 PUSH2 0x17C2 JUMPI JUMPDEST POP AND SWAP5 DUP6 ISZERO PUSH2 0x178D JUMPI PUSH1 0x1 PUSH1 0x1 PUSH1 0xA8 SHL SUB NOT AND DUP6 OR OR PUSH1 0xD SSTORE DUP3 MLOAD SWAP2 DUP3 MSTORE ADDRESS DUP7 DUP4 ADD MSTORE DUP5 DUP3 DUP3 DUP2 DUP8 GAS STATICCALL SWAP2 DUP3 ISZERO PUSH2 0x1783 JUMPI DUP8 SWAP3 PUSH2 0x1750 JUMPI JUMPDEST POP DUP2 PUSH2 0x16C6 JUMPI JUMPDEST POP POP PUSH32 0xC950ECA7EBEF0C17A14892FF3F205BB3188BC3DDCD1D50F7E72595EBE8E913FA SWAP4 POP MLOAD SWAP1 DUP2 MSTORE LOG1 DUP1 RETURN JUMPDEST PUSH2 0xDEAD DUP4 MLOAD SWAP7 PUSH4 0xA9059CBB PUSH1 0xE0 SHL DUP9 MSTORE DUP8 ADD MSTORE DUP6 ADD MSTORE DUP3 DUP5 PUSH1 0x44 DUP2 DUP9 DUP7 GAS CALL SWAP4 DUP5 ISZERO PUSH2 0x1746 JUMPI PUSH32 0xC950ECA7EBEF0C17A14892FF3F205BB3188BC3DDCD1D50F7E72595EBE8E913FA SWAP5 PUSH2 0x1719 JUMPI JUMPDEST DUP1 PUSH2 0x1699 JUMP JUMPDEST PUSH2 0x1738 SWAP1 DUP5 RETURNDATASIZE DUP7 GT PUSH2 0x173F JUMPI JUMPDEST PUSH2 0x1730 DUP2 DUP4 PUSH2 0x1AF6 JUMP JUMPDEST DUP2 ADD SWAP1 PUSH2 0x1CE2 JUMP JUMPDEST POP CODESIZE PUSH2 0x1713 JUMP JUMPDEST POP RETURNDATASIZE PUSH2 0x1726 JUMP JUMPDEST DUP2 MLOAD RETURNDATASIZE DUP8 DUP3 RETURNDATACOPY RETURNDATASIZE SWAP1 REVERT JUMPDEST SWAP1 SWAP2 POP DUP5 DUP2 DUP2 RETURNDATASIZE DUP4 GT PUSH2 0x177C JUMPI JUMPDEST PUSH2 0x1768 DUP2 DUP4 PUSH2 0x1AF6 JUMP JUMPDEST DUP2 ADD SUB SLT PUSH2 0x1778 JUMPI MLOAD SWAP1 CODESIZE PUSH2 0x1692 JUMP JUMPDEST DUP7 DUP1 REVERT JUMPDEST POP RETURNDATASIZE PUSH2 0x175E JUMP JUMPDEST DUP4 MLOAD RETURNDATASIZE DUP10 DUP3 RETURNDATACOPY RETURNDATASIZE SWAP1 REVERT JUMPDEST DUP5 MLOAD PUSH3 0x461BCD PUSH1 0xE5 SHL DUP2 MSTORE DUP1 DUP10 ADD DUP9 SWAP1 MSTORE PUSH1 0x10 DUP2 DUP6 ADD MSTORE PUSH16 0x14185A5C881B9BDD0818DC99585D1959 PUSH1 0x82 SHL PUSH1 0x44 DUP3 ADD MSTORE PUSH1 0x64 SWAP1 REVERT JUMPDEST PUSH2 0x17E2 SWAP2 POP DUP9 RETURNDATASIZE DUP11 GT PUSH2 0x17E8 JUMPI JUMPDEST PUSH2 0x17DA DUP2 DUP4 PUSH2 0x1AF6 JUMP JUMPDEST DUP2 ADD SWAP1 PUSH2 0x231C JUMP JUMPDEST CODESIZE PUSH2 0x165A JUMP JUMPDEST POP RETURNDATASIZE PUSH2 0x17D0 JUMP JUMPDEST DUP7 MLOAD RETURNDATASIZE DUP13 DUP3 RETURNDATACOPY RETURNDATASIZE SWAP1 REVERT JUMPDEST PUSH2 0x1811 SWAP2 SWAP4 POP DUP5 RETURNDATASIZE DUP7 GT PUSH2 0x17E8 JUMPI PUSH2 0x17DA DUP2 DUP4 PUSH2 0x1AF6 JUMP JUMPDEST SWAP2 CODESIZE PUSH2 0x160F JUMP JUMPDEST DUP10 MLOAD SWAP1 RETURNDATASIZE SWAP1 DUP3 RETURNDATACOPY RETURNDATASIZE SWAP1 REVERT JUMPDEST PUSH2 0x183B SWAP2 SWAP5 POP DUP3 RETURNDATASIZE DUP5 GT PUSH2 0x17E8 JUMPI PUSH2 0x17DA DUP2 DUP4 PUSH2 0x1AF6 JUMP JUMPDEST SWAP3 CODESIZE PUSH2 0x15E6 JUMP JUMPDEST SWAP9 POP POP POP PUSH1 0x60 DUP8 RETURNDATASIZE DUP3 GT PUSH2 0x1896 JUMPI JUMPDEST DUP2 PUSH2 0x185E PUSH1 0x60 SWAP4 DUP4 PUSH2 0x1AF6 JUMP JUMPDEST DUP2 ADD SUB SLT PUSH2 0x31E JUMPI DUP7 MLOAD DUP9 DUP9 ADD MLOAD SWAP8 DUP8 ADD MLOAD PUSH32 0x7D6DF569E0F84786358976A64CD2B9D072436FDD44C7EAEAFC6859E69E751B5F PUSH2 0x1566 JUMP JUMPDEST RETURNDATASIZE SWAP2 POP PUSH2 0x1851 JUMP JUMPDEST DUP7 MLOAD RETURNDATASIZE DUP6 DUP3 RETURNDATACOPY RETURNDATASIZE SWAP1 REVERT JUMPDEST PUSH4 0x4E487B71 PUSH1 0xE0 SHL DUP13 MSTORE PUSH1 0x11 DUP12 MSTORE DUP6 DUP13 REVERT JUMPDEST DUP8 MLOAD PUSH3 0x461BCD PUSH1 0xE5 SHL DUP2 MSTORE DUP1 DUP13 ADD DUP12 SWAP1 MSTORE PUSH1 0x36 DUP2 DUP9 ADD MSTORE PUSH32 0x5361666545524332303A20617070726F76652066726F6D206E6F6E2D7A65726F PUSH1 0x44 DUP3 ADD MSTORE PUSH22 0x20746F206E6F6E2D7A65726F20616C6C6F77616E6365 PUSH1 0x50 SHL PUSH1 0x64 DUP3 ADD MSTORE PUSH1 0x84 SWAP1 REVERT JUMPDEST POP DUP8 MLOAD PUSH4 0x6EB1769F PUSH1 0xE1 SHL DUP2 MSTORE ADDRESS DUP2 DUP14 ADD SWAP1 DUP2 MSTORE PUSH1 0x1 PUSH1 0x1 PUSH1 0xA0 SHL SUB DUP5 AND PUSH1 0x20 DUP3 ADD MSTORE DUP12 SWAP1 DUP3 SWAP1 DUP2 SWAP1 PUSH1 0x40 ADD SUB DUP2 DUP9 GAS STATICCALL SWAP1 DUP2 ISZERO PUSH2 0x1992 JUMPI DUP14 SWAP2 PUSH2 0x1961 JUMPI JUMPDEST POP ISZERO PUSH2 0x14B6 JUMP JUMPDEST SWAP1 POP DUP11 DUP2 DUP2 RETURNDATASIZE DUP4 GT PUSH2 0x198B JUMPI JUMPDEST PUSH2 0x1978 DUP2 DUP4 PUSH2 0x1AF6 JUMP JUMPDEST DUP2 ADD SUB SLT PUSH2 0x1987 JUMPI MLOAD CODESIZE PUSH2 0x195A JUMP JUMPDEST DUP13 DUP1 REVERT JUMPDEST POP RETURNDATASIZE PUSH2 0x196E JUMP JUMPDEST DUP10 MLOAD RETURNDATASIZE DUP16 DUP3 RETURNDATACOPY RETURNDATASIZE SWAP1 REVERT JUMPDEST DUP10 MLOAD PUSH3 0x461BCD PUSH1 0xE5 SHL DUP2 MSTORE DUP1 DUP15 ADD DUP14 SWAP1 MSTORE PUSH1 0xC DUP2 DUP11 ADD MSTORE PUSH12 0x4E6F206C6971756964697479 PUSH1 0xA0 SHL PUSH1 0x44 DUP3 ADD MSTORE PUSH1 0x64 SWAP1 REVERT JUMPDEST POP DUP5 ISZERO ISZERO PUSH2 0x14AB JUMP JUMPDEST SWAP1 SWAP8 POP DUP9 DUP2 DUP2 RETURNDATASIZE DUP4 GT PUSH2 0x1A02 JUMPI JUMPDEST PUSH2 0x19EE DUP2 DUP4 PUSH2 0x1AF6 JUMP JUMPDEST DUP2 ADD SUB SLT PUSH2 0x19FE JUMPI MLOAD SWAP7 CODESIZE PUSH2 0x149C JUMP JUMPDEST DUP11 DUP1 REVERT JUMPDEST POP RETURNDATASIZE PUSH2 0x19E4 JUMP JUMPDEST DUP8 MLOAD RETURNDATASIZE DUP14 DUP3 RETURNDATACOPY RETURNDATASIZE SWAP1 REVERT JUMPDEST MLOAD PUSH3 0x461BCD PUSH1 0xE5 SHL DUP2 MSTORE PUSH1 0x20 DUP2 DUP6 ADD MSTORE PUSH1 0xD PUSH1 0x24 DUP3 ADD MSTORE PUSH13 0x105B1C9958591E481859191959 PUSH1 0x9A SHL PUSH1 0x44 DUP3 ADD MSTORE PUSH1 0x64 SWAP1 REVERT JUMPDEST MLOAD PUSH3 0x461BCD PUSH1 0xE5 SHL DUP2 MSTORE PUSH1 0x20 DUP2 DUP6 ADD MSTORE PUSH1 0x12 PUSH1 0x24 DUP3 ADD MSTORE PUSH18 0x111156081C9BDD5D195C881B9BDD081CD95D PUSH1 0x72 SHL PUSH1 0x44 DUP3 ADD MSTORE PUSH1 0x64 SWAP1 REVERT JUMPDEST CALLVALUE PUSH2 0x1A99 JUMPI PUSH1 0x0 CALLDATASIZE PUSH1 0x3 NOT ADD SLT PUSH2 0x1A99 JUMPI PUSH1 0x20 PUSH1 0x40 MLOAD PUSH2 0x1388 DUP2 MSTORE RETURN JUMPDEST PUSH1 0x0 DUP1 REVERT JUMPDEST PUSH1 0x0 SLOAD PUSH1 0x1 PUSH1 0x1 PUSH1 0xA0 SHL SUB AND CALLER SUB PUSH2 0x1AB2 JUMPI JUMP JUMPDEST PUSH1 0x64 PUSH1 0x40 MLOAD PUSH3 0x461BCD PUSH1 0xE5 SHL DUP2 MSTORE PUSH1 0x20 PUSH1 0x4 DUP3 ADD MSTORE PUSH1 0x20 PUSH1 0x24 DUP3 ADD MSTORE PUSH32 0x4F776E61626C653A2063616C6C6572206973206E6F7420746865206F776E6572 PUSH1 0x44 DUP3 ADD MSTORE REVERT JUMPDEST SWAP1 PUSH1 0x1F DUP1 NOT SWAP2 ADD AND DUP2 ADD SWAP1 DUP2 LT PUSH8 0xFFFFFFFFFFFFFFFF DUP3 GT OR PUSH2 0x1B18 JUMPI PUSH1 0x40 MSTORE JUMP JUMPDEST PUSH4 0x4E487B71 PUSH1 0xE0 SHL PUSH1 0x0 MSTORE PUSH1 0x41 PUSH1 0x4 MSTORE PUSH1 0x24 PUSH1 0x0 REVERT JUMPDEST ISZERO PUSH2 0x1B35 JUMPI JUMP JUMPDEST PUSH1 0x40 MLOAD PUSH3 0x461BCD PUSH1 0xE5 SHL DUP2 MSTORE PUSH1 0x20 PUSH1 0x4 DUP3 ADD MSTORE PUSH1 0x12 PUSH1 0x24 DUP3 ADD MSTORE PUSH18 0x10DBDB9D1C9858DD081A5CC81C185D5CD959 PUSH1 0x72 SHL PUSH1 0x44 DUP3 ADD MSTORE PUSH1 0x64 SWAP1 REVERT JUMPDEST ISZERO PUSH2 0x1B76 JUMPI JUMP JUMPDEST PUSH1 0x40 MLOAD PUSH3 0x461BCD PUSH1 0xE5 SHL DUP2 MSTORE PUSH1 0x20 PUSH1 0x4 DUP3 ADD MSTORE PUSH1 0x11 PUSH1 0x24 DUP3 ADD MSTORE PUSH17 0x105B1C9958591E4819DC98591D585D1959 PUSH1 0x7A SHL PUSH1 0x44 DUP3 ADD MSTORE PUSH1 0x64 SWAP1 REVERT JUMPDEST DUP2 DUP2 MUL SWAP3 SWAP2 DUP2 ISZERO SWAP2 DUP5 DIV EQ OR ISZERO PUSH2 0x1BC2 JUMPI JUMP JUMPDEST PUSH4 0x4E487B71 PUSH1 0xE0 SHL PUSH1 0x0 MSTORE PUSH1 0x11 PUSH1 0x4 MSTORE PUSH1 0x24 PUSH1 0x0 REVERT JUMPDEST DUP2 ISZERO PUSH2 0x1BE2 JUMPI DIV SWAP1 JUMP JUMPDEST PUSH4 0x4E487B71 PUSH1 0xE0 SHL PUSH1 0x0 MSTORE PUSH1 0x12 PUSH1 0x4 MSTORE PUSH1 0x24 PUSH1 0x0 REVERT JUMPDEST SWAP2 SWAP1 DUP3 SUB SWAP2 DUP3 GT PUSH2 0x1BC2 JUMPI JUMP JUMPDEST ISZERO PUSH2 0x1C0C JUMPI JUMP JUMPDEST PUSH1 0x40 MLOAD PUSH3 0x461BCD PUSH1 0xE5 SHL DUP2 MSTORE PUSH1 0x20 PUSH1 0x4 DUP3 ADD MSTORE PUSH1 0x10 PUSH1 0x24 DUP3 ADD MSTORE PUSH16 0x92DCE6EACCCCD2C6D2CADCE8408AA89 PUSH1 0x83 SHL PUSH1 0x44 DUP3 ADD MSTORE PUSH1 0x64 SWAP1 REVERT JUMPDEST SWAP2 SWAP1 DUP3 ADD DUP1 SWAP3 GT PUSH2 0x1BC2 JUMPI JUMP JUMPDEST PUSH1 0x2 PUSH1 0x1 SLOAD EQ PUSH2 0x1C62 JUMPI PUSH1 0x2 PUSH1 0x1 SSTORE JUMP JUMPDEST PUSH1 0x40 MLOAD PUSH3 0x461BCD PUSH1 0xE5 SHL DUP2 MSTORE PUSH1 0x20 PUSH1 0x4 DUP3 ADD MSTORE PUSH1 0x1F PUSH1 0x24 DUP3 ADD MSTORE PUSH32 0x5265656E7472616E637947756172643A207265656E7472616E742063616C6C00 PUSH1 0x44 DUP3 ADD MSTORE PUSH1 0x64 SWAP1 REVERT JUMPDEST PUSH1 0x40 MLOAD PUSH4 0xA9059CBB PUSH1 0xE0 SHL PUSH1 0x20 DUP3 ADD MSTORE PUSH1 0x1 PUSH1 0x1 PUSH1 0xA0 SHL SUB SWAP1 SWAP3 AND PUSH1 0x24 DUP4 ADD MSTORE PUSH1 0x44 DUP3 ADD SWAP3 SWAP1 SWAP3 MSTORE PUSH2 0x1CE0 SWAP2 PUSH2 0x14FF DUP3 PUSH1 0x64 DUP2 ADD PUSH2 0x14F1 JUMP JUMPDEST JUMP JUMPDEST SWAP1 DUP2 PUSH1 0x20 SWAP2 SUB SLT PUSH2 0x1A99 JUMPI MLOAD DUP1 ISZERO ISZERO DUP2 SUB PUSH2 0x1A99 JUMPI SWAP1 JUMP JUMPDEST PUSH1 0x40 DUP1 MLOAD SWAP1 DUP2 ADD SWAP2 PUSH1 0x1 PUSH1 0x1 PUSH1 0xA0 SHL SUB AND PUSH8 0xFFFFFFFFFFFFFFFF DUP4 GT DUP3 DUP5 LT OR PUSH2 0x1B18 JUMPI PUSH2 0x1D6A SWAP3 PUSH1 0x40 MSTORE PUSH1 0x0 DUP1 PUSH1 0x20 SWAP6 DUP7 DUP6 MSTORE PUSH32 0x5361666545524332303A206C6F772D6C6576656C2063616C6C206661696C6564 DUP8 DUP7 ADD MSTORE DUP7 DUP2 MLOAD SWAP2 ADD DUP3 DUP6 GAS CALL PUSH2 0x1D64 PUSH2 0x1DF2 JUMP JUMPDEST SWAP2 PUSH2 0x1E32 JUMP JUMPDEST DUP1 MLOAD SWAP1 DUP3 DUP3 ISZERO SWAP3 DUP4 ISZERO PUSH2 0x1DDA JUMPI JUMPDEST POP POP POP ISZERO PUSH2 0x1D83 JUMPI POP JUMP JUMPDEST PUSH1 0x84 SWAP1 PUSH1 0x40 MLOAD SWAP1 PUSH3 0x461BCD PUSH1 0xE5 SHL DUP3 MSTORE PUSH1 0x4 DUP3 ADD MSTORE PUSH1 0x2A PUSH1 0x24 DUP3 ADD MSTORE PUSH32 0x5361666545524332303A204552433230206F7065726174696F6E20646964206E PUSH1 0x44 DUP3 ADD MSTORE PUSH10 0x1BDD081CDD58D8D95959 PUSH1 0xB2 SHL PUSH1 0x64 DUP3 ADD MSTORE REVERT JUMPDEST PUSH2 0x1DEA SWAP4 POP DUP3 ADD DUP2 ADD SWAP2 ADD PUSH2 0x1CE2 JUMP JUMPDEST CODESIZE DUP3 DUP2 PUSH2 0x1D78 JUMP JUMPDEST RETURNDATASIZE ISZERO PUSH2 0x1E2D JUMPI RETURNDATASIZE SWAP1 PUSH8 0xFFFFFFFFFFFFFFFF DUP3 GT PUSH2 0x1B18 JUMPI PUSH1 0x40 MLOAD SWAP2 PUSH2 0x1E21 PUSH1 0x1F DUP3 ADD PUSH1 0x1F NOT AND PUSH1 0x20 ADD DUP5 PUSH2 0x1AF6 JUMP JUMPDEST DUP3 MSTORE RETURNDATASIZE PUSH1 0x0 PUSH1 0x20 DUP5 ADD RETURNDATACOPY JUMP JUMPDEST PUSH1 0x60 SWAP1 JUMP JUMPDEST SWAP2 SWAP3 SWAP1 ISZERO PUSH2 0x1E94 JUMPI POP DUP2 MLOAD ISZERO PUSH2 0x1E46 JUMPI POP SWAP1 JUMP JUMPDEST EXTCODESIZE ISZERO PUSH2 0x1E4F JUMPI SWAP1 JUMP JUMPDEST PUSH1 0x40 MLOAD PUSH3 0x461BCD PUSH1 0xE5 SHL DUP2 MSTORE PUSH1 0x20 PUSH1 0x4 DUP3 ADD MSTORE PUSH1 0x1D PUSH1 0x24 DUP3 ADD MSTORE PUSH32 0x416464726573733A2063616C6C20746F206E6F6E2D636F6E7472616374000000 PUSH1 0x44 DUP3 ADD MSTORE PUSH1 0x64 SWAP1 REVERT JUMPDEST DUP3 MLOAD SWAP1 SWAP2 POP ISZERO PUSH2 0x1EA7 JUMPI POP DUP1 MLOAD SWAP1 PUSH1 0x20 ADD REVERT JUMPDEST PUSH1 0x40 MLOAD SWAP1 PUSH3 0x461BCD PUSH1 0xE5 SHL DUP3 MSTORE DUP2 PUSH1 0x20 DUP1 PUSH1 0x4 DUP4 ADD MSTORE DUP3 MLOAD SWAP1 DUP2 PUSH1 0x24 DUP5 ADD MSTORE PUSH1 0x0 SWAP4 JUMPDEST DUP3 DUP6 LT PUSH2 0x1EED JUMPI POP POP PUSH1 0x44 SWAP3 POP PUSH1 0x0 DUP4 DUP3 DUP5 ADD ADD MSTORE PUSH1 0x1F DUP1 NOT SWAP2 ADD AND DUP2 ADD SUB ADD SWAP1 REVERT JUMPDEST DUP5 DUP2 ADD DUP3 ADD MLOAD DUP7 DUP7 ADD PUSH1 0x44 ADD MSTORE SWAP4 DUP2 ADD SWAP4 DUP6 SWAP4 POP PUSH2 0x1ECA JUMP JUMPDEST ISZERO PUSH2 0x1F0D JUMPI JUMP JUMPDEST PUSH1 0x40 MLOAD PUSH3 0x461BCD PUSH1 0xE5 SHL DUP2 MSTORE PUSH1 0x20 PUSH1 0x4 DUP3 ADD MSTORE PUSH1 0x12 PUSH1 0x24 DUP3 ADD MSTORE PUSH18 0x416D6F756E74206D757374206265203E203 PUSH1 0x74 SHL PUSH1 0x44 DUP3 ADD MSTORE PUSH1 0x64 SWAP1 REVERT JUMPDEST PUSH1 0x6 SLOAD DUP1 ISZERO PUSH2 0x1F82 JUMPI PUSH1 0x8 SLOAD PUSH2 0x2710 SWAP2 DUP3 DUP3 MUL SWAP2 DUP1 DUP4 DIV DUP5 EQ SWAP1 ISZERO OR ISZERO PUSH2 0x1BC2 JUMPI PUSH2 0x1F71 SWAP2 PUSH2 0x1BD8 JUMP JUMPDEST DUP2 DUP2 GT ISZERO PUSH2 0x1F7D JUMPI POP SWAP1 JUMP JUMPDEST SWAP1 POP SWAP1 JUMP JUMPDEST POP PUSH1 0x0 SWAP1 JUMP JUMPDEST PUSH2 0x1FA3 PUSH1 0x4 SLOAD PUSH2 0x1F9D PUSH1 0x5 SLOAD PUSH1 0x7 SLOAD SWAP1 PUSH2 0x1BAF JUMP JUMPDEST SWAP1 PUSH2 0x1C44 JUMP JUMPDEST SWAP1 JUMP JUMPDEST DUP1 ISZERO PUSH2 0x1F82 JUMPI PUSH8 0xDE0B6B3A7640000 SWAP1 DUP2 PUSH1 0x7 SLOAD DIV SWAP1 PUSH1 0x5 SLOAD PUSH1 0x4 SWAP3 DUP4 SLOAD SWAP1 DUP2 PUSH1 0x1 SHL SWAP2 DUP1 DUP4 DIV PUSH1 0x2 EQ SWAP1 ISZERO OR ISZERO PUSH2 0x20C0 JUMPI PUSH2 0x1FE2 SWAP1 DUP4 PUSH2 0x1BAF JUMP JUMPDEST SWAP1 DUP2 PUSH1 0x1 SHL SWAP2 DUP1 DUP4 DIV PUSH1 0x2 EQ SWAP1 ISZERO OR ISZERO PUSH2 0x20C0 JUMPI SWAP1 PUSH2 0x2000 SWAP2 PUSH2 0x1C44 JUMP JUMPDEST SWAP2 DUP1 PUSH1 0x3 SHL SWAP1 DUP2 DIV PUSH1 0x8 SUB PUSH2 0x20AB JUMPI PUSH2 0x202A PUSH2 0x202F SWAP2 PUSH2 0x1F9D PUSH2 0x2023 DUP7 DUP1 PUSH2 0x1BAF JUMP JUMPDEST SWAP2 DUP6 PUSH2 0x1BAF JUMP JUMPDEST PUSH2 0x24CC JUMP JUMPDEST PUSH1 0x0 SWAP3 SWAP1 DUP2 DUP2 GT ISZERO PUSH2 0x20A3 JUMPI PUSH2 0x2046 SWAP3 SWAP4 POP PUSH2 0x1BF8 JUMP JUMPDEST SWAP1 PUSH1 0x1 PUSH1 0x1 PUSH1 0xFF SHL SUB DUP2 AND DUP2 SUB PUSH2 0x208E JUMPI SWAP1 PUSH2 0x2065 SWAP2 PUSH1 0x1 SHL SWAP1 PUSH2 0x1BD8 JUMP JUMPDEST DUP3 DUP2 MUL SWAP3 DUP2 DUP5 DIV EQ SWAP1 ISZERO OR ISZERO PUSH2 0x2079 JUMPI POP SWAP1 JUMP JUMPDEST PUSH1 0x11 SWAP1 PUSH4 0x4E487B71 PUSH1 0xE0 SHL PUSH1 0x0 MSTORE MSTORE PUSH1 0x24 PUSH1 0x0 REVERT JUMPDEST PUSH1 0x11 DUP4 PUSH4 0x4E487B71 PUSH1 0xE0 SHL PUSH1 0x0 MSTORE MSTORE PUSH1 0x24 PUSH1 0x0 REVERT JUMPDEST POP POP POP PUSH2 0x2065 JUMP JUMPDEST PUSH1 0x11 DUP5 PUSH4 0x4E487B71 PUSH1 0xE0 SHL PUSH1 0x0 MSTORE MSTORE PUSH1 0x24 PUSH1 0x0 REVERT JUMPDEST PUSH1 0x11 DUP6 PUSH4 0x4E487B71 PUSH1 0xE0 SHL PUSH1 0x0 MSTORE MSTORE PUSH1 0x24 PUSH1 0x0 REVERT JUMPDEST PUSH8 0xDE0B6B3A7640000 DUP1 SWAP2 DIV SWAP1 PUSH1 0x7 SLOAD DIV SWAP1 PUSH2 0x20F3 DUP2 PUSH1 0x4 SLOAD PUSH2 0x1BAF JUMP JUMPDEST PUSH1 0x5 SLOAD SWAP1 SWAP2 SWAP1 PUSH1 0x1 PUSH1 0x1 PUSH1 0xFF SHL SUB DUP5 AND DUP5 SUB PUSH2 0x1BC2 JUMPI PUSH2 0x212A DUP3 PUSH2 0x1F9D PUSH2 0x2123 PUSH2 0x2130 SWAP6 PUSH2 0x1FA3 SWAP9 PUSH1 0x1 SHL PUSH2 0x1BAF JUMP JUMPDEST SWAP2 DUP1 PUSH2 0x1BAF JUMP JUMPDEST SWAP1 PUSH2 0x1BAF JUMP JUMPDEST PUSH1 0x1 SHR SWAP1 PUSH2 0x1C44 JUMP JUMPDEST PUSH1 0x7 SLOAD DUP2 DUP2 LT PUSH2 0x2168 JUMPI DUP2 SWAP1 PUSH2 0x2159 PUSH8 0xDE0B6B3A7640000 SWAP3 DUP4 SWAP3 PUSH2 0x1BF8 JUMP JUMPDEST DIV SWAP2 DIV PUSH2 0x20F3 DUP2 PUSH1 0x4 SLOAD PUSH2 0x1BAF JUMP JUMPDEST POP POP PUSH1 0x0 SWAP1 JUMP JUMPDEST DUP1 ISZERO PUSH2 0x229C JUMPI PUSH2 0x1388 DUP2 MUL PUSH2 0x1387 NOT DUP3 DUP3 DIV ADD PUSH2 0x1BC2 JUMPI PUSH2 0x2710 PUSH2 0x2195 SWAP2 DIV DUP1 SWAP3 PUSH2 0x1BF8 JUMP JUMPDEST SWAP1 DUP1 PUSH2 0x221C JUMPI JUMPDEST POP DUP1 PUSH2 0x21A5 JUMPI POP JUMP JUMPDEST PUSH1 0x0 PUSH1 0x1 DUP1 PUSH1 0xA0 SHL SUB SWAP1 DUP1 DUP1 DUP1 DUP1 DUP7 DUP7 PUSH1 0x2 SLOAD AND GAS CALL PUSH2 0x21C3 PUSH2 0x1DF2 JUMP JUMPDEST POP ISZERO PUSH2 0x21CE JUMPI POP POP POP JUMP JUMPDEST DUP2 PUSH1 0x40 PUSH1 0x20 SWAP3 PUSH32 0xB34171A8C0ED2C9D3B07233081B6AA6240A6E90CFF3F7BFAD76B07664538197B SWAP5 PUSH1 0x2 SLOAD AND DUP2 MSTORE PUSH1 0xB DUP5 MSTORE KECCAK256 PUSH2 0x220C DUP6 DUP3 SLOAD PUSH2 0x1C44 JUMP JUMPDEST SWAP1 SSTORE PUSH1 0x2 SLOAD AND SWAP3 PUSH1 0x40 MLOAD SWAP1 DUP2 MSTORE LOG2 JUMP JUMPDEST PUSH1 0x0 PUSH1 0x1 DUP1 PUSH1 0xA0 SHL SUB SWAP1 DUP1 DUP1 DUP1 DUP1 DUP7 DUP7 PUSH1 0x3 SLOAD AND GAS CALL PUSH2 0x223A PUSH2 0x1DF2 JUMP JUMPDEST POP ISZERO PUSH2 0x2248 JUMPI JUMPDEST POP POP PUSH2 0x219C JUMP JUMPDEST DUP2 PUSH1 0x40 PUSH1 0x20 SWAP3 PUSH32 0xB34171A8C0ED2C9D3B07233081B6AA6240A6E90CFF3F7BFAD76B07664538197B SWAP5 PUSH1 0x3 SLOAD AND DUP2 MSTORE PUSH1 0xB DUP5 MSTORE KECCAK256 PUSH2 0x2286 DUP6 DUP3 SLOAD PUSH2 0x1C44 JUMP JUMPDEST SWAP1 SSTORE PUSH1 0x3 SLOAD AND SWAP3 PUSH1 0x40 MLOAD SWAP1 DUP2 MSTORE LOG2 CODESIZE DUP1 DUP1 PUSH2 0x2241 JUMP JUMPDEST POP JUMP JUMPDEST PUSH1 0x1 PUSH1 0xFF NOT PUSH1 0xA SLOAD AND OR PUSH1 0xA SSTORE PUSH32 0xACFDCE92DA76539F5AF2EFC3AA76D42A7A92AF4D723A23D144F58FDF1472921E PUSH1 0x40 SELFBALANCE PUSH1 0x9 SLOAD DUP3 MLOAD SWAP2 DUP3 MSTORE PUSH1 0x20 DUP3 ADD MSTORE LOG1 JUMP JUMPDEST ISZERO PUSH2 0x22E7 JUMPI JUMP JUMPDEST PUSH1 0x40 MLOAD PUSH3 0x461BCD PUSH1 0xE5 SHL DUP2 MSTORE PUSH1 0x20 PUSH1 0x4 DUP3 ADD MSTORE PUSH1 0xD PUSH1 0x24 DUP3 ADD MSTORE PUSH13 0x139BDD0819DC98591D585D1959 PUSH1 0x9A SHL PUSH1 0x44 DUP3 ADD MSTORE PUSH1 0x64 SWAP1 REVERT JUMPDEST SWAP1 DUP2 PUSH1 0x20 SWAP2 SUB SLT PUSH2 0x1A99 JUMPI MLOAD PUSH1 0x1 PUSH1 0x1 PUSH1 0xA0 SHL SUB DUP2 AND DUP2 SUB PUSH2 0x1A99 JUMPI SWAP1 JUMP JUMPDEST PUSH1 0xD SLOAD PUSH1 0x1 PUSH1 0x1 PUSH1 0xA0 SHL SUB SWAP1 DUP2 AND DUP1 PUSH2 0x1F7D JUMPI POP DUP1 PUSH1 0xA SLOAD PUSH1 0x8 SHR AND SWAP1 DUP2 ISZERO PUSH2 0x2168 JUMPI PUSH1 0x40 DUP1 MLOAD PUSH4 0xC45A0155 PUSH1 0xE0 SHL DUP2 MSTORE SWAP1 SWAP3 PUSH1 0x20 SWAP2 DUP3 DUP2 PUSH1 0x4 DUP2 DUP6 GAS STATICCALL SWAP1 DUP2 ISZERO PUSH2 0x2464 JUMPI DUP4 SWAP1 PUSH1 0x0 SWAP3 PUSH2 0x246F JUMPI JUMPDEST POP DUP6 MLOAD PUSH4 0x15AB88C9 PUSH1 0xE3 SHL DUP2 MSTORE SWAP2 SWAP3 DUP3 SWAP1 PUSH1 0x4 SWAP1 DUP3 SWAP1 GAS STATICCALL SWAP1 DUP2 ISZERO PUSH2 0x2464 JUMPI SWAP2 PUSH2 0x240E SWAP2 DUP5 SWAP4 PUSH1 0x0 SWAP2 PUSH2 0x2447 JUMPI JUMPDEST POP DUP7 MLOAD PUSH4 0xE6A43905 PUSH1 0xE0 SHL DUP2 MSTORE PUSH1 0x1 PUSH1 0x1 PUSH1 0xA0 SHL SUB PUSH32 0x0 DUP9 AND DUP2 AND PUSH1 0x4 DUP4 ADD MSTORE SWAP1 SWAP2 AND PUSH1 0x24 DUP3 ADD MSTORE SWAP5 DUP6 SWAP3 DUP4 SWAP2 SWAP1 DUP3 SWAP1 PUSH1 0x44 DUP3 ADD SWAP1 JUMP JUMPDEST SUB SWAP3 AND GAS STATICCALL SWAP3 DUP4 ISZERO PUSH2 0x243D JUMPI POP PUSH1 0x0 SWAP3 PUSH2 0x2427 JUMPI POP POP SWAP1 JUMP JUMPDEST PUSH2 0x1FA3 SWAP3 POP DUP1 RETURNDATASIZE LT PUSH2 0x17E8 JUMPI PUSH2 0x17DA DUP2 DUP4 PUSH2 0x1AF6 JUMP JUMPDEST MLOAD RETURNDATASIZE PUSH1 0x0 DUP3 RETURNDATACOPY RETURNDATASIZE SWAP1 REVERT JUMPDEST PUSH2 0x245E SWAP2 POP DUP5 RETURNDATASIZE DUP7 GT PUSH2 0x17E8 JUMPI PUSH2 0x17DA DUP2 DUP4 PUSH2 0x1AF6 JUMP JUMPDEST CODESIZE PUSH2 0x23B8 JUMP JUMPDEST DUP6 MLOAD RETURNDATASIZE PUSH1 0x0 DUP3 RETURNDATACOPY RETURNDATASIZE SWAP1 REVERT JUMPDEST PUSH1 0x4 SWAP3 POP PUSH2 0x2489 SWAP1 DUP3 RETURNDATASIZE DUP5 GT PUSH2 0x17E8 JUMPI PUSH2 0x17DA DUP2 DUP4 PUSH2 0x1AF6 JUMP JUMPDEST SWAP2 PUSH2 0x238A JUMP JUMPDEST ISZERO PUSH2 0x2496 JUMPI JUMP JUMPDEST PUSH1 0x40 MLOAD PUSH3 0x461BCD PUSH1 0xE5 SHL DUP2 MSTORE PUSH1 0x20 PUSH1 0x4 DUP3 ADD MSTORE PUSH1 0xE PUSH1 0x24 DUP3 ADD MSTORE PUSH14 0x135D5CDD081899481C185D5CD959 PUSH1 0x92 SHL PUSH1 0x44 DUP3 ADD MSTORE PUSH1 0x64 SWAP1 REVERT JUMPDEST DUP1 ISZERO PUSH2 0x1F82 JUMPI PUSH1 0x1 DUP1 DUP3 ADD DUP1 DUP4 GT PUSH2 0x1BC2 JUMPI DUP2 SHR SWAP1 DUP3 JUMPDEST DUP4 DUP4 LT PUSH2 0x24F0 JUMPI POP POP POP SWAP1 JUMP JUMPDEST SWAP1 SWAP2 SWAP3 POP PUSH2 0x2507 DUP4 PUSH2 0x2502 DUP2 DUP5 PUSH2 0x1BD8 JUMP JUMPDEST PUSH2 0x1C44 JUMP JUMPDEST DUP3 SHR SWAP2 SWAP1 PUSH2 0x24E3 JUMP INVALID LOG2 PUSH5 0x6970667358 0x22 SLT KECCAK256 0x5D 0xE EQ PUSH28 0x7622B5E5846CBB5361929295E02FAF1988192AF22E83D7C4FC6345FF PUSH5 0x736F6C6343 STOP ADDMOD EQ STOP CALLER PUSH1 0x40 PUSH1 0xC0 DUP2 MSTORE CALLVALUE PUSH3 0x564 JUMPI PUSH3 0x193F DUP1 CODESIZE SUB DUP1 PUSH3 0x1E DUP2 PUSH3 0x569 JUMP JUMPDEST SWAP3 DUP4 CODECOPY DUP2 ADD PUSH1 0xC0 DUP3 DUP3 SUB SLT PUSH3 0x564 JUMPI DUP2 MLOAD PUSH1 0x1 PUSH1 0x1 PUSH1 0x40 SHL SUB SWAP1 DUP2 DUP2 GT PUSH3 0x564 JUMPI DUP3 PUSH3 0x4F SWAP2 DUP6 ADD PUSH3 0x58F JUMP JUMPDEST SWAP1 PUSH1 0x20 SWAP3 DUP4 DUP6 ADD MLOAD SWAP1 DUP3 DUP3 GT PUSH3 0x564 JUMPI PUSH3 0x6D SWAP2 DUP7 ADD PUSH3 0x58F JUMP JUMPDEST SWAP2 DUP6 DUP6 ADD MLOAD SWAP5 PUSH3 0x81 PUSH1 0x60 DUP3 ADD PUSH3 0x601 JUMP JUMPDEST PUSH1 0xA0 PUSH3 0x91 PUSH1 0x80 DUP5 ADD PUSH3 0x601 JUMP JUMPDEST SWAP3 ADD MLOAD SWAP3 DUP1 MLOAD SWAP5 DUP1 DUP7 GT PUSH3 0x461 JUMPI PUSH1 0x3 DUP1 SLOAD SWAP7 PUSH1 0x1 SWAP4 DUP5 DUP10 DUP2 SHR SWAP10 AND DUP1 ISZERO PUSH3 0x559 JUMPI JUMPDEST DUP12 DUP11 LT EQ PUSH3 0x543 JUMPI DUP2 SWAP1 DUP12 PUSH1 0x1F SWAP11 DUP12 DUP2 GT PUSH3 0x4EA JUMPI JUMPDEST POP POP DUP12 SWAP1 DUP11 DUP4 GT PUSH1 0x1 EQ PUSH3 0x483 JUMPI PUSH1 0x0 SWAP3 PUSH3 0x477 JUMPI JUMPDEST POP POP PUSH1 0x0 NOT DUP3 DUP5 SHL SHR NOT AND SWAP1 DUP5 SHL OR DUP2 SSTORE JUMPDEST DUP8 MLOAD SWAP2 DUP3 GT PUSH3 0x461 JUMPI PUSH1 0x4 SWAP8 DUP9 SLOAD DUP5 DUP2 DUP2 SHR SWAP2 AND DUP1 ISZERO PUSH3 0x456 JUMPI JUMPDEST DUP12 DUP3 LT EQ PUSH3 0x441 JUMPI DUP9 DUP2 GT PUSH3 0x3F6 JUMPI JUMPDEST POP DUP10 SWAP1 DUP9 DUP5 GT PUSH1 0x1 EQ PUSH3 0x389 JUMPI SWAP4 DUP4 SWAP5 SWAP2 DUP5 SWAP3 PUSH1 0x0 SWAP6 PUSH3 0x37D JUMPI JUMPDEST POP POP SHL SWAP3 PUSH1 0x0 NOT SWAP2 SHL SHR NOT AND OR DUP6 SSTORE JUMPDEST PUSH1 0x5 SLOAD SWAP2 PUSH1 0x1 DUP1 PUSH1 0xA0 SHL SUB NOT SWAP2 CALLER DUP4 DUP6 AND OR PUSH1 0x5 SSTORE DUP10 MLOAD PUSH1 0x1 DUP1 PUSH1 0xA0 SHL SUB SWAP5 DUP6 CALLER SWAP2 AND PUSH32 0x8BE0079C531659141344CD1FD0A4F28419497F9722A3DAAFE3B4186F6B6457E0 PUSH1 0x0 DUP1 LOG3 DUP10 ISZERO PUSH3 0x347 JUMPI POP DUP4 AND SWAP3 DUP4 ISZERO PUSH3 0x304 JUMPI DUP2 AND ISZERO PUSH3 0x2CF JUMPI DUP8 PUSH1 0x80 MSTORE PUSH1 0xA0 MSTORE PUSH1 0x6 SLOAD AND OR PUSH1 0x6 SSTORE DUP1 PUSH1 0x7 SSTORE PUSH3 0xED4E00 DUP2 ADD DUP1 SWAP2 GT PUSH3 0x2BA JUMPI PUSH1 0x8 SSTORE CALLER ISZERO PUSH3 0x27B JUMPI POP PUSH1 0x2 SLOAD SWAP1 DUP4 DUP3 ADD DUP1 SWAP3 GT PUSH3 0x266 JUMPI POP PUSH1 0x0 SWAP2 PUSH32 0xDDF252AD1BE2C89B69C2B068FC378DAA952BA7F163C4A11628F55A4DF523B3EF SWAP2 PUSH1 0x2 SSTORE CALLER DUP4 MSTORE DUP3 DUP2 MSTORE DUP5 DUP4 KECCAK256 DUP5 DUP2 SLOAD ADD SWAP1 SSTORE DUP5 MLOAD SWAP4 DUP5 MSTORE CALLER SWAP4 LOG3 MLOAD PUSH2 0x1328 SWAP1 DUP2 PUSH3 0x617 DUP3 CODECOPY PUSH1 0x80 MLOAD DUP2 PUSH2 0x3B5 ADD MSTORE PUSH1 0xA0 MLOAD DUP2 DUP2 DUP2 PUSH2 0x65D ADD MSTORE DUP2 DUP2 PUSH2 0x787 ADD MSTORE DUP2 DUP2 PUSH2 0xE67 ADD MSTORE PUSH2 0x1078 ADD MSTORE RETURN JUMPDEST PUSH1 0x11 SWAP1 PUSH4 0x4E487B71 PUSH1 0xE0 SHL PUSH1 0x0 MSTORE MSTORE PUSH1 0x24 PUSH1 0x0 REVERT JUMPDEST PUSH1 0x64 SWAP3 DUP6 MLOAD SWAP3 PUSH3 0x461BCD PUSH1 0xE5 SHL DUP5 MSTORE DUP4 ADD MSTORE PUSH1 0x24 DUP3 ADD MSTORE PUSH32 0x45524332303A206D696E7420746F20746865207A65726F206164647265737300 PUSH1 0x44 DUP3 ADD MSTORE REVERT JUMPDEST PUSH1 0x11 DUP4 PUSH4 0x4E487B71 PUSH1 0xE0 SHL PUSH1 0x0 MSTORE MSTORE PUSH1 0x24 PUSH1 0x0 REVERT JUMPDEST DUP9 MLOAD PUSH3 0x461BCD PUSH1 0xE5 SHL DUP2 MSTORE DUP1 DUP8 ADD DUP9 SWAP1 MSTORE PUSH1 0xF PUSH1 0x24 DUP3 ADD MSTORE PUSH15 0x24B73B30B634B21031B932B0BA37B9 PUSH1 0x89 SHL PUSH1 0x44 DUP3 ADD MSTORE PUSH1 0x64 SWAP1 REVERT JUMPDEST DUP10 MLOAD PUSH3 0x461BCD PUSH1 0xE5 SHL DUP2 MSTORE DUP1 DUP9 ADD DUP10 SWAP1 MSTORE PUSH1 0x17 PUSH1 0x24 DUP3 ADD MSTORE PUSH32 0x496E76616C696420706C6174666F726D2077616C6C6574000000000000000000 PUSH1 0x44 DUP3 ADD MSTORE PUSH1 0x64 SWAP1 REVERT JUMPDEST PUSH3 0x461BCD PUSH1 0xE5 SHL DUP2 MSTORE DUP8 DUP2 ADD DUP10 SWAP1 MSTORE PUSH1 0x12 PUSH1 0x24 DUP3 ADD MSTORE PUSH18 0x537570706C79206D757374206265203E203 PUSH1 0x74 SHL PUSH1 0x44 DUP3 ADD MSTORE PUSH1 0x64 SWAP1 REVERT JUMPDEST ADD MLOAD SWAP4 POP CODESIZE DUP1 PUSH3 0x144 JUMP JUMPDEST SWAP2 SWAP1 PUSH1 0x1F NOT DUP5 AND SWAP3 DUP11 PUSH1 0x0 MSTORE DUP5 DUP13 PUSH1 0x0 KECCAK256 SWAP5 DUP14 PUSH1 0x0 SWAP1 JUMPDEST DUP10 DUP4 DUP4 LT PUSH3 0x3DD JUMPI POP POP POP LT PUSH3 0x3C2 JUMPI JUMPDEST POP POP POP POP DUP2 SHL ADD DUP6 SSTORE PUSH3 0x154 JUMP JUMPDEST ADD MLOAD SWAP1 PUSH1 0xF8 DUP5 PUSH1 0x0 NOT SWAP3 SHL AND SHR NOT AND SWAP1 SSTORE CODESIZE DUP1 DUP1 DUP1 PUSH3 0x3B3 JUMP JUMPDEST DUP7 DUP7 ADD MLOAD DUP10 SSTORE SWAP1 SWAP8 ADD SWAP7 SWAP5 DUP6 ADD SWAP5 DUP9 SWAP4 POP ADD DUP15 PUSH3 0x3A0 JUMP JUMPDEST DUP10 PUSH1 0x0 MSTORE DUP11 PUSH1 0x0 KECCAK256 DUP10 DUP1 DUP7 ADD PUSH1 0x5 SHR DUP3 ADD SWAP3 DUP14 DUP8 LT PUSH3 0x437 JUMPI JUMPDEST ADD PUSH1 0x5 SHR ADD SWAP1 DUP6 SWAP1 JUMPDEST DUP3 DUP2 LT PUSH3 0x42A JUMPI POP POP PUSH3 0x127 JUMP JUMPDEST PUSH1 0x0 DUP2 SSTORE ADD DUP6 SWAP1 PUSH3 0x41A JUMP JUMPDEST SWAP3 POP DUP2 SWAP3 PUSH3 0x411 JUMP JUMPDEST PUSH1 0x22 DUP11 PUSH4 0x4E487B71 PUSH1 0xE0 SHL PUSH1 0x0 MSTORE MSTORE PUSH1 0x24 PUSH1 0x0 REVERT JUMPDEST SWAP1 PUSH1 0x7F AND SWAP1 PUSH3 0x115 JUMP JUMPDEST PUSH4 0x4E487B71 PUSH1 0xE0 SHL PUSH1 0x0 MSTORE PUSH1 0x41 PUSH1 0x4 MSTORE PUSH1 0x24 PUSH1 0x0 REVERT JUMPDEST ADD MLOAD SWAP1 POP CODESIZE DUP1 PUSH3 0xE6 JUMP JUMPDEST PUSH1 0x0 DUP6 DUP2 MSTORE DUP14 DUP2 KECCAK256 DUP9 SWAP6 POP SWAP3 SWAP2 SWAP1 PUSH1 0x1F NOT DUP6 AND SWAP1 DUP16 JUMPDEST DUP3 DUP3 LT PUSH3 0x4D2 JUMPI POP POP DUP5 GT PUSH3 0x4B9 JUMPI JUMPDEST POP POP POP DUP2 SHL ADD DUP2 SSTORE PUSH3 0xF8 JUMP JUMPDEST ADD MLOAD PUSH1 0x0 NOT DUP4 DUP7 SHL PUSH1 0xF8 AND SHR NOT AND SWAP1 SSTORE CODESIZE DUP1 DUP1 PUSH3 0x4AB JUMP JUMPDEST DUP4 DUP6 ADD MLOAD DUP7 SSTORE DUP11 SWAP8 SWAP1 SWAP6 ADD SWAP5 SWAP4 DUP5 ADD SWAP4 ADD DUP16 PUSH3 0x499 JUMP JUMPDEST SWAP1 SWAP2 SWAP3 POP DUP5 PUSH1 0x0 MSTORE DUP11 DUP3 PUSH1 0x0 KECCAK256 SWAP2 DUP2 DUP7 ADD PUSH1 0x5 SHR DUP4 ADD SWAP4 DUP7 LT PUSH3 0x539 JUMPI JUMPDEST SWAP2 DUP9 SWAP2 DUP7 SWAP6 SWAP5 SWAP4 ADD PUSH1 0x5 SHR ADD SWAP2 JUMPDEST DUP3 DUP2 LT PUSH3 0x529 JUMPI POP DUP14 SWAP2 POP PUSH3 0xCE JUMP JUMPDEST PUSH1 0x0 DUP2 SSTORE DUP6 SWAP5 POP DUP9 SWAP2 ADD PUSH3 0x517 JUMP JUMPDEST SWAP3 POP DUP2 SWAP3 PUSH3 0x509 JUMP JUMPDEST PUSH4 0x4E487B71 PUSH1 0xE0 SHL PUSH1 0x0 MSTORE PUSH1 0x22 PUSH1 0x4 MSTORE PUSH1 0x24 PUSH1 0x0 REVERT JUMPDEST SWAP9 PUSH1 0x7F AND SWAP9 PUSH3 0xB6 JUMP JUMPDEST PUSH1 0x0 DUP1 REVERT JUMPDEST PUSH1 0x40 MLOAD SWAP2 SWAP1 PUSH1 0x1F ADD PUSH1 0x1F NOT AND DUP3 ADD PUSH1 0x1 PUSH1 0x1 PUSH1 0x40 SHL SUB DUP2 GT DUP4 DUP3 LT OR PUSH3 0x461 JUMPI PUSH1 0x40 MSTORE JUMP JUMPDEST SWAP2 SWAP1 DUP1 PUSH1 0x1F DUP5 ADD SLT ISZERO PUSH3 0x564 JUMPI DUP3 MLOAD PUSH1 0x1 PUSH1 0x1 PUSH1 0x40 SHL SUB DUP2 GT PUSH3 0x461 JUMPI PUSH1 0x20 SWAP1 PUSH3 0x5C5 PUSH1 0x1F DUP3 ADD PUSH1 0x1F NOT AND DUP4 ADD PUSH3 0x569 JUMP JUMPDEST SWAP3 DUP2 DUP5 MSTORE DUP3 DUP3 DUP8 ADD ADD GT PUSH3 0x564 JUMPI PUSH1 0x0 JUMPDEST DUP2 DUP2 LT PUSH3 0x5ED JUMPI POP DUP3 PUSH1 0x0 SWAP4 SWAP5 SWAP6 POP ADD ADD MSTORE SWAP1 JUMP JUMPDEST DUP6 DUP2 ADD DUP4 ADD MLOAD DUP5 DUP3 ADD DUP5 ADD MSTORE DUP3 ADD PUSH3 0x5D7 JUMP JUMPDEST MLOAD SWAP1 PUSH1 0x1 PUSH1 0x1 PUSH1 0xA0 SHL SUB DUP3 AND DUP3 SUB PUSH3 0x564 JUMPI JUMP INVALID PUSH1 0x80 PUSH1 0x40 DUP2 DUP2 MSTORE PUSH1 0x4 SWAP2 DUP3 CALLDATASIZE LT ISZERO PUSH2 0x16 JUMPI PUSH1 0x0 DUP1 REVERT JUMPDEST PUSH1 0x0 SWAP3 DUP4 CALLDATALOAD PUSH1 0xE0 SHR SWAP2 DUP3 PUSH4 0x2D05D3F EQ PUSH2 0xE53 JUMPI POP DUP2 PUSH4 0x6FDDE03 EQ PUSH2 0xD79 JUMPI DUP2 PUSH4 0x95EA7B3 EQ PUSH2 0xD4F JUMPI DUP2 PUSH4 0x158EF93E EQ PUSH2 0xD2B JUMPI DUP2 PUSH4 0x18160DDD EQ PUSH2 0xD0C JUMPI DUP2 PUSH4 0x23B872DD EQ PUSH2 0xC42 JUMPI DUP2 PUSH4 0x313CE567 EQ PUSH2 0xC26 JUMPI DUP2 PUSH4 0x3150344A EQ PUSH2 0xC0A JUMPI DUP2 PUSH4 0x39509351 EQ PUSH2 0xBA3 JUMPI DUP2 PUSH4 0x42966C68 EQ PUSH2 0x9E3 JUMPI DUP2 PUSH4 0x4CFC4D30 EQ PUSH2 0x9C5 JUMPI DUP2 PUSH4 0x554BB2B0 EQ PUSH2 0x9A3 JUMPI DUP2 PUSH4 0x58E5C3FB EQ PUSH2 0x987 JUMPI DUP2 PUSH4 0x6F293D59 EQ PUSH2 0x96B JUMPI DUP2 PUSH4 0x70A08231 EQ PUSH2 0x934 JUMPI DUP2 PUSH4 0x715018A6 EQ PUSH2 0x8D7 JUMPI DUP2 PUSH4 0x73346ABC EQ PUSH2 0x849 JUMPI DUP2 PUSH4 0x8611F015 EQ PUSH2 0x80B JUMPI DUP2 PUSH4 0x882C17E9 EQ PUSH2 0x755 JUMPI DUP2 PUSH4 0x8831E9CF EQ PUSH2 0x618 JUMPI DUP2 PUSH4 0x8DA5CB5B EQ PUSH2 0x5EF JUMPI DUP2 PUSH4 0x95D89B41 EQ PUSH2 0x4D0 JUMPI DUP2 PUSH4 0xA457C2D7 EQ PUSH2 0x428 JUMPI DUP2 PUSH4 0xA9059CBB EQ PUSH2 0x3F7 JUMPI DUP2 PUSH4 0xD207B672 EQ PUSH2 0x3D8 JUMPI DUP2 PUSH4 0xD5ABEB01 EQ PUSH2 0x39D JUMPI DUP2 PUSH4 0xDD62ED3E EQ PUSH2 0x354 JUMPI DUP2 PUSH4 0xE46E46DF EQ PUSH2 0x330 JUMPI DUP2 PUSH4 0xF2C5C06D EQ PUSH2 0x29E JUMPI DUP2 PUSH4 0xF2FDE38B EQ PUSH2 0x1CE JUMPI POP DUP1 PUSH4 0xF8EEED62 EQ PUSH2 0x1B0 JUMPI PUSH4 0xFA2AF9DA EQ PUSH2 0x185 JUMPI PUSH1 0x0 DUP1 REVERT JUMPDEST CALLVALUE PUSH2 0x1AC JUMPI DUP2 PUSH1 0x3 NOT CALLDATASIZE ADD SLT PUSH2 0x1AC JUMPI PUSH1 0x6 SLOAD SWAP1 MLOAD PUSH1 0x1 PUSH1 0x1 PUSH1 0xA0 SHL SUB SWAP1 SWAP2 AND DUP2 MSTORE PUSH1 0x20 SWAP1 RETURN JUMPDEST POP DUP1 REVERT JUMPDEST POP CALLVALUE PUSH2 0x1AC JUMPI DUP2 PUSH1 0x3 NOT CALLDATASIZE ADD SLT PUSH2 0x1AC JUMPI PUSH1 0x20 SWAP1 PUSH1 0x7 SLOAD SWAP1 MLOAD SWAP1 DUP2 MSTORE RETURN JUMPDEST SWAP1 POP CALLVALUE PUSH2 0x29A JUMPI PUSH1 0x20 CALLDATASIZE PUSH1 0x3 NOT ADD SLT PUSH2 0x29A JUMPI PUSH2 0x1E9 PUSH2 0xEDF JUMP JUMPDEST SWAP1 PUSH2 0x1F2 PUSH2 0xF10 JUMP JUMPDEST PUSH1 0x1 PUSH1 0x1 PUSH1 0xA0 SHL SUB SWAP2 DUP3 AND SWAP3 DUP4 ISZERO PUSH2 0x248 JUMPI POP POP PUSH1 0x5 SLOAD DUP3 PUSH12 0xFFFFFFFFFFFFFFFFFFFFFFFF PUSH1 0xA0 SHL DUP3 AND OR PUSH1 0x5 SSTORE AND PUSH32 0x8BE0079C531659141344CD1FD0A4F28419497F9722A3DAAFE3B4186F6B6457E0 DUP4 DUP1 LOG3 DUP1 RETURN JUMPDEST SWAP1 PUSH1 0x20 PUSH1 0x84 SWAP3 MLOAD SWAP2 PUSH3 0x461BCD PUSH1 0xE5 SHL DUP4 MSTORE DUP3 ADD MSTORE PUSH1 0x26 PUSH1 0x24 DUP3 ADD MSTORE PUSH32 0x4F776E61626C653A206E6577206F776E657220697320746865207A65726F2061 PUSH1 0x44 DUP3 ADD MSTORE PUSH6 0x646472657373 PUSH1 0xD0 SHL PUSH1 0x64 DUP3 ADD MSTORE REVERT JUMPDEST DUP3 DUP1 REVERT JUMPDEST SWAP1 POP CALLVALUE PUSH2 0x29A JUMPI PUSH1 0x20 CALLDATASIZE PUSH1 0x3 NOT ADD SLT PUSH2 0x29A JUMPI PUSH2 0x2B9 PUSH2 0xEDF JUMP JUMPDEST SWAP1 PUSH2 0x2C2 PUSH2 0xF10 JUMP JUMPDEST PUSH1 0x6 SLOAD PUSH1 0x1 PUSH1 0x1 PUSH1 0xA0 SHL SUB SWAP3 DUP4 AND SWAP3 AND DUP3 EQ PUSH2 0x2ED JUMPI POP DUP3 MSTORE PUSH1 0x9 PUSH1 0x20 MSTORE DUP2 KECCAK256 DUP1 SLOAD PUSH1 0xFF NOT AND SWAP1 SSTORE DUP1 RETURN JUMPDEST PUSH1 0x64 SWAP1 PUSH1 0x20 DUP5 MLOAD SWAP2 PUSH3 0x461BCD PUSH1 0xE5 SHL DUP4 MSTORE DUP3 ADD MSTORE PUSH1 0x20 PUSH1 0x24 DUP3 ADD MSTORE PUSH32 0x43616E6E6F742072656D6F766520706C6174666F726D206578656D7074696F6E PUSH1 0x44 DUP3 ADD MSTORE REVERT JUMPDEST POP POP CALLVALUE PUSH2 0x1AC JUMPI DUP2 PUSH1 0x3 NOT CALLDATASIZE ADD SLT PUSH2 0x1AC JUMPI PUSH1 0x20 SWAP1 PUSH2 0x34D PUSH2 0x1280 JUMP JUMPDEST SWAP1 MLOAD SWAP1 DUP2 MSTORE RETURN JUMPDEST POP POP CALLVALUE PUSH2 0x1AC JUMPI DUP1 PUSH1 0x3 NOT CALLDATASIZE ADD SLT PUSH2 0x1AC JUMPI DUP1 PUSH1 0x20 SWAP3 PUSH2 0x372 PUSH2 0xEDF JUMP JUMPDEST PUSH2 0x37A PUSH2 0xEFA JUMP JUMPDEST PUSH1 0x1 PUSH1 0x1 PUSH1 0xA0 SHL SUB SWAP2 DUP3 AND DUP4 MSTORE PUSH1 0x1 DUP7 MSTORE DUP4 DUP4 KECCAK256 SWAP2 AND DUP3 MSTORE DUP5 MSTORE KECCAK256 SLOAD SWAP1 MLOAD SWAP1 DUP2 MSTORE RETURN JUMPDEST POP POP CALLVALUE PUSH2 0x1AC JUMPI DUP2 PUSH1 0x3 NOT CALLDATASIZE ADD SLT PUSH2 0x1AC JUMPI PUSH1 0x20 SWAP1 MLOAD PUSH32 0x0 DUP2 MSTORE RETURN JUMPDEST POP POP CALLVALUE PUSH2 0x1AC JUMPI DUP2 PUSH1 0x3 NOT CALLDATASIZE ADD SLT PUSH2 0x1AC JUMPI PUSH1 0x20 SWAP1 PUSH1 0x8 SLOAD SWAP1 MLOAD SWAP1 DUP2 MSTORE RETURN JUMPDEST POP POP CALLVALUE PUSH2 0x1AC JUMPI DUP1 PUSH1 0x3 NOT CALLDATASIZE ADD SLT PUSH2 0x1AC JUMPI PUSH1 0x20 SWAP1 PUSH2 0x421 PUSH2 0x417 PUSH2 0xEDF JUMP JUMPDEST PUSH1 0x24 CALLDATALOAD SWAP1 CALLER PUSH2 0x106A JUMP JUMPDEST MLOAD PUSH1 0x1 DUP2 MSTORE RETURN JUMPDEST SWAP1 POP DUP3 CALLVALUE PUSH2 0x4CD JUMPI DUP3 PUSH1 0x3 NOT CALLDATASIZE ADD SLT PUSH2 0x4CD JUMPI PUSH2 0x443 PUSH2 0xEDF JUMP JUMPDEST SWAP2 DUP4 PUSH1 0x24 CALLDATALOAD SWAP3 CALLER DUP2 MSTORE PUSH1 0x1 PUSH1 0x20 MSTORE DUP2 DUP2 KECCAK256 PUSH1 0x1 DUP1 PUSH1 0xA0 SHL SUB DUP7 AND DUP3 MSTORE PUSH1 0x20 MSTORE KECCAK256 SLOAD SWAP1 DUP3 DUP3 LT PUSH2 0x47C JUMPI PUSH1 0x20 DUP6 PUSH2 0x421 DUP6 DUP6 SUB DUP8 CALLER PUSH2 0xF68 JUMP JUMPDEST PUSH1 0x84 SWAP1 PUSH1 0x20 DUP7 MLOAD SWAP2 PUSH3 0x461BCD PUSH1 0xE5 SHL DUP4 MSTORE DUP3 ADD MSTORE PUSH1 0x25 PUSH1 0x24 DUP3 ADD MSTORE PUSH32 0x45524332303A2064656372656173656420616C6C6F77616E63652062656C6F77 PUSH1 0x44 DUP3 ADD MSTORE PUSH5 0x207A65726F PUSH1 0xD8 SHL PUSH1 0x64 DUP3 ADD MSTORE REVERT JUMPDEST DUP1 REVERT JUMPDEST DUP4 DUP4 CALLVALUE PUSH2 0x1AC JUMPI DUP2 PUSH1 0x3 NOT CALLDATASIZE ADD SLT PUSH2 0x1AC JUMPI DUP1 MLOAD SWAP1 DUP3 DUP5 SLOAD PUSH1 0x1 DUP2 DUP2 SHR SWAP1 DUP1 DUP4 AND SWAP3 DUP4 ISZERO PUSH2 0x5E5 JUMPI JUMPDEST PUSH1 0x20 SWAP4 DUP5 DUP5 LT DUP2 EQ PUSH2 0x5D2 JUMPI DUP4 DUP9 MSTORE SWAP1 DUP2 ISZERO PUSH2 0x5B6 JUMPI POP PUSH1 0x1 EQ PUSH2 0x561 JUMPI JUMPDEST POP POP POP DUP3 SWAP1 SUB PUSH1 0x1F ADD PUSH1 0x1F NOT AND DUP3 ADD SWAP3 PUSH8 0xFFFFFFFFFFFFFFFF DUP5 GT DUP4 DUP6 LT OR PUSH2 0x54E JUMPI POP DUP3 SWAP2 DUP3 PUSH2 0x54A SWAP3 MSTORE DUP3 PUSH2 0xE96 JUMP JUMPDEST SUB SWAP1 RETURN JUMPDEST PUSH4 0x4E487B71 PUSH1 0xE0 SHL DUP2 MSTORE PUSH1 0x41 DUP6 MSTORE PUSH1 0x24 SWAP1 REVERT JUMPDEST DUP8 DUP8 MSTORE SWAP2 SWAP3 POP DUP6 SWAP2 DUP4 PUSH32 0x8A35ACFBC15FF81A39AE7D344FD709F28E8600B4AA8C65C6B64BFE7FE36BD19B JUMPDEST DUP4 DUP6 LT PUSH2 0x5A2 JUMPI POP POP POP POP DUP4 ADD ADD DUP6 DUP1 DUP1 PUSH2 0x518 JUMP JUMPDEST DUP1 SLOAD DUP9 DUP7 ADD DUP4 ADD MSTORE SWAP4 ADD SWAP3 DUP5 SWAP1 DUP3 ADD PUSH2 0x58C JUMP JUMPDEST PUSH1 0xFF NOT AND DUP8 DUP6 ADD MSTORE POP POP ISZERO ISZERO PUSH1 0x5 SHL DUP5 ADD ADD SWAP1 POP DUP6 DUP1 DUP1 PUSH2 0x518 JUMP JUMPDEST PUSH4 0x4E487B71 PUSH1 0xE0 SHL DUP10 MSTORE PUSH1 0x22 DUP11 MSTORE PUSH1 0x24 DUP10 REVERT JUMPDEST SWAP2 PUSH1 0x7F AND SWAP2 PUSH2 0x4F9 JUMP JUMPDEST POP POP CALLVALUE PUSH2 0x1AC JUMPI DUP2 PUSH1 0x3 NOT CALLDATASIZE ADD SLT PUSH2 0x1AC JUMPI PUSH1 0x5 SLOAD SWAP1 MLOAD PUSH1 0x1 PUSH1 0x1 PUSH1 0xA0 SHL SUB SWAP1 SWAP2 AND DUP2 MSTORE PUSH1 0x20 SWAP1 RETURN JUMPDEST SWAP2 SWAP1 POP CALLVALUE PUSH2 0x29A JUMPI PUSH1 0x20 CALLDATASIZE PUSH1 0x3 NOT ADD SLT PUSH2 0x29A JUMPI PUSH2 0x634 PUSH2 0xEDF JUMP JUMPDEST PUSH1 0x6 SLOAD PUSH1 0x1 PUSH1 0x1 PUSH1 0xA0 SHL SUB SWAP4 DUP5 DUP3 AND SWAP4 SWAP3 CALLER DUP6 SWAP1 SUB PUSH2 0x71B JUMPI DUP6 AND SWAP5 PUSH2 0x65B DUP7 ISZERO ISZERO PUSH2 0x12B4 JUMP JUMPDEST PUSH32 0x0 AND DUP6 EQ PUSH2 0x6E0 JUMPI POP PUSH1 0x1 PUSH1 0x1 PUSH1 0xA0 SHL SUB NOT AND DUP4 OR PUSH1 0x6 SSTORE DUP2 DUP5 MSTORE PUSH1 0x9 PUSH1 0x20 MSTORE DUP1 DUP5 KECCAK256 DUP1 SLOAD PUSH1 0xFF NOT SWAP1 DUP2 AND SWAP1 SWAP2 SSTORE DUP4 DUP6 MSTORE SWAP1 DUP5 KECCAK256 DUP1 SLOAD SWAP1 SWAP2 AND PUSH1 0x1 OR SWAP1 SSTORE PUSH32 0xF84F6B525C89A18C80BBBC0C62A7EB5390956D6B8432AB067B49963A98F8C38F DUP4 DUP1 LOG3 DUP1 RETURN JUMPDEST PUSH1 0x64 SWAP1 PUSH1 0x20 DUP5 MLOAD SWAP2 PUSH3 0x461BCD PUSH1 0xE5 SHL DUP4 MSTORE DUP3 ADD MSTORE PUSH1 0x15 PUSH1 0x24 DUP3 ADD MSTORE PUSH21 0x21B0B73737BA1039B2BA103A379031B932B0BA37B9 PUSH1 0x59 SHL PUSH1 0x44 DUP3 ADD MSTORE REVERT JUMPDEST DUP4 MLOAD PUSH3 0x461BCD PUSH1 0xE5 SHL DUP2 MSTORE PUSH1 0x20 DUP2 DUP5 ADD MSTORE PUSH1 0x14 PUSH1 0x24 DUP3 ADD MSTORE PUSH20 0x13DB9B1E481C1B185D199BDC9B481DD85B1B195D PUSH1 0x62 SHL PUSH1 0x44 DUP3 ADD MSTORE PUSH1 0x64 SWAP1 REVERT JUMPDEST SWAP1 POP CALLVALUE PUSH2 0x29A JUMPI PUSH1 0x20 CALLDATASIZE PUSH1 0x3 NOT ADD SLT PUSH2 0x29A JUMPI PUSH2 0x770 PUSH2 0xEDF JUMP JUMPDEST SWAP1 PUSH2 0x779 PUSH2 0xF10 JUMP JUMPDEST PUSH1 0x1 PUSH1 0x1 PUSH1 0xA0 SHL SUB SWAP2 DUP3 AND SWAP2 PUSH32 0x0 AND DUP3 EQ PUSH2 0x7D0 JUMPI POP PUSH2 0x7B9 DUP2 ISZERO ISZERO PUSH2 0x12B4 JUMP JUMPDEST DUP3 MSTORE PUSH1 0x9 PUSH1 0x20 MSTORE DUP2 KECCAK256 DUP1 SLOAD PUSH1 0xFF NOT AND PUSH1 0x1 OR SWAP1 SSTORE DUP1 RETURN JUMPDEST PUSH1 0x64 SWAP1 PUSH1 0x20 DUP5 MLOAD SWAP2 PUSH3 0x461BCD PUSH1 0xE5 SHL DUP4 MSTORE DUP3 ADD MSTORE PUSH1 0x15 PUSH1 0x24 DUP3 ADD MSTORE PUSH21 0x21B0B73737BA1032BC32B6B83A1031B932B0BA37B9 PUSH1 0x59 SHL PUSH1 0x44 DUP3 ADD MSTORE REVERT JUMPDEST POP POP CALLVALUE PUSH2 0x1AC JUMPI PUSH1 0x20 CALLDATASIZE PUSH1 0x3 NOT ADD SLT PUSH2 0x1AC JUMPI PUSH1 0x20 SWAP2 PUSH1 0xFF SWAP1 DUP3 SWAP1 PUSH1 0x1 PUSH1 0x1 PUSH1 0xA0 SHL SUB PUSH2 0x836 PUSH2 0xEDF JUMP JUMPDEST AND DUP2 MSTORE PUSH1 0x9 DUP6 MSTORE KECCAK256 SLOAD AND SWAP1 MLOAD SWAP1 ISZERO ISZERO DUP2 MSTORE RETURN JUMPDEST SWAP2 SWAP1 POP CALLVALUE PUSH2 0x29A JUMPI DUP3 PUSH1 0x3 NOT CALLDATASIZE ADD SLT PUSH2 0x29A JUMPI PUSH2 0x864 PUSH2 0xF10 JUMP JUMPDEST PUSH1 0xA SLOAD SWAP2 PUSH1 0xFF DUP4 AND PUSH2 0x89F JUMPI POP PUSH1 0x1 PUSH1 0xFF NOT SWAP3 DUP4 AND DUP2 OR PUSH1 0xA SSTORE PUSH1 0x6 SLOAD PUSH1 0x1 PUSH1 0x1 PUSH1 0xA0 SHL SUB AND DUP5 MSTORE PUSH1 0x9 PUSH1 0x20 MSTORE SWAP1 DUP4 KECCAK256 DUP1 SLOAD SWAP1 SWAP3 AND OR SWAP1 SSTORE DUP1 RETURN JUMPDEST PUSH1 0x20 PUSH1 0x64 SWAP3 MLOAD SWAP2 PUSH3 0x461BCD PUSH1 0xE5 SHL DUP4 MSTORE DUP3 ADD MSTORE PUSH1 0x13 PUSH1 0x24 DUP3 ADD MSTORE PUSH19 0x105B1C9958591E481A5B9A5D1A585B1A5E9959 PUSH1 0x6A SHL PUSH1 0x44 DUP3 ADD MSTORE REVERT JUMPDEST DUP4 CALLVALUE PUSH2 0x4CD JUMPI DUP1 PUSH1 0x3 NOT CALLDATASIZE ADD SLT PUSH2 0x4CD JUMPI PUSH2 0x8F0 PUSH2 0xF10 JUMP JUMPDEST PUSH1 0x5 DUP1 SLOAD PUSH1 0x1 PUSH1 0x1 PUSH1 0xA0 SHL SUB NOT DUP2 AND SWAP1 SWAP2 SSTORE DUP2 SWAP1 PUSH1 0x1 PUSH1 0x1 PUSH1 0xA0 SHL SUB AND PUSH32 0x8BE0079C531659141344CD1FD0A4F28419497F9722A3DAAFE3B4186F6B6457E0 DUP3 DUP1 LOG3 DUP1 RETURN JUMPDEST POP POP CALLVALUE PUSH2 0x1AC JUMPI PUSH1 0x20 CALLDATASIZE PUSH1 0x3 NOT ADD SLT PUSH2 0x1AC JUMPI PUSH1 0x20 SWAP2 DUP2 SWAP1 PUSH1 0x1 PUSH1 0x1 PUSH1 0xA0 SHL SUB PUSH2 0x95C PUSH2 0xEDF JUMP JUMPDEST AND DUP2 MSTORE DUP1 DUP5 MSTORE KECCAK256 SLOAD SWAP1 MLOAD SWAP1 DUP2 MSTORE RETURN JUMPDEST POP POP CALLVALUE PUSH2 0x1AC JUMPI DUP2 PUSH1 0x3 NOT CALLDATASIZE ADD SLT PUSH2 0x1AC JUMPI PUSH1 0x20 SWAP1 MLOAD PUSH1 0x50 DUP2 MSTORE RETURN JUMPDEST POP POP CALLVALUE PUSH2 0x1AC JUMPI DUP2 PUSH1 0x3 NOT CALLDATASIZE ADD SLT PUSH2 0x1AC JUMPI PUSH1 0x20 SWAP1 MLOAD PUSH1 0xF DUP2 MSTORE RETURN JUMPDEST POP POP CALLVALUE PUSH2 0x1AC JUMPI DUP2 PUSH1 0x3 NOT CALLDATASIZE ADD SLT PUSH2 0x1AC JUMPI PUSH1 0x20 SWAP1 PUSH1 0x8 SLOAD TIMESTAMP LT ISZERO SWAP1 MLOAD SWAP1 DUP2 MSTORE RETURN JUMPDEST POP POP CALLVALUE PUSH2 0x1AC JUMPI DUP2 PUSH1 0x3 NOT CALLDATASIZE ADD SLT PUSH2 0x1AC JUMPI PUSH1 0x20 SWAP1 MLOAD PUSH3 0xED4E00 DUP2 MSTORE RETURN JUMPDEST SWAP2 SWAP1 POP CALLVALUE PUSH2 0x29A JUMPI PUSH1 0x20 SWAP1 DUP2 PUSH1 0x3 NOT CALLDATASIZE ADD SLT PUSH2 0xB9F JUMPI DUP3 CALLDATALOAD SWAP3 DUP4 ISZERO PUSH2 0xB69 JUMPI CALLER DUP6 MSTORE DUP5 DUP4 MSTORE DUP4 DUP3 DUP7 KECCAK256 SLOAD LT PUSH2 0xB31 JUMPI CALLER ISZERO PUSH2 0xAE6 JUMPI CALLER DUP6 MSTORE DUP5 DUP4 MSTORE DUP2 DUP6 KECCAK256 SLOAD SWAP1 DUP5 DUP3 LT PUSH2 0xA98 JUMPI POP SWAP1 DUP4 PUSH32 0xFD38818F5291BF0BB3A2A48AADC06BA8757865D1DABD804585338AAB3009DCB6 SWAP4 SWAP3 CALLER DUP8 MSTORE DUP7 DUP5 MSTORE SUB DUP2 DUP7 KECCAK256 SSTORE DUP4 PUSH1 0x2 SLOAD SUB PUSH1 0x2 SSTORE DUP5 DUP2 MLOAD DUP6 DUP2 MSTORE PUSH32 0xDDF252AD1BE2C89B69C2B068FC378DAA952BA7F163C4A11628F55A4DF523B3EF DUP5 CALLER SWAP3 LOG3 MLOAD SWAP3 DUP4 MSTORE CALLER SWAP3 LOG2 DUP1 RETURN JUMPDEST DUP3 MLOAD PUSH3 0x461BCD PUSH1 0xE5 SHL DUP2 MSTORE SWAP1 DUP2 ADD DUP5 SWAP1 MSTORE PUSH1 0x22 PUSH1 0x24 DUP3 ADD MSTORE PUSH32 0x45524332303A206275726E20616D6F756E7420657863656564732062616C616E PUSH1 0x44 DUP3 ADD MSTORE PUSH2 0x6365 PUSH1 0xF0 SHL PUSH1 0x64 DUP3 ADD MSTORE PUSH1 0x84 SWAP1 REVERT JUMPDEST DUP3 PUSH1 0x84 SWAP3 MLOAD SWAP2 PUSH3 0x461BCD PUSH1 0xE5 SHL DUP4 MSTORE DUP3 ADD MSTORE PUSH1 0x21 PUSH1 0x24 DUP3 ADD MSTORE PUSH32 0x45524332303A206275726E2066726F6D20746865207A65726F20616464726573 PUSH1 0x44 DUP3 ADD MSTORE PUSH1 0x73 PUSH1 0xF8 SHL PUSH1 0x64 DUP3 ADD MSTORE REVERT JUMPDEST DUP3 PUSH1 0x64 SWAP3 MLOAD SWAP2 PUSH3 0x461BCD PUSH1 0xE5 SHL DUP4 MSTORE DUP3 ADD MSTORE PUSH1 0x14 PUSH1 0x24 DUP3 ADD MSTORE PUSH20 0x496E73756666696369656E742062616C616E6365 PUSH1 0x60 SHL PUSH1 0x44 DUP3 ADD MSTORE REVERT JUMPDEST DUP3 PUSH1 0x64 SWAP3 MLOAD SWAP2 PUSH3 0x461BCD PUSH1 0xE5 SHL DUP4 MSTORE DUP3 ADD MSTORE PUSH1 0x12 PUSH1 0x24 DUP3 ADD MSTORE PUSH18 0x416D6F756E74206D757374206265203E203 PUSH1 0x74 SHL PUSH1 0x44 DUP3 ADD MSTORE REVERT JUMPDEST DUP4 DUP1 REVERT JUMPDEST DUP3 DUP5 CALLVALUE PUSH2 0x4CD JUMPI DUP2 PUSH1 0x3 NOT CALLDATASIZE ADD SLT PUSH2 0x4CD JUMPI PUSH2 0xBBD PUSH2 0xEDF JUMP JUMPDEST CALLER DUP3 MSTORE PUSH1 0x1 PUSH1 0x20 SWAP1 DUP2 MSTORE DUP4 DUP4 KECCAK256 PUSH1 0x1 PUSH1 0x1 PUSH1 0xA0 SHL SUB DUP4 AND DUP5 MSTORE SWAP1 MSTORE DUP3 DUP3 KECCAK256 SLOAD PUSH1 0x24 CALLDATALOAD DUP2 ADD SWAP3 SWAP1 DUP4 LT PUSH2 0xBF7 JUMPI PUSH1 0x20 DUP5 PUSH2 0x421 DUP6 DUP6 CALLER PUSH2 0xF68 JUMP JUMPDEST PUSH4 0x4E487B71 PUSH1 0xE0 SHL DUP2 MSTORE PUSH1 0x11 DUP6 MSTORE PUSH1 0x24 SWAP1 REVERT JUMPDEST POP POP CALLVALUE PUSH2 0x1AC JUMPI DUP2 PUSH1 0x3 NOT CALLDATASIZE ADD SLT PUSH2 0x1AC JUMPI PUSH1 0x20 SWAP1 MLOAD PUSH1 0x5 DUP2 MSTORE RETURN JUMPDEST POP POP CALLVALUE PUSH2 0x1AC JUMPI DUP2 PUSH1 0x3 NOT CALLDATASIZE ADD SLT PUSH2 0x1AC JUMPI PUSH1 0x20 SWAP1 MLOAD PUSH1 0x12 DUP2 MSTORE RETURN JUMPDEST DUP4 SWAP2 POP CALLVALUE PUSH2 0x1AC JUMPI PUSH1 0x60 CALLDATASIZE PUSH1 0x3 NOT ADD SLT PUSH2 0x1AC JUMPI PUSH2 0xC5E PUSH2 0xEDF JUMP JUMPDEST PUSH2 0xC66 PUSH2 0xEFA JUMP JUMPDEST SWAP2 DUP5 PUSH1 0x44 CALLDATALOAD SWAP5 PUSH1 0x1 DUP1 PUSH1 0xA0 SHL SUB DUP5 AND DUP2 MSTORE PUSH1 0x1 PUSH1 0x20 MSTORE DUP2 DUP2 KECCAK256 CALLER DUP3 MSTORE PUSH1 0x20 MSTORE KECCAK256 SLOAD SWAP1 PUSH1 0x0 NOT DUP3 SUB PUSH2 0xCA0 JUMPI JUMPDEST PUSH1 0x20 DUP7 PUSH2 0x421 DUP8 DUP8 DUP8 PUSH2 0x106A JUMP JUMPDEST DUP5 DUP3 LT PUSH2 0xCC9 JUMPI POP SWAP2 DUP4 SWAP2 PUSH2 0xCBE PUSH1 0x20 SWAP7 SWAP6 PUSH2 0x421 SWAP6 SUB CALLER DUP4 PUSH2 0xF68 JUMP JUMPDEST SWAP2 SWAP4 SWAP5 DUP2 SWAP4 POP PUSH2 0xC92 JUMP JUMPDEST PUSH1 0x64 SWAP1 PUSH1 0x20 DUP8 MLOAD SWAP2 PUSH3 0x461BCD PUSH1 0xE5 SHL DUP4 MSTORE DUP3 ADD MSTORE PUSH1 0x1D PUSH1 0x24 DUP3 ADD MSTORE PUSH32 0x45524332303A20696E73756666696369656E7420616C6C6F77616E6365000000 PUSH1 0x44 DUP3 ADD MSTORE REVERT JUMPDEST POP POP CALLVALUE PUSH2 0x1AC JUMPI DUP2 PUSH1 0x3 NOT CALLDATASIZE ADD SLT PUSH2 0x1AC JUMPI PUSH1 0x20 SWAP1 PUSH1 0x2 SLOAD SWAP1 MLOAD SWAP1 DUP2 MSTORE RETURN JUMPDEST POP POP CALLVALUE PUSH2 0x1AC JUMPI DUP2 PUSH1 0x3 NOT CALLDATASIZE ADD SLT PUSH2 0x1AC JUMPI PUSH1 0x20 SWAP1 PUSH1 0xFF PUSH1 0xA SLOAD AND SWAP1 MLOAD SWAP1 ISZERO ISZERO DUP2 MSTORE RETURN JUMPDEST POP POP CALLVALUE PUSH2 0x1AC JUMPI DUP1 PUSH1 0x3 NOT CALLDATASIZE ADD SLT PUSH2 0x1AC JUMPI PUSH1 0x20 SWAP1 PUSH2 0x421 PUSH2 0xD6F PUSH2 0xEDF JUMP JUMPDEST PUSH1 0x24 CALLDATALOAD SWAP1 CALLER PUSH2 0xF68 JUMP JUMPDEST DUP4 DUP4 CALLVALUE PUSH2 0x1AC JUMPI DUP2 PUSH1 0x3 NOT CALLDATASIZE ADD SLT PUSH2 0x1AC JUMPI DUP1 MLOAD SWAP1 DUP3 PUSH1 0x3 SLOAD PUSH1 0x1 DUP2 DUP2 SHR SWAP1 DUP1 DUP4 AND SWAP3 DUP4 ISZERO PUSH2 0xE49 JUMPI JUMPDEST PUSH1 0x20 SWAP4 DUP5 DUP5 LT DUP2 EQ PUSH2 0x5D2 JUMPI DUP4 DUP9 MSTORE SWAP1 DUP2 ISZERO PUSH2 0x5B6 JUMPI POP PUSH1 0x1 EQ PUSH2 0xDF3 JUMPI POP POP POP DUP3 SWAP1 SUB PUSH1 0x1F ADD PUSH1 0x1F NOT AND DUP3 ADD SWAP3 PUSH8 0xFFFFFFFFFFFFFFFF DUP5 GT DUP4 DUP6 LT OR PUSH2 0x54E JUMPI POP DUP3 SWAP2 DUP3 PUSH2 0x54A SWAP3 MSTORE DUP3 PUSH2 0xE96 JUMP JUMPDEST PUSH1 0x3 DUP8 MSTORE SWAP2 SWAP3 POP DUP6 SWAP2 DUP4 PUSH32 0xC2575A0E9E593C00F959F8C92F12DB2869C3395A3B0502D05E2516446F71F85B JUMPDEST DUP4 DUP6 LT PUSH2 0xE35 JUMPI POP POP POP POP DUP4 ADD ADD DUP6 DUP1 DUP1 PUSH2 0x518 JUMP JUMPDEST DUP1 SLOAD DUP9 DUP7 ADD DUP4 ADD MSTORE SWAP4 ADD SWAP3 DUP5 SWAP1 DUP3 ADD PUSH2 0xE1F JUMP JUMPDEST SWAP2 PUSH1 0x7F AND SWAP2 PUSH2 0xDA3 JUMP JUMPDEST DUP5 SWAP1 CALLVALUE PUSH2 0x1AC JUMPI DUP2 PUSH1 0x3 NOT CALLDATASIZE ADD SLT PUSH2 0x1AC JUMPI PUSH32 0x0 PUSH1 0x1 PUSH1 0x1 PUSH1 0xA0 SHL SUB AND DUP2 MSTORE PUSH1 0x20 SWAP1 RETURN JUMPDEST PUSH1 0x20 DUP1 DUP3 MSTORE DUP3 MLOAD DUP2 DUP4 ADD DUP2 SWAP1 MSTORE SWAP1 SWAP4 SWAP3 PUSH1 0x0 JUMPDEST DUP3 DUP2 LT PUSH2 0xECB JUMPI POP POP PUSH1 0x40 SWAP3 SWAP4 POP PUSH1 0x0 DUP4 DUP3 DUP5 ADD ADD MSTORE PUSH1 0x1F DUP1 NOT SWAP2 ADD AND ADD ADD SWAP1 JUMP JUMPDEST DUP2 DUP2 ADD DUP7 ADD MLOAD DUP5 DUP3 ADD PUSH1 0x40 ADD MSTORE DUP6 ADD PUSH2 0xEA9 JUMP JUMPDEST PUSH1 0x4 CALLDATALOAD SWAP1 PUSH1 0x1 PUSH1 0x1 PUSH1 0xA0 SHL SUB DUP3 AND DUP3 SUB PUSH2 0xEF5 JUMPI JUMP JUMPDEST PUSH1 0x0 DUP1 REVERT JUMPDEST PUSH1 0x24 CALLDATALOAD SWAP1 PUSH1 0x1 PUSH1 0x1 PUSH1 0xA0 SHL SUB DUP3 AND DUP3 SUB PUSH2 0xEF5 JUMPI JUMP JUMPDEST PUSH1 0x5 SLOAD PUSH1 0x1 PUSH1 0x1 PUSH1 0xA0 SHL SUB AND CALLER SUB PUSH2 0xF24 JUMPI JUMP JUMPDEST PUSH1 0x64 PUSH1 0x40 MLOAD PUSH3 0x461BCD PUSH1 0xE5 SHL DUP2 MSTORE PUSH1 0x20 PUSH1 0x4 DUP3 ADD MSTORE PUSH1 0x20 PUSH1 0x24 DUP3 ADD MSTORE PUSH32 0x4F776E61626C653A2063616C6C6572206973206E6F7420746865206F776E6572 PUSH1 0x44 DUP3 ADD MSTORE REVERT JUMPDEST PUSH1 0x1 PUSH1 0x1 PUSH1 0xA0 SHL SUB SWAP1 DUP2 AND SWAP2 DUP3 ISZERO PUSH2 0x1019 JUMPI AND SWAP2 DUP3 ISZERO PUSH2 0xFC9 JUMPI PUSH1 0x20 PUSH32 0x8C5BE1E5EBEC7D5BD14F71427D1E84F3DD0314C0F7B2291E5B200AC8C7C3B925 SWAP2 DUP4 PUSH1 0x0 MSTORE PUSH1 0x1 DUP3 MSTORE PUSH1 0x40 PUSH1 0x0 KECCAK256 DUP6 PUSH1 0x0 MSTORE DUP3 MSTORE DUP1 PUSH1 0x40 PUSH1 0x0 KECCAK256 SSTORE PUSH1 0x40 MLOAD SWAP1 DUP2 MSTORE LOG3 JUMP JUMPDEST PUSH1 0x40 MLOAD PUSH3 0x461BCD PUSH1 0xE5 SHL DUP2 MSTORE PUSH1 0x20 PUSH1 0x4 DUP3 ADD MSTORE PUSH1 0x22 PUSH1 0x24 DUP3 ADD MSTORE PUSH32 0x45524332303A20617070726F766520746F20746865207A65726F206164647265 PUSH1 0x44 DUP3 ADD MSTORE PUSH2 0x7373 PUSH1 0xF0 SHL PUSH1 0x64 DUP3 ADD MSTORE PUSH1 0x84 SWAP1 REVERT JUMPDEST PUSH1 0x40 MLOAD PUSH3 0x461BCD PUSH1 0xE5 SHL DUP2 MSTORE PUSH1 0x20 PUSH1 0x4 DUP3 ADD MSTORE PUSH1 0x24 DUP1 DUP3 ADD MSTORE PUSH32 0x45524332303A20617070726F76652066726F6D20746865207A65726F20616464 PUSH1 0x44 DUP3 ADD MSTORE PUSH4 0x72657373 PUSH1 0xE0 SHL PUSH1 0x64 DUP3 ADD MSTORE PUSH1 0x84 SWAP1 REVERT JUMPDEST PUSH1 0x1 PUSH1 0x1 PUSH1 0xA0 SHL SUB SWAP1 DUP2 AND SWAP2 PUSH32 0x0 DUP3 AND DUP4 EQ DUP1 PUSH2 0x1267 JUMPI JUMPDEST PUSH2 0x1208 JUMPI JUMPDEST DUP3 ISZERO PUSH2 0x11B5 JUMPI AND SWAP2 DUP3 ISZERO PUSH2 0x1164 JUMPI PUSH1 0x0 DUP3 DUP2 MSTORE DUP1 PUSH1 0x20 MSTORE PUSH1 0x40 DUP2 KECCAK256 SLOAD SWAP2 DUP1 DUP4 LT PUSH2 0x1110 JUMPI PUSH1 0x40 DUP3 DUP3 PUSH32 0xDDF252AD1BE2C89B69C2B068FC378DAA952BA7F163C4A11628F55A4DF523B3EF SWAP6 DUP8 PUSH1 0x20 SWAP7 MSTORE DUP3 DUP7 MSTORE SUB DUP3 DUP3 KECCAK256 SSTORE DUP7 DUP2 MSTORE KECCAK256 DUP2 DUP2 SLOAD ADD SWAP1 SSTORE PUSH1 0x40 MLOAD SWAP1 DUP2 MSTORE LOG3 JUMP JUMPDEST PUSH1 0x40 MLOAD PUSH3 0x461BCD PUSH1 0xE5 SHL DUP2 MSTORE PUSH1 0x20 PUSH1 0x4 DUP3 ADD MSTORE PUSH1 0x26 PUSH1 0x24 DUP3 ADD MSTORE PUSH32 0x45524332303A207472616E7366657220616D6F756E7420657863656564732062 PUSH1 0x44 DUP3 ADD MSTORE PUSH6 0x616C616E6365 PUSH1 0xD0 SHL PUSH1 0x64 DUP3 ADD MSTORE PUSH1 0x84 SWAP1 REVERT JUMPDEST PUSH1 0x40 MLOAD PUSH3 0x461BCD PUSH1 0xE5 SHL DUP2 MSTORE PUSH1 0x20 PUSH1 0x4 DUP3 ADD MSTORE PUSH1 0x23 PUSH1 0x24 DUP3 ADD MSTORE PUSH32 0x45524332303A207472616E7366657220746F20746865207A65726F2061646472 PUSH1 0x44 DUP3 ADD MSTORE PUSH3 0x657373 PUSH1 0xE8 SHL PUSH1 0x64 DUP3 ADD MSTORE PUSH1 0x84 SWAP1 REVERT JUMPDEST PUSH1 0x40 MLOAD PUSH3 0x461BCD PUSH1 0xE5 SHL DUP2 MSTORE PUSH1 0x20 PUSH1 0x4 DUP3 ADD MSTORE PUSH1 0x25 PUSH1 0x24 DUP3 ADD MSTORE PUSH32 0x45524332303A207472616E736665722066726F6D20746865207A65726F206164 PUSH1 0x44 DUP3 ADD MSTORE PUSH5 0x6472657373 PUSH1 0xD8 SHL PUSH1 0x64 DUP3 ADD MSTORE PUSH1 0x84 SWAP1 REVERT JUMPDEST PUSH1 0x8 SLOAD TIMESTAMP LT ISZERO PUSH2 0x10A6 JUMPI PUSH1 0x40 MLOAD PUSH3 0x461BCD PUSH1 0xE5 SHL DUP2 MSTORE PUSH1 0x20 PUSH1 0x4 DUP3 ADD MSTORE PUSH1 0x27 PUSH1 0x24 DUP3 ADD MSTORE PUSH32 0x43726561746F7220746F6B656E73206C6F636B656420756E74696C20756E6C6F PUSH1 0x44 DUP3 ADD MSTORE PUSH7 0x636B2064617465 PUSH1 0xC8 SHL PUSH1 0x64 DUP3 ADD MSTORE PUSH1 0x84 SWAP1 REVERT JUMPDEST POP DUP3 PUSH1 0x0 MSTORE PUSH1 0x9 PUSH1 0x20 MSTORE PUSH1 0xFF PUSH1 0x40 PUSH1 0x0 KECCAK256 SLOAD AND ISZERO PUSH2 0x10A1 JUMP JUMPDEST PUSH1 0x8 SLOAD DUP1 TIMESTAMP LT ISZERO PUSH2 0x12AE JUMPI TIMESTAMP DUP2 SUB SWAP1 DUP2 GT PUSH2 0x1298 JUMPI SWAP1 JUMP JUMPDEST PUSH4 0x4E487B71 PUSH1 0xE0 SHL PUSH1 0x0 MSTORE PUSH1 0x11 PUSH1 0x4 MSTORE PUSH1 0x24 PUSH1 0x0 REVERT JUMPDEST POP PUSH1 0x0 SWAP1 JUMP JUMPDEST ISZERO PUSH2 0x12BB JUMPI JUMP JUMPDEST PUSH1 0x40 MLOAD PUSH3 0x461BCD PUSH1 0xE5 SHL DUP2 MSTORE PUSH1 0x20 PUSH1 0x4 DUP3 ADD MSTORE PUSH1 0xF PUSH1 0x24 DUP3 ADD MSTORE PUSH15 0x496E76616C69642061646472657373 PUSH1 0x88 SHL PUSH1 0x44 DUP3 ADD MSTORE PUSH1 0x64 SWAP1 REVERT INVALID LOG2 PUSH5 0x6970667358 0x22 SLT KECCAK256 PC 0x4F PUSH26 0x80B773E5E380C2D4700D05A3F352FA319F8801F12225CEF79D58 LOG3 0xB2 0x2F PUSH5 0x736F6C6343 STOP ADDMOD EQ STOP CALLER LOG2 PUSH5 0x6970667358 0x22 SLT KECCAK256 0xC4 0x4C LOG1 0x5D BASEFEE 0x4A 0x2D GAS PUSH21 0xC5EDC8C28F24E142D43A78685F961EEDD502316755 SWAP12 0xE2 PUSH5 0x736F6C6343 STOP ADDMOD EQ STOP CALLER "},"methodIdentifiers":{"MAX_LAUNCHES_PER_CREATOR()":"78aba8ea","MIN_BASE_PRICE()":"1a60be57","MIN_GRADUATION_CAP()":"9f1c2d88","MIN_SUPPLY()":"35917c64","allLaunches(uint256)":"41d6e9d3","createLaunch(string,string,uint256,uint256,uint256,uint256,bytes32,uint256)":"947df097","creatorLaunches(address,uint256)":"5d7587af","dexRouter()":"0758d924","getAllLaunches(uint256,uint256)":"cf7734c5","getCreatorLaunches(address)":"6b3a98f4","getLaunchCount()":"9ff0251f","launches(address)":"1f2d8550","owner()":"8da5cb5b","paused()":"5c975abb","platformWallet()":"fa2af9da","precomputeTokenAddress(bytes32,string,string,uint256,uint256,address)":"40ab1873","renounceOwnership()":"715018a6","saltUsed(bytes32)":"422551bb","setDexRouter(address)":"f72f863b","setPlatformWallet(address)":"8831e9cf","togglePause()":"c4ae3168","transferOwnership(address)":"f2fde38b"}}}}}