{"contracts/BondingCurve.sol":{"BondingCurve":{"abi":[{"inputs":[{"internalType":"address","name":"_token","type":"address"},{"internalType":"address","name":"_platformWallet","type":"address"},{"internalType":"address","name":"_creator","type":"address"},{"internalType":"uint256","name":"_basePrice","type":"uint256"},{"internalType":"uint256","name":"_slope","type":"uint256"},{"internalType":"uint256","name":"_graduationCap","type":"uint256"},{"internalType":"address","name":"_dexRouter","type":"address"}],"stateMutability":"nonpayable","type":"constructor"},{"anonymous":false,"inputs":[{"indexed":false,"internalType":"uint256","name":"tokenAmount","type":"uint256"},{"indexed":false,"internalType":"uint256","name":"ethAmount","type":"uint256"},{"indexed":false,"internalType":"uint256","name":"liquidity","type":"uint256"}],"name":"DEXLiquidityAdded","type":"event"},{"anonymous":false,"inputs":[{"indexed":false,"internalType":"address","name":"pairAddress","type":"address"}],"name":"DEXLiquidityBurned","type":"event"},{"anonymous":false,"inputs":[{"indexed":false,"internalType":"uint256","name":"executeAfter","type":"uint256"}],"name":"EmergencyInitiated","type":"event"},{"anonymous":false,"inputs":[{"indexed":true,"internalType":"address","name":"recipient","type":"address"},{"indexed":false,"internalType":"uint256","name":"amount","type":"uint256"}],"name":"FeeFailed","type":"event"},{"anonymous":false,"inputs":[{"indexed":false,"internalType":"uint256","name":"ethLiquidity","type":"uint256"},{"indexed":false,"internalType":"uint256","name":"tokenLiquidity","type":"uint256"}],"name":"Graduated","type":"event"},{"anonymous":false,"inputs":[{"indexed":true,"internalType":"address","name":"previousOwner","type":"address"},{"indexed":true,"internalType":"address","name":"newOwner","type":"address"}],"name":"OwnershipTransferred","type":"event"},{"anonymous":false,"inputs":[{"indexed":false,"internalType":"bool","name":"paused","type":"bool"}],"name":"PauseToggled","type":"event"},{"anonymous":false,"inputs":[{"indexed":true,"internalType":"address","name":"buyer","type":"address"},{"indexed":false,"internalType":"uint256","name":"ethIn","type":"uint256"},{"indexed":false,"internalType":"uint256","name":"fee","type":"uint256"},{"indexed":false,"internalType":"uint256","name":"tokensOut","type":"uint256"},{"indexed":false,"internalType":"uint256","name":"newPrice","type":"uint256"}],"name":"TokenPurchased","type":"event"},{"anonymous":false,"inputs":[{"indexed":true,"internalType":"address","name":"seller","type":"address"},{"indexed":false,"internalType":"uint256","name":"tokensIn","type":"uint256"},{"indexed":false,"internalType":"uint256","name":"ethOut","type":"uint256"},{"indexed":false,"internalType":"uint256","name":"fee","type":"uint256"},{"indexed":false,"internalType":"uint256","name":"newPrice","type":"uint256"}],"name":"TokenSold","type":"event"},{"inputs":[],"name":"EMERGENCY_DELAY","outputs":[{"internalType":"uint256","name":"","type":"uint256"}],"stateMutability":"view","type":"function"},{"inputs":[],"name":"FEE_SPLIT_CREATOR_BPS","outputs":[{"internalType":"uint256","name":"","type":"uint256"}],"stateMutability":"view","type":"function"},{"inputs":[],"name":"FEE_SPLIT_PLATFORM_BPS","outputs":[{"internalType":"uint256","name":"","type":"uint256"}],"stateMutability":"view","type":"function"},{"inputs":[],"name":"TRADING_FEE_BPS","outputs":[{"internalType":"uint256","name":"","type":"uint256"}],"stateMutability":"view","type":"function"},{"inputs":[],"name":"basePrice","outputs":[{"internalType":"uint256","name":"","type":"uint256"}],"stateMutability":"view","type":"function"},{"inputs":[],"name":"buy","outputs":[],"stateMutability":"payable","type":"function"},{"inputs":[{"internalType":"uint256","name":"tokenAmount","type":"uint256"}],"name":"buyExact","outputs":[],"stateMutability":"payable","type":"function"},{"inputs":[],"name":"canGraduate","outputs":[{"internalType":"bool","name":"","type":"bool"}],"stateMutability":"view","type":"function"},{"inputs":[],"name":"claimFees","outputs":[],"stateMutability":"nonpayable","type":"function"},{"inputs":[],"name":"creator","outputs":[{"internalType":"address","name":"","type":"address"}],"stateMutability":"view","type":"function"},{"inputs":[],"name":"currentPrice","outputs":[{"internalType":"uint256","name":"","type":"uint256"}],"stateMutability":"view","type":"function"},{"inputs":[],"name":"dexLiquidityAdded","outputs":[{"internalType":"bool","name":"","type":"bool"}],"stateMutability":"view","type":"function"},{"inputs":[],"name":"dexPairAddress","outputs":[{"internalType":"address","name":"","type":"address"}],"stateMutability":"view","type":"function"},{"inputs":[],"name":"dexRouter","outputs":[{"internalType":"address","name":"","type":"address"}],"stateMutability":"view","type":"function"},{"inputs":[],"name":"emergencyTimelock","outputs":[{"internalType":"uint256","name":"","type":"uint256"}],"stateMutability":"view","type":"function"},{"inputs":[],"name":"emergencyWithdraw","outputs":[],"stateMutability":"nonpayable","type":"function"},{"inputs":[{"internalType":"uint256","name":"tokenAmount","type":"uint256"}],"name":"estimateEthForTokens","outputs":[{"internalType":"uint256","name":"","type":"uint256"}],"stateMutability":"view","type":"function"},{"inputs":[{"internalType":"uint256","name":"ethAmount","type":"uint256"}],"name":"estimateTokensForEth","outputs":[{"internalType":"uint256","name":"","type":"uint256"}],"stateMutability":"view","type":"function"},{"inputs":[],"name":"getDexPair","outputs":[{"internalType":"address","name":"","type":"address"}],"stateMutability":"view","type":"function"},{"inputs":[],"name":"graduateToDEX","outputs":[],"stateMutability":"nonpayable","type":"function"},{"inputs":[],"name":"graduationCap","outputs":[{"internalType":"uint256","name":"","type":"uint256"}],"stateMutability":"view","type":"function"},{"inputs":[],"name":"graduationProgress","outputs":[{"internalType":"uint256","name":"","type":"uint256"}],"stateMutability":"view","type":"function"},{"inputs":[],"name":"initialize","outputs":[],"stateMutability":"nonpayable","type":"function"},{"inputs":[],"name":"initialized","outputs":[{"internalType":"bool","name":"","type":"bool"}],"stateMutability":"view","type":"function"},{"inputs":[],"name":"initiateEmergency","outputs":[],"stateMutability":"nonpayable","type":"function"},{"inputs":[],"name":"isGraduated","outputs":[{"internalType":"bool","name":"","type":"bool"}],"stateMutability":"view","type":"function"},{"inputs":[],"name":"owner","outputs":[{"internalType":"address","name":"","type":"address"}],"stateMutability":"view","type":"function"},{"inputs":[],"name":"paused","outputs":[{"internalType":"bool","name":"","type":"bool"}],"stateMutability":"view","type":"function"},{"inputs":[{"internalType":"address","name":"","type":"address"}],"name":"pendingFees","outputs":[{"internalType":"uint256","name":"","type":"uint256"}],"stateMutability":"view","type":"function"},{"inputs":[],"name":"platformWallet","outputs":[{"internalType":"address","name":"","type":"address"}],"stateMutability":"view","type":"function"},{"inputs":[],"name":"renounceOwnership","outputs":[],"stateMutability":"nonpayable","type":"function"},{"inputs":[{"internalType":"uint256","name":"tokenAmount","type":"uint256"}],"name":"sell","outputs":[],"stateMutability":"nonpayable","type":"function"},{"inputs":[{"internalType":"address","name":"_wallet","type":"address"}],"name":"setPlatformWallet","outputs":[],"stateMutability":"nonpayable","type":"function"},{"inputs":[],"name":"slope","outputs":[{"internalType":"uint256","name":"","type":"uint256"}],"stateMutability":"view","type":"function"},{"inputs":[],"name":"togglePause","outputs":[],"stateMutability":"nonpayable","type":"function"},{"inputs":[],"name":"token","outputs":[{"internalType":"contract IERC20","name":"","type":"address"}],"stateMutability":"view","type":"function"},{"inputs":[],"name":"tokenBalance","outputs":[{"internalType":"uint256","name":"","type":"uint256"}],"stateMutability":"view","type":"function"},{"inputs":[],"name":"totalRaised","outputs":[{"internalType":"uint256","name":"","type":"uint256"}],"stateMutability":"view","type":"function"},{"inputs":[],"name":"totalSold","outputs":[{"internalType":"uint256","name":"","type":"uint256"}],"stateMutability":"view","type":"function"},{"inputs":[{"internalType":"address","name":"newOwner","type":"address"}],"name":"transferOwnership","outputs":[],"stateMutability":"nonpayable","type":"function"},{"inputs":[],"name":"withdrawForLiquidity","outputs":[],"stateMutability":"nonpayable","type":"function"}],"evm":{"bytecode":{"linkReferences":{},"object":"60a034620002c757601f6200283e38819003918201601f191683019291906001600160401b03841183851017620002cc578160e09284926040968752833981010312620002c7576200005181620002e2565b90602062000061818301620002e2565b6200006e858401620002e2565b916060840151916080850151936200008e60c060a08801519701620002e2565b60008054336001600160a01b0319808316821784558c51949b90966001600160a01b03949093859391908416907f8be0079c531659141344cd1fd0a4f28419497f9722a3daafe3b4186f6b6457e09080a3600180551692831562000295575081169283156200025157169384156200021c578515620001d95787156200019657506080528160025416176002556003541617600355600455600555600655600a5490610100600160a81b039060081b1690610100600160a81b03191617600a55516125469081620002f882396080518181816101f80152818161045301528181610a3e01528181610d3901528181610f48015281816112e50152818161144901526123cf0152f35b6064908a519062461bcd60e51b82526004820152601a60248201527f47726164756174696f6e20636170206d757374206265203e20300000000000006044820152fd5b6064908a519062461bcd60e51b82526004820152601660248201527f42617365207072696365206d757374206265203e2030000000000000000000006044820152fd5b6064908a519062461bcd60e51b82526004820152600f60248201526e24b73b30b634b21031b932b0ba37b960891b6044820152fd5b8a5162461bcd60e51b815260048101879052601760248201527f496e76616c696420706c6174666f726d2077616c6c65740000000000000000006044820152606490fd5b62461bcd60e51b815260048101879052600d60248201526c24b73b30b634b2103a37b5b2b760991b6044820152606490fd5b600080fd5b634e487b7160e01b600052604160045260246000fd5b51906001600160a01b0382168203620002c75756fe6040608081526004908136101561001557600080fd5b600091823560e01c908162f2d656146113fb57816302d05d3f146113d257816305eb6f0e146112365781630758d924146112095781630d4b0a54146111e0578163158ef93e146111b957816325d2a3f31461117f578163340478a51461115857816335486a2f1461109b5781633fb168c414610f0157816342b07a4b14610ed35781635bd9328214610bc75781635c975abb14610eac57816360a97e9514610e8d578163715018a614610e335781638129fc1c14610cf757816382944e2d14610cd957816383c4613714610c9f57816383caf27514610c805781638831e9cf14610bf45781638da5cb5b14610bcc57816390165dd714610bc75781639106d7ba14610ba85781639d1b464a14610b8b5781639e1a4d1914610b6c5781639e5f260214610b48578163a6f2ae3a14610985578163a8808d0814610966578163bf65073e14610924578163c4ae3168146108b7578163c5c4744c14610898578163c7876ea41461087a578163c8ae000c1461085d578163d294f093146107a3578163db2e21bc14610653578163dd4d7bf714610637578163e4849b3214610381578163eb5b7cc214610322578163f2fde38b1461025357508063fa2af9da1461022b5763fc0c546a146101e557600080fd5b34610227578160031936011261022757517f00000000000000000000000000000000000000000000000000000000000000006001600160a01b03168152602090f35b5080fd5b503461022757816003193601126102275760025490516001600160a01b039091168152602090f35b9190503461031e57602036600319011261031e576001600160a01b0382358181169391929084900361031a57610287611a9e565b83156102c857505082546001600160a01b0319811683178455167f8be0079c531659141344cd1fd0a4f28419497f9722a3daafe3b4186f6b6457e08380a380f35b906020608492519162461bcd60e51b8352820152602660248201527f4f776e61626c653a206e6577206f776e657220697320746865207a65726f206160448201526564647265737360d01b6064820152fd5b8480fd5b8280fd5b82843461037e57602036600319011261037e5782359060648202908282046064148315171561036b5760208461036461035f612710860487611bf8565b611fa6565b9051908152f35b634e487b7160e01b815260118552602490fd5b80fd5b839150346102275760208060031936011261031e578135916103a1611c51565b60ff600a546103b5828260a81c1615611b2e565b166105f6576103c5831515611f06565b82600754106105bf576103d783612139565b908115610583574780831161057b575b5060648202828104606414831517156105685761271090049261040a8484611bf8565b87516323b872dd60e01b838201523360248201523060448201526064808201889052815260a0810167ffffffffffffffff81118282101761055557888093610477829483948e527f0000000000000000000000000000000000000000000000000000000000000000611cfa565b6104838a600754611bf8565b60075561049288600854611bf8565b6008556104a18a600954611c44565b600955335af16104af611df2565b501561051d5750506105137f910f01659f782fde3d5c0ee026adfbae451c6accad6884192f12bcfb9b2f13e59394956104e78461216f565b6104ef611f88565b90519384933397859094939260609260808301968352602083015260408201520152565b0390a26001805580f35b865162461bcd60e51b8152918201526013602482015272115512081d1c985b9cd9995c8819985a5b1959606a1b604482015260649150fd5b634e487b7160e01b895260418552602489fd5b634e487b7160e01b865260118252602486fd5b9150866103e7565b855162461bcd60e51b81529081018390526016602482015275151bdad95b88185b5bdd5b9d081d1bdbc81cdb585b1b60521b6044820152606490fd5b60649185519162461bcd60e51b83528201526013602482015272115e18d959591cc81cdbdb1908185b5bdd5b9d606a1b6044820152fd5b60649185519162461bcd60e51b8352820152601e60248201527f416c7265616479206772616475617465642c2073656c6c206f6e2044455800006044820152fd5b5050346102275781600319360112610227576020905160648152f35b9190503461031e578260031936011261031e5761066e611a9e565b61067f60ff600a5460a81c1661248f565b600c5480156107605742106107265782600c554780156106f65760025484918291829182916001600160a01b03165af16106b7611df2565b50156106c1578280f35b906020606492519162461bcd60e51b8352820152600f60248201526e15da5d1a191c985dc819985a5b1959608a1b6044820152fd5b815162461bcd60e51b8152602081850152600a6024820152694e6f2062616c616e636560b01b6044820152606490fd5b906020606492519162461bcd60e51b83528201526014602482015273151a5b595b1bd8dac81b9bdd08195e1c1a5c995960621b6044820152fd5b815162461bcd60e51b8152602081850152601760248201527f456d657267656e6379206e6f7420696e697469617465640000000000000000006044820152606490fd5b9190503461031e578260031936011261031e57338352600b602052808320548015610828578380808093338252600b6020528186812055335af16107e5611df2565b50156107ef578280f35b602090606493339052600b8252519162461bcd60e51b8352820152600c60248201526b10db185a5b4819985a5b195960a21b6044820152fd5b815162461bcd60e51b8152602081850152600f60248201526e4e6f2070656e64696e67206665657360881b6044820152606490fd5b505034610227578160031936011261022757602090610364611f47565b90503461031e578260031936011261031e5760209250549051908152f35b5050346102275781600319360112610227576020906008549051908152f35b50503461022757816003193601126102275760207f9077d36bc00859b5c3f320310707208543dd35092cb0a0fe117d0c6a558b148b916108f5611a9e565b60ff600a548160a81b828260a81c161560a81b16908260a81b1916179182600a55519160a81c1615158152a180f35b82843461037e57602036600319011261037e5761094183356120d5565b9060648202908282046064148315171561036b576020846103646126ac850486611c44565b505034610227578160031936011261022757602090600c549051908152f35b9190508260031936011261031e5761099b611c51565b6109b960ff600a546109b2828260a81c1615611b2e565b1615611b6f565b3415610b155760643402348104606403610b02576127109004916109e061035f8434611bf8565b906109ec821515611c05565b6009548211610abf57509081610a257f7ca4a3cad3bac410861af1b25202900ff3c8dd2174eaaa6c0ef89f2a04e65fd593600754611c44565b600755610a3434600854611c44565b600855610a6281337f0000000000000000000000000000000000000000000000000000000000000000611ca7565b610a6b8461216f565b610a9b610a76611f88565b9251928392339634859094939260609260808301968352602083015260408201520152565b0390a26008546006541115610ab2575b6001805580f35b610aba61229f565b610aab565b606490602084519162461bcd60e51b8352820152601860248201527f4578636565647320617661696c61626c6520737570706c7900000000000000006044820152fd5b634e487b7160e01b845260118352602484fd5b906020606492519162461bcd60e51b8352820152600d60248201526c09aeae6e840e6cadcc8408aa89609b1b6044820152fd5b50503461022757816003193601126102275760209060ff600a541690519015158152f35b5050346102275781600319360112610227576020906009549051908152f35b505034610227578160031936011261022757602090610364611f88565b5050346102275781600319360112610227576020906007549051908152f35b611a7c565b505034610227578160031936011261022757905490516001600160a01b039091168152602090f35b90503461031e57602036600319011261031e5780356001600160a01b0381169290839003610c7c57610c24611a9e565b8215610c475750506bffffffffffffffffffffffff60a01b600254161760025580f35b906020606492519162461bcd60e51b8352820152600f60248201526e496e76616c6964206164647265737360881b6044820152fd5b8380fd5b5050346102275781600319360112610227576020906005549051908152f35b50503461022757816003193601126102275760209060ff600a5416159081610cca575b519015158152f35b60085460065411159150610cc2565b505034610227578160031936011261022757602090516202a3008152f35b90503461031e578260031936011261031e57610d11611a9e565b600d549160ff8360a81c16610dfa5780516370a0823160e01b815230838201526020816024817f00000000000000000000000000000000000000000000000000000000000000006001600160a01b03165afa908115610df0578591610dbf575b508060095515610d9057505060ff60a81b1916600160a81b17600d5580f35b906020606492519162461bcd60e51b835282015260096024820152684e6f20746f6b656e7360b81b6044820152fd5b90506020813d8211610de8575b81610dd960209383611af6565b8101031261031a575138610d71565b3d9150610dcc565b82513d87823e3d90fd5b906020606492519162461bcd60e51b83528201526013602482015272105b1c9958591e481a5b9a5d1a585b1a5e9959606a1b6044820152fd5b833461037e578060031936011261037e57610e4c611a9e565b80546001600160a01b03198116825581906001600160a01b03167f8be0079c531659141344cd1fd0a4f28419497f9722a3daafe3b4186f6b6457e08280a380f35b5050346102275781600319360112610227576020906006549051908152f35b50503461022757816003193601126102275760209060ff600a5460a81c1690519015158152f35b505034610227578160031936011261022757602090610ef061233b565b90516001600160a01b039091168152f35b9190503461031e578260031936011261031e57610f1c611a9e565b610f2a60ff600a54166122e0565b80516370a0823160e01b815230818401526001600160a01b039290917f000000000000000000000000000000000000000000000000000000000000000091906020904782866024818a89165afa95861561109157889661105e575b50801580158091611055575b1561101c57908891610fc5575b505050505081610fac578380f35b610fbe92846009556002541690611ca7565b3880808380f35b818080928a600254165af1610fd8611df2565b5015610fe5578681610f9e565b5162461bcd60e51b8152918201526013602482015272115512081dda5d1a191c985dc819985a5b1959606a1b604482015260649150fd5b50505162461bcd60e51b81529182015260136024820152724e6f7468696e6720746f20776974686472617760681b604482015260649150fd5b50861515610f91565b9095508281813d831161108a575b6110768183611af6565b8101031261108657519438610f85565b8780fd5b503d61106c565b82513d8a823e3d90fd5b9190503461031e578260031936011261031e576110b6611a9e565b6110c760ff600a5460a81c1661248f565b600c54611121576202a30042019182421161110e5750816020917f321e4e6edd055ebd12e269436c1562c06efff25f3532cc5fdcb9909193e3031493600c5551908152a180f35b634e487b7160e01b845260119052602483fd5b906020606492519162461bcd60e51b83528201526011602482015270105b1c9958591e481a5b9a5d1a585d1959607a1b6044820152fd5b50503461022757816003193601126102275760209060ff600d5460a01c1690519015158152f35b90503461031e57602036600319011261031e57356001600160a01b0381169081900361031e5782829160209452600b845220549051908152f35b50503461022757816003193601126102275760209060ff600d5460a81c1690519015158152f35b505034610227578160031936011261022757600d5490516001600160a01b039091168152602090f35b505034610227578160031936011261022757600a54905160089190911c6001600160a01b03168152602090f35b839150602036600319011261022757803561124f611c51565b61126660ff600a546109b2828260a81c1615611b2e565b611271811515611f06565b6009549182821161139b57611285826120d5565b90606482028281046064148315171561056857836112ab6126ac6112db93048095611c44565b956112b887341015611c05565b6112c482600754611c44565b6007556112d387600854611c44565b600855611bf8565b60095561130983337f0000000000000000000000000000000000000000000000000000000000000000611ca7565b6113128261216f565b83341161134a575b50610a9b7f7ca4a3cad3bac410861af1b25202900ff3c8dd2174eaaa6c0ef89f2a04e65fd59394956104ef611f88565b848080806113588834611bf8565b335af1611363611df2565b5061131a57606490602087519162461bcd60e51b8352820152600d60248201526c1499599d5b990819985a5b1959609a1b6044820152fd5b606490602086519162461bcd60e51b835282015260116024820152704578636565647320617661696c61626c6560781b6044820152fd5b50503461022757816003193601126102275760035490516001600160a01b039091168152602090f35b9190503461031e578260031936011261031e57611416611a9e565b600a5461142560ff82166122e0565b60081c6001600160a01b03908116918215611a455760ff600d5460a01c16611a13577f000000000000000000000000000000000000000000000000000000000000000092828416908251936370a0823160e01b92838652308887015260209660249388888681865afa978815611a09578b986119d6575b504791881580159081806119cd575b1561199c579061191b575b156118ba57875163095ea7b360e01b818c01526001600160a01b03909216868301908152602081018a90526115049291906114ff9083906040015b03601f198101845283611af6565b611cfa565b82600a5460081c16610e1042018042116118a8579260c48b82946060948f98978c519d8e96879563f305d71960e01b8752860152808c860152604485015282606485015230608485015260a48401525af1801561189e57839084988591611842575b507f7d6df569e0f84786358976a64cd2b9d072436fdd44c7eaeafc6859e69e751b5f91606091600d549a600160a01b97888d60ff60a01b191617600d556009558a519283528c83015289820152a1600a54865163c45a015560e01b8152919060081c831689838c81845afa928c841561181857918b918d95949394611823575b5089516315ab88c960e31b815294859182905afa928c841561181857918b9391611647956117f9575b50895163e6a4390560e01b81526001600160a01b039182168e8201908152939091166020840152938492839187918391604090910190565b0392165afa9081156117ef578a916117c2575b501694851561178d576001600160a81b031916851717600d558251918252308683015284828281875afa918215611783578792611750575b50816116c6575b50507fc950eca7ebef0c17a14892ff3f205bb3188bc3ddcd1d50f7e72595ebe8e913fa935051908152a180f35b61dead83519663a9059cbb60e01b8852870152850152828460448188865af1938415611746577fc950eca7ebef0c17a14892ff3f205bb3188bc3ddcd1d50f7e72595ebe8e913fa94611719575b80611699565b61173890843d861161173f575b6117308183611af6565b810190611ce2565b5038611713565b503d611726565b81513d87823e3d90fd5b9091508481813d831161177c575b6117688183611af6565b8101031261177857519038611692565b8680fd5b503d61175e565b83513d89823e3d90fd5b845162461bcd60e51b81528089018890526010818501526f14185a5c881b9bdd0818dc99585d195960821b6044820152606490fd5b6117e29150883d8a116117e8575b6117da8183611af6565b81019061231c565b3861165a565b503d6117d0565b86513d8c823e3d90fd5b611811919350843d86116117e8576117da8183611af6565b913861160f565b8951903d90823e3d90fd5b61183b919450823d84116117e8576117da8183611af6565b92386115e6565b985050506060873d8211611896575b8161185e60609383611af6565b8101031261031e57865188880151978701517f7d6df569e0f84786358976a64cd2b9d072436fdd44c7eaeafc6859e69e751b5f611566565b3d9150611851565b86513d85823e3d90fd5b634e487b7160e01b8c5260118b52858cfd5b875162461bcd60e51b8152808c018b90526036818801527f5361666545524332303a20617070726f76652066726f6d206e6f6e2d7a65726f60448201527520746f206e6f6e2d7a65726f20616c6c6f77616e636560501b6064820152608490fd5b508751636eb1769f60e11b815230818d019081526001600160a01b03841660208201528b90829081906040010381885afa908115611992578d91611961575b50156114b6565b90508a81813d831161198b575b6119788183611af6565b8101031261198757513861195a565b8c80fd5b503d61196e565b89513d8f823e3d90fd5b895162461bcd60e51b8152808e018d9052600c818a01526b4e6f206c697175696469747960a01b6044820152606490fd5b508415156114ab565b9097508881813d8311611a02575b6119ee8183611af6565b810103126119fe5751963861149c565b8a80fd5b503d6119e4565b87513d8d823e3d90fd5b5162461bcd60e51b8152602081850152600d60248201526c105b1c9958591e481859191959609a1b6044820152606490fd5b5162461bcd60e51b81526020818501526012602482015271111156081c9bdd5d195c881b9bdd081cd95d60721b6044820152606490fd5b34611a99576000366003190112611a995760206040516113888152f35b600080fd5b6000546001600160a01b03163303611ab257565b606460405162461bcd60e51b815260206004820152602060248201527f4f776e61626c653a2063616c6c6572206973206e6f7420746865206f776e65726044820152fd5b90601f8019910116810190811067ffffffffffffffff821117611b1857604052565b634e487b7160e01b600052604160045260246000fd5b15611b3557565b60405162461bcd60e51b815260206004820152601260248201527110dbdb9d1c9858dd081a5cc81c185d5cd95960721b6044820152606490fd5b15611b7657565b60405162461bcd60e51b8152602060048201526011602482015270105b1c9958591e4819dc98591d585d1959607a1b6044820152606490fd5b81810292918115918404141715611bc257565b634e487b7160e01b600052601160045260246000fd5b8115611be2570490565b634e487b7160e01b600052601260045260246000fd5b91908203918211611bc257565b15611c0c57565b60405162461bcd60e51b815260206004820152601060248201526f092dce6eaccccd2c6d2cadce8408aa8960831b6044820152606490fd5b91908201809211611bc257565b600260015414611c62576002600155565b60405162461bcd60e51b815260206004820152601f60248201527f5265656e7472616e637947756172643a207265656e7472616e742063616c6c006044820152606490fd5b60405163a9059cbb60e01b60208201526001600160a01b0390921660248301526044820192909252611ce0916114ff82606481016114f1565b565b90816020910312611a9957518015158103611a995790565b60408051908101916001600160a01b031667ffffffffffffffff831182841017611b1857611d6a926040526000806020958685527f5361666545524332303a206c6f772d6c6576656c2063616c6c206661696c656487860152868151910182855af1611d64611df2565b91611e32565b805190828215928315611dda575b50505015611d835750565b6084906040519062461bcd60e51b82526004820152602a60248201527f5361666545524332303a204552433230206f7065726174696f6e20646964206e6044820152691bdd081cdd58d8d9595960b21b6064820152fd5b611dea9350820181019101611ce2565b388281611d78565b3d15611e2d573d9067ffffffffffffffff8211611b185760405191611e21601f8201601f191660200184611af6565b82523d6000602084013e565b606090565b91929015611e945750815115611e46575090565b3b15611e4f5790565b60405162461bcd60e51b815260206004820152601d60248201527f416464726573733a2063616c6c20746f206e6f6e2d636f6e74726163740000006044820152606490fd5b825190915015611ea75750805190602001fd5b6040519062461bcd60e51b82528160208060048301528251908160248401526000935b828510611eed575050604492506000838284010152601f80199101168101030190fd5b8481018201518686016044015293810193859350611eca565b15611f0d57565b60405162461bcd60e51b81526020600482015260126024820152710416d6f756e74206d757374206265203e20360741b6044820152606490fd5b6006548015611f82576008546127109182820291808304841490151715611bc257611f7191611bd8565b81811115611f7d575090565b905090565b50600090565b611fa3600454611f9d60055460075490611baf565b90611c44565b90565b8015611f8257670de0b6b3a7640000908160075404906005546004928354908160011b91808304600214901517156120c057611fe29083611baf565b908160011b91808304600214901517156120c0579061200091611c44565b918060031b9081046008036120ab5761202a61202f91611f9d6120238680611baf565b9185611baf565b6124cc565b60009290818111156120a357612046929350611bf8565b906001600160ff1b038116810361208e57906120659160011b90611bd8565b828102928184041490151715612079575090565b601190634e487b7160e01b6000525260246000fd5b601183634e487b7160e01b6000525260246000fd5b505050612065565b601184634e487b7160e01b6000525260246000fd5b601185634e487b7160e01b6000525260246000fd5b670de0b6b3a76400008091049060075404906120f381600454611baf565b6005549091906001600160ff1b0384168403611bc25761212a82611f9d61212361213095611fa39860011b611baf565b9180611baf565b90611baf565b60011c90611c44565b600754818110612168578190612159670de0b6b3a7640000928392611bf8565b0491046120f381600454611baf565b5050600090565b801561229c5761138881026113871982820401611bc25761271061219591048092611bf8565b908061221c575b50806121a55750565b600060018060a01b0390808080808686600254165af16121c3611df2565b50156121ce57505050565b8160406020927fb34171a8c0ed2c9d3b07233081b6aa6240a6e90cff3f7bfad76b07664538197b94600254168152600b84522061220c858254611c44565b90556002541692604051908152a2565b600060018060a01b0390808080808686600354165af161223a611df2565b5015612248575b505061219c565b8160406020927fb34171a8c0ed2c9d3b07233081b6aa6240a6e90cff3f7bfad76b07664538197b94600354168152600b845220612286858254611c44565b90556003541692604051908152a2388080612241565b50565b600160ff19600a541617600a557facfdce92da76539f5af2efc3aa76d42a7a92af4d723a23d144f58fdf1472921e60404760095482519182526020820152a1565b156122e757565b60405162461bcd60e51b815260206004820152600d60248201526c139bdd0819dc98591d585d1959609a1b6044820152606490fd5b90816020910312611a9957516001600160a01b0381168103611a995790565b600d546001600160a01b0390811680611f7d575080600a5460081c16908115612168576040805163c45a015560e01b815290926020918281600481855afa90811561246457839060009261246f575b5085516315ab88c960e31b81529192829060049082905afa908115612464579161240e918493600091612447575b50865163e6a4390560e01b81526001600160a01b037f0000000000000000000000000000000000000000000000000000000000000000881681166004830152909116602482015294859283919082906044820190565b0392165afa92831561243d575060009261242757505090565b611fa39250803d106117e8576117da8183611af6565b513d6000823e3d90fd5b61245e9150843d86116117e8576117da8183611af6565b386123b8565b85513d6000823e3d90fd5b6004925061248990823d84116117e8576117da8183611af6565b9161238a565b1561249657565b60405162461bcd60e51b815260206004820152600e60248201526d135d5cdd081899481c185d5cd95960921b6044820152606490fd5b8015611f82576001808201808311611bc257811c90825b8383106124f05750505090565b90919250612507836125028184611bd8565b611c44565b821c91906124e356fea26469706673582212205d0e147b7622b5e5846cbb5361929295e02faf1988192af22e83d7c4fc6345ff64736f6c63430008140033","opcodes":"PUSH1 0xA0 CALLVALUE PUSH3 0x2C7 JUMPI PUSH1 0x1F PUSH3 0x283E CODESIZE DUP2 SWAP1 SUB SWAP2 DUP3 ADD PUSH1 0x1F NOT AND DUP4 ADD SWAP3 SWAP2 SWAP1 PUSH1 0x1 PUSH1 0x1 PUSH1 0x40 SHL SUB DUP5 GT DUP4 DUP6 LT OR PUSH3 0x2CC JUMPI DUP2 PUSH1 0xE0 SWAP3 DUP5 SWAP3 PUSH1 0x40 SWAP7 DUP8 MSTORE DUP4 CODECOPY DUP2 ADD SUB SLT PUSH3 0x2C7 JUMPI PUSH3 0x51 DUP2 PUSH3 0x2E2 JUMP JUMPDEST SWAP1 PUSH1 0x20 PUSH3 0x61 DUP2 DUP4 ADD PUSH3 0x2E2 JUMP JUMPDEST PUSH3 0x6E DUP6 DUP5 ADD PUSH3 0x2E2 JUMP JUMPDEST SWAP2 PUSH1 0x60 DUP5 ADD MLOAD SWAP2 PUSH1 0x80 DUP6 ADD MLOAD SWAP4 PUSH3 0x8E PUSH1 0xC0 PUSH1 0xA0 DUP9 ADD MLOAD SWAP8 ADD PUSH3 0x2E2 JUMP JUMPDEST PUSH1 0x0 DUP1 SLOAD CALLER PUSH1 0x1 PUSH1 0x1 PUSH1 0xA0 SHL SUB NOT DUP1 DUP4 AND DUP3 OR DUP5 SSTORE DUP13 MLOAD SWAP5 SWAP12 SWAP1 SWAP7 PUSH1 0x1 PUSH1 0x1 PUSH1 0xA0 SHL SUB SWAP5 SWAP1 SWAP4 DUP6 SWAP4 SWAP2 SWAP1 DUP5 AND SWAP1 PUSH32 0x8BE0079C531659141344CD1FD0A4F28419497F9722A3DAAFE3B4186F6B6457E0 SWAP1 DUP1 LOG3 PUSH1 0x1 DUP1 SSTORE AND SWAP3 DUP4 ISZERO PUSH3 0x295 JUMPI POP DUP2 AND SWAP3 DUP4 ISZERO PUSH3 0x251 JUMPI AND SWAP4 DUP5 ISZERO PUSH3 0x21C JUMPI DUP6 ISZERO PUSH3 0x1D9 JUMPI DUP8 ISZERO PUSH3 0x196 JUMPI POP PUSH1 0x80 MSTORE DUP2 PUSH1 0x2 SLOAD AND OR PUSH1 0x2 SSTORE PUSH1 0x3 SLOAD AND OR PUSH1 0x3 SSTORE PUSH1 0x4 SSTORE PUSH1 0x5 SSTORE PUSH1 0x6 SSTORE PUSH1 0xA SLOAD SWAP1 PUSH2 0x100 PUSH1 0x1 PUSH1 0xA8 SHL SUB SWAP1 PUSH1 0x8 SHL AND SWAP1 PUSH2 0x100 PUSH1 0x1 PUSH1 0xA8 SHL SUB NOT AND OR PUSH1 0xA SSTORE MLOAD PUSH2 0x2546 SWAP1 DUP2 PUSH3 0x2F8 DUP3 CODECOPY PUSH1 0x80 MLOAD DUP2 DUP2 DUP2 PUSH2 0x1F8 ADD MSTORE DUP2 DUP2 PUSH2 0x453 ADD MSTORE DUP2 DUP2 PUSH2 0xA3E ADD MSTORE DUP2 DUP2 PUSH2 0xD39 ADD MSTORE DUP2 DUP2 PUSH2 0xF48 ADD MSTORE DUP2 DUP2 PUSH2 0x12E5 ADD MSTORE DUP2 DUP2 PUSH2 0x1449 ADD MSTORE PUSH2 0x23CF ADD MSTORE RETURN JUMPDEST PUSH1 0x64 SWAP1 DUP11 MLOAD SWAP1 PUSH3 0x461BCD PUSH1 0xE5 SHL DUP3 MSTORE PUSH1 0x4 DUP3 ADD MSTORE PUSH1 0x1A PUSH1 0x24 DUP3 ADD MSTORE PUSH32 0x47726164756174696F6E20636170206D757374206265203E2030000000000000 PUSH1 0x44 DUP3 ADD MSTORE REVERT JUMPDEST PUSH1 0x64 SWAP1 DUP11 MLOAD SWAP1 PUSH3 0x461BCD PUSH1 0xE5 SHL DUP3 MSTORE PUSH1 0x4 DUP3 ADD MSTORE PUSH1 0x16 PUSH1 0x24 DUP3 ADD MSTORE PUSH32 0x42617365207072696365206D757374206265203E203000000000000000000000 PUSH1 0x44 DUP3 ADD MSTORE REVERT JUMPDEST PUSH1 0x64 SWAP1 DUP11 MLOAD SWAP1 PUSH3 0x461BCD PUSH1 0xE5 SHL DUP3 MSTORE PUSH1 0x4 DUP3 ADD MSTORE PUSH1 0xF PUSH1 0x24 DUP3 ADD MSTORE PUSH15 0x24B73B30B634B21031B932B0BA37B9 PUSH1 0x89 SHL PUSH1 0x44 DUP3 ADD MSTORE REVERT JUMPDEST DUP11 MLOAD PUSH3 0x461BCD PUSH1 0xE5 SHL DUP2 MSTORE PUSH1 0x4 DUP2 ADD DUP8 SWAP1 MSTORE PUSH1 0x17 PUSH1 0x24 DUP3 ADD MSTORE PUSH32 0x496E76616C696420706C6174666F726D2077616C6C6574000000000000000000 PUSH1 0x44 DUP3 ADD MSTORE PUSH1 0x64 SWAP1 REVERT JUMPDEST PUSH3 0x461BCD PUSH1 0xE5 SHL DUP2 MSTORE PUSH1 0x4 DUP2 ADD DUP8 SWAP1 MSTORE PUSH1 0xD PUSH1 0x24 DUP3 ADD MSTORE PUSH13 0x24B73B30B634B2103A37B5B2B7 PUSH1 0x99 SHL PUSH1 0x44 DUP3 ADD MSTORE PUSH1 0x64 SWAP1 REVERT JUMPDEST PUSH1 0x0 DUP1 REVERT JUMPDEST PUSH4 0x4E487B71 PUSH1 0xE0 SHL PUSH1 0x0 MSTORE PUSH1 0x41 PUSH1 0x4 MSTORE PUSH1 0x24 PUSH1 0x0 REVERT JUMPDEST MLOAD SWAP1 PUSH1 0x1 PUSH1 0x1 PUSH1 0xA0 SHL SUB DUP3 AND DUP3 SUB PUSH3 0x2C7 JUMPI JUMP INVALID PUSH1 0x40 PUSH1 0x80 DUP2 MSTORE PUSH1 0x4 SWAP1 DUP2 CALLDATASIZE LT ISZERO PUSH2 0x15 JUMPI PUSH1 0x0 DUP1 REVERT JUMPDEST PUSH1 0x0 SWAP2 DUP3 CALLDATALOAD PUSH1 0xE0 SHR SWAP1 DUP2 PUSH3 0xF2D656 EQ PUSH2 0x13FB JUMPI DUP2 PUSH4 0x2D05D3F EQ PUSH2 0x13D2 JUMPI DUP2 PUSH4 0x5EB6F0E EQ PUSH2 0x1236 JUMPI DUP2 PUSH4 0x758D924 EQ PUSH2 0x1209 JUMPI DUP2 PUSH4 0xD4B0A54 EQ PUSH2 0x11E0 JUMPI DUP2 PUSH4 0x158EF93E EQ PUSH2 0x11B9 JUMPI DUP2 PUSH4 0x25D2A3F3 EQ PUSH2 0x117F JUMPI DUP2 PUSH4 0x340478A5 EQ PUSH2 0x1158 JUMPI DUP2 PUSH4 0x35486A2F EQ PUSH2 0x109B JUMPI DUP2 PUSH4 0x3FB168C4 EQ PUSH2 0xF01 JUMPI DUP2 PUSH4 0x42B07A4B EQ PUSH2 0xED3 JUMPI DUP2 PUSH4 0x5BD93282 EQ PUSH2 0xBC7 JUMPI DUP2 PUSH4 0x5C975ABB EQ PUSH2 0xEAC JUMPI DUP2 PUSH4 0x60A97E95 EQ PUSH2 0xE8D JUMPI DUP2 PUSH4 0x715018A6 EQ PUSH2 0xE33 JUMPI DUP2 PUSH4 0x8129FC1C EQ PUSH2 0xCF7 JUMPI DUP2 PUSH4 0x82944E2D EQ PUSH2 0xCD9 JUMPI DUP2 PUSH4 0x83C46137 EQ PUSH2 0xC9F JUMPI DUP2 PUSH4 0x83CAF275 EQ PUSH2 0xC80 JUMPI DUP2 PUSH4 0x8831E9CF EQ PUSH2 0xBF4 JUMPI DUP2 PUSH4 0x8DA5CB5B EQ PUSH2 0xBCC JUMPI DUP2 PUSH4 0x90165DD7 EQ PUSH2 0xBC7 JUMPI DUP2 PUSH4 0x9106D7BA EQ PUSH2 0xBA8 JUMPI DUP2 PUSH4 0x9D1B464A EQ PUSH2 0xB8B JUMPI DUP2 PUSH4 0x9E1A4D19 EQ PUSH2 0xB6C JUMPI DUP2 PUSH4 0x9E5F2602 EQ PUSH2 0xB48 JUMPI DUP2 PUSH4 0xA6F2AE3A EQ PUSH2 0x985 JUMPI DUP2 PUSH4 0xA8808D08 EQ PUSH2 0x966 JUMPI DUP2 PUSH4 0xBF65073E EQ PUSH2 0x924 JUMPI DUP2 PUSH4 0xC4AE3168 EQ PUSH2 0x8B7 JUMPI DUP2 PUSH4 0xC5C4744C EQ PUSH2 0x898 JUMPI DUP2 PUSH4 0xC7876EA4 EQ PUSH2 0x87A JUMPI DUP2 PUSH4 0xC8AE000C EQ PUSH2 0x85D JUMPI DUP2 PUSH4 0xD294F093 EQ PUSH2 0x7A3 JUMPI DUP2 PUSH4 0xDB2E21BC EQ PUSH2 0x653 JUMPI DUP2 PUSH4 0xDD4D7BF7 EQ PUSH2 0x637 JUMPI DUP2 PUSH4 0xE4849B32 EQ PUSH2 0x381 JUMPI DUP2 PUSH4 0xEB5B7CC2 EQ PUSH2 0x322 JUMPI DUP2 PUSH4 0xF2FDE38B EQ PUSH2 0x253 JUMPI POP DUP1 PUSH4 0xFA2AF9DA EQ PUSH2 0x22B JUMPI PUSH4 0xFC0C546A EQ PUSH2 0x1E5 JUMPI PUSH1 0x0 DUP1 REVERT JUMPDEST CALLVALUE PUSH2 0x227 JUMPI DUP2 PUSH1 0x3 NOT CALLDATASIZE ADD SLT PUSH2 0x227 JUMPI MLOAD PUSH32 0x0 PUSH1 0x1 PUSH1 0x1 PUSH1 0xA0 SHL SUB AND DUP2 MSTORE PUSH1 0x20 SWAP1 RETURN JUMPDEST POP DUP1 REVERT JUMPDEST POP CALLVALUE PUSH2 0x227 JUMPI DUP2 PUSH1 0x3 NOT CALLDATASIZE ADD SLT PUSH2 0x227 JUMPI PUSH1 0x2 SLOAD SWAP1 MLOAD PUSH1 0x1 PUSH1 0x1 PUSH1 0xA0 SHL SUB SWAP1 SWAP2 AND DUP2 MSTORE PUSH1 0x20 SWAP1 RETURN JUMPDEST SWAP2 SWAP1 POP CALLVALUE PUSH2 0x31E JUMPI PUSH1 0x20 CALLDATASIZE PUSH1 0x3 NOT ADD SLT PUSH2 0x31E JUMPI PUSH1 0x1 PUSH1 0x1 PUSH1 0xA0 SHL SUB DUP3 CALLDATALOAD DUP2 DUP2 AND SWAP4 SWAP2 SWAP3 SWAP1 DUP5 SWAP1 SUB PUSH2 0x31A JUMPI PUSH2 0x287 PUSH2 0x1A9E JUMP JUMPDEST DUP4 ISZERO PUSH2 0x2C8 JUMPI POP POP DUP3 SLOAD PUSH1 0x1 PUSH1 0x1 PUSH1 0xA0 SHL SUB NOT DUP2 AND DUP4 OR DUP5 SSTORE AND PUSH32 0x8BE0079C531659141344CD1FD0A4F28419497F9722A3DAAFE3B4186F6B6457E0 DUP4 DUP1 LOG3 DUP1 RETURN JUMPDEST SWAP1 PUSH1 0x20 PUSH1 0x84 SWAP3 MLOAD SWAP2 PUSH3 0x461BCD PUSH1 0xE5 SHL DUP4 MSTORE DUP3 ADD MSTORE PUSH1 0x26 PUSH1 0x24 DUP3 ADD MSTORE PUSH32 0x4F776E61626C653A206E6577206F776E657220697320746865207A65726F2061 PUSH1 0x44 DUP3 ADD MSTORE PUSH6 0x646472657373 PUSH1 0xD0 SHL PUSH1 0x64 DUP3 ADD MSTORE REVERT JUMPDEST DUP5 DUP1 REVERT JUMPDEST DUP3 DUP1 REVERT JUMPDEST DUP3 DUP5 CALLVALUE PUSH2 0x37E JUMPI PUSH1 0x20 CALLDATASIZE PUSH1 0x3 NOT ADD SLT PUSH2 0x37E JUMPI DUP3 CALLDATALOAD SWAP1 PUSH1 0x64 DUP3 MUL SWAP1 DUP3 DUP3 DIV PUSH1 0x64 EQ DUP4 ISZERO OR ISZERO PUSH2 0x36B JUMPI PUSH1 0x20 DUP5 PUSH2 0x364 PUSH2 0x35F PUSH2 0x2710 DUP7 DIV DUP8 PUSH2 0x1BF8 JUMP JUMPDEST PUSH2 0x1FA6 JUMP JUMPDEST SWAP1 MLOAD SWAP1 DUP2 MSTORE RETURN JUMPDEST PUSH4 0x4E487B71 PUSH1 0xE0 SHL DUP2 MSTORE PUSH1 0x11 DUP6 MSTORE PUSH1 0x24 SWAP1 REVERT JUMPDEST DUP1 REVERT JUMPDEST DUP4 SWAP2 POP CALLVALUE PUSH2 0x227 JUMPI PUSH1 0x20 DUP1 PUSH1 0x3 NOT CALLDATASIZE ADD SLT PUSH2 0x31E JUMPI DUP2 CALLDATALOAD SWAP2 PUSH2 0x3A1 PUSH2 0x1C51 JUMP JUMPDEST PUSH1 0xFF PUSH1 0xA SLOAD PUSH2 0x3B5 DUP3 DUP3 PUSH1 0xA8 SHR AND ISZERO PUSH2 0x1B2E JUMP JUMPDEST AND PUSH2 0x5F6 JUMPI PUSH2 0x3C5 DUP4 ISZERO ISZERO PUSH2 0x1F06 JUMP JUMPDEST DUP3 PUSH1 0x7 SLOAD LT PUSH2 0x5BF JUMPI PUSH2 0x3D7 DUP4 PUSH2 0x2139 JUMP JUMPDEST SWAP1 DUP2 ISZERO PUSH2 0x583 JUMPI SELFBALANCE DUP1 DUP4 GT PUSH2 0x57B JUMPI JUMPDEST POP PUSH1 0x64 DUP3 MUL DUP3 DUP2 DIV PUSH1 0x64 EQ DUP4 ISZERO OR ISZERO PUSH2 0x568 JUMPI PUSH2 0x2710 SWAP1 DIV SWAP3 PUSH2 0x40A DUP5 DUP5 PUSH2 0x1BF8 JUMP JUMPDEST DUP8 MLOAD PUSH4 0x23B872DD PUSH1 0xE0 SHL DUP4 DUP3 ADD MSTORE CALLER PUSH1 0x24 DUP3 ADD MSTORE ADDRESS PUSH1 0x44 DUP3 ADD MSTORE PUSH1 0x64 DUP1 DUP3 ADD DUP9 SWAP1 MSTORE DUP2 MSTORE PUSH1 0xA0 DUP2 ADD PUSH8 0xFFFFFFFFFFFFFFFF DUP2 GT DUP3 DUP3 LT OR PUSH2 0x555 JUMPI DUP9 DUP1 SWAP4 PUSH2 0x477 DUP3 SWAP5 DUP4 SWAP5 DUP15 MSTORE PUSH32 0x0 PUSH2 0x1CFA JUMP JUMPDEST PUSH2 0x483 DUP11 PUSH1 0x7 SLOAD PUSH2 0x1BF8 JUMP JUMPDEST PUSH1 0x7 SSTORE PUSH2 0x492 DUP9 PUSH1 0x8 SLOAD PUSH2 0x1BF8 JUMP JUMPDEST PUSH1 0x8 SSTORE PUSH2 0x4A1 DUP11 PUSH1 0x9 SLOAD PUSH2 0x1C44 JUMP JUMPDEST PUSH1 0x9 SSTORE CALLER GAS CALL PUSH2 0x4AF PUSH2 0x1DF2 JUMP JUMPDEST POP ISZERO PUSH2 0x51D JUMPI POP POP PUSH2 0x513 PUSH32 0x910F01659F782FDE3D5C0EE026ADFBAE451C6ACCAD6884192F12BCFB9B2F13E5 SWAP4 SWAP5 SWAP6 PUSH2 0x4E7 DUP5 PUSH2 0x216F JUMP JUMPDEST PUSH2 0x4EF PUSH2 0x1F88 JUMP JUMPDEST SWAP1 MLOAD SWAP4 DUP5 SWAP4 CALLER SWAP8 DUP6 SWAP1 SWAP5 SWAP4 SWAP3 PUSH1 0x60 SWAP3 PUSH1 0x80 DUP4 ADD SWAP7 DUP4 MSTORE PUSH1 0x20 DUP4 ADD MSTORE PUSH1 0x40 DUP3 ADD MSTORE ADD MSTORE JUMP JUMPDEST SUB SWAP1 LOG2 PUSH1 0x1 DUP1 SSTORE DUP1 RETURN JUMPDEST DUP7 MLOAD PUSH3 0x461BCD PUSH1 0xE5 SHL DUP2 MSTORE SWAP2 DUP3 ADD MSTORE PUSH1 0x13 PUSH1 0x24 DUP3 ADD MSTORE PUSH19 0x115512081D1C985B9CD9995C8819985A5B1959 PUSH1 0x6A SHL PUSH1 0x44 DUP3 ADD MSTORE PUSH1 0x64 SWAP2 POP REVERT JUMPDEST PUSH4 0x4E487B71 PUSH1 0xE0 SHL DUP10 MSTORE PUSH1 0x41 DUP6 MSTORE PUSH1 0x24 DUP10 REVERT JUMPDEST PUSH4 0x4E487B71 PUSH1 0xE0 SHL DUP7 MSTORE PUSH1 0x11 DUP3 MSTORE PUSH1 0x24 DUP7 REVERT JUMPDEST SWAP2 POP DUP7 PUSH2 0x3E7 JUMP JUMPDEST DUP6 MLOAD PUSH3 0x461BCD PUSH1 0xE5 SHL DUP2 MSTORE SWAP1 DUP2 ADD DUP4 SWAP1 MSTORE PUSH1 0x16 PUSH1 0x24 DUP3 ADD MSTORE PUSH22 0x151BDAD95B88185B5BDD5B9D081D1BDBC81CDB585B1B PUSH1 0x52 SHL PUSH1 0x44 DUP3 ADD MSTORE PUSH1 0x64 SWAP1 REVERT JUMPDEST PUSH1 0x64 SWAP2 DUP6 MLOAD SWAP2 PUSH3 0x461BCD PUSH1 0xE5 SHL DUP4 MSTORE DUP3 ADD MSTORE PUSH1 0x13 PUSH1 0x24 DUP3 ADD MSTORE PUSH19 0x115E18D959591CC81CDBDB1908185B5BDD5B9D PUSH1 0x6A SHL PUSH1 0x44 DUP3 ADD MSTORE REVERT JUMPDEST PUSH1 0x64 SWAP2 DUP6 MLOAD SWAP2 PUSH3 0x461BCD PUSH1 0xE5 SHL DUP4 MSTORE DUP3 ADD MSTORE PUSH1 0x1E PUSH1 0x24 DUP3 ADD MSTORE PUSH32 0x416C7265616479206772616475617465642C2073656C6C206F6E204445580000 PUSH1 0x44 DUP3 ADD MSTORE REVERT JUMPDEST POP POP CALLVALUE PUSH2 0x227 JUMPI DUP2 PUSH1 0x3 NOT CALLDATASIZE ADD SLT PUSH2 0x227 JUMPI PUSH1 0x20 SWAP1 MLOAD PUSH1 0x64 DUP2 MSTORE RETURN JUMPDEST SWAP2 SWAP1 POP CALLVALUE PUSH2 0x31E JUMPI DUP3 PUSH1 0x3 NOT CALLDATASIZE ADD SLT PUSH2 0x31E JUMPI PUSH2 0x66E PUSH2 0x1A9E JUMP JUMPDEST PUSH2 0x67F PUSH1 0xFF PUSH1 0xA SLOAD PUSH1 0xA8 SHR AND PUSH2 0x248F JUMP JUMPDEST PUSH1 0xC SLOAD DUP1 ISZERO PUSH2 0x760 JUMPI TIMESTAMP LT PUSH2 0x726 JUMPI DUP3 PUSH1 0xC SSTORE SELFBALANCE DUP1 ISZERO PUSH2 0x6F6 JUMPI PUSH1 0x2 SLOAD DUP5 SWAP2 DUP3 SWAP2 DUP3 SWAP2 DUP3 SWAP2 PUSH1 0x1 PUSH1 0x1 PUSH1 0xA0 SHL SUB AND GAS CALL PUSH2 0x6B7 PUSH2 0x1DF2 JUMP JUMPDEST POP ISZERO PUSH2 0x6C1 JUMPI DUP3 DUP1 RETURN JUMPDEST SWAP1 PUSH1 0x20 PUSH1 0x64 SWAP3 MLOAD SWAP2 PUSH3 0x461BCD PUSH1 0xE5 SHL DUP4 MSTORE DUP3 ADD MSTORE PUSH1 0xF PUSH1 0x24 DUP3 ADD MSTORE PUSH15 0x15DA5D1A191C985DC819985A5B1959 PUSH1 0x8A SHL PUSH1 0x44 DUP3 ADD MSTORE REVERT JUMPDEST DUP2 MLOAD PUSH3 0x461BCD PUSH1 0xE5 SHL DUP2 MSTORE PUSH1 0x20 DUP2 DUP6 ADD MSTORE PUSH1 0xA PUSH1 0x24 DUP3 ADD MSTORE PUSH10 0x4E6F2062616C616E6365 PUSH1 0xB0 SHL PUSH1 0x44 DUP3 ADD MSTORE PUSH1 0x64 SWAP1 REVERT JUMPDEST SWAP1 PUSH1 0x20 PUSH1 0x64 SWAP3 MLOAD SWAP2 PUSH3 0x461BCD PUSH1 0xE5 SHL DUP4 MSTORE DUP3 ADD MSTORE PUSH1 0x14 PUSH1 0x24 DUP3 ADD MSTORE PUSH20 0x151A5B595B1BD8DAC81B9BDD08195E1C1A5C9959 PUSH1 0x62 SHL PUSH1 0x44 DUP3 ADD MSTORE REVERT JUMPDEST DUP2 MLOAD PUSH3 0x461BCD PUSH1 0xE5 SHL DUP2 MSTORE PUSH1 0x20 DUP2 DUP6 ADD MSTORE PUSH1 0x17 PUSH1 0x24 DUP3 ADD MSTORE PUSH32 0x456D657267656E6379206E6F7420696E69746961746564000000000000000000 PUSH1 0x44 DUP3 ADD MSTORE PUSH1 0x64 SWAP1 REVERT JUMPDEST SWAP2 SWAP1 POP CALLVALUE PUSH2 0x31E JUMPI DUP3 PUSH1 0x3 NOT CALLDATASIZE ADD SLT PUSH2 0x31E JUMPI CALLER DUP4 MSTORE PUSH1 0xB PUSH1 0x20 MSTORE DUP1 DUP4 KECCAK256 SLOAD DUP1 ISZERO PUSH2 0x828 JUMPI DUP4 DUP1 DUP1 DUP1 SWAP4 CALLER DUP3 MSTORE PUSH1 0xB PUSH1 0x20 MSTORE DUP2 DUP7 DUP2 KECCAK256 SSTORE CALLER GAS CALL PUSH2 0x7E5 PUSH2 0x1DF2 JUMP JUMPDEST POP ISZERO PUSH2 0x7EF JUMPI DUP3 DUP1 RETURN JUMPDEST PUSH1 0x20 SWAP1 PUSH1 0x64 SWAP4 CALLER SWAP1 MSTORE PUSH1 0xB DUP3 MSTORE MLOAD SWAP2 PUSH3 0x461BCD PUSH1 0xE5 SHL DUP4 MSTORE DUP3 ADD MSTORE PUSH1 0xC PUSH1 0x24 DUP3 ADD MSTORE PUSH12 0x10DB185A5B4819985A5B1959 PUSH1 0xA2 SHL PUSH1 0x44 DUP3 ADD MSTORE REVERT JUMPDEST DUP2 MLOAD PUSH3 0x461BCD PUSH1 0xE5 SHL DUP2 MSTORE PUSH1 0x20 DUP2 DUP6 ADD MSTORE PUSH1 0xF PUSH1 0x24 DUP3 ADD MSTORE PUSH15 0x4E6F2070656E64696E672066656573 PUSH1 0x88 SHL PUSH1 0x44 DUP3 ADD MSTORE PUSH1 0x64 SWAP1 REVERT JUMPDEST POP POP CALLVALUE PUSH2 0x227 JUMPI DUP2 PUSH1 0x3 NOT CALLDATASIZE ADD SLT PUSH2 0x227 JUMPI PUSH1 0x20 SWAP1 PUSH2 0x364 PUSH2 0x1F47 JUMP JUMPDEST SWAP1 POP CALLVALUE PUSH2 0x31E JUMPI DUP3 PUSH1 0x3 NOT CALLDATASIZE ADD SLT PUSH2 0x31E JUMPI PUSH1 0x20 SWAP3 POP SLOAD SWAP1 MLOAD SWAP1 DUP2 MSTORE RETURN JUMPDEST POP POP CALLVALUE PUSH2 0x227 JUMPI DUP2 PUSH1 0x3 NOT CALLDATASIZE ADD SLT PUSH2 0x227 JUMPI PUSH1 0x20 SWAP1 PUSH1 0x8 SLOAD SWAP1 MLOAD SWAP1 DUP2 MSTORE RETURN JUMPDEST POP POP CALLVALUE PUSH2 0x227 JUMPI DUP2 PUSH1 0x3 NOT CALLDATASIZE ADD SLT PUSH2 0x227 JUMPI PUSH1 0x20 PUSH32 0x9077D36BC00859B5C3F320310707208543DD35092CB0A0FE117D0C6A558B148B SWAP2 PUSH2 0x8F5 PUSH2 0x1A9E JUMP JUMPDEST PUSH1 0xFF PUSH1 0xA SLOAD DUP2 PUSH1 0xA8 SHL DUP3 DUP3 PUSH1 0xA8 SHR AND ISZERO PUSH1 0xA8 SHL AND SWAP1 DUP3 PUSH1 0xA8 SHL NOT AND OR SWAP2 DUP3 PUSH1 0xA SSTORE MLOAD SWAP2 PUSH1 0xA8 SHR AND ISZERO ISZERO DUP2 MSTORE LOG1 DUP1 RETURN JUMPDEST DUP3 DUP5 CALLVALUE PUSH2 0x37E JUMPI PUSH1 0x20 CALLDATASIZE PUSH1 0x3 NOT ADD SLT PUSH2 0x37E JUMPI PUSH2 0x941 DUP4 CALLDATALOAD PUSH2 0x20D5 JUMP JUMPDEST SWAP1 PUSH1 0x64 DUP3 MUL SWAP1 DUP3 DUP3 DIV PUSH1 0x64 EQ DUP4 ISZERO OR ISZERO PUSH2 0x36B JUMPI PUSH1 0x20 DUP5 PUSH2 0x364 PUSH2 0x26AC DUP6 DIV DUP7 PUSH2 0x1C44 JUMP JUMPDEST POP POP CALLVALUE PUSH2 0x227 JUMPI DUP2 PUSH1 0x3 NOT CALLDATASIZE ADD SLT PUSH2 0x227 JUMPI PUSH1 0x20 SWAP1 PUSH1 0xC SLOAD SWAP1 MLOAD SWAP1 DUP2 MSTORE RETURN JUMPDEST SWAP2 SWAP1 POP DUP3 PUSH1 0x3 NOT CALLDATASIZE ADD SLT PUSH2 0x31E JUMPI PUSH2 0x99B PUSH2 0x1C51 JUMP JUMPDEST PUSH2 0x9B9 PUSH1 0xFF PUSH1 0xA SLOAD PUSH2 0x9B2 DUP3 DUP3 PUSH1 0xA8 SHR AND ISZERO PUSH2 0x1B2E JUMP JUMPDEST AND ISZERO PUSH2 0x1B6F JUMP JUMPDEST CALLVALUE ISZERO PUSH2 0xB15 JUMPI PUSH1 0x64 CALLVALUE MUL CALLVALUE DUP2 DIV PUSH1 0x64 SUB PUSH2 0xB02 JUMPI PUSH2 0x2710 SWAP1 DIV SWAP2 PUSH2 0x9E0 PUSH2 0x35F DUP5 CALLVALUE PUSH2 0x1BF8 JUMP JUMPDEST SWAP1 PUSH2 0x9EC DUP3 ISZERO ISZERO PUSH2 0x1C05 JUMP JUMPDEST PUSH1 0x9 SLOAD DUP3 GT PUSH2 0xABF JUMPI POP SWAP1 DUP2 PUSH2 0xA25 PUSH32 0x7CA4A3CAD3BAC410861AF1B25202900FF3C8DD2174EAAA6C0EF89F2A04E65FD5 SWAP4 PUSH1 0x7 SLOAD PUSH2 0x1C44 JUMP JUMPDEST PUSH1 0x7 SSTORE PUSH2 0xA34 CALLVALUE PUSH1 0x8 SLOAD PUSH2 0x1C44 JUMP JUMPDEST PUSH1 0x8 SSTORE PUSH2 0xA62 DUP2 CALLER PUSH32 0x0 PUSH2 0x1CA7 JUMP JUMPDEST PUSH2 0xA6B DUP5 PUSH2 0x216F JUMP JUMPDEST PUSH2 0xA9B PUSH2 0xA76 PUSH2 0x1F88 JUMP JUMPDEST SWAP3 MLOAD SWAP3 DUP4 SWAP3 CALLER SWAP7 CALLVALUE DUP6 SWAP1 SWAP5 SWAP4 SWAP3 PUSH1 0x60 SWAP3 PUSH1 0x80 DUP4 ADD SWAP7 DUP4 MSTORE PUSH1 0x20 DUP4 ADD MSTORE PUSH1 0x40 DUP3 ADD MSTORE ADD MSTORE JUMP JUMPDEST SUB SWAP1 LOG2 PUSH1 0x8 SLOAD PUSH1 0x6 SLOAD GT ISZERO PUSH2 0xAB2 JUMPI JUMPDEST PUSH1 0x1 DUP1 SSTORE DUP1 RETURN JUMPDEST PUSH2 0xABA PUSH2 0x229F JUMP JUMPDEST PUSH2 0xAAB JUMP JUMPDEST PUSH1 0x64 SWAP1 PUSH1 0x20 DUP5 MLOAD SWAP2 PUSH3 0x461BCD PUSH1 0xE5 SHL DUP4 MSTORE DUP3 ADD MSTORE PUSH1 0x18 PUSH1 0x24 DUP3 ADD MSTORE PUSH32 0x4578636565647320617661696C61626C6520737570706C790000000000000000 PUSH1 0x44 DUP3 ADD MSTORE REVERT JUMPDEST PUSH4 0x4E487B71 PUSH1 0xE0 SHL DUP5 MSTORE PUSH1 0x11 DUP4 MSTORE PUSH1 0x24 DUP5 REVERT JUMPDEST SWAP1 PUSH1 0x20 PUSH1 0x64 SWAP3 MLOAD SWAP2 PUSH3 0x461BCD PUSH1 0xE5 SHL DUP4 MSTORE DUP3 ADD MSTORE PUSH1 0xD PUSH1 0x24 DUP3 ADD MSTORE PUSH13 0x9AEAE6E840E6CADCC8408AA89 PUSH1 0x9B SHL PUSH1 0x44 DUP3 ADD MSTORE REVERT JUMPDEST POP POP CALLVALUE PUSH2 0x227 JUMPI DUP2 PUSH1 0x3 NOT CALLDATASIZE ADD SLT PUSH2 0x227 JUMPI PUSH1 0x20 SWAP1 PUSH1 0xFF PUSH1 0xA SLOAD AND SWAP1 MLOAD SWAP1 ISZERO ISZERO DUP2 MSTORE RETURN JUMPDEST POP POP CALLVALUE PUSH2 0x227 JUMPI DUP2 PUSH1 0x3 NOT CALLDATASIZE ADD SLT PUSH2 0x227 JUMPI PUSH1 0x20 SWAP1 PUSH1 0x9 SLOAD SWAP1 MLOAD SWAP1 DUP2 MSTORE RETURN JUMPDEST POP POP CALLVALUE PUSH2 0x227 JUMPI DUP2 PUSH1 0x3 NOT CALLDATASIZE ADD SLT PUSH2 0x227 JUMPI PUSH1 0x20 SWAP1 PUSH2 0x364 PUSH2 0x1F88 JUMP JUMPDEST POP POP CALLVALUE PUSH2 0x227 JUMPI DUP2 PUSH1 0x3 NOT CALLDATASIZE ADD SLT PUSH2 0x227 JUMPI PUSH1 0x20 SWAP1 PUSH1 0x7 SLOAD SWAP1 MLOAD SWAP1 DUP2 MSTORE RETURN JUMPDEST PUSH2 0x1A7C JUMP JUMPDEST POP POP CALLVALUE PUSH2 0x227 JUMPI DUP2 PUSH1 0x3 NOT CALLDATASIZE ADD SLT PUSH2 0x227 JUMPI SWAP1 SLOAD SWAP1 MLOAD PUSH1 0x1 PUSH1 0x1 PUSH1 0xA0 SHL SUB SWAP1 SWAP2 AND DUP2 MSTORE PUSH1 0x20 SWAP1 RETURN JUMPDEST SWAP1 POP CALLVALUE PUSH2 0x31E JUMPI PUSH1 0x20 CALLDATASIZE PUSH1 0x3 NOT ADD SLT PUSH2 0x31E JUMPI DUP1 CALLDATALOAD PUSH1 0x1 PUSH1 0x1 PUSH1 0xA0 SHL SUB DUP2 AND SWAP3 SWAP1 DUP4 SWAP1 SUB PUSH2 0xC7C JUMPI PUSH2 0xC24 PUSH2 0x1A9E JUMP JUMPDEST DUP3 ISZERO PUSH2 0xC47 JUMPI POP POP PUSH12 0xFFFFFFFFFFFFFFFFFFFFFFFF PUSH1 0xA0 SHL PUSH1 0x2 SLOAD AND OR PUSH1 0x2 SSTORE DUP1 RETURN JUMPDEST SWAP1 PUSH1 0x20 PUSH1 0x64 SWAP3 MLOAD SWAP2 PUSH3 0x461BCD PUSH1 0xE5 SHL DUP4 MSTORE DUP3 ADD MSTORE PUSH1 0xF PUSH1 0x24 DUP3 ADD MSTORE PUSH15 0x496E76616C69642061646472657373 PUSH1 0x88 SHL PUSH1 0x44 DUP3 ADD MSTORE REVERT JUMPDEST DUP4 DUP1 REVERT JUMPDEST POP POP CALLVALUE PUSH2 0x227 JUMPI DUP2 PUSH1 0x3 NOT CALLDATASIZE ADD SLT PUSH2 0x227 JUMPI PUSH1 0x20 SWAP1 PUSH1 0x5 SLOAD SWAP1 MLOAD SWAP1 DUP2 MSTORE RETURN JUMPDEST POP POP CALLVALUE PUSH2 0x227 JUMPI DUP2 PUSH1 0x3 NOT CALLDATASIZE ADD SLT PUSH2 0x227 JUMPI PUSH1 0x20 SWAP1 PUSH1 0xFF PUSH1 0xA SLOAD AND ISZERO SWAP1 DUP2 PUSH2 0xCCA JUMPI JUMPDEST MLOAD SWAP1 ISZERO ISZERO DUP2 MSTORE RETURN JUMPDEST PUSH1 0x8 SLOAD PUSH1 0x6 SLOAD GT ISZERO SWAP2 POP PUSH2 0xCC2 JUMP JUMPDEST POP POP CALLVALUE PUSH2 0x227 JUMPI DUP2 PUSH1 0x3 NOT CALLDATASIZE ADD SLT PUSH2 0x227 JUMPI PUSH1 0x20 SWAP1 MLOAD PUSH3 0x2A300 DUP2 MSTORE RETURN JUMPDEST SWAP1 POP CALLVALUE PUSH2 0x31E JUMPI DUP3 PUSH1 0x3 NOT CALLDATASIZE ADD SLT PUSH2 0x31E JUMPI PUSH2 0xD11 PUSH2 0x1A9E JUMP JUMPDEST PUSH1 0xD SLOAD SWAP2 PUSH1 0xFF DUP4 PUSH1 0xA8 SHR AND PUSH2 0xDFA JUMPI DUP1 MLOAD PUSH4 0x70A08231 PUSH1 0xE0 SHL DUP2 MSTORE ADDRESS DUP4 DUP3 ADD MSTORE PUSH1 0x20 DUP2 PUSH1 0x24 DUP2 PUSH32 0x0 PUSH1 0x1 PUSH1 0x1 PUSH1 0xA0 SHL SUB AND GAS STATICCALL SWAP1 DUP2 ISZERO PUSH2 0xDF0 JUMPI DUP6 SWAP2 PUSH2 0xDBF JUMPI JUMPDEST POP DUP1 PUSH1 0x9 SSTORE ISZERO PUSH2 0xD90 JUMPI POP POP PUSH1 0xFF PUSH1 0xA8 SHL NOT AND PUSH1 0x1 PUSH1 0xA8 SHL OR PUSH1 0xD SSTORE DUP1 RETURN JUMPDEST SWAP1 PUSH1 0x20 PUSH1 0x64 SWAP3 MLOAD SWAP2 PUSH3 0x461BCD PUSH1 0xE5 SHL DUP4 MSTORE DUP3 ADD MSTORE PUSH1 0x9 PUSH1 0x24 DUP3 ADD MSTORE PUSH9 0x4E6F20746F6B656E73 PUSH1 0xB8 SHL PUSH1 0x44 DUP3 ADD MSTORE REVERT JUMPDEST SWAP1 POP PUSH1 0x20 DUP2 RETURNDATASIZE DUP3 GT PUSH2 0xDE8 JUMPI JUMPDEST DUP2 PUSH2 0xDD9 PUSH1 0x20 SWAP4 DUP4 PUSH2 0x1AF6 JUMP JUMPDEST DUP2 ADD SUB SLT PUSH2 0x31A JUMPI MLOAD CODESIZE PUSH2 0xD71 JUMP JUMPDEST RETURNDATASIZE SWAP2 POP PUSH2 0xDCC JUMP JUMPDEST DUP3 MLOAD RETURNDATASIZE DUP8 DUP3 RETURNDATACOPY RETURNDATASIZE SWAP1 REVERT JUMPDEST SWAP1 PUSH1 0x20 PUSH1 0x64 SWAP3 MLOAD SWAP2 PUSH3 0x461BCD PUSH1 0xE5 SHL DUP4 MSTORE DUP3 ADD MSTORE PUSH1 0x13 PUSH1 0x24 DUP3 ADD MSTORE PUSH19 0x105B1C9958591E481A5B9A5D1A585B1A5E9959 PUSH1 0x6A SHL PUSH1 0x44 DUP3 ADD MSTORE REVERT JUMPDEST DUP4 CALLVALUE PUSH2 0x37E JUMPI DUP1 PUSH1 0x3 NOT CALLDATASIZE ADD SLT PUSH2 0x37E JUMPI PUSH2 0xE4C PUSH2 0x1A9E JUMP JUMPDEST DUP1 SLOAD PUSH1 0x1 PUSH1 0x1 PUSH1 0xA0 SHL SUB NOT DUP2 AND DUP3 SSTORE DUP2 SWAP1 PUSH1 0x1 PUSH1 0x1 PUSH1 0xA0 SHL SUB AND PUSH32 0x8BE0079C531659141344CD1FD0A4F28419497F9722A3DAAFE3B4186F6B6457E0 DUP3 DUP1 LOG3 DUP1 RETURN JUMPDEST POP POP CALLVALUE PUSH2 0x227 JUMPI DUP2 PUSH1 0x3 NOT CALLDATASIZE ADD SLT PUSH2 0x227 JUMPI PUSH1 0x20 SWAP1 PUSH1 0x6 SLOAD SWAP1 MLOAD SWAP1 DUP2 MSTORE RETURN JUMPDEST POP POP CALLVALUE PUSH2 0x227 JUMPI DUP2 PUSH1 0x3 NOT CALLDATASIZE ADD SLT PUSH2 0x227 JUMPI PUSH1 0x20 SWAP1 PUSH1 0xFF PUSH1 0xA SLOAD PUSH1 0xA8 SHR AND SWAP1 MLOAD SWAP1 ISZERO ISZERO DUP2 MSTORE RETURN JUMPDEST POP POP CALLVALUE PUSH2 0x227 JUMPI DUP2 PUSH1 0x3 NOT CALLDATASIZE ADD SLT PUSH2 0x227 JUMPI PUSH1 0x20 SWAP1 PUSH2 0xEF0 PUSH2 0x233B JUMP JUMPDEST SWAP1 MLOAD PUSH1 0x1 PUSH1 0x1 PUSH1 0xA0 SHL SUB SWAP1 SWAP2 AND DUP2 MSTORE RETURN JUMPDEST SWAP2 SWAP1 POP CALLVALUE PUSH2 0x31E JUMPI DUP3 PUSH1 0x3 NOT CALLDATASIZE ADD SLT PUSH2 0x31E JUMPI PUSH2 0xF1C PUSH2 0x1A9E JUMP JUMPDEST PUSH2 0xF2A PUSH1 0xFF PUSH1 0xA SLOAD AND PUSH2 0x22E0 JUMP JUMPDEST DUP1 MLOAD PUSH4 0x70A08231 PUSH1 0xE0 SHL DUP2 MSTORE ADDRESS DUP2 DUP5 ADD MSTORE PUSH1 0x1 PUSH1 0x1 PUSH1 0xA0 SHL SUB SWAP3 SWAP1 SWAP2 PUSH32 0x0 SWAP2 SWAP1 PUSH1 0x20 SWAP1 SELFBALANCE DUP3 DUP7 PUSH1 0x24 DUP2 DUP11 DUP10 AND GAS STATICCALL SWAP6 DUP7 ISZERO PUSH2 0x1091 JUMPI DUP9 SWAP7 PUSH2 0x105E JUMPI JUMPDEST POP DUP1 ISZERO DUP1 ISZERO DUP1 SWAP2 PUSH2 0x1055 JUMPI JUMPDEST ISZERO PUSH2 0x101C JUMPI SWAP1 DUP9 SWAP2 PUSH2 0xFC5 JUMPI JUMPDEST POP POP POP POP POP DUP2 PUSH2 0xFAC JUMPI DUP4 DUP1 RETURN JUMPDEST PUSH2 0xFBE SWAP3 DUP5 PUSH1 0x9 SSTORE PUSH1 0x2 SLOAD AND SWAP1 PUSH2 0x1CA7 JUMP JUMPDEST CODESIZE DUP1 DUP1 DUP4 DUP1 RETURN JUMPDEST DUP2 DUP1 DUP1 SWAP3 DUP11 PUSH1 0x2 SLOAD AND GAS CALL PUSH2 0xFD8 PUSH2 0x1DF2 JUMP JUMPDEST POP ISZERO PUSH2 0xFE5 JUMPI DUP7 DUP2 PUSH2 0xF9E JUMP JUMPDEST MLOAD PUSH3 0x461BCD PUSH1 0xE5 SHL DUP2 MSTORE SWAP2 DUP3 ADD MSTORE PUSH1 0x13 PUSH1 0x24 DUP3 ADD MSTORE PUSH19 0x115512081DDA5D1A191C985DC819985A5B1959 PUSH1 0x6A SHL PUSH1 0x44 DUP3 ADD MSTORE PUSH1 0x64 SWAP2 POP REVERT JUMPDEST POP POP MLOAD PUSH3 0x461BCD PUSH1 0xE5 SHL DUP2 MSTORE SWAP2 DUP3 ADD MSTORE PUSH1 0x13 PUSH1 0x24 DUP3 ADD MSTORE PUSH19 0x4E6F7468696E6720746F207769746864726177 PUSH1 0x68 SHL PUSH1 0x44 DUP3 ADD MSTORE PUSH1 0x64 SWAP2 POP REVERT JUMPDEST POP DUP7 ISZERO ISZERO PUSH2 0xF91 JUMP JUMPDEST SWAP1 SWAP6 POP DUP3 DUP2 DUP2 RETURNDATASIZE DUP4 GT PUSH2 0x108A JUMPI JUMPDEST PUSH2 0x1076 DUP2 DUP4 PUSH2 0x1AF6 JUMP JUMPDEST DUP2 ADD SUB SLT PUSH2 0x1086 JUMPI MLOAD SWAP5 CODESIZE PUSH2 0xF85 JUMP JUMPDEST DUP8 DUP1 REVERT JUMPDEST POP RETURNDATASIZE PUSH2 0x106C JUMP JUMPDEST DUP3 MLOAD RETURNDATASIZE DUP11 DUP3 RETURNDATACOPY RETURNDATASIZE SWAP1 REVERT JUMPDEST SWAP2 SWAP1 POP CALLVALUE PUSH2 0x31E JUMPI DUP3 PUSH1 0x3 NOT CALLDATASIZE ADD SLT PUSH2 0x31E JUMPI PUSH2 0x10B6 PUSH2 0x1A9E JUMP JUMPDEST PUSH2 0x10C7 PUSH1 0xFF PUSH1 0xA SLOAD PUSH1 0xA8 SHR AND PUSH2 0x248F JUMP JUMPDEST PUSH1 0xC SLOAD PUSH2 0x1121 JUMPI PUSH3 0x2A300 TIMESTAMP ADD SWAP2 DUP3 TIMESTAMP GT PUSH2 0x110E JUMPI POP DUP2 PUSH1 0x20 SWAP2 PUSH32 0x321E4E6EDD055EBD12E269436C1562C06EFFF25F3532CC5FDCB9909193E30314 SWAP4 PUSH1 0xC SSTORE MLOAD SWAP1 DUP2 MSTORE LOG1 DUP1 RETURN JUMPDEST PUSH4 0x4E487B71 PUSH1 0xE0 SHL DUP5 MSTORE PUSH1 0x11 SWAP1 MSTORE PUSH1 0x24 DUP4 REVERT JUMPDEST SWAP1 PUSH1 0x20 PUSH1 0x64 SWAP3 MLOAD SWAP2 PUSH3 0x461BCD PUSH1 0xE5 SHL DUP4 MSTORE DUP3 ADD MSTORE PUSH1 0x11 PUSH1 0x24 DUP3 ADD MSTORE PUSH17 0x105B1C9958591E481A5B9A5D1A585D1959 PUSH1 0x7A SHL PUSH1 0x44 DUP3 ADD MSTORE REVERT JUMPDEST POP POP CALLVALUE PUSH2 0x227 JUMPI DUP2 PUSH1 0x3 NOT CALLDATASIZE ADD SLT PUSH2 0x227 JUMPI PUSH1 0x20 SWAP1 PUSH1 0xFF PUSH1 0xD SLOAD PUSH1 0xA0 SHR AND SWAP1 MLOAD SWAP1 ISZERO ISZERO DUP2 MSTORE RETURN JUMPDEST SWAP1 POP CALLVALUE PUSH2 0x31E JUMPI PUSH1 0x20 CALLDATASIZE PUSH1 0x3 NOT ADD SLT PUSH2 0x31E JUMPI CALLDATALOAD PUSH1 0x1 PUSH1 0x1 PUSH1 0xA0 SHL SUB DUP2 AND SWAP1 DUP2 SWAP1 SUB PUSH2 0x31E JUMPI DUP3 DUP3 SWAP2 PUSH1 0x20 SWAP5 MSTORE PUSH1 0xB DUP5 MSTORE KECCAK256 SLOAD SWAP1 MLOAD SWAP1 DUP2 MSTORE RETURN JUMPDEST POP POP CALLVALUE PUSH2 0x227 JUMPI DUP2 PUSH1 0x3 NOT CALLDATASIZE ADD SLT PUSH2 0x227 JUMPI PUSH1 0x20 SWAP1 PUSH1 0xFF PUSH1 0xD SLOAD PUSH1 0xA8 SHR AND SWAP1 MLOAD SWAP1 ISZERO ISZERO DUP2 MSTORE RETURN JUMPDEST POP POP CALLVALUE PUSH2 0x227 JUMPI DUP2 PUSH1 0x3 NOT CALLDATASIZE ADD SLT PUSH2 0x227 JUMPI PUSH1 0xD SLOAD SWAP1 MLOAD PUSH1 0x1 PUSH1 0x1 PUSH1 0xA0 SHL SUB SWAP1 SWAP2 AND DUP2 MSTORE PUSH1 0x20 SWAP1 RETURN JUMPDEST POP POP CALLVALUE PUSH2 0x227 JUMPI DUP2 PUSH1 0x3 NOT CALLDATASIZE ADD SLT PUSH2 0x227 JUMPI PUSH1 0xA SLOAD SWAP1 MLOAD PUSH1 0x8 SWAP2 SWAP1 SWAP2 SHR PUSH1 0x1 PUSH1 0x1 PUSH1 0xA0 SHL SUB AND DUP2 MSTORE PUSH1 0x20 SWAP1 RETURN JUMPDEST DUP4 SWAP2 POP PUSH1 0x20 CALLDATASIZE PUSH1 0x3 NOT ADD SLT PUSH2 0x227 JUMPI DUP1 CALLDATALOAD PUSH2 0x124F PUSH2 0x1C51 JUMP JUMPDEST PUSH2 0x1266 PUSH1 0xFF PUSH1 0xA SLOAD PUSH2 0x9B2 DUP3 DUP3 PUSH1 0xA8 SHR AND ISZERO PUSH2 0x1B2E JUMP JUMPDEST PUSH2 0x1271 DUP2 ISZERO ISZERO PUSH2 0x1F06 JUMP JUMPDEST PUSH1 0x9 SLOAD SWAP2 DUP3 DUP3 GT PUSH2 0x139B JUMPI PUSH2 0x1285 DUP3 PUSH2 0x20D5 JUMP JUMPDEST SWAP1 PUSH1 0x64 DUP3 MUL DUP3 DUP2 DIV PUSH1 0x64 EQ DUP4 ISZERO OR ISZERO PUSH2 0x568 JUMPI DUP4 PUSH2 0x12AB PUSH2 0x26AC PUSH2 0x12DB SWAP4 DIV DUP1 SWAP6 PUSH2 0x1C44 JUMP JUMPDEST SWAP6 PUSH2 0x12B8 DUP8 CALLVALUE LT ISZERO PUSH2 0x1C05 JUMP JUMPDEST PUSH2 0x12C4 DUP3 PUSH1 0x7 SLOAD PUSH2 0x1C44 JUMP JUMPDEST PUSH1 0x7 SSTORE PUSH2 0x12D3 DUP8 PUSH1 0x8 SLOAD PUSH2 0x1C44 JUMP JUMPDEST PUSH1 0x8 SSTORE PUSH2 0x1BF8 JUMP JUMPDEST PUSH1 0x9 SSTORE PUSH2 0x1309 DUP4 CALLER PUSH32 0x0 PUSH2 0x1CA7 JUMP JUMPDEST PUSH2 0x1312 DUP3 PUSH2 0x216F JUMP JUMPDEST DUP4 CALLVALUE GT PUSH2 0x134A JUMPI JUMPDEST POP PUSH2 0xA9B PUSH32 0x7CA4A3CAD3BAC410861AF1B25202900FF3C8DD2174EAAA6C0EF89F2A04E65FD5 SWAP4 SWAP5 SWAP6 PUSH2 0x4EF PUSH2 0x1F88 JUMP JUMPDEST DUP5 DUP1 DUP1 DUP1 PUSH2 0x1358 DUP9 CALLVALUE PUSH2 0x1BF8 JUMP JUMPDEST CALLER GAS CALL PUSH2 0x1363 PUSH2 0x1DF2 JUMP JUMPDEST POP PUSH2 0x131A JUMPI PUSH1 0x64 SWAP1 PUSH1 0x20 DUP8 MLOAD SWAP2 PUSH3 0x461BCD PUSH1 0xE5 SHL DUP4 MSTORE DUP3 ADD MSTORE PUSH1 0xD PUSH1 0x24 DUP3 ADD MSTORE PUSH13 0x1499599D5B990819985A5B1959 PUSH1 0x9A SHL PUSH1 0x44 DUP3 ADD MSTORE REVERT JUMPDEST PUSH1 0x64 SWAP1 PUSH1 0x20 DUP7 MLOAD SWAP2 PUSH3 0x461BCD PUSH1 0xE5 SHL DUP4 MSTORE DUP3 ADD MSTORE PUSH1 0x11 PUSH1 0x24 DUP3 ADD MSTORE PUSH17 0x4578636565647320617661696C61626C65 PUSH1 0x78 SHL PUSH1 0x44 DUP3 ADD MSTORE REVERT JUMPDEST POP POP CALLVALUE PUSH2 0x227 JUMPI DUP2 PUSH1 0x3 NOT CALLDATASIZE ADD SLT PUSH2 0x227 JUMPI PUSH1 0x3 SLOAD SWAP1 MLOAD PUSH1 0x1 PUSH1 0x1 PUSH1 0xA0 SHL SUB SWAP1 SWAP2 AND DUP2 MSTORE PUSH1 0x20 SWAP1 RETURN JUMPDEST SWAP2 SWAP1 POP CALLVALUE PUSH2 0x31E JUMPI DUP3 PUSH1 0x3 NOT CALLDATASIZE ADD SLT PUSH2 0x31E JUMPI PUSH2 0x1416 PUSH2 0x1A9E JUMP JUMPDEST PUSH1 0xA SLOAD PUSH2 0x1425 PUSH1 0xFF DUP3 AND PUSH2 0x22E0 JUMP JUMPDEST PUSH1 0x8 SHR PUSH1 0x1 PUSH1 0x1 PUSH1 0xA0 SHL SUB SWAP1 DUP2 AND SWAP2 DUP3 ISZERO PUSH2 0x1A45 JUMPI PUSH1 0xFF PUSH1 0xD SLOAD PUSH1 0xA0 SHR AND PUSH2 0x1A13 JUMPI PUSH32 0x0 SWAP3 DUP3 DUP5 AND SWAP1 DUP3 MLOAD SWAP4 PUSH4 0x70A08231 PUSH1 0xE0 SHL SWAP3 DUP4 DUP7 MSTORE ADDRESS DUP9 DUP8 ADD MSTORE PUSH1 0x20 SWAP7 PUSH1 0x24 SWAP4 DUP9 DUP9 DUP7 DUP2 DUP7 GAS STATICCALL SWAP8 DUP9 ISZERO PUSH2 0x1A09 JUMPI DUP12 SWAP9 PUSH2 0x19D6 JUMPI JUMPDEST POP SELFBALANCE SWAP2 DUP9 ISZERO DUP1 ISZERO SWAP1 DUP2 DUP1 PUSH2 0x19CD JUMPI JUMPDEST ISZERO PUSH2 0x199C JUMPI SWAP1 PUSH2 0x191B JUMPI JUMPDEST ISZERO PUSH2 0x18BA JUMPI DUP8 MLOAD PUSH4 0x95EA7B3 PUSH1 0xE0 SHL DUP2 DUP13 ADD MSTORE PUSH1 0x1 PUSH1 0x1 PUSH1 0xA0 SHL SUB SWAP1 SWAP3 AND DUP7 DUP4 ADD SWAP1 DUP2 MSTORE PUSH1 0x20 DUP2 ADD DUP11 SWAP1 MSTORE PUSH2 0x1504 SWAP3 SWAP2 SWAP1 PUSH2 0x14FF SWAP1 DUP4 SWAP1 PUSH1 0x40 ADD JUMPDEST SUB PUSH1 0x1F NOT DUP2 ADD DUP5 MSTORE DUP4 PUSH2 0x1AF6 JUMP JUMPDEST PUSH2 0x1CFA JUMP JUMPDEST DUP3 PUSH1 0xA SLOAD PUSH1 0x8 SHR AND PUSH2 0xE10 TIMESTAMP ADD DUP1 TIMESTAMP GT PUSH2 0x18A8 JUMPI SWAP3 PUSH1 0xC4 DUP12 DUP3 SWAP5 PUSH1 0x60 SWAP5 DUP16 SWAP9 SWAP8 DUP13 MLOAD SWAP14 DUP15 SWAP7 DUP8 SWAP6 PUSH4 0xF305D719 PUSH1 0xE0 SHL DUP8 MSTORE DUP7 ADD MSTORE DUP1 DUP13 DUP7 ADD MSTORE PUSH1 0x44 DUP6 ADD MSTORE DUP3 PUSH1 0x64 DUP6 ADD MSTORE ADDRESS PUSH1 0x84 DUP6 ADD MSTORE PUSH1 0xA4 DUP5 ADD MSTORE GAS CALL DUP1 ISZERO PUSH2 0x189E JUMPI DUP4 SWAP1 DUP5 SWAP9 DUP6 SWAP2 PUSH2 0x1842 JUMPI JUMPDEST POP PUSH32 0x7D6DF569E0F84786358976A64CD2B9D072436FDD44C7EAEAFC6859E69E751B5F SWAP2 PUSH1 0x60 SWAP2 PUSH1 0xD SLOAD SWAP11 PUSH1 0x1 PUSH1 0xA0 SHL SWAP8 DUP9 DUP14 PUSH1 0xFF PUSH1 0xA0 SHL NOT AND OR PUSH1 0xD SSTORE PUSH1 0x9 SSTORE DUP11 MLOAD SWAP3 DUP4 MSTORE DUP13 DUP4 ADD MSTORE DUP10 DUP3 ADD MSTORE LOG1 PUSH1 0xA SLOAD DUP7 MLOAD PUSH4 0xC45A0155 PUSH1 0xE0 SHL DUP2 MSTORE SWAP2 SWAP1 PUSH1 0x8 SHR DUP4 AND DUP10 DUP4 DUP13 DUP2 DUP5 GAS STATICCALL SWAP3 DUP13 DUP5 ISZERO PUSH2 0x1818 JUMPI SWAP2 DUP12 SWAP2 DUP14 SWAP6 SWAP5 SWAP4 SWAP5 PUSH2 0x1823 JUMPI JUMPDEST POP DUP10 MLOAD PUSH4 0x15AB88C9 PUSH1 0xE3 SHL DUP2 MSTORE SWAP5 DUP6 SWAP2 DUP3 SWAP1 GAS STATICCALL SWAP3 DUP13 DUP5 ISZERO PUSH2 0x1818 JUMPI SWAP2 DUP12 SWAP4 SWAP2 PUSH2 0x1647 SWAP6 PUSH2 0x17F9 JUMPI JUMPDEST POP DUP10 MLOAD PUSH4 0xE6A43905 PUSH1 0xE0 SHL DUP2 MSTORE PUSH1 0x1 PUSH1 0x1 PUSH1 0xA0 SHL SUB SWAP2 DUP3 AND DUP15 DUP3 ADD SWAP1 DUP2 MSTORE SWAP4 SWAP1 SWAP2 AND PUSH1 0x20 DUP5 ADD MSTORE SWAP4 DUP5 SWAP3 DUP4 SWAP2 DUP8 SWAP2 DUP4 SWAP2 PUSH1 0x40 SWAP1 SWAP2 ADD SWAP1 JUMP JUMPDEST SUB SWAP3 AND GAS STATICCALL SWAP1 DUP2 ISZERO PUSH2 0x17EF JUMPI DUP11 SWAP2 PUSH2 0x17C2 JUMPI JUMPDEST POP AND SWAP5 DUP6 ISZERO PUSH2 0x178D JUMPI PUSH1 0x1 PUSH1 0x1 PUSH1 0xA8 SHL SUB NOT AND DUP6 OR OR PUSH1 0xD SSTORE DUP3 MLOAD SWAP2 DUP3 MSTORE ADDRESS DUP7 DUP4 ADD MSTORE DUP5 DUP3 DUP3 DUP2 DUP8 GAS STATICCALL SWAP2 DUP3 ISZERO PUSH2 0x1783 JUMPI DUP8 SWAP3 PUSH2 0x1750 JUMPI JUMPDEST POP DUP2 PUSH2 0x16C6 JUMPI JUMPDEST POP POP PUSH32 0xC950ECA7EBEF0C17A14892FF3F205BB3188BC3DDCD1D50F7E72595EBE8E913FA SWAP4 POP MLOAD SWAP1 DUP2 MSTORE LOG1 DUP1 RETURN JUMPDEST PUSH2 0xDEAD DUP4 MLOAD SWAP7 PUSH4 0xA9059CBB PUSH1 0xE0 SHL DUP9 MSTORE DUP8 ADD MSTORE DUP6 ADD MSTORE DUP3 DUP5 PUSH1 0x44 DUP2 DUP9 DUP7 GAS CALL SWAP4 DUP5 ISZERO PUSH2 0x1746 JUMPI PUSH32 0xC950ECA7EBEF0C17A14892FF3F205BB3188BC3DDCD1D50F7E72595EBE8E913FA SWAP5 PUSH2 0x1719 JUMPI JUMPDEST DUP1 PUSH2 0x1699 JUMP JUMPDEST PUSH2 0x1738 SWAP1 DUP5 RETURNDATASIZE DUP7 GT PUSH2 0x173F JUMPI JUMPDEST PUSH2 0x1730 DUP2 DUP4 PUSH2 0x1AF6 JUMP JUMPDEST DUP2 ADD SWAP1 PUSH2 0x1CE2 JUMP JUMPDEST POP CODESIZE PUSH2 0x1713 JUMP JUMPDEST POP RETURNDATASIZE PUSH2 0x1726 JUMP JUMPDEST DUP2 MLOAD RETURNDATASIZE DUP8 DUP3 RETURNDATACOPY RETURNDATASIZE SWAP1 REVERT JUMPDEST SWAP1 SWAP2 POP DUP5 DUP2 DUP2 RETURNDATASIZE DUP4 GT PUSH2 0x177C JUMPI JUMPDEST PUSH2 0x1768 DUP2 DUP4 PUSH2 0x1AF6 JUMP JUMPDEST DUP2 ADD SUB SLT PUSH2 0x1778 JUMPI MLOAD SWAP1 CODESIZE PUSH2 0x1692 JUMP JUMPDEST DUP7 DUP1 REVERT JUMPDEST POP RETURNDATASIZE PUSH2 0x175E JUMP JUMPDEST DUP4 MLOAD RETURNDATASIZE DUP10 DUP3 RETURNDATACOPY RETURNDATASIZE SWAP1 REVERT JUMPDEST DUP5 MLOAD PUSH3 0x461BCD PUSH1 0xE5 SHL DUP2 MSTORE DUP1 DUP10 ADD DUP9 SWAP1 MSTORE PUSH1 0x10 DUP2 DUP6 ADD MSTORE PUSH16 0x14185A5C881B9BDD0818DC99585D1959 PUSH1 0x82 SHL PUSH1 0x44 DUP3 ADD MSTORE PUSH1 0x64 SWAP1 REVERT JUMPDEST PUSH2 0x17E2 SWAP2 POP DUP9 RETURNDATASIZE DUP11 GT PUSH2 0x17E8 JUMPI JUMPDEST PUSH2 0x17DA DUP2 DUP4 PUSH2 0x1AF6 JUMP JUMPDEST DUP2 ADD SWAP1 PUSH2 0x231C JUMP JUMPDEST CODESIZE PUSH2 0x165A JUMP JUMPDEST POP RETURNDATASIZE PUSH2 0x17D0 JUMP JUMPDEST DUP7 MLOAD RETURNDATASIZE DUP13 DUP3 RETURNDATACOPY RETURNDATASIZE SWAP1 REVERT JUMPDEST PUSH2 0x1811 SWAP2 SWAP4 POP DUP5 RETURNDATASIZE DUP7 GT PUSH2 0x17E8 JUMPI PUSH2 0x17DA DUP2 DUP4 PUSH2 0x1AF6 JUMP JUMPDEST SWAP2 CODESIZE PUSH2 0x160F JUMP JUMPDEST DUP10 MLOAD SWAP1 RETURNDATASIZE SWAP1 DUP3 RETURNDATACOPY RETURNDATASIZE SWAP1 REVERT JUMPDEST PUSH2 0x183B SWAP2 SWAP5 POP DUP3 RETURNDATASIZE DUP5 GT PUSH2 0x17E8 JUMPI PUSH2 0x17DA DUP2 DUP4 PUSH2 0x1AF6 JUMP JUMPDEST SWAP3 CODESIZE PUSH2 0x15E6 JUMP JUMPDEST SWAP9 POP POP POP PUSH1 0x60 DUP8 RETURNDATASIZE DUP3 GT PUSH2 0x1896 JUMPI JUMPDEST DUP2 PUSH2 0x185E PUSH1 0x60 SWAP4 DUP4 PUSH2 0x1AF6 JUMP JUMPDEST DUP2 ADD SUB SLT PUSH2 0x31E JUMPI DUP7 MLOAD DUP9 DUP9 ADD MLOAD SWAP8 DUP8 ADD MLOAD PUSH32 0x7D6DF569E0F84786358976A64CD2B9D072436FDD44C7EAEAFC6859E69E751B5F PUSH2 0x1566 JUMP JUMPDEST RETURNDATASIZE SWAP2 POP PUSH2 0x1851 JUMP JUMPDEST DUP7 MLOAD RETURNDATASIZE DUP6 DUP3 RETURNDATACOPY RETURNDATASIZE SWAP1 REVERT JUMPDEST PUSH4 0x4E487B71 PUSH1 0xE0 SHL DUP13 MSTORE PUSH1 0x11 DUP12 MSTORE DUP6 DUP13 REVERT JUMPDEST DUP8 MLOAD PUSH3 0x461BCD PUSH1 0xE5 SHL DUP2 MSTORE DUP1 DUP13 ADD DUP12 SWAP1 MSTORE PUSH1 0x36 DUP2 DUP9 ADD MSTORE PUSH32 0x5361666545524332303A20617070726F76652066726F6D206E6F6E2D7A65726F PUSH1 0x44 DUP3 ADD MSTORE PUSH22 0x20746F206E6F6E2D7A65726F20616C6C6F77616E6365 PUSH1 0x50 SHL PUSH1 0x64 DUP3 ADD MSTORE PUSH1 0x84 SWAP1 REVERT JUMPDEST POP DUP8 MLOAD PUSH4 0x6EB1769F PUSH1 0xE1 SHL DUP2 MSTORE ADDRESS DUP2 DUP14 ADD SWAP1 DUP2 MSTORE PUSH1 0x1 PUSH1 0x1 PUSH1 0xA0 SHL SUB DUP5 AND PUSH1 0x20 DUP3 ADD MSTORE DUP12 SWAP1 DUP3 SWAP1 DUP2 SWAP1 PUSH1 0x40 ADD SUB DUP2 DUP9 GAS STATICCALL SWAP1 DUP2 ISZERO PUSH2 0x1992 JUMPI DUP14 SWAP2 PUSH2 0x1961 JUMPI JUMPDEST POP ISZERO PUSH2 0x14B6 JUMP JUMPDEST SWAP1 POP DUP11 DUP2 DUP2 RETURNDATASIZE DUP4 GT PUSH2 0x198B JUMPI JUMPDEST PUSH2 0x1978 DUP2 DUP4 PUSH2 0x1AF6 JUMP JUMPDEST DUP2 ADD SUB SLT PUSH2 0x1987 JUMPI MLOAD CODESIZE PUSH2 0x195A JUMP JUMPDEST DUP13 DUP1 REVERT JUMPDEST POP RETURNDATASIZE PUSH2 0x196E JUMP JUMPDEST DUP10 MLOAD RETURNDATASIZE DUP16 DUP3 RETURNDATACOPY RETURNDATASIZE SWAP1 REVERT JUMPDEST DUP10 MLOAD PUSH3 0x461BCD PUSH1 0xE5 SHL DUP2 MSTORE DUP1 DUP15 ADD DUP14 SWAP1 MSTORE PUSH1 0xC DUP2 DUP11 ADD MSTORE PUSH12 0x4E6F206C6971756964697479 PUSH1 0xA0 SHL PUSH1 0x44 DUP3 ADD MSTORE PUSH1 0x64 SWAP1 REVERT JUMPDEST POP DUP5 ISZERO ISZERO PUSH2 0x14AB JUMP JUMPDEST SWAP1 SWAP8 POP DUP9 DUP2 DUP2 RETURNDATASIZE DUP4 GT PUSH2 0x1A02 JUMPI JUMPDEST PUSH2 0x19EE DUP2 DUP4 PUSH2 0x1AF6 JUMP JUMPDEST DUP2 ADD SUB SLT PUSH2 0x19FE JUMPI MLOAD SWAP7 CODESIZE PUSH2 0x149C JUMP JUMPDEST DUP11 DUP1 REVERT JUMPDEST POP RETURNDATASIZE PUSH2 0x19E4 JUMP JUMPDEST DUP8 MLOAD RETURNDATASIZE DUP14 DUP3 RETURNDATACOPY RETURNDATASIZE SWAP1 REVERT JUMPDEST MLOAD PUSH3 0x461BCD PUSH1 0xE5 SHL DUP2 MSTORE PUSH1 0x20 DUP2 DUP6 ADD MSTORE PUSH1 0xD PUSH1 0x24 DUP3 ADD MSTORE PUSH13 0x105B1C9958591E481859191959 PUSH1 0x9A SHL PUSH1 0x44 DUP3 ADD MSTORE PUSH1 0x64 SWAP1 REVERT JUMPDEST MLOAD PUSH3 0x461BCD PUSH1 0xE5 SHL DUP2 MSTORE PUSH1 0x20 DUP2 DUP6 ADD MSTORE PUSH1 0x12 PUSH1 0x24 DUP3 ADD MSTORE PUSH18 0x111156081C9BDD5D195C881B9BDD081CD95D PUSH1 0x72 SHL PUSH1 0x44 DUP3 ADD MSTORE PUSH1 0x64 SWAP1 REVERT JUMPDEST CALLVALUE PUSH2 0x1A99 JUMPI PUSH1 0x0 CALLDATASIZE PUSH1 0x3 NOT ADD SLT PUSH2 0x1A99 JUMPI PUSH1 0x20 PUSH1 0x40 MLOAD PUSH2 0x1388 DUP2 MSTORE RETURN JUMPDEST PUSH1 0x0 DUP1 REVERT JUMPDEST PUSH1 0x0 SLOAD PUSH1 0x1 PUSH1 0x1 PUSH1 0xA0 SHL SUB AND CALLER SUB PUSH2 0x1AB2 JUMPI JUMP JUMPDEST PUSH1 0x64 PUSH1 0x40 MLOAD PUSH3 0x461BCD PUSH1 0xE5 SHL DUP2 MSTORE PUSH1 0x20 PUSH1 0x4 DUP3 ADD MSTORE PUSH1 0x20 PUSH1 0x24 DUP3 ADD MSTORE PUSH32 0x4F776E61626C653A2063616C6C6572206973206E6F7420746865206F776E6572 PUSH1 0x44 DUP3 ADD MSTORE REVERT JUMPDEST SWAP1 PUSH1 0x1F DUP1 NOT SWAP2 ADD AND DUP2 ADD SWAP1 DUP2 LT PUSH8 0xFFFFFFFFFFFFFFFF DUP3 GT OR PUSH2 0x1B18 JUMPI PUSH1 0x40 MSTORE JUMP JUMPDEST PUSH4 0x4E487B71 PUSH1 0xE0 SHL PUSH1 0x0 MSTORE PUSH1 0x41 PUSH1 0x4 MSTORE PUSH1 0x24 PUSH1 0x0 REVERT JUMPDEST ISZERO PUSH2 0x1B35 JUMPI JUMP JUMPDEST PUSH1 0x40 MLOAD PUSH3 0x461BCD PUSH1 0xE5 SHL DUP2 MSTORE PUSH1 0x20 PUSH1 0x4 DUP3 ADD MSTORE PUSH1 0x12 PUSH1 0x24 DUP3 ADD MSTORE PUSH18 0x10DBDB9D1C9858DD081A5CC81C185D5CD959 PUSH1 0x72 SHL PUSH1 0x44 DUP3 ADD MSTORE PUSH1 0x64 SWAP1 REVERT JUMPDEST ISZERO PUSH2 0x1B76 JUMPI JUMP JUMPDEST PUSH1 0x40 MLOAD PUSH3 0x461BCD PUSH1 0xE5 SHL DUP2 MSTORE PUSH1 0x20 PUSH1 0x4 DUP3 ADD MSTORE PUSH1 0x11 PUSH1 0x24 DUP3 ADD MSTORE PUSH17 0x105B1C9958591E4819DC98591D585D1959 PUSH1 0x7A SHL PUSH1 0x44 DUP3 ADD MSTORE PUSH1 0x64 SWAP1 REVERT JUMPDEST DUP2 DUP2 MUL SWAP3 SWAP2 DUP2 ISZERO SWAP2 DUP5 DIV EQ OR ISZERO PUSH2 0x1BC2 JUMPI JUMP JUMPDEST PUSH4 0x4E487B71 PUSH1 0xE0 SHL PUSH1 0x0 MSTORE PUSH1 0x11 PUSH1 0x4 MSTORE PUSH1 0x24 PUSH1 0x0 REVERT JUMPDEST DUP2 ISZERO PUSH2 0x1BE2 JUMPI DIV SWAP1 JUMP JUMPDEST PUSH4 0x4E487B71 PUSH1 0xE0 SHL PUSH1 0x0 MSTORE PUSH1 0x12 PUSH1 0x4 MSTORE PUSH1 0x24 PUSH1 0x0 REVERT JUMPDEST SWAP2 SWAP1 DUP3 SUB SWAP2 DUP3 GT PUSH2 0x1BC2 JUMPI JUMP JUMPDEST ISZERO PUSH2 0x1C0C JUMPI JUMP JUMPDEST PUSH1 0x40 MLOAD PUSH3 0x461BCD PUSH1 0xE5 SHL DUP2 MSTORE PUSH1 0x20 PUSH1 0x4 DUP3 ADD MSTORE PUSH1 0x10 PUSH1 0x24 DUP3 ADD MSTORE PUSH16 0x92DCE6EACCCCD2C6D2CADCE8408AA89 PUSH1 0x83 SHL PUSH1 0x44 DUP3 ADD MSTORE PUSH1 0x64 SWAP1 REVERT JUMPDEST SWAP2 SWAP1 DUP3 ADD DUP1 SWAP3 GT PUSH2 0x1BC2 JUMPI JUMP JUMPDEST PUSH1 0x2 PUSH1 0x1 SLOAD EQ PUSH2 0x1C62 JUMPI PUSH1 0x2 PUSH1 0x1 SSTORE JUMP JUMPDEST PUSH1 0x40 MLOAD PUSH3 0x461BCD PUSH1 0xE5 SHL DUP2 MSTORE PUSH1 0x20 PUSH1 0x4 DUP3 ADD MSTORE PUSH1 0x1F PUSH1 0x24 DUP3 ADD MSTORE PUSH32 0x5265656E7472616E637947756172643A207265656E7472616E742063616C6C00 PUSH1 0x44 DUP3 ADD MSTORE PUSH1 0x64 SWAP1 REVERT JUMPDEST PUSH1 0x40 MLOAD PUSH4 0xA9059CBB PUSH1 0xE0 SHL PUSH1 0x20 DUP3 ADD MSTORE PUSH1 0x1 PUSH1 0x1 PUSH1 0xA0 SHL SUB SWAP1 SWAP3 AND PUSH1 0x24 DUP4 ADD MSTORE PUSH1 0x44 DUP3 ADD SWAP3 SWAP1 SWAP3 MSTORE PUSH2 0x1CE0 SWAP2 PUSH2 0x14FF DUP3 PUSH1 0x64 DUP2 ADD PUSH2 0x14F1 JUMP JUMPDEST JUMP JUMPDEST SWAP1 DUP2 PUSH1 0x20 SWAP2 SUB SLT PUSH2 0x1A99 JUMPI MLOAD DUP1 ISZERO ISZERO DUP2 SUB PUSH2 0x1A99 JUMPI SWAP1 JUMP JUMPDEST PUSH1 0x40 DUP1 MLOAD SWAP1 DUP2 ADD SWAP2 PUSH1 0x1 PUSH1 0x1 PUSH1 0xA0 SHL SUB AND PUSH8 0xFFFFFFFFFFFFFFFF DUP4 GT DUP3 DUP5 LT OR PUSH2 0x1B18 JUMPI PUSH2 0x1D6A SWAP3 PUSH1 0x40 MSTORE PUSH1 0x0 DUP1 PUSH1 0x20 SWAP6 DUP7 DUP6 MSTORE PUSH32 0x5361666545524332303A206C6F772D6C6576656C2063616C6C206661696C6564 DUP8 DUP7 ADD MSTORE DUP7 DUP2 MLOAD SWAP2 ADD DUP3 DUP6 GAS CALL PUSH2 0x1D64 PUSH2 0x1DF2 JUMP JUMPDEST SWAP2 PUSH2 0x1E32 JUMP JUMPDEST DUP1 MLOAD SWAP1 DUP3 DUP3 ISZERO SWAP3 DUP4 ISZERO PUSH2 0x1DDA JUMPI JUMPDEST POP POP POP ISZERO PUSH2 0x1D83 JUMPI POP JUMP JUMPDEST PUSH1 0x84 SWAP1 PUSH1 0x40 MLOAD SWAP1 PUSH3 0x461BCD PUSH1 0xE5 SHL DUP3 MSTORE PUSH1 0x4 DUP3 ADD MSTORE PUSH1 0x2A PUSH1 0x24 DUP3 ADD MSTORE PUSH32 0x5361666545524332303A204552433230206F7065726174696F6E20646964206E PUSH1 0x44 DUP3 ADD MSTORE PUSH10 0x1BDD081CDD58D8D95959 PUSH1 0xB2 SHL PUSH1 0x64 DUP3 ADD MSTORE REVERT JUMPDEST PUSH2 0x1DEA SWAP4 POP DUP3 ADD DUP2 ADD SWAP2 ADD PUSH2 0x1CE2 JUMP JUMPDEST CODESIZE DUP3 DUP2 PUSH2 0x1D78 JUMP JUMPDEST RETURNDATASIZE ISZERO PUSH2 0x1E2D JUMPI RETURNDATASIZE SWAP1 PUSH8 0xFFFFFFFFFFFFFFFF DUP3 GT PUSH2 0x1B18 JUMPI PUSH1 0x40 MLOAD SWAP2 PUSH2 0x1E21 PUSH1 0x1F DUP3 ADD PUSH1 0x1F NOT AND PUSH1 0x20 ADD DUP5 PUSH2 0x1AF6 JUMP JUMPDEST DUP3 MSTORE RETURNDATASIZE PUSH1 0x0 PUSH1 0x20 DUP5 ADD RETURNDATACOPY JUMP JUMPDEST PUSH1 0x60 SWAP1 JUMP JUMPDEST SWAP2 SWAP3 SWAP1 ISZERO PUSH2 0x1E94 JUMPI POP DUP2 MLOAD ISZERO PUSH2 0x1E46 JUMPI POP SWAP1 JUMP JUMPDEST EXTCODESIZE ISZERO PUSH2 0x1E4F JUMPI SWAP1 JUMP JUMPDEST PUSH1 0x40 MLOAD PUSH3 0x461BCD PUSH1 0xE5 SHL DUP2 MSTORE PUSH1 0x20 PUSH1 0x4 DUP3 ADD MSTORE PUSH1 0x1D PUSH1 0x24 DUP3 ADD MSTORE PUSH32 0x416464726573733A2063616C6C20746F206E6F6E2D636F6E7472616374000000 PUSH1 0x44 DUP3 ADD MSTORE PUSH1 0x64 SWAP1 REVERT JUMPDEST DUP3 MLOAD SWAP1 SWAP2 POP ISZERO PUSH2 0x1EA7 JUMPI POP DUP1 MLOAD SWAP1 PUSH1 0x20 ADD REVERT JUMPDEST PUSH1 0x40 MLOAD SWAP1 PUSH3 0x461BCD PUSH1 0xE5 SHL DUP3 MSTORE DUP2 PUSH1 0x20 DUP1 PUSH1 0x4 DUP4 ADD MSTORE DUP3 MLOAD SWAP1 DUP2 PUSH1 0x24 DUP5 ADD MSTORE PUSH1 0x0 SWAP4 JUMPDEST DUP3 DUP6 LT PUSH2 0x1EED JUMPI POP POP PUSH1 0x44 SWAP3 POP PUSH1 0x0 DUP4 DUP3 DUP5 ADD ADD MSTORE PUSH1 0x1F DUP1 NOT SWAP2 ADD AND DUP2 ADD SUB ADD SWAP1 REVERT JUMPDEST DUP5 DUP2 ADD DUP3 ADD MLOAD DUP7 DUP7 ADD PUSH1 0x44 ADD MSTORE SWAP4 DUP2 ADD SWAP4 DUP6 SWAP4 POP PUSH2 0x1ECA JUMP JUMPDEST ISZERO PUSH2 0x1F0D JUMPI JUMP JUMPDEST PUSH1 0x40 MLOAD PUSH3 0x461BCD PUSH1 0xE5 SHL DUP2 MSTORE PUSH1 0x20 PUSH1 0x4 DUP3 ADD MSTORE PUSH1 0x12 PUSH1 0x24 DUP3 ADD MSTORE PUSH18 0x416D6F756E74206D757374206265203E203 PUSH1 0x74 SHL PUSH1 0x44 DUP3 ADD MSTORE PUSH1 0x64 SWAP1 REVERT JUMPDEST PUSH1 0x6 SLOAD DUP1 ISZERO PUSH2 0x1F82 JUMPI PUSH1 0x8 SLOAD PUSH2 0x2710 SWAP2 DUP3 DUP3 MUL SWAP2 DUP1 DUP4 DIV DUP5 EQ SWAP1 ISZERO OR ISZERO PUSH2 0x1BC2 JUMPI PUSH2 0x1F71 SWAP2 PUSH2 0x1BD8 JUMP JUMPDEST DUP2 DUP2 GT ISZERO PUSH2 0x1F7D JUMPI POP SWAP1 JUMP JUMPDEST SWAP1 POP SWAP1 JUMP JUMPDEST POP PUSH1 0x0 SWAP1 JUMP JUMPDEST PUSH2 0x1FA3 PUSH1 0x4 SLOAD PUSH2 0x1F9D PUSH1 0x5 SLOAD PUSH1 0x7 SLOAD SWAP1 PUSH2 0x1BAF JUMP JUMPDEST SWAP1 PUSH2 0x1C44 JUMP JUMPDEST SWAP1 JUMP JUMPDEST DUP1 ISZERO PUSH2 0x1F82 JUMPI PUSH8 0xDE0B6B3A7640000 SWAP1 DUP2 PUSH1 0x7 SLOAD DIV SWAP1 PUSH1 0x5 SLOAD PUSH1 0x4 SWAP3 DUP4 SLOAD SWAP1 DUP2 PUSH1 0x1 SHL SWAP2 DUP1 DUP4 DIV PUSH1 0x2 EQ SWAP1 ISZERO OR ISZERO PUSH2 0x20C0 JUMPI PUSH2 0x1FE2 SWAP1 DUP4 PUSH2 0x1BAF JUMP JUMPDEST SWAP1 DUP2 PUSH1 0x1 SHL SWAP2 DUP1 DUP4 DIV PUSH1 0x2 EQ SWAP1 ISZERO OR ISZERO PUSH2 0x20C0 JUMPI SWAP1 PUSH2 0x2000 SWAP2 PUSH2 0x1C44 JUMP JUMPDEST SWAP2 DUP1 PUSH1 0x3 SHL SWAP1 DUP2 DIV PUSH1 0x8 SUB PUSH2 0x20AB JUMPI PUSH2 0x202A PUSH2 0x202F SWAP2 PUSH2 0x1F9D PUSH2 0x2023 DUP7 DUP1 PUSH2 0x1BAF JUMP JUMPDEST SWAP2 DUP6 PUSH2 0x1BAF JUMP JUMPDEST PUSH2 0x24CC JUMP JUMPDEST PUSH1 0x0 SWAP3 SWAP1 DUP2 DUP2 GT ISZERO PUSH2 0x20A3 JUMPI PUSH2 0x2046 SWAP3 SWAP4 POP PUSH2 0x1BF8 JUMP JUMPDEST SWAP1 PUSH1 0x1 PUSH1 0x1 PUSH1 0xFF SHL SUB DUP2 AND DUP2 SUB PUSH2 0x208E JUMPI SWAP1 PUSH2 0x2065 SWAP2 PUSH1 0x1 SHL SWAP1 PUSH2 0x1BD8 JUMP JUMPDEST DUP3 DUP2 MUL SWAP3 DUP2 DUP5 DIV EQ SWAP1 ISZERO OR ISZERO PUSH2 0x2079 JUMPI POP SWAP1 JUMP JUMPDEST PUSH1 0x11 SWAP1 PUSH4 0x4E487B71 PUSH1 0xE0 SHL PUSH1 0x0 MSTORE MSTORE PUSH1 0x24 PUSH1 0x0 REVERT JUMPDEST PUSH1 0x11 DUP4 PUSH4 0x4E487B71 PUSH1 0xE0 SHL PUSH1 0x0 MSTORE MSTORE PUSH1 0x24 PUSH1 0x0 REVERT JUMPDEST POP POP POP PUSH2 0x2065 JUMP JUMPDEST PUSH1 0x11 DUP5 PUSH4 0x4E487B71 PUSH1 0xE0 SHL PUSH1 0x0 MSTORE MSTORE PUSH1 0x24 PUSH1 0x0 REVERT JUMPDEST PUSH1 0x11 DUP6 PUSH4 0x4E487B71 PUSH1 0xE0 SHL PUSH1 0x0 MSTORE MSTORE PUSH1 0x24 PUSH1 0x0 REVERT JUMPDEST PUSH8 0xDE0B6B3A7640000 DUP1 SWAP2 DIV SWAP1 PUSH1 0x7 SLOAD DIV SWAP1 PUSH2 0x20F3 DUP2 PUSH1 0x4 SLOAD PUSH2 0x1BAF JUMP JUMPDEST PUSH1 0x5 SLOAD SWAP1 SWAP2 SWAP1 PUSH1 0x1 PUSH1 0x1 PUSH1 0xFF SHL SUB DUP5 AND DUP5 SUB PUSH2 0x1BC2 JUMPI PUSH2 0x212A DUP3 PUSH2 0x1F9D PUSH2 0x2123 PUSH2 0x2130 SWAP6 PUSH2 0x1FA3 SWAP9 PUSH1 0x1 SHL PUSH2 0x1BAF JUMP JUMPDEST SWAP2 DUP1 PUSH2 0x1BAF JUMP JUMPDEST SWAP1 PUSH2 0x1BAF JUMP JUMPDEST PUSH1 0x1 SHR SWAP1 PUSH2 0x1C44 JUMP JUMPDEST PUSH1 0x7 SLOAD DUP2 DUP2 LT PUSH2 0x2168 JUMPI DUP2 SWAP1 PUSH2 0x2159 PUSH8 0xDE0B6B3A7640000 SWAP3 DUP4 SWAP3 PUSH2 0x1BF8 JUMP JUMPDEST DIV SWAP2 DIV PUSH2 0x20F3 DUP2 PUSH1 0x4 SLOAD PUSH2 0x1BAF JUMP JUMPDEST POP POP PUSH1 0x0 SWAP1 JUMP JUMPDEST DUP1 ISZERO PUSH2 0x229C JUMPI PUSH2 0x1388 DUP2 MUL PUSH2 0x1387 NOT DUP3 DUP3 DIV ADD PUSH2 0x1BC2 JUMPI PUSH2 0x2710 PUSH2 0x2195 SWAP2 DIV DUP1 SWAP3 PUSH2 0x1BF8 JUMP JUMPDEST SWAP1 DUP1 PUSH2 0x221C JUMPI JUMPDEST POP DUP1 PUSH2 0x21A5 JUMPI POP JUMP JUMPDEST PUSH1 0x0 PUSH1 0x1 DUP1 PUSH1 0xA0 SHL SUB SWAP1 DUP1 DUP1 DUP1 DUP1 DUP7 DUP7 PUSH1 0x2 SLOAD AND GAS CALL PUSH2 0x21C3 PUSH2 0x1DF2 JUMP JUMPDEST POP ISZERO PUSH2 0x21CE JUMPI POP POP POP JUMP JUMPDEST DUP2 PUSH1 0x40 PUSH1 0x20 SWAP3 PUSH32 0xB34171A8C0ED2C9D3B07233081B6AA6240A6E90CFF3F7BFAD76B07664538197B SWAP5 PUSH1 0x2 SLOAD AND DUP2 MSTORE PUSH1 0xB DUP5 MSTORE KECCAK256 PUSH2 0x220C DUP6 DUP3 SLOAD PUSH2 0x1C44 JUMP JUMPDEST SWAP1 SSTORE PUSH1 0x2 SLOAD AND SWAP3 PUSH1 0x40 MLOAD SWAP1 DUP2 MSTORE LOG2 JUMP JUMPDEST PUSH1 0x0 PUSH1 0x1 DUP1 PUSH1 0xA0 SHL SUB SWAP1 DUP1 DUP1 DUP1 DUP1 DUP7 DUP7 PUSH1 0x3 SLOAD AND GAS CALL PUSH2 0x223A PUSH2 0x1DF2 JUMP JUMPDEST POP ISZERO PUSH2 0x2248 JUMPI JUMPDEST POP POP PUSH2 0x219C JUMP JUMPDEST DUP2 PUSH1 0x40 PUSH1 0x20 SWAP3 PUSH32 0xB34171A8C0ED2C9D3B07233081B6AA6240A6E90CFF3F7BFAD76B07664538197B SWAP5 PUSH1 0x3 SLOAD AND DUP2 MSTORE PUSH1 0xB DUP5 MSTORE KECCAK256 PUSH2 0x2286 DUP6 DUP3 SLOAD PUSH2 0x1C44 JUMP JUMPDEST SWAP1 SSTORE PUSH1 0x3 SLOAD AND SWAP3 PUSH1 0x40 MLOAD SWAP1 DUP2 MSTORE LOG2 CODESIZE DUP1 DUP1 PUSH2 0x2241 JUMP JUMPDEST POP JUMP JUMPDEST PUSH1 0x1 PUSH1 0xFF NOT PUSH1 0xA SLOAD AND OR PUSH1 0xA SSTORE PUSH32 0xACFDCE92DA76539F5AF2EFC3AA76D42A7A92AF4D723A23D144F58FDF1472921E PUSH1 0x40 SELFBALANCE PUSH1 0x9 SLOAD DUP3 MLOAD SWAP2 DUP3 MSTORE PUSH1 0x20 DUP3 ADD MSTORE LOG1 JUMP JUMPDEST ISZERO PUSH2 0x22E7 JUMPI JUMP JUMPDEST PUSH1 0x40 MLOAD PUSH3 0x461BCD PUSH1 0xE5 SHL DUP2 MSTORE PUSH1 0x20 PUSH1 0x4 DUP3 ADD MSTORE PUSH1 0xD PUSH1 0x24 DUP3 ADD MSTORE PUSH13 0x139BDD0819DC98591D585D1959 PUSH1 0x9A SHL PUSH1 0x44 DUP3 ADD MSTORE PUSH1 0x64 SWAP1 REVERT JUMPDEST SWAP1 DUP2 PUSH1 0x20 SWAP2 SUB SLT PUSH2 0x1A99 JUMPI MLOAD PUSH1 0x1 PUSH1 0x1 PUSH1 0xA0 SHL SUB DUP2 AND DUP2 SUB PUSH2 0x1A99 JUMPI SWAP1 JUMP JUMPDEST PUSH1 0xD SLOAD PUSH1 0x1 PUSH1 0x1 PUSH1 0xA0 SHL SUB SWAP1 DUP2 AND DUP1 PUSH2 0x1F7D JUMPI POP DUP1 PUSH1 0xA SLOAD PUSH1 0x8 SHR AND SWAP1 DUP2 ISZERO PUSH2 0x2168 JUMPI PUSH1 0x40 DUP1 MLOAD PUSH4 0xC45A0155 PUSH1 0xE0 SHL DUP2 MSTORE SWAP1 SWAP3 PUSH1 0x20 SWAP2 DUP3 DUP2 PUSH1 0x4 DUP2 DUP6 GAS STATICCALL SWAP1 DUP2 ISZERO PUSH2 0x2464 JUMPI DUP4 SWAP1 PUSH1 0x0 SWAP3 PUSH2 0x246F JUMPI JUMPDEST POP DUP6 MLOAD PUSH4 0x15AB88C9 PUSH1 0xE3 SHL DUP2 MSTORE SWAP2 SWAP3 DUP3 SWAP1 PUSH1 0x4 SWAP1 DUP3 SWAP1 GAS STATICCALL SWAP1 DUP2 ISZERO PUSH2 0x2464 JUMPI SWAP2 PUSH2 0x240E SWAP2 DUP5 SWAP4 PUSH1 0x0 SWAP2 PUSH2 0x2447 JUMPI JUMPDEST POP DUP7 MLOAD PUSH4 0xE6A43905 PUSH1 0xE0 SHL DUP2 MSTORE PUSH1 0x1 PUSH1 0x1 PUSH1 0xA0 SHL SUB PUSH32 0x0 DUP9 AND DUP2 AND PUSH1 0x4 DUP4 ADD MSTORE SWAP1 SWAP2 AND PUSH1 0x24 DUP3 ADD MSTORE SWAP5 DUP6 SWAP3 DUP4 SWAP2 SWAP1 DUP3 SWAP1 PUSH1 0x44 DUP3 ADD SWAP1 JUMP JUMPDEST SUB SWAP3 AND GAS STATICCALL SWAP3 DUP4 ISZERO PUSH2 0x243D JUMPI POP PUSH1 0x0 SWAP3 PUSH2 0x2427 JUMPI POP POP SWAP1 JUMP JUMPDEST PUSH2 0x1FA3 SWAP3 POP DUP1 RETURNDATASIZE LT PUSH2 0x17E8 JUMPI PUSH2 0x17DA DUP2 DUP4 PUSH2 0x1AF6 JUMP JUMPDEST MLOAD RETURNDATASIZE PUSH1 0x0 DUP3 RETURNDATACOPY RETURNDATASIZE SWAP1 REVERT JUMPDEST PUSH2 0x245E SWAP2 POP DUP5 RETURNDATASIZE DUP7 GT PUSH2 0x17E8 JUMPI PUSH2 0x17DA DUP2 DUP4 PUSH2 0x1AF6 JUMP JUMPDEST CODESIZE PUSH2 0x23B8 JUMP JUMPDEST DUP6 MLOAD RETURNDATASIZE PUSH1 0x0 DUP3 RETURNDATACOPY RETURNDATASIZE SWAP1 REVERT JUMPDEST PUSH1 0x4 SWAP3 POP PUSH2 0x2489 SWAP1 DUP3 RETURNDATASIZE DUP5 GT PUSH2 0x17E8 JUMPI PUSH2 0x17DA DUP2 DUP4 PUSH2 0x1AF6 JUMP JUMPDEST SWAP2 PUSH2 0x238A JUMP JUMPDEST ISZERO PUSH2 0x2496 JUMPI JUMP JUMPDEST PUSH1 0x40 MLOAD PUSH3 0x461BCD PUSH1 0xE5 SHL DUP2 MSTORE PUSH1 0x20 PUSH1 0x4 DUP3 ADD MSTORE PUSH1 0xE PUSH1 0x24 DUP3 ADD MSTORE PUSH14 0x135D5CDD081899481C185D5CD959 PUSH1 0x92 SHL PUSH1 0x44 DUP3 ADD MSTORE PUSH1 0x64 SWAP1 REVERT JUMPDEST DUP1 ISZERO PUSH2 0x1F82 JUMPI PUSH1 0x1 DUP1 DUP3 ADD DUP1 DUP4 GT PUSH2 0x1BC2 JUMPI DUP2 SHR SWAP1 DUP3 JUMPDEST DUP4 DUP4 LT PUSH2 0x24F0 JUMPI POP POP POP SWAP1 JUMP JUMPDEST SWAP1 SWAP2 SWAP3 POP PUSH2 0x2507 DUP4 PUSH2 0x2502 DUP2 DUP5 PUSH2 0x1BD8 JUMP JUMPDEST PUSH2 0x1C44 JUMP JUMPDEST DUP3 SHR SWAP2 SWAP1 PUSH2 0x24E3 JUMP INVALID LOG2 PUSH5 0x6970667358 0x22 SLT KECCAK256 0x5D 0xE EQ PUSH28 0x7622B5E5846CBB5361929295E02FAF1988192AF22E83D7C4FC6345FF PUSH5 0x736F6C6343 STOP ADDMOD EQ STOP CALLER "},"methodIdentifiers":{"EMERGENCY_DELAY()":"82944e2d","FEE_SPLIT_CREATOR_BPS()":"5bd93282","FEE_SPLIT_PLATFORM_BPS()":"90165dd7","TRADING_FEE_BPS()":"dd4d7bf7","basePrice()":"c7876ea4","buy()":"a6f2ae3a","buyExact(uint256)":"05eb6f0e","canGraduate()":"83c46137","claimFees()":"d294f093","creator()":"02d05d3f","currentPrice()":"9d1b464a","dexLiquidityAdded()":"340478a5","dexPairAddress()":"0d4b0a54","dexRouter()":"0758d924","emergencyTimelock()":"a8808d08","emergencyWithdraw()":"db2e21bc","estimateEthForTokens(uint256)":"bf65073e","estimateTokensForEth(uint256)":"eb5b7cc2","getDexPair()":"42b07a4b","graduateToDEX()":"00f2d656","graduationCap()":"60a97e95","graduationProgress()":"c8ae000c","initialize()":"8129fc1c","initialized()":"158ef93e","initiateEmergency()":"35486a2f","isGraduated()":"9e5f2602","owner()":"8da5cb5b","paused()":"5c975abb","pendingFees(address)":"25d2a3f3","platformWallet()":"fa2af9da","renounceOwnership()":"715018a6","sell(uint256)":"e4849b32","setPlatformWallet(address)":"8831e9cf","slope()":"83caf275","togglePause()":"c4ae3168","token()":"fc0c546a","tokenBalance()":"9e1a4d19","totalRaised()":"c5c4744c","totalSold()":"9106d7ba","transferOwnership(address)":"f2fde38b","withdrawForLiquidity()":"3fb168c4"}}}}}