{"contracts/LaunchpadToken.sol":{"LaunchpadToken":{"abi":[{"inputs":[{"internalType":"string","name":"name_","type":"string"},{"internalType":"string","name":"symbol_","type":"string"},{"internalType":"uint256","name":"_maxSupply","type":"uint256"},{"internalType":"address","name":"_platformWallet","type":"address"},{"internalType":"address","name":"_creator","type":"address"},{"internalType":"uint256","name":"_launchDate","type":"uint256"}],"stateMutability":"nonpayable","type":"constructor"},{"anonymous":false,"inputs":[{"indexed":true,"internalType":"address","name":"owner","type":"address"},{"indexed":true,"internalType":"address","name":"spender","type":"address"},{"indexed":false,"internalType":"uint256","name":"value","type":"uint256"}],"name":"Approval","type":"event"},{"anonymous":false,"inputs":[{"indexed":false,"internalType":"uint256","name":"timestamp","type":"uint256"}],"name":"CreatorTokensUnlocked","type":"event"},{"anonymous":false,"inputs":[{"indexed":true,"internalType":"address","name":"previousOwner","type":"address"},{"indexed":true,"internalType":"address","name":"newOwner","type":"address"}],"name":"OwnershipTransferred","type":"event"},{"anonymous":false,"inputs":[{"indexed":true,"internalType":"address","name":"oldWallet","type":"address"},{"indexed":true,"internalType":"address","name":"newWallet","type":"address"}],"name":"PlatformWalletUpdated","type":"event"},{"anonymous":false,"inputs":[{"indexed":true,"internalType":"address","name":"from","type":"address"},{"indexed":false,"internalType":"uint256","name":"amount","type":"uint256"}],"name":"TokensBurned","type":"event"},{"anonymous":false,"inputs":[{"indexed":true,"internalType":"address","name":"from","type":"address"},{"indexed":true,"internalType":"address","name":"to","type":"address"},{"indexed":false,"internalType":"uint256","name":"value","type":"uint256"}],"name":"Transfer","type":"event"},{"inputs":[],"name":"BONDING_CURVE_PERCENT","outputs":[{"internalType":"uint256","name":"","type":"uint256"}],"stateMutability":"view","type":"function"},{"inputs":[],"name":"CREATOR_RESERVE_PERCENT","outputs":[{"internalType":"uint256","name":"","type":"uint256"}],"stateMutability":"view","type":"function"},{"inputs":[],"name":"PLATFORM_RESERVE_PERCENT","outputs":[{"internalType":"uint256","name":"","type":"uint256"}],"stateMutability":"view","type":"function"},{"inputs":[],"name":"VESTING_DURATION","outputs":[{"internalType":"uint256","name":"","type":"uint256"}],"stateMutability":"view","type":"function"},{"inputs":[{"internalType":"address","name":"account","type":"address"}],"name":"addVestingExempt","outputs":[],"stateMutability":"nonpayable","type":"function"},{"inputs":[{"internalType":"address","name":"owner","type":"address"},{"internalType":"address","name":"spender","type":"address"}],"name":"allowance","outputs":[{"internalType":"uint256","name":"","type":"uint256"}],"stateMutability":"view","type":"function"},{"inputs":[{"internalType":"address","name":"spender","type":"address"},{"internalType":"uint256","name":"amount","type":"uint256"}],"name":"approve","outputs":[{"internalType":"bool","name":"","type":"bool"}],"stateMutability":"nonpayable","type":"function"},{"inputs":[{"internalType":"address","name":"account","type":"address"}],"name":"balanceOf","outputs":[{"internalType":"uint256","name":"","type":"uint256"}],"stateMutability":"view","type":"function"},{"inputs":[{"internalType":"uint256","name":"amount","type":"uint256"}],"name":"burn","outputs":[],"stateMutability":"nonpayable","type":"function"},{"inputs":[],"name":"creator","outputs":[{"internalType":"address","name":"","type":"address"}],"stateMutability":"view","type":"function"},{"inputs":[],"name":"creatorUnlockDate","outputs":[{"internalType":"uint256","name":"","type":"uint256"}],"stateMutability":"view","type":"function"},{"inputs":[],"name":"creatorVestingRemaining","outputs":[{"internalType":"uint256","name":"","type":"uint256"}],"stateMutability":"view","type":"function"},{"inputs":[],"name":"decimals","outputs":[{"internalType":"uint8","name":"","type":"uint8"}],"stateMutability":"view","type":"function"},{"inputs":[{"internalType":"address","name":"spender","type":"address"},{"internalType":"uint256","name":"subtractedValue","type":"uint256"}],"name":"decreaseAllowance","outputs":[{"internalType":"bool","name":"","type":"bool"}],"stateMutability":"nonpayable","type":"function"},{"inputs":[{"internalType":"address","name":"spender","type":"address"},{"internalType":"uint256","name":"addedValue","type":"uint256"}],"name":"increaseAllowance","outputs":[{"internalType":"bool","name":"","type":"bool"}],"stateMutability":"nonpayable","type":"function"},{"inputs":[],"name":"initialized","outputs":[{"internalType":"bool","name":"","type":"bool"}],"stateMutability":"view","type":"function"},{"inputs":[],"name":"isCreatorUnlocked","outputs":[{"internalType":"bool","name":"","type":"bool"}],"stateMutability":"view","type":"function"},{"inputs":[],"name":"launchDate","outputs":[{"internalType":"uint256","name":"","type":"uint256"}],"stateMutability":"view","type":"function"},{"inputs":[],"name":"markInitialized","outputs":[],"stateMutability":"nonpayable","type":"function"},{"inputs":[],"name":"maxSupply","outputs":[{"internalType":"uint256","name":"","type":"uint256"}],"stateMutability":"view","type":"function"},{"inputs":[],"name":"name","outputs":[{"internalType":"string","name":"","type":"string"}],"stateMutability":"view","type":"function"},{"inputs":[],"name":"owner","outputs":[{"internalType":"address","name":"","type":"address"}],"stateMutability":"view","type":"function"},{"inputs":[],"name":"platformWallet","outputs":[{"internalType":"address","name":"","type":"address"}],"stateMutability":"view","type":"function"},{"inputs":[{"internalType":"address","name":"account","type":"address"}],"name":"removeVestingExempt","outputs":[],"stateMutability":"nonpayable","type":"function"},{"inputs":[],"name":"renounceOwnership","outputs":[],"stateMutability":"nonpayable","type":"function"},{"inputs":[{"internalType":"address","name":"_newWallet","type":"address"}],"name":"setPlatformWallet","outputs":[],"stateMutability":"nonpayable","type":"function"},{"inputs":[],"name":"symbol","outputs":[{"internalType":"string","name":"","type":"string"}],"stateMutability":"view","type":"function"},{"inputs":[],"name":"totalSupply","outputs":[{"internalType":"uint256","name":"","type":"uint256"}],"stateMutability":"view","type":"function"},{"inputs":[{"internalType":"address","name":"to","type":"address"},{"internalType":"uint256","name":"amount","type":"uint256"}],"name":"transfer","outputs":[{"internalType":"bool","name":"","type":"bool"}],"stateMutability":"nonpayable","type":"function"},{"inputs":[{"internalType":"address","name":"from","type":"address"},{"internalType":"address","name":"to","type":"address"},{"internalType":"uint256","name":"amount","type":"uint256"}],"name":"transferFrom","outputs":[{"internalType":"bool","name":"","type":"bool"}],"stateMutability":"nonpayable","type":"function"},{"inputs":[{"internalType":"address","name":"newOwner","type":"address"}],"name":"transferOwnership","outputs":[],"stateMutability":"nonpayable","type":"function"},{"inputs":[{"internalType":"address","name":"","type":"address"}],"name":"vestingExempt","outputs":[{"internalType":"bool","name":"","type":"bool"}],"stateMutability":"view","type":"function"}],"evm":{"bytecode":{"linkReferences":{},"object":"604060c081523462000564576200193f803803806200001e8162000569565b928339810160c082820312620005645781516001600160401b03908181116200056457826200004f9185016200058f565b90602092838501519082821162000564576200006d9186016200058f565b918585015194620000816060820162000601565b60a0620000916080840162000601565b92015192805194808611620004615760038054966001938489811c9916801562000559575b8b8a1014620005435781908b601f9a8b8111620004ea575b50508b908a8311600114620004835760009262000477575b505060001982841b1c191690841b1781555b8751918211620004615760049788548481811c9116801562000456575b8b8210146200044157888111620003f6575b50899088841160011462000389579383949184926000956200037d575b50501b92600019911b1c19161785555b6005549160018060a01b0319913383851617600555895160018060a01b0394853391167f8be0079c531659141344cd1fd0a4f28419497f9722a3daafe3b4186f6b6457e0600080a3891562000347575083169283156200030457811615620002cf578760805260a05260065416176006558060075562ed4e008101809111620002ba5760085533156200027b5750600254908382018092116200026657506000917fddf252ad1be2c89b69c2b068fc378daa952ba7f163c4a11628f55a4df523b3ef9160025533835282815284832084815401905584519384523393a3516113289081620006178239608051816103b5015260a05181818161065d0152818161078701528181610e6701526110780152f35b601190634e487b7160e01b6000525260246000fd5b60649285519262461bcd60e51b845283015260248201527f45524332303a206d696e7420746f20746865207a65726f2061646472657373006044820152fd5b601183634e487b7160e01b6000525260246000fd5b885162461bcd60e51b8152808701889052600f60248201526e24b73b30b634b21031b932b0ba37b960891b6044820152606490fd5b895162461bcd60e51b8152808801899052601760248201527f496e76616c696420706c6174666f726d2077616c6c65740000000000000000006044820152606490fd5b62461bcd60e51b815287810189905260126024820152710537570706c79206d757374206265203e20360741b6044820152606490fd5b01519350388062000144565b9190601f198416928a600052848c600020948d6000905b89838310620003dd5750505010620003c2575b50505050811b01855562000154565b01519060f884600019921b161c1916905538808080620003b3565b8686015189559097019694850194889350018e620003a0565b896000528a6000208980860160051c8201928d871062000437575b0160051c019085905b8281106200042a57505062000127565b600081550185906200041a565b9250819262000411565b60228a634e487b7160e01b6000525260246000fd5b90607f169062000115565b634e487b7160e01b600052604160045260246000fd5b015190503880620000e6565b60008581528d8120889550929190601f198516908f5b828210620004d25750508411620004b9575b505050811b018155620000f8565b015160001983861b60f8161c19169055388080620004ab565b8385015186558a979095019493840193018f62000499565b90919250846000528a826000209181860160051c830193861062000539575b918891869594930160051c01915b8281106200052957508d9150620000ce565b6000815585945088910162000517565b9250819262000509565b634e487b7160e01b600052602260045260246000fd5b98607f1698620000b6565b600080fd5b6040519190601f01601f191682016001600160401b038111838210176200046157604052565b919080601f84011215620005645782516001600160401b0381116200046157602090620005c5601f8201601f1916830162000569565b92818452828287010111620005645760005b818110620005ed57508260009394955001015290565b8581018301518482018401528201620005d7565b51906001600160a01b0382168203620005645756fe608060408181526004918236101561001657600080fd5b600092833560e01c91826302d05d3f14610e535750816306fdde0314610d79578163095ea7b314610d4f578163158ef93e14610d2b57816318160ddd14610d0c57816323b872dd14610c42578163313ce56714610c265781633150344a14610c0a5781633950935114610ba357816342966c68146109e35781634cfc4d30146109c5578163554bb2b0146109a357816358e5c3fb146109875781636f293d591461096b57816370a0823114610934578163715018a6146108d757816373346abc146108495781638611f0151461080b578163882c17e9146107555781638831e9cf146106185781638da5cb5b146105ef57816395d89b41146104d0578163a457c2d714610428578163a9059cbb146103f7578163d207b672146103d8578163d5abeb011461039d578163dd62ed3e14610354578163e46e46df14610330578163f2c5c06d1461029e578163f2fde38b146101ce57508063f8eeed62146101b05763fa2af9da1461018557600080fd5b346101ac57816003193601126101ac5760065490516001600160a01b039091168152602090f35b5080fd5b50346101ac57816003193601126101ac576020906007549051908152f35b90503461029a57602036600319011261029a576101e9610edf565b906101f2610f10565b6001600160a01b03918216928315610248575050600554826bffffffffffffffffffffffff60a01b821617600555167f8be0079c531659141344cd1fd0a4f28419497f9722a3daafe3b4186f6b6457e08380a380f35b906020608492519162461bcd60e51b8352820152602660248201527f4f776e61626c653a206e6577206f776e657220697320746865207a65726f206160448201526564647265737360d01b6064820152fd5b8280fd5b90503461029a57602036600319011261029a576102b9610edf565b906102c2610f10565b6006546001600160a01b03928316921682146102ed5750825260096020528120805460ff1916905580f35b606490602084519162461bcd60e51b8352820152602060248201527f43616e6e6f742072656d6f766520706c6174666f726d206578656d7074696f6e6044820152fd5b5050346101ac57816003193601126101ac5760209061034d611280565b9051908152f35b5050346101ac57806003193601126101ac5780602092610372610edf565b61037a610efa565b6001600160a01b0391821683526001865283832091168252845220549051908152f35b5050346101ac57816003193601126101ac57602090517f00000000000000000000000000000000000000000000000000000000000000008152f35b5050346101ac57816003193601126101ac576020906008549051908152f35b5050346101ac57806003193601126101ac57602090610421610417610edf565b602435903361106a565b5160018152f35b905082346104cd57826003193601126104cd57610443610edf565b918360243592338152600160205281812060018060a01b038616825260205220549082821061047c576020856104218585038733610f68565b608490602086519162461bcd60e51b8352820152602560248201527f45524332303a2064656372656173656420616c6c6f77616e63652062656c6f77604482015264207a65726f60d81b6064820152fd5b80fd5b8383346101ac57816003193601126101ac57805190828454600181811c908083169283156105e5575b60209384841081146105d2578388529081156105b65750600114610561575b505050829003601f01601f191682019267ffffffffffffffff84118385101761054e575082918261054a925282610e96565b0390f35b634e487b7160e01b815260418552602490fd5b8787529192508591837f8a35acfbc15ff81a39ae7d344fd709f28e8600b4aa8c65c6b64bfe7fe36bd19b5b8385106105a25750505050830101858080610518565b80548886018301529301928490820161058c565b60ff1916878501525050151560051b8401019050858080610518565b634e487b7160e01b895260228a52602489fd5b91607f16916104f9565b5050346101ac57816003193601126101ac5760055490516001600160a01b039091168152602090f35b9190503461029a57602036600319011261029a57610634610edf565b6006546001600160a01b039384821693923385900361071b5785169461065b8615156112b4565b7f00000000000000000000000000000000000000000000000000000000000000001685146106e057506001600160a01b03191683176006558184526009602052808420805460ff19908116909155838552908420805490911660011790557ff84f6b525c89a18c80bbbc0c62a7eb5390956d6b8432ab067b49963a98f8c38f8380a380f35b606490602084519162461bcd60e51b8352820152601560248201527421b0b73737ba1039b2ba103a379031b932b0ba37b960591b6044820152fd5b835162461bcd60e51b8152602081840152601460248201527313db9b1e481c1b185d199bdc9b481dd85b1b195d60621b6044820152606490fd5b90503461029a57602036600319011261029a57610770610edf565b90610779610f10565b6001600160a01b03918216917f00000000000000000000000000000000000000000000000000000000000000001682146107d057506107b98115156112b4565b825260096020528120805460ff1916600117905580f35b606490602084519162461bcd60e51b8352820152601560248201527421b0b73737ba1032bc32b6b83a1031b932b0ba37b960591b6044820152fd5b5050346101ac5760203660031901126101ac5760209160ff9082906001600160a01b03610836610edf565b1681526009855220541690519015158152f35b9190503461029a578260031936011261029a57610864610f10565b600a549160ff831661089f5750600160ff199283168117600a556006546001600160a01b031684526009602052908320805490921617905580f35b6020606492519162461bcd60e51b83528201526013602482015272105b1c9958591e481a5b9a5d1a585b1a5e9959606a1b6044820152fd5b83346104cd57806003193601126104cd576108f0610f10565b600580546001600160a01b0319811690915581906001600160a01b03167f8be0079c531659141344cd1fd0a4f28419497f9722a3daafe3b4186f6b6457e08280a380f35b5050346101ac5760203660031901126101ac5760209181906001600160a01b0361095c610edf565b16815280845220549051908152f35b5050346101ac57816003193601126101ac576020905160508152f35b5050346101ac57816003193601126101ac5760209051600f8152f35b5050346101ac57816003193601126101ac576020906008544210159051908152f35b5050346101ac57816003193601126101ac576020905162ed4e008152f35b9190503461029a5760209081600319360112610b9f578235928315610b6957338552848352838286205410610b31573315610ae6573385528483528185205490848210610a98575090837ffd38818f5291bf0bb3a2a48aadc06ba8757865d1dabd804585338aab3009dcb69392338752868452038186205583600254036002558481518581527fddf252ad1be2c89b69c2b068fc378daa952ba7f163c4a11628f55a4df523b3ef843392a3519283523392a280f35b825162461bcd60e51b8152908101849052602260248201527f45524332303a206275726e20616d6f756e7420657863656564732062616c616e604482015261636560f01b6064820152608490fd5b82608492519162461bcd60e51b8352820152602160248201527f45524332303a206275726e2066726f6d20746865207a65726f206164647265736044820152607360f81b6064820152fd5b82606492519162461bcd60e51b83528201526014602482015273496e73756666696369656e742062616c616e636560601b6044820152fd5b82606492519162461bcd60e51b835282015260126024820152710416d6f756e74206d757374206265203e20360741b6044820152fd5b8380fd5b8284346104cd57816003193601126104cd57610bbd610edf565b338252600160209081528383206001600160a01b0383168452905282822054602435810192908310610bf757602084610421858533610f68565b634e487b7160e01b815260118552602490fd5b5050346101ac57816003193601126101ac576020905160058152f35b5050346101ac57816003193601126101ac576020905160128152f35b839150346101ac5760603660031901126101ac57610c5e610edf565b610c66610efa565b91846044359460018060a01b038416815260016020528181203382526020522054906000198203610ca0575b60208661042187878761106a565b848210610cc95750918391610cbe6020969561042195033383610f68565b919394819350610c92565b606490602087519162461bcd60e51b8352820152601d60248201527f45524332303a20696e73756666696369656e7420616c6c6f77616e63650000006044820152fd5b5050346101ac57816003193601126101ac576020906002549051908152f35b5050346101ac57816003193601126101ac5760209060ff600a541690519015158152f35b5050346101ac57806003193601126101ac57602090610421610d6f610edf565b6024359033610f68565b8383346101ac57816003193601126101ac5780519082600354600181811c90808316928315610e49575b60209384841081146105d2578388529081156105b65750600114610df357505050829003601f01601f191682019267ffffffffffffffff84118385101761054e575082918261054a925282610e96565b600387529192508591837fc2575a0e9e593c00f959f8c92f12db2869c3395a3b0502d05e2516446f71f85b5b838510610e355750505050830101858080610518565b805488860183015293019284908201610e1f565b91607f1691610da3565b8490346101ac57816003193601126101ac577f00000000000000000000000000000000000000000000000000000000000000006001600160a01b03168152602090f35b6020808252825181830181905290939260005b828110610ecb57505060409293506000838284010152601f8019910116010190565b818101860151848201604001528501610ea9565b600435906001600160a01b0382168203610ef557565b600080fd5b602435906001600160a01b0382168203610ef557565b6005546001600160a01b03163303610f2457565b606460405162461bcd60e51b815260206004820152602060248201527f4f776e61626c653a2063616c6c6572206973206e6f7420746865206f776e65726044820152fd5b6001600160a01b039081169182156110195716918215610fc95760207f8c5be1e5ebec7d5bd14f71427d1e84f3dd0314c0f7b2291e5b200ac8c7c3b925918360005260018252604060002085600052825280604060002055604051908152a3565b60405162461bcd60e51b815260206004820152602260248201527f45524332303a20617070726f766520746f20746865207a65726f206164647265604482015261737360f01b6064820152608490fd5b60405162461bcd60e51b8152602060048201526024808201527f45524332303a20617070726f76652066726f6d20746865207a65726f206164646044820152637265737360e01b6064820152608490fd5b6001600160a01b03908116917f00000000000000000000000000000000000000000000000000000000000000008216831480611267575b611208575b82156111b557169182156111645760008281528060205260408120549180831061111057604082827fddf252ad1be2c89b69c2b068fc378daa952ba7f163c4a11628f55a4df523b3ef958760209652828652038282205586815220818154019055604051908152a3565b60405162461bcd60e51b815260206004820152602660248201527f45524332303a207472616e7366657220616d6f756e7420657863656564732062604482015265616c616e636560d01b6064820152608490fd5b60405162461bcd60e51b815260206004820152602360248201527f45524332303a207472616e7366657220746f20746865207a65726f206164647260448201526265737360e81b6064820152608490fd5b60405162461bcd60e51b815260206004820152602560248201527f45524332303a207472616e736665722066726f6d20746865207a65726f206164604482015264647265737360d81b6064820152608490fd5b6008544210156110a65760405162461bcd60e51b815260206004820152602760248201527f43726561746f7220746f6b656e73206c6f636b656420756e74696c20756e6c6f604482015266636b206461746560c81b6064820152608490fd5b5082600052600960205260ff60406000205416156110a1565b600854804210156112ae574281039081116112985790565b634e487b7160e01b600052601160045260246000fd5b50600090565b156112bb57565b60405162461bcd60e51b815260206004820152600f60248201526e496e76616c6964206164647265737360881b6044820152606490fdfea2646970667358221220584f7980b773e5e380c2d4700d05a3f352fa319f8801f12225cef79d58a3b22f64736f6c63430008140033","opcodes":"PUSH1 0x40 PUSH1 0xC0 DUP2 MSTORE CALLVALUE PUSH3 0x564 JUMPI PUSH3 0x193F DUP1 CODESIZE SUB DUP1 PUSH3 0x1E DUP2 PUSH3 0x569 JUMP JUMPDEST SWAP3 DUP4 CODECOPY DUP2 ADD PUSH1 0xC0 DUP3 DUP3 SUB SLT PUSH3 0x564 JUMPI DUP2 MLOAD PUSH1 0x1 PUSH1 0x1 PUSH1 0x40 SHL SUB SWAP1 DUP2 DUP2 GT PUSH3 0x564 JUMPI DUP3 PUSH3 0x4F SWAP2 DUP6 ADD PUSH3 0x58F JUMP JUMPDEST SWAP1 PUSH1 0x20 SWAP3 DUP4 DUP6 ADD MLOAD SWAP1 DUP3 DUP3 GT PUSH3 0x564 JUMPI PUSH3 0x6D SWAP2 DUP7 ADD PUSH3 0x58F JUMP JUMPDEST SWAP2 DUP6 DUP6 ADD MLOAD SWAP5 PUSH3 0x81 PUSH1 0x60 DUP3 ADD PUSH3 0x601 JUMP JUMPDEST PUSH1 0xA0 PUSH3 0x91 PUSH1 0x80 DUP5 ADD PUSH3 0x601 JUMP JUMPDEST SWAP3 ADD MLOAD SWAP3 DUP1 MLOAD SWAP5 DUP1 DUP7 GT PUSH3 0x461 JUMPI PUSH1 0x3 DUP1 SLOAD SWAP7 PUSH1 0x1 SWAP4 DUP5 DUP10 DUP2 SHR SWAP10 AND DUP1 ISZERO PUSH3 0x559 JUMPI JUMPDEST DUP12 DUP11 LT EQ PUSH3 0x543 JUMPI DUP2 SWAP1 DUP12 PUSH1 0x1F SWAP11 DUP12 DUP2 GT PUSH3 0x4EA JUMPI JUMPDEST POP POP DUP12 SWAP1 DUP11 DUP4 GT PUSH1 0x1 EQ PUSH3 0x483 JUMPI PUSH1 0x0 SWAP3 PUSH3 0x477 JUMPI JUMPDEST POP POP PUSH1 0x0 NOT DUP3 DUP5 SHL SHR NOT AND SWAP1 DUP5 SHL OR DUP2 SSTORE JUMPDEST DUP8 MLOAD SWAP2 DUP3 GT PUSH3 0x461 JUMPI PUSH1 0x4 SWAP8 DUP9 SLOAD DUP5 DUP2 DUP2 SHR SWAP2 AND DUP1 ISZERO PUSH3 0x456 JUMPI JUMPDEST DUP12 DUP3 LT EQ PUSH3 0x441 JUMPI DUP9 DUP2 GT PUSH3 0x3F6 JUMPI JUMPDEST POP DUP10 SWAP1 DUP9 DUP5 GT PUSH1 0x1 EQ PUSH3 0x389 JUMPI SWAP4 DUP4 SWAP5 SWAP2 DUP5 SWAP3 PUSH1 0x0 SWAP6 PUSH3 0x37D JUMPI JUMPDEST POP POP SHL SWAP3 PUSH1 0x0 NOT SWAP2 SHL SHR NOT AND OR DUP6 SSTORE JUMPDEST PUSH1 0x5 SLOAD SWAP2 PUSH1 0x1 DUP1 PUSH1 0xA0 SHL SUB NOT SWAP2 CALLER DUP4 DUP6 AND OR PUSH1 0x5 SSTORE DUP10 MLOAD PUSH1 0x1 DUP1 PUSH1 0xA0 SHL SUB SWAP5 DUP6 CALLER SWAP2 AND PUSH32 0x8BE0079C531659141344CD1FD0A4F28419497F9722A3DAAFE3B4186F6B6457E0 PUSH1 0x0 DUP1 LOG3 DUP10 ISZERO PUSH3 0x347 JUMPI POP DUP4 AND SWAP3 DUP4 ISZERO PUSH3 0x304 JUMPI DUP2 AND ISZERO PUSH3 0x2CF JUMPI DUP8 PUSH1 0x80 MSTORE PUSH1 0xA0 MSTORE PUSH1 0x6 SLOAD AND OR PUSH1 0x6 SSTORE DUP1 PUSH1 0x7 SSTORE PUSH3 0xED4E00 DUP2 ADD DUP1 SWAP2 GT PUSH3 0x2BA JUMPI PUSH1 0x8 SSTORE CALLER ISZERO PUSH3 0x27B JUMPI POP PUSH1 0x2 SLOAD SWAP1 DUP4 DUP3 ADD DUP1 SWAP3 GT PUSH3 0x266 JUMPI POP PUSH1 0x0 SWAP2 PUSH32 0xDDF252AD1BE2C89B69C2B068FC378DAA952BA7F163C4A11628F55A4DF523B3EF SWAP2 PUSH1 0x2 SSTORE CALLER DUP4 MSTORE DUP3 DUP2 MSTORE DUP5 DUP4 KECCAK256 DUP5 DUP2 SLOAD ADD SWAP1 SSTORE DUP5 MLOAD SWAP4 DUP5 MSTORE CALLER SWAP4 LOG3 MLOAD PUSH2 0x1328 SWAP1 DUP2 PUSH3 0x617 DUP3 CODECOPY PUSH1 0x80 MLOAD DUP2 PUSH2 0x3B5 ADD MSTORE PUSH1 0xA0 MLOAD DUP2 DUP2 DUP2 PUSH2 0x65D ADD MSTORE DUP2 DUP2 PUSH2 0x787 ADD MSTORE DUP2 DUP2 PUSH2 0xE67 ADD MSTORE PUSH2 0x1078 ADD MSTORE RETURN JUMPDEST PUSH1 0x11 SWAP1 PUSH4 0x4E487B71 PUSH1 0xE0 SHL PUSH1 0x0 MSTORE MSTORE PUSH1 0x24 PUSH1 0x0 REVERT JUMPDEST PUSH1 0x64 SWAP3 DUP6 MLOAD SWAP3 PUSH3 0x461BCD PUSH1 0xE5 SHL DUP5 MSTORE DUP4 ADD MSTORE PUSH1 0x24 DUP3 ADD MSTORE PUSH32 0x45524332303A206D696E7420746F20746865207A65726F206164647265737300 PUSH1 0x44 DUP3 ADD MSTORE REVERT JUMPDEST PUSH1 0x11 DUP4 PUSH4 0x4E487B71 PUSH1 0xE0 SHL PUSH1 0x0 MSTORE MSTORE PUSH1 0x24 PUSH1 0x0 REVERT JUMPDEST DUP9 MLOAD PUSH3 0x461BCD PUSH1 0xE5 SHL DUP2 MSTORE DUP1 DUP8 ADD DUP9 SWAP1 MSTORE PUSH1 0xF PUSH1 0x24 DUP3 ADD MSTORE PUSH15 0x24B73B30B634B21031B932B0BA37B9 PUSH1 0x89 SHL PUSH1 0x44 DUP3 ADD MSTORE PUSH1 0x64 SWAP1 REVERT JUMPDEST DUP10 MLOAD PUSH3 0x461BCD PUSH1 0xE5 SHL DUP2 MSTORE DUP1 DUP9 ADD DUP10 SWAP1 MSTORE PUSH1 0x17 PUSH1 0x24 DUP3 ADD MSTORE PUSH32 0x496E76616C696420706C6174666F726D2077616C6C6574000000000000000000 PUSH1 0x44 DUP3 ADD MSTORE PUSH1 0x64 SWAP1 REVERT JUMPDEST PUSH3 0x461BCD PUSH1 0xE5 SHL DUP2 MSTORE DUP8 DUP2 ADD DUP10 SWAP1 MSTORE PUSH1 0x12 PUSH1 0x24 DUP3 ADD MSTORE PUSH18 0x537570706C79206D757374206265203E203 PUSH1 0x74 SHL PUSH1 0x44 DUP3 ADD MSTORE PUSH1 0x64 SWAP1 REVERT JUMPDEST ADD MLOAD SWAP4 POP CODESIZE DUP1 PUSH3 0x144 JUMP JUMPDEST SWAP2 SWAP1 PUSH1 0x1F NOT DUP5 AND SWAP3 DUP11 PUSH1 0x0 MSTORE DUP5 DUP13 PUSH1 0x0 KECCAK256 SWAP5 DUP14 PUSH1 0x0 SWAP1 JUMPDEST DUP10 DUP4 DUP4 LT PUSH3 0x3DD JUMPI POP POP POP LT PUSH3 0x3C2 JUMPI JUMPDEST POP POP POP POP DUP2 SHL ADD DUP6 SSTORE PUSH3 0x154 JUMP JUMPDEST ADD MLOAD SWAP1 PUSH1 0xF8 DUP5 PUSH1 0x0 NOT SWAP3 SHL AND SHR NOT AND SWAP1 SSTORE CODESIZE DUP1 DUP1 DUP1 PUSH3 0x3B3 JUMP JUMPDEST DUP7 DUP7 ADD MLOAD DUP10 SSTORE SWAP1 SWAP8 ADD SWAP7 SWAP5 DUP6 ADD SWAP5 DUP9 SWAP4 POP ADD DUP15 PUSH3 0x3A0 JUMP JUMPDEST DUP10 PUSH1 0x0 MSTORE DUP11 PUSH1 0x0 KECCAK256 DUP10 DUP1 DUP7 ADD PUSH1 0x5 SHR DUP3 ADD SWAP3 DUP14 DUP8 LT PUSH3 0x437 JUMPI JUMPDEST ADD PUSH1 0x5 SHR ADD SWAP1 DUP6 SWAP1 JUMPDEST DUP3 DUP2 LT PUSH3 0x42A JUMPI POP POP PUSH3 0x127 JUMP JUMPDEST PUSH1 0x0 DUP2 SSTORE ADD DUP6 SWAP1 PUSH3 0x41A JUMP JUMPDEST SWAP3 POP DUP2 SWAP3 PUSH3 0x411 JUMP JUMPDEST PUSH1 0x22 DUP11 PUSH4 0x4E487B71 PUSH1 0xE0 SHL PUSH1 0x0 MSTORE MSTORE PUSH1 0x24 PUSH1 0x0 REVERT JUMPDEST SWAP1 PUSH1 0x7F AND SWAP1 PUSH3 0x115 JUMP JUMPDEST PUSH4 0x4E487B71 PUSH1 0xE0 SHL PUSH1 0x0 MSTORE PUSH1 0x41 PUSH1 0x4 MSTORE PUSH1 0x24 PUSH1 0x0 REVERT JUMPDEST ADD MLOAD SWAP1 POP CODESIZE DUP1 PUSH3 0xE6 JUMP JUMPDEST PUSH1 0x0 DUP6 DUP2 MSTORE DUP14 DUP2 KECCAK256 DUP9 SWAP6 POP SWAP3 SWAP2 SWAP1 PUSH1 0x1F NOT DUP6 AND SWAP1 DUP16 JUMPDEST DUP3 DUP3 LT PUSH3 0x4D2 JUMPI POP POP DUP5 GT PUSH3 0x4B9 JUMPI JUMPDEST POP POP POP DUP2 SHL ADD DUP2 SSTORE PUSH3 0xF8 JUMP JUMPDEST ADD MLOAD PUSH1 0x0 NOT DUP4 DUP7 SHL PUSH1 0xF8 AND SHR NOT AND SWAP1 SSTORE CODESIZE DUP1 DUP1 PUSH3 0x4AB JUMP JUMPDEST DUP4 DUP6 ADD MLOAD DUP7 SSTORE DUP11 SWAP8 SWAP1 SWAP6 ADD SWAP5 SWAP4 DUP5 ADD SWAP4 ADD DUP16 PUSH3 0x499 JUMP JUMPDEST SWAP1 SWAP2 SWAP3 POP DUP5 PUSH1 0x0 MSTORE DUP11 DUP3 PUSH1 0x0 KECCAK256 SWAP2 DUP2 DUP7 ADD PUSH1 0x5 SHR DUP4 ADD SWAP4 DUP7 LT PUSH3 0x539 JUMPI JUMPDEST SWAP2 DUP9 SWAP2 DUP7 SWAP6 SWAP5 SWAP4 ADD PUSH1 0x5 SHR ADD SWAP2 JUMPDEST DUP3 DUP2 LT PUSH3 0x529 JUMPI POP DUP14 SWAP2 POP PUSH3 0xCE JUMP JUMPDEST PUSH1 0x0 DUP2 SSTORE DUP6 SWAP5 POP DUP9 SWAP2 ADD PUSH3 0x517 JUMP JUMPDEST SWAP3 POP DUP2 SWAP3 PUSH3 0x509 JUMP JUMPDEST PUSH4 0x4E487B71 PUSH1 0xE0 SHL PUSH1 0x0 MSTORE PUSH1 0x22 PUSH1 0x4 MSTORE PUSH1 0x24 PUSH1 0x0 REVERT JUMPDEST SWAP9 PUSH1 0x7F AND SWAP9 PUSH3 0xB6 JUMP JUMPDEST PUSH1 0x0 DUP1 REVERT JUMPDEST PUSH1 0x40 MLOAD SWAP2 SWAP1 PUSH1 0x1F ADD PUSH1 0x1F NOT AND DUP3 ADD PUSH1 0x1 PUSH1 0x1 PUSH1 0x40 SHL SUB DUP2 GT DUP4 DUP3 LT OR PUSH3 0x461 JUMPI PUSH1 0x40 MSTORE JUMP JUMPDEST SWAP2 SWAP1 DUP1 PUSH1 0x1F DUP5 ADD SLT ISZERO PUSH3 0x564 JUMPI DUP3 MLOAD PUSH1 0x1 PUSH1 0x1 PUSH1 0x40 SHL SUB DUP2 GT PUSH3 0x461 JUMPI PUSH1 0x20 SWAP1 PUSH3 0x5C5 PUSH1 0x1F DUP3 ADD PUSH1 0x1F NOT AND DUP4 ADD PUSH3 0x569 JUMP JUMPDEST SWAP3 DUP2 DUP5 MSTORE DUP3 DUP3 DUP8 ADD ADD GT PUSH3 0x564 JUMPI PUSH1 0x0 JUMPDEST DUP2 DUP2 LT PUSH3 0x5ED JUMPI POP DUP3 PUSH1 0x0 SWAP4 SWAP5 SWAP6 POP ADD ADD MSTORE SWAP1 JUMP JUMPDEST DUP6 DUP2 ADD DUP4 ADD MLOAD DUP5 DUP3 ADD DUP5 ADD MSTORE DUP3 ADD PUSH3 0x5D7 JUMP JUMPDEST MLOAD SWAP1 PUSH1 0x1 PUSH1 0x1 PUSH1 0xA0 SHL SUB DUP3 AND DUP3 SUB PUSH3 0x564 JUMPI JUMP INVALID PUSH1 0x80 PUSH1 0x40 DUP2 DUP2 MSTORE PUSH1 0x4 SWAP2 DUP3 CALLDATASIZE LT ISZERO PUSH2 0x16 JUMPI PUSH1 0x0 DUP1 REVERT JUMPDEST PUSH1 0x0 SWAP3 DUP4 CALLDATALOAD PUSH1 0xE0 SHR SWAP2 DUP3 PUSH4 0x2D05D3F EQ PUSH2 0xE53 JUMPI POP DUP2 PUSH4 0x6FDDE03 EQ PUSH2 0xD79 JUMPI DUP2 PUSH4 0x95EA7B3 EQ PUSH2 0xD4F JUMPI DUP2 PUSH4 0x158EF93E EQ PUSH2 0xD2B JUMPI DUP2 PUSH4 0x18160DDD EQ PUSH2 0xD0C JUMPI DUP2 PUSH4 0x23B872DD EQ PUSH2 0xC42 JUMPI DUP2 PUSH4 0x313CE567 EQ PUSH2 0xC26 JUMPI DUP2 PUSH4 0x3150344A EQ PUSH2 0xC0A JUMPI DUP2 PUSH4 0x39509351 EQ PUSH2 0xBA3 JUMPI DUP2 PUSH4 0x42966C68 EQ PUSH2 0x9E3 JUMPI DUP2 PUSH4 0x4CFC4D30 EQ PUSH2 0x9C5 JUMPI DUP2 PUSH4 0x554BB2B0 EQ PUSH2 0x9A3 JUMPI DUP2 PUSH4 0x58E5C3FB EQ PUSH2 0x987 JUMPI DUP2 PUSH4 0x6F293D59 EQ PUSH2 0x96B JUMPI DUP2 PUSH4 0x70A08231 EQ PUSH2 0x934 JUMPI DUP2 PUSH4 0x715018A6 EQ PUSH2 0x8D7 JUMPI DUP2 PUSH4 0x73346ABC EQ PUSH2 0x849 JUMPI DUP2 PUSH4 0x8611F015 EQ PUSH2 0x80B JUMPI DUP2 PUSH4 0x882C17E9 EQ PUSH2 0x755 JUMPI DUP2 PUSH4 0x8831E9CF EQ PUSH2 0x618 JUMPI DUP2 PUSH4 0x8DA5CB5B EQ PUSH2 0x5EF JUMPI DUP2 PUSH4 0x95D89B41 EQ PUSH2 0x4D0 JUMPI DUP2 PUSH4 0xA457C2D7 EQ PUSH2 0x428 JUMPI DUP2 PUSH4 0xA9059CBB EQ PUSH2 0x3F7 JUMPI DUP2 PUSH4 0xD207B672 EQ PUSH2 0x3D8 JUMPI DUP2 PUSH4 0xD5ABEB01 EQ PUSH2 0x39D JUMPI DUP2 PUSH4 0xDD62ED3E EQ PUSH2 0x354 JUMPI DUP2 PUSH4 0xE46E46DF EQ PUSH2 0x330 JUMPI DUP2 PUSH4 0xF2C5C06D EQ PUSH2 0x29E JUMPI DUP2 PUSH4 0xF2FDE38B EQ PUSH2 0x1CE JUMPI POP DUP1 PUSH4 0xF8EEED62 EQ PUSH2 0x1B0 JUMPI PUSH4 0xFA2AF9DA EQ PUSH2 0x185 JUMPI PUSH1 0x0 DUP1 REVERT JUMPDEST CALLVALUE PUSH2 0x1AC JUMPI DUP2 PUSH1 0x3 NOT CALLDATASIZE ADD SLT PUSH2 0x1AC JUMPI PUSH1 0x6 SLOAD SWAP1 MLOAD PUSH1 0x1 PUSH1 0x1 PUSH1 0xA0 SHL SUB SWAP1 SWAP2 AND DUP2 MSTORE PUSH1 0x20 SWAP1 RETURN JUMPDEST POP DUP1 REVERT JUMPDEST POP CALLVALUE PUSH2 0x1AC JUMPI DUP2 PUSH1 0x3 NOT CALLDATASIZE ADD SLT PUSH2 0x1AC JUMPI PUSH1 0x20 SWAP1 PUSH1 0x7 SLOAD SWAP1 MLOAD SWAP1 DUP2 MSTORE RETURN JUMPDEST SWAP1 POP CALLVALUE PUSH2 0x29A JUMPI PUSH1 0x20 CALLDATASIZE PUSH1 0x3 NOT ADD SLT PUSH2 0x29A JUMPI PUSH2 0x1E9 PUSH2 0xEDF JUMP JUMPDEST SWAP1 PUSH2 0x1F2 PUSH2 0xF10 JUMP JUMPDEST PUSH1 0x1 PUSH1 0x1 PUSH1 0xA0 SHL SUB SWAP2 DUP3 AND SWAP3 DUP4 ISZERO PUSH2 0x248 JUMPI POP POP PUSH1 0x5 SLOAD DUP3 PUSH12 0xFFFFFFFFFFFFFFFFFFFFFFFF PUSH1 0xA0 SHL DUP3 AND OR PUSH1 0x5 SSTORE AND PUSH32 0x8BE0079C531659141344CD1FD0A4F28419497F9722A3DAAFE3B4186F6B6457E0 DUP4 DUP1 LOG3 DUP1 RETURN JUMPDEST SWAP1 PUSH1 0x20 PUSH1 0x84 SWAP3 MLOAD SWAP2 PUSH3 0x461BCD PUSH1 0xE5 SHL DUP4 MSTORE DUP3 ADD MSTORE PUSH1 0x26 PUSH1 0x24 DUP3 ADD MSTORE PUSH32 0x4F776E61626C653A206E6577206F776E657220697320746865207A65726F2061 PUSH1 0x44 DUP3 ADD MSTORE PUSH6 0x646472657373 PUSH1 0xD0 SHL PUSH1 0x64 DUP3 ADD MSTORE REVERT JUMPDEST DUP3 DUP1 REVERT JUMPDEST SWAP1 POP CALLVALUE PUSH2 0x29A JUMPI PUSH1 0x20 CALLDATASIZE PUSH1 0x3 NOT ADD SLT PUSH2 0x29A JUMPI PUSH2 0x2B9 PUSH2 0xEDF JUMP JUMPDEST SWAP1 PUSH2 0x2C2 PUSH2 0xF10 JUMP JUMPDEST PUSH1 0x6 SLOAD PUSH1 0x1 PUSH1 0x1 PUSH1 0xA0 SHL SUB SWAP3 DUP4 AND SWAP3 AND DUP3 EQ PUSH2 0x2ED JUMPI POP DUP3 MSTORE PUSH1 0x9 PUSH1 0x20 MSTORE DUP2 KECCAK256 DUP1 SLOAD PUSH1 0xFF NOT AND SWAP1 SSTORE DUP1 RETURN JUMPDEST PUSH1 0x64 SWAP1 PUSH1 0x20 DUP5 MLOAD SWAP2 PUSH3 0x461BCD PUSH1 0xE5 SHL DUP4 MSTORE DUP3 ADD MSTORE PUSH1 0x20 PUSH1 0x24 DUP3 ADD MSTORE PUSH32 0x43616E6E6F742072656D6F766520706C6174666F726D206578656D7074696F6E PUSH1 0x44 DUP3 ADD MSTORE REVERT JUMPDEST POP POP CALLVALUE PUSH2 0x1AC JUMPI DUP2 PUSH1 0x3 NOT CALLDATASIZE ADD SLT PUSH2 0x1AC JUMPI PUSH1 0x20 SWAP1 PUSH2 0x34D PUSH2 0x1280 JUMP JUMPDEST SWAP1 MLOAD SWAP1 DUP2 MSTORE RETURN JUMPDEST POP POP CALLVALUE PUSH2 0x1AC JUMPI DUP1 PUSH1 0x3 NOT CALLDATASIZE ADD SLT PUSH2 0x1AC JUMPI DUP1 PUSH1 0x20 SWAP3 PUSH2 0x372 PUSH2 0xEDF JUMP JUMPDEST PUSH2 0x37A PUSH2 0xEFA JUMP JUMPDEST PUSH1 0x1 PUSH1 0x1 PUSH1 0xA0 SHL SUB SWAP2 DUP3 AND DUP4 MSTORE PUSH1 0x1 DUP7 MSTORE DUP4 DUP4 KECCAK256 SWAP2 AND DUP3 MSTORE DUP5 MSTORE KECCAK256 SLOAD SWAP1 MLOAD SWAP1 DUP2 MSTORE RETURN JUMPDEST POP POP CALLVALUE PUSH2 0x1AC JUMPI DUP2 PUSH1 0x3 NOT CALLDATASIZE ADD SLT PUSH2 0x1AC JUMPI PUSH1 0x20 SWAP1 MLOAD PUSH32 0x0 DUP2 MSTORE RETURN JUMPDEST POP POP CALLVALUE PUSH2 0x1AC JUMPI DUP2 PUSH1 0x3 NOT CALLDATASIZE ADD SLT PUSH2 0x1AC JUMPI PUSH1 0x20 SWAP1 PUSH1 0x8 SLOAD SWAP1 MLOAD SWAP1 DUP2 MSTORE RETURN JUMPDEST POP POP CALLVALUE PUSH2 0x1AC JUMPI DUP1 PUSH1 0x3 NOT CALLDATASIZE ADD SLT PUSH2 0x1AC JUMPI PUSH1 0x20 SWAP1 PUSH2 0x421 PUSH2 0x417 PUSH2 0xEDF JUMP JUMPDEST PUSH1 0x24 CALLDATALOAD SWAP1 CALLER PUSH2 0x106A JUMP JUMPDEST MLOAD PUSH1 0x1 DUP2 MSTORE RETURN JUMPDEST SWAP1 POP DUP3 CALLVALUE PUSH2 0x4CD JUMPI DUP3 PUSH1 0x3 NOT CALLDATASIZE ADD SLT PUSH2 0x4CD JUMPI PUSH2 0x443 PUSH2 0xEDF JUMP JUMPDEST SWAP2 DUP4 PUSH1 0x24 CALLDATALOAD SWAP3 CALLER DUP2 MSTORE PUSH1 0x1 PUSH1 0x20 MSTORE DUP2 DUP2 KECCAK256 PUSH1 0x1 DUP1 PUSH1 0xA0 SHL SUB DUP7 AND DUP3 MSTORE PUSH1 0x20 MSTORE KECCAK256 SLOAD SWAP1 DUP3 DUP3 LT PUSH2 0x47C JUMPI PUSH1 0x20 DUP6 PUSH2 0x421 DUP6 DUP6 SUB DUP8 CALLER PUSH2 0xF68 JUMP JUMPDEST PUSH1 0x84 SWAP1 PUSH1 0x20 DUP7 MLOAD SWAP2 PUSH3 0x461BCD PUSH1 0xE5 SHL DUP4 MSTORE DUP3 ADD MSTORE PUSH1 0x25 PUSH1 0x24 DUP3 ADD MSTORE PUSH32 0x45524332303A2064656372656173656420616C6C6F77616E63652062656C6F77 PUSH1 0x44 DUP3 ADD MSTORE PUSH5 0x207A65726F PUSH1 0xD8 SHL PUSH1 0x64 DUP3 ADD MSTORE REVERT JUMPDEST DUP1 REVERT JUMPDEST DUP4 DUP4 CALLVALUE PUSH2 0x1AC JUMPI DUP2 PUSH1 0x3 NOT CALLDATASIZE ADD SLT PUSH2 0x1AC JUMPI DUP1 MLOAD SWAP1 DUP3 DUP5 SLOAD PUSH1 0x1 DUP2 DUP2 SHR SWAP1 DUP1 DUP4 AND SWAP3 DUP4 ISZERO PUSH2 0x5E5 JUMPI JUMPDEST PUSH1 0x20 SWAP4 DUP5 DUP5 LT DUP2 EQ PUSH2 0x5D2 JUMPI DUP4 DUP9 MSTORE SWAP1 DUP2 ISZERO PUSH2 0x5B6 JUMPI POP PUSH1 0x1 EQ PUSH2 0x561 JUMPI JUMPDEST POP POP POP DUP3 SWAP1 SUB PUSH1 0x1F ADD PUSH1 0x1F NOT AND DUP3 ADD SWAP3 PUSH8 0xFFFFFFFFFFFFFFFF DUP5 GT DUP4 DUP6 LT OR PUSH2 0x54E JUMPI POP DUP3 SWAP2 DUP3 PUSH2 0x54A SWAP3 MSTORE DUP3 PUSH2 0xE96 JUMP JUMPDEST SUB SWAP1 RETURN JUMPDEST PUSH4 0x4E487B71 PUSH1 0xE0 SHL DUP2 MSTORE PUSH1 0x41 DUP6 MSTORE PUSH1 0x24 SWAP1 REVERT JUMPDEST DUP8 DUP8 MSTORE SWAP2 SWAP3 POP DUP6 SWAP2 DUP4 PUSH32 0x8A35ACFBC15FF81A39AE7D344FD709F28E8600B4AA8C65C6B64BFE7FE36BD19B JUMPDEST DUP4 DUP6 LT PUSH2 0x5A2 JUMPI POP POP POP POP DUP4 ADD ADD DUP6 DUP1 DUP1 PUSH2 0x518 JUMP JUMPDEST DUP1 SLOAD DUP9 DUP7 ADD DUP4 ADD MSTORE SWAP4 ADD SWAP3 DUP5 SWAP1 DUP3 ADD PUSH2 0x58C JUMP JUMPDEST PUSH1 0xFF NOT AND DUP8 DUP6 ADD MSTORE POP POP ISZERO ISZERO PUSH1 0x5 SHL DUP5 ADD ADD SWAP1 POP DUP6 DUP1 DUP1 PUSH2 0x518 JUMP JUMPDEST PUSH4 0x4E487B71 PUSH1 0xE0 SHL DUP10 MSTORE PUSH1 0x22 DUP11 MSTORE PUSH1 0x24 DUP10 REVERT JUMPDEST SWAP2 PUSH1 0x7F AND SWAP2 PUSH2 0x4F9 JUMP JUMPDEST POP POP CALLVALUE PUSH2 0x1AC JUMPI DUP2 PUSH1 0x3 NOT CALLDATASIZE ADD SLT PUSH2 0x1AC JUMPI PUSH1 0x5 SLOAD SWAP1 MLOAD PUSH1 0x1 PUSH1 0x1 PUSH1 0xA0 SHL SUB SWAP1 SWAP2 AND DUP2 MSTORE PUSH1 0x20 SWAP1 RETURN JUMPDEST SWAP2 SWAP1 POP CALLVALUE PUSH2 0x29A JUMPI PUSH1 0x20 CALLDATASIZE PUSH1 0x3 NOT ADD SLT PUSH2 0x29A JUMPI PUSH2 0x634 PUSH2 0xEDF JUMP JUMPDEST PUSH1 0x6 SLOAD PUSH1 0x1 PUSH1 0x1 PUSH1 0xA0 SHL SUB SWAP4 DUP5 DUP3 AND SWAP4 SWAP3 CALLER DUP6 SWAP1 SUB PUSH2 0x71B JUMPI DUP6 AND SWAP5 PUSH2 0x65B DUP7 ISZERO ISZERO PUSH2 0x12B4 JUMP JUMPDEST PUSH32 0x0 AND DUP6 EQ PUSH2 0x6E0 JUMPI POP PUSH1 0x1 PUSH1 0x1 PUSH1 0xA0 SHL SUB NOT AND DUP4 OR PUSH1 0x6 SSTORE DUP2 DUP5 MSTORE PUSH1 0x9 PUSH1 0x20 MSTORE DUP1 DUP5 KECCAK256 DUP1 SLOAD PUSH1 0xFF NOT SWAP1 DUP2 AND SWAP1 SWAP2 SSTORE DUP4 DUP6 MSTORE SWAP1 DUP5 KECCAK256 DUP1 SLOAD SWAP1 SWAP2 AND PUSH1 0x1 OR SWAP1 SSTORE PUSH32 0xF84F6B525C89A18C80BBBC0C62A7EB5390956D6B8432AB067B49963A98F8C38F DUP4 DUP1 LOG3 DUP1 RETURN JUMPDEST PUSH1 0x64 SWAP1 PUSH1 0x20 DUP5 MLOAD SWAP2 PUSH3 0x461BCD PUSH1 0xE5 SHL DUP4 MSTORE DUP3 ADD MSTORE PUSH1 0x15 PUSH1 0x24 DUP3 ADD MSTORE PUSH21 0x21B0B73737BA1039B2BA103A379031B932B0BA37B9 PUSH1 0x59 SHL PUSH1 0x44 DUP3 ADD MSTORE REVERT JUMPDEST DUP4 MLOAD PUSH3 0x461BCD PUSH1 0xE5 SHL DUP2 MSTORE PUSH1 0x20 DUP2 DUP5 ADD MSTORE PUSH1 0x14 PUSH1 0x24 DUP3 ADD MSTORE PUSH20 0x13DB9B1E481C1B185D199BDC9B481DD85B1B195D PUSH1 0x62 SHL PUSH1 0x44 DUP3 ADD MSTORE PUSH1 0x64 SWAP1 REVERT JUMPDEST SWAP1 POP CALLVALUE PUSH2 0x29A JUMPI PUSH1 0x20 CALLDATASIZE PUSH1 0x3 NOT ADD SLT PUSH2 0x29A JUMPI PUSH2 0x770 PUSH2 0xEDF JUMP JUMPDEST SWAP1 PUSH2 0x779 PUSH2 0xF10 JUMP JUMPDEST PUSH1 0x1 PUSH1 0x1 PUSH1 0xA0 SHL SUB SWAP2 DUP3 AND SWAP2 PUSH32 0x0 AND DUP3 EQ PUSH2 0x7D0 JUMPI POP PUSH2 0x7B9 DUP2 ISZERO ISZERO PUSH2 0x12B4 JUMP JUMPDEST DUP3 MSTORE PUSH1 0x9 PUSH1 0x20 MSTORE DUP2 KECCAK256 DUP1 SLOAD PUSH1 0xFF NOT AND PUSH1 0x1 OR SWAP1 SSTORE DUP1 RETURN JUMPDEST PUSH1 0x64 SWAP1 PUSH1 0x20 DUP5 MLOAD SWAP2 PUSH3 0x461BCD PUSH1 0xE5 SHL DUP4 MSTORE DUP3 ADD MSTORE PUSH1 0x15 PUSH1 0x24 DUP3 ADD MSTORE PUSH21 0x21B0B73737BA1032BC32B6B83A1031B932B0BA37B9 PUSH1 0x59 SHL PUSH1 0x44 DUP3 ADD MSTORE REVERT JUMPDEST POP POP CALLVALUE PUSH2 0x1AC JUMPI PUSH1 0x20 CALLDATASIZE PUSH1 0x3 NOT ADD SLT PUSH2 0x1AC JUMPI PUSH1 0x20 SWAP2 PUSH1 0xFF SWAP1 DUP3 SWAP1 PUSH1 0x1 PUSH1 0x1 PUSH1 0xA0 SHL SUB PUSH2 0x836 PUSH2 0xEDF JUMP JUMPDEST AND DUP2 MSTORE PUSH1 0x9 DUP6 MSTORE KECCAK256 SLOAD AND SWAP1 MLOAD SWAP1 ISZERO ISZERO DUP2 MSTORE RETURN JUMPDEST SWAP2 SWAP1 POP CALLVALUE PUSH2 0x29A JUMPI DUP3 PUSH1 0x3 NOT CALLDATASIZE ADD SLT PUSH2 0x29A JUMPI PUSH2 0x864 PUSH2 0xF10 JUMP JUMPDEST PUSH1 0xA SLOAD SWAP2 PUSH1 0xFF DUP4 AND PUSH2 0x89F JUMPI POP PUSH1 0x1 PUSH1 0xFF NOT SWAP3 DUP4 AND DUP2 OR PUSH1 0xA SSTORE PUSH1 0x6 SLOAD PUSH1 0x1 PUSH1 0x1 PUSH1 0xA0 SHL SUB AND DUP5 MSTORE PUSH1 0x9 PUSH1 0x20 MSTORE SWAP1 DUP4 KECCAK256 DUP1 SLOAD SWAP1 SWAP3 AND OR SWAP1 SSTORE DUP1 RETURN JUMPDEST PUSH1 0x20 PUSH1 0x64 SWAP3 MLOAD SWAP2 PUSH3 0x461BCD PUSH1 0xE5 SHL DUP4 MSTORE DUP3 ADD MSTORE PUSH1 0x13 PUSH1 0x24 DUP3 ADD MSTORE PUSH19 0x105B1C9958591E481A5B9A5D1A585B1A5E9959 PUSH1 0x6A SHL PUSH1 0x44 DUP3 ADD MSTORE REVERT JUMPDEST DUP4 CALLVALUE PUSH2 0x4CD JUMPI DUP1 PUSH1 0x3 NOT CALLDATASIZE ADD SLT PUSH2 0x4CD JUMPI PUSH2 0x8F0 PUSH2 0xF10 JUMP JUMPDEST PUSH1 0x5 DUP1 SLOAD PUSH1 0x1 PUSH1 0x1 PUSH1 0xA0 SHL SUB NOT DUP2 AND SWAP1 SWAP2 SSTORE DUP2 SWAP1 PUSH1 0x1 PUSH1 0x1 PUSH1 0xA0 SHL SUB AND PUSH32 0x8BE0079C531659141344CD1FD0A4F28419497F9722A3DAAFE3B4186F6B6457E0 DUP3 DUP1 LOG3 DUP1 RETURN JUMPDEST POP POP CALLVALUE PUSH2 0x1AC JUMPI PUSH1 0x20 CALLDATASIZE PUSH1 0x3 NOT ADD SLT PUSH2 0x1AC JUMPI PUSH1 0x20 SWAP2 DUP2 SWAP1 PUSH1 0x1 PUSH1 0x1 PUSH1 0xA0 SHL SUB PUSH2 0x95C PUSH2 0xEDF JUMP JUMPDEST AND DUP2 MSTORE DUP1 DUP5 MSTORE KECCAK256 SLOAD SWAP1 MLOAD SWAP1 DUP2 MSTORE RETURN JUMPDEST POP POP CALLVALUE PUSH2 0x1AC JUMPI DUP2 PUSH1 0x3 NOT CALLDATASIZE ADD SLT PUSH2 0x1AC JUMPI PUSH1 0x20 SWAP1 MLOAD PUSH1 0x50 DUP2 MSTORE RETURN JUMPDEST POP POP CALLVALUE PUSH2 0x1AC JUMPI DUP2 PUSH1 0x3 NOT CALLDATASIZE ADD SLT PUSH2 0x1AC JUMPI PUSH1 0x20 SWAP1 MLOAD PUSH1 0xF DUP2 MSTORE RETURN JUMPDEST POP POP CALLVALUE PUSH2 0x1AC JUMPI DUP2 PUSH1 0x3 NOT CALLDATASIZE ADD SLT PUSH2 0x1AC JUMPI PUSH1 0x20 SWAP1 PUSH1 0x8 SLOAD TIMESTAMP LT ISZERO SWAP1 MLOAD SWAP1 DUP2 MSTORE RETURN JUMPDEST POP POP CALLVALUE PUSH2 0x1AC JUMPI DUP2 PUSH1 0x3 NOT CALLDATASIZE ADD SLT PUSH2 0x1AC JUMPI PUSH1 0x20 SWAP1 MLOAD PUSH3 0xED4E00 DUP2 MSTORE RETURN JUMPDEST SWAP2 SWAP1 POP CALLVALUE PUSH2 0x29A JUMPI PUSH1 0x20 SWAP1 DUP2 PUSH1 0x3 NOT CALLDATASIZE ADD SLT PUSH2 0xB9F JUMPI DUP3 CALLDATALOAD SWAP3 DUP4 ISZERO PUSH2 0xB69 JUMPI CALLER DUP6 MSTORE DUP5 DUP4 MSTORE DUP4 DUP3 DUP7 KECCAK256 SLOAD LT PUSH2 0xB31 JUMPI CALLER ISZERO PUSH2 0xAE6 JUMPI CALLER DUP6 MSTORE DUP5 DUP4 MSTORE DUP2 DUP6 KECCAK256 SLOAD SWAP1 DUP5 DUP3 LT PUSH2 0xA98 JUMPI POP SWAP1 DUP4 PUSH32 0xFD38818F5291BF0BB3A2A48AADC06BA8757865D1DABD804585338AAB3009DCB6 SWAP4 SWAP3 CALLER DUP8 MSTORE DUP7 DUP5 MSTORE SUB DUP2 DUP7 KECCAK256 SSTORE DUP4 PUSH1 0x2 SLOAD SUB PUSH1 0x2 SSTORE DUP5 DUP2 MLOAD DUP6 DUP2 MSTORE PUSH32 0xDDF252AD1BE2C89B69C2B068FC378DAA952BA7F163C4A11628F55A4DF523B3EF DUP5 CALLER SWAP3 LOG3 MLOAD SWAP3 DUP4 MSTORE CALLER SWAP3 LOG2 DUP1 RETURN JUMPDEST DUP3 MLOAD PUSH3 0x461BCD PUSH1 0xE5 SHL DUP2 MSTORE SWAP1 DUP2 ADD DUP5 SWAP1 MSTORE PUSH1 0x22 PUSH1 0x24 DUP3 ADD MSTORE PUSH32 0x45524332303A206275726E20616D6F756E7420657863656564732062616C616E PUSH1 0x44 DUP3 ADD MSTORE PUSH2 0x6365 PUSH1 0xF0 SHL PUSH1 0x64 DUP3 ADD MSTORE PUSH1 0x84 SWAP1 REVERT JUMPDEST DUP3 PUSH1 0x84 SWAP3 MLOAD SWAP2 PUSH3 0x461BCD PUSH1 0xE5 SHL DUP4 MSTORE DUP3 ADD MSTORE PUSH1 0x21 PUSH1 0x24 DUP3 ADD MSTORE PUSH32 0x45524332303A206275726E2066726F6D20746865207A65726F20616464726573 PUSH1 0x44 DUP3 ADD MSTORE PUSH1 0x73 PUSH1 0xF8 SHL PUSH1 0x64 DUP3 ADD MSTORE REVERT JUMPDEST DUP3 PUSH1 0x64 SWAP3 MLOAD SWAP2 PUSH3 0x461BCD PUSH1 0xE5 SHL DUP4 MSTORE DUP3 ADD MSTORE PUSH1 0x14 PUSH1 0x24 DUP3 ADD MSTORE PUSH20 0x496E73756666696369656E742062616C616E6365 PUSH1 0x60 SHL PUSH1 0x44 DUP3 ADD MSTORE REVERT JUMPDEST DUP3 PUSH1 0x64 SWAP3 MLOAD SWAP2 PUSH3 0x461BCD PUSH1 0xE5 SHL DUP4 MSTORE DUP3 ADD MSTORE PUSH1 0x12 PUSH1 0x24 DUP3 ADD MSTORE PUSH18 0x416D6F756E74206D757374206265203E203 PUSH1 0x74 SHL PUSH1 0x44 DUP3 ADD MSTORE REVERT JUMPDEST DUP4 DUP1 REVERT JUMPDEST DUP3 DUP5 CALLVALUE PUSH2 0x4CD JUMPI DUP2 PUSH1 0x3 NOT CALLDATASIZE ADD SLT PUSH2 0x4CD JUMPI PUSH2 0xBBD PUSH2 0xEDF JUMP JUMPDEST CALLER DUP3 MSTORE PUSH1 0x1 PUSH1 0x20 SWAP1 DUP2 MSTORE DUP4 DUP4 KECCAK256 PUSH1 0x1 PUSH1 0x1 PUSH1 0xA0 SHL SUB DUP4 AND DUP5 MSTORE SWAP1 MSTORE DUP3 DUP3 KECCAK256 SLOAD PUSH1 0x24 CALLDATALOAD DUP2 ADD SWAP3 SWAP1 DUP4 LT PUSH2 0xBF7 JUMPI PUSH1 0x20 DUP5 PUSH2 0x421 DUP6 DUP6 CALLER PUSH2 0xF68 JUMP JUMPDEST PUSH4 0x4E487B71 PUSH1 0xE0 SHL DUP2 MSTORE PUSH1 0x11 DUP6 MSTORE PUSH1 0x24 SWAP1 REVERT JUMPDEST POP POP CALLVALUE PUSH2 0x1AC JUMPI DUP2 PUSH1 0x3 NOT CALLDATASIZE ADD SLT PUSH2 0x1AC JUMPI PUSH1 0x20 SWAP1 MLOAD PUSH1 0x5 DUP2 MSTORE RETURN JUMPDEST POP POP CALLVALUE PUSH2 0x1AC JUMPI DUP2 PUSH1 0x3 NOT CALLDATASIZE ADD SLT PUSH2 0x1AC JUMPI PUSH1 0x20 SWAP1 MLOAD PUSH1 0x12 DUP2 MSTORE RETURN JUMPDEST DUP4 SWAP2 POP CALLVALUE PUSH2 0x1AC JUMPI PUSH1 0x60 CALLDATASIZE PUSH1 0x3 NOT ADD SLT PUSH2 0x1AC JUMPI PUSH2 0xC5E PUSH2 0xEDF JUMP JUMPDEST PUSH2 0xC66 PUSH2 0xEFA JUMP JUMPDEST SWAP2 DUP5 PUSH1 0x44 CALLDATALOAD SWAP5 PUSH1 0x1 DUP1 PUSH1 0xA0 SHL SUB DUP5 AND DUP2 MSTORE PUSH1 0x1 PUSH1 0x20 MSTORE DUP2 DUP2 KECCAK256 CALLER DUP3 MSTORE PUSH1 0x20 MSTORE KECCAK256 SLOAD SWAP1 PUSH1 0x0 NOT DUP3 SUB PUSH2 0xCA0 JUMPI JUMPDEST PUSH1 0x20 DUP7 PUSH2 0x421 DUP8 DUP8 DUP8 PUSH2 0x106A JUMP JUMPDEST DUP5 DUP3 LT PUSH2 0xCC9 JUMPI POP SWAP2 DUP4 SWAP2 PUSH2 0xCBE PUSH1 0x20 SWAP7 SWAP6 PUSH2 0x421 SWAP6 SUB CALLER DUP4 PUSH2 0xF68 JUMP JUMPDEST SWAP2 SWAP4 SWAP5 DUP2 SWAP4 POP PUSH2 0xC92 JUMP JUMPDEST PUSH1 0x64 SWAP1 PUSH1 0x20 DUP8 MLOAD SWAP2 PUSH3 0x461BCD PUSH1 0xE5 SHL DUP4 MSTORE DUP3 ADD MSTORE PUSH1 0x1D PUSH1 0x24 DUP3 ADD MSTORE PUSH32 0x45524332303A20696E73756666696369656E7420616C6C6F77616E6365000000 PUSH1 0x44 DUP3 ADD MSTORE REVERT JUMPDEST POP POP CALLVALUE PUSH2 0x1AC JUMPI DUP2 PUSH1 0x3 NOT CALLDATASIZE ADD SLT PUSH2 0x1AC JUMPI PUSH1 0x20 SWAP1 PUSH1 0x2 SLOAD SWAP1 MLOAD SWAP1 DUP2 MSTORE RETURN JUMPDEST POP POP CALLVALUE PUSH2 0x1AC JUMPI DUP2 PUSH1 0x3 NOT CALLDATASIZE ADD SLT PUSH2 0x1AC JUMPI PUSH1 0x20 SWAP1 PUSH1 0xFF PUSH1 0xA SLOAD AND SWAP1 MLOAD SWAP1 ISZERO ISZERO DUP2 MSTORE RETURN JUMPDEST POP POP CALLVALUE PUSH2 0x1AC JUMPI DUP1 PUSH1 0x3 NOT CALLDATASIZE ADD SLT PUSH2 0x1AC JUMPI PUSH1 0x20 SWAP1 PUSH2 0x421 PUSH2 0xD6F PUSH2 0xEDF JUMP JUMPDEST PUSH1 0x24 CALLDATALOAD SWAP1 CALLER PUSH2 0xF68 JUMP JUMPDEST DUP4 DUP4 CALLVALUE PUSH2 0x1AC JUMPI DUP2 PUSH1 0x3 NOT CALLDATASIZE ADD SLT PUSH2 0x1AC JUMPI DUP1 MLOAD SWAP1 DUP3 PUSH1 0x3 SLOAD PUSH1 0x1 DUP2 DUP2 SHR SWAP1 DUP1 DUP4 AND SWAP3 DUP4 ISZERO PUSH2 0xE49 JUMPI JUMPDEST PUSH1 0x20 SWAP4 DUP5 DUP5 LT DUP2 EQ PUSH2 0x5D2 JUMPI DUP4 DUP9 MSTORE SWAP1 DUP2 ISZERO PUSH2 0x5B6 JUMPI POP PUSH1 0x1 EQ PUSH2 0xDF3 JUMPI POP POP POP DUP3 SWAP1 SUB PUSH1 0x1F ADD PUSH1 0x1F NOT AND DUP3 ADD SWAP3 PUSH8 0xFFFFFFFFFFFFFFFF DUP5 GT DUP4 DUP6 LT OR PUSH2 0x54E JUMPI POP DUP3 SWAP2 DUP3 PUSH2 0x54A SWAP3 MSTORE DUP3 PUSH2 0xE96 JUMP JUMPDEST PUSH1 0x3 DUP8 MSTORE SWAP2 SWAP3 POP DUP6 SWAP2 DUP4 PUSH32 0xC2575A0E9E593C00F959F8C92F12DB2869C3395A3B0502D05E2516446F71F85B JUMPDEST DUP4 DUP6 LT PUSH2 0xE35 JUMPI POP POP POP POP DUP4 ADD ADD DUP6 DUP1 DUP1 PUSH2 0x518 JUMP JUMPDEST DUP1 SLOAD DUP9 DUP7 ADD DUP4 ADD MSTORE SWAP4 ADD SWAP3 DUP5 SWAP1 DUP3 ADD PUSH2 0xE1F JUMP JUMPDEST SWAP2 PUSH1 0x7F AND SWAP2 PUSH2 0xDA3 JUMP JUMPDEST DUP5 SWAP1 CALLVALUE PUSH2 0x1AC JUMPI DUP2 PUSH1 0x3 NOT CALLDATASIZE ADD SLT PUSH2 0x1AC JUMPI PUSH32 0x0 PUSH1 0x1 PUSH1 0x1 PUSH1 0xA0 SHL SUB AND DUP2 MSTORE PUSH1 0x20 SWAP1 RETURN JUMPDEST PUSH1 0x20 DUP1 DUP3 MSTORE DUP3 MLOAD DUP2 DUP4 ADD DUP2 SWAP1 MSTORE SWAP1 SWAP4 SWAP3 PUSH1 0x0 JUMPDEST DUP3 DUP2 LT PUSH2 0xECB JUMPI POP POP PUSH1 0x40 SWAP3 SWAP4 POP PUSH1 0x0 DUP4 DUP3 DUP5 ADD ADD MSTORE PUSH1 0x1F DUP1 NOT SWAP2 ADD AND ADD ADD SWAP1 JUMP JUMPDEST DUP2 DUP2 ADD DUP7 ADD MLOAD DUP5 DUP3 ADD PUSH1 0x40 ADD MSTORE DUP6 ADD PUSH2 0xEA9 JUMP JUMPDEST PUSH1 0x4 CALLDATALOAD SWAP1 PUSH1 0x1 PUSH1 0x1 PUSH1 0xA0 SHL SUB DUP3 AND DUP3 SUB PUSH2 0xEF5 JUMPI JUMP JUMPDEST PUSH1 0x0 DUP1 REVERT JUMPDEST PUSH1 0x24 CALLDATALOAD SWAP1 PUSH1 0x1 PUSH1 0x1 PUSH1 0xA0 SHL SUB DUP3 AND DUP3 SUB PUSH2 0xEF5 JUMPI JUMP JUMPDEST PUSH1 0x5 SLOAD PUSH1 0x1 PUSH1 0x1 PUSH1 0xA0 SHL SUB AND CALLER SUB PUSH2 0xF24 JUMPI JUMP JUMPDEST PUSH1 0x64 PUSH1 0x40 MLOAD PUSH3 0x461BCD PUSH1 0xE5 SHL DUP2 MSTORE PUSH1 0x20 PUSH1 0x4 DUP3 ADD MSTORE PUSH1 0x20 PUSH1 0x24 DUP3 ADD MSTORE PUSH32 0x4F776E61626C653A2063616C6C6572206973206E6F7420746865206F776E6572 PUSH1 0x44 DUP3 ADD MSTORE REVERT JUMPDEST PUSH1 0x1 PUSH1 0x1 PUSH1 0xA0 SHL SUB SWAP1 DUP2 AND SWAP2 DUP3 ISZERO PUSH2 0x1019 JUMPI AND SWAP2 DUP3 ISZERO PUSH2 0xFC9 JUMPI PUSH1 0x20 PUSH32 0x8C5BE1E5EBEC7D5BD14F71427D1E84F3DD0314C0F7B2291E5B200AC8C7C3B925 SWAP2 DUP4 PUSH1 0x0 MSTORE PUSH1 0x1 DUP3 MSTORE PUSH1 0x40 PUSH1 0x0 KECCAK256 DUP6 PUSH1 0x0 MSTORE DUP3 MSTORE DUP1 PUSH1 0x40 PUSH1 0x0 KECCAK256 SSTORE PUSH1 0x40 MLOAD SWAP1 DUP2 MSTORE LOG3 JUMP JUMPDEST PUSH1 0x40 MLOAD PUSH3 0x461BCD PUSH1 0xE5 SHL DUP2 MSTORE PUSH1 0x20 PUSH1 0x4 DUP3 ADD MSTORE PUSH1 0x22 PUSH1 0x24 DUP3 ADD MSTORE PUSH32 0x45524332303A20617070726F766520746F20746865207A65726F206164647265 PUSH1 0x44 DUP3 ADD MSTORE PUSH2 0x7373 PUSH1 0xF0 SHL PUSH1 0x64 DUP3 ADD MSTORE PUSH1 0x84 SWAP1 REVERT JUMPDEST PUSH1 0x40 MLOAD PUSH3 0x461BCD PUSH1 0xE5 SHL DUP2 MSTORE PUSH1 0x20 PUSH1 0x4 DUP3 ADD MSTORE PUSH1 0x24 DUP1 DUP3 ADD MSTORE PUSH32 0x45524332303A20617070726F76652066726F6D20746865207A65726F20616464 PUSH1 0x44 DUP3 ADD MSTORE PUSH4 0x72657373 PUSH1 0xE0 SHL PUSH1 0x64 DUP3 ADD MSTORE PUSH1 0x84 SWAP1 REVERT JUMPDEST PUSH1 0x1 PUSH1 0x1 PUSH1 0xA0 SHL SUB SWAP1 DUP2 AND SWAP2 PUSH32 0x0 DUP3 AND DUP4 EQ DUP1 PUSH2 0x1267 JUMPI JUMPDEST PUSH2 0x1208 JUMPI JUMPDEST DUP3 ISZERO PUSH2 0x11B5 JUMPI AND SWAP2 DUP3 ISZERO PUSH2 0x1164 JUMPI PUSH1 0x0 DUP3 DUP2 MSTORE DUP1 PUSH1 0x20 MSTORE PUSH1 0x40 DUP2 KECCAK256 SLOAD SWAP2 DUP1 DUP4 LT PUSH2 0x1110 JUMPI PUSH1 0x40 DUP3 DUP3 PUSH32 0xDDF252AD1BE2C89B69C2B068FC378DAA952BA7F163C4A11628F55A4DF523B3EF SWAP6 DUP8 PUSH1 0x20 SWAP7 MSTORE DUP3 DUP7 MSTORE SUB DUP3 DUP3 KECCAK256 SSTORE DUP7 DUP2 MSTORE KECCAK256 DUP2 DUP2 SLOAD ADD SWAP1 SSTORE PUSH1 0x40 MLOAD SWAP1 DUP2 MSTORE LOG3 JUMP JUMPDEST PUSH1 0x40 MLOAD PUSH3 0x461BCD PUSH1 0xE5 SHL DUP2 MSTORE PUSH1 0x20 PUSH1 0x4 DUP3 ADD MSTORE PUSH1 0x26 PUSH1 0x24 DUP3 ADD MSTORE PUSH32 0x45524332303A207472616E7366657220616D6F756E7420657863656564732062 PUSH1 0x44 DUP3 ADD MSTORE PUSH6 0x616C616E6365 PUSH1 0xD0 SHL PUSH1 0x64 DUP3 ADD MSTORE PUSH1 0x84 SWAP1 REVERT JUMPDEST PUSH1 0x40 MLOAD PUSH3 0x461BCD PUSH1 0xE5 SHL DUP2 MSTORE PUSH1 0x20 PUSH1 0x4 DUP3 ADD MSTORE PUSH1 0x23 PUSH1 0x24 DUP3 ADD MSTORE PUSH32 0x45524332303A207472616E7366657220746F20746865207A65726F2061646472 PUSH1 0x44 DUP3 ADD MSTORE PUSH3 0x657373 PUSH1 0xE8 SHL PUSH1 0x64 DUP3 ADD MSTORE PUSH1 0x84 SWAP1 REVERT JUMPDEST PUSH1 0x40 MLOAD PUSH3 0x461BCD PUSH1 0xE5 SHL DUP2 MSTORE PUSH1 0x20 PUSH1 0x4 DUP3 ADD MSTORE PUSH1 0x25 PUSH1 0x24 DUP3 ADD MSTORE PUSH32 0x45524332303A207472616E736665722066726F6D20746865207A65726F206164 PUSH1 0x44 DUP3 ADD MSTORE PUSH5 0x6472657373 PUSH1 0xD8 SHL PUSH1 0x64 DUP3 ADD MSTORE PUSH1 0x84 SWAP1 REVERT JUMPDEST PUSH1 0x8 SLOAD TIMESTAMP LT ISZERO PUSH2 0x10A6 JUMPI PUSH1 0x40 MLOAD PUSH3 0x461BCD PUSH1 0xE5 SHL DUP2 MSTORE PUSH1 0x20 PUSH1 0x4 DUP3 ADD MSTORE PUSH1 0x27 PUSH1 0x24 DUP3 ADD MSTORE PUSH32 0x43726561746F7220746F6B656E73206C6F636B656420756E74696C20756E6C6F PUSH1 0x44 DUP3 ADD MSTORE PUSH7 0x636B2064617465 PUSH1 0xC8 SHL PUSH1 0x64 DUP3 ADD MSTORE PUSH1 0x84 SWAP1 REVERT JUMPDEST POP DUP3 PUSH1 0x0 MSTORE PUSH1 0x9 PUSH1 0x20 MSTORE PUSH1 0xFF PUSH1 0x40 PUSH1 0x0 KECCAK256 SLOAD AND ISZERO PUSH2 0x10A1 JUMP JUMPDEST PUSH1 0x8 SLOAD DUP1 TIMESTAMP LT ISZERO PUSH2 0x12AE JUMPI TIMESTAMP DUP2 SUB SWAP1 DUP2 GT PUSH2 0x1298 JUMPI SWAP1 JUMP JUMPDEST PUSH4 0x4E487B71 PUSH1 0xE0 SHL PUSH1 0x0 MSTORE PUSH1 0x11 PUSH1 0x4 MSTORE PUSH1 0x24 PUSH1 0x0 REVERT JUMPDEST POP PUSH1 0x0 SWAP1 JUMP JUMPDEST ISZERO PUSH2 0x12BB JUMPI JUMP JUMPDEST PUSH1 0x40 MLOAD PUSH3 0x461BCD PUSH1 0xE5 SHL DUP2 MSTORE PUSH1 0x20 PUSH1 0x4 DUP3 ADD MSTORE PUSH1 0xF PUSH1 0x24 DUP3 ADD MSTORE PUSH15 0x496E76616C69642061646472657373 PUSH1 0x88 SHL PUSH1 0x44 DUP3 ADD MSTORE PUSH1 0x64 SWAP1 REVERT INVALID LOG2 PUSH5 0x6970667358 0x22 SLT KECCAK256 PC 0x4F PUSH26 0x80B773E5E380C2D4700D05A3F352FA319F8801F12225CEF79D58 LOG3 0xB2 0x2F PUSH5 0x736F6C6343 STOP ADDMOD EQ STOP CALLER "},"methodIdentifiers":{"BONDING_CURVE_PERCENT()":"6f293d59","CREATOR_RESERVE_PERCENT()":"58e5c3fb","PLATFORM_RESERVE_PERCENT()":"3150344a","VESTING_DURATION()":"4cfc4d30","addVestingExempt(address)":"882c17e9","allowance(address,address)":"dd62ed3e","approve(address,uint256)":"095ea7b3","balanceOf(address)":"70a08231","burn(uint256)":"42966c68","creator()":"02d05d3f","creatorUnlockDate()":"d207b672","creatorVestingRemaining()":"e46e46df","decimals()":"313ce567","decreaseAllowance(address,uint256)":"a457c2d7","increaseAllowance(address,uint256)":"39509351","initialized()":"158ef93e","isCreatorUnlocked()":"554bb2b0","launchDate()":"f8eeed62","markInitialized()":"73346abc","maxSupply()":"d5abeb01","name()":"06fdde03","owner()":"8da5cb5b","platformWallet()":"fa2af9da","removeVestingExempt(address)":"f2c5c06d","renounceOwnership()":"715018a6","setPlatformWallet(address)":"8831e9cf","symbol()":"95d89b41","totalSupply()":"18160ddd","transfer(address,uint256)":"a9059cbb","transferFrom(address,address,uint256)":"23b872dd","transferOwnership(address)":"f2fde38b","vestingExempt(address)":"8611f015"}}}}}