{"contracts/mocks/MockUniswapV2Router.sol":{"MockUniswapV2Router":{"abi":[{"inputs":[{"internalType":"address","name":"_weth","type":"address"}],"stateMutability":"nonpayable","type":"constructor"},{"inputs":[],"name":"WETH","outputs":[{"internalType":"address","name":"","type":"address"}],"stateMutability":"view","type":"function"},{"inputs":[],"name":"_factory","outputs":[{"internalType":"address","name":"","type":"address"}],"stateMutability":"view","type":"function"},{"inputs":[{"internalType":"address","name":"token","type":"address"},{"internalType":"uint256","name":"amountTokenDesired","type":"uint256"},{"internalType":"uint256","name":"","type":"uint256"},{"internalType":"uint256","name":"","type":"uint256"},{"internalType":"address","name":"to","type":"address"},{"internalType":"uint256","name":"","type":"uint256"}],"name":"addLiquidityETH","outputs":[{"internalType":"uint256","name":"amountToken","type":"uint256"},{"internalType":"uint256","name":"amountETH","type":"uint256"},{"internalType":"uint256","name":"liquidity","type":"uint256"}],"stateMutability":"payable","type":"function"},{"inputs":[{"internalType":"address","name":"","type":"address"},{"internalType":"uint256","name":"","type":"uint256"}],"name":"approve","outputs":[{"internalType":"bool","name":"","type":"bool"}],"stateMutability":"pure","type":"function"},{"inputs":[{"internalType":"address","name":"","type":"address"}],"name":"balanceOf","outputs":[{"internalType":"uint256","name":"","type":"uint256"}],"stateMutability":"view","type":"function"},{"inputs":[],"name":"factory","outputs":[{"internalType":"address","name":"","type":"address"}],"stateMutability":"view","type":"function"},{"inputs":[{"internalType":"address","name":"","type":"address"},{"internalType":"address","name":"","type":"address"}],"name":"getPair","outputs":[{"internalType":"address","name":"","type":"address"}],"stateMutability":"view","type":"function"},{"inputs":[],"name":"lastAmountETH","outputs":[{"internalType":"uint256","name":"","type":"uint256"}],"stateMutability":"view","type":"function"},{"inputs":[],"name":"lastAmountToken","outputs":[{"internalType":"uint256","name":"","type":"uint256"}],"stateMutability":"view","type":"function"},{"inputs":[],"name":"lastToken","outputs":[{"internalType":"address","name":"","type":"address"}],"stateMutability":"view","type":"function"},{"inputs":[],"name":"token0","outputs":[{"internalType":"address","name":"","type":"address"}],"stateMutability":"view","type":"function"},{"inputs":[{"internalType":"address","name":"to","type":"address"},{"internalType":"uint256","name":"value","type":"uint256"}],"name":"transfer","outputs":[{"internalType":"bool","name":"","type":"bool"}],"stateMutability":"nonpayable","type":"function"},{"stateMutability":"payable","type":"receive"}],"evm":{"bytecode":{"linkReferences":{},"object":"60c03461007757601f61048138819003918201601f19168301916001600160401b0383118484101761007c5780849260209460405283398101031261007757516001600160a01b0381168103610077576080523060a0526040516103ee9081610093823960805181610187015260a051816103660152f35b600080fd5b634e487b7160e01b600052604160045260246000fdfe60806040818152600436101561001f575b5050361561001d57600080fd5b005b600091823560e01c908163095ea7b31461030d575080630dfe1681146102c957806312ac6ead146102f15780632f796f50146102c95780633e539329146102ab57806370a0823114610274578063a9059cbb146101b6578063ad5c464814610173578063c45a01551461016e578063c5cc6b6a1461016e578063e6a43905146101395763f305d719036100105760c0366003190112610135576100c0610335565b602435916001600160a01b03608435818116939084900361013157948291606096166bffffffffffffffffffffffff60a01b60025416176002558481553460015561010b3486610395565b93815260036020522061011f838254610395565b90558051928352346020840152820152f35b8580fd5b5080fd5b5034610135578060031936011261013557610152610335565b506024356001600160a01b038116036101355760209051308152f35b610350565b5034610135578160031936011261013557517f00000000000000000000000000000000000000000000000000000000000000006001600160a01b03168152602090f35b50346101355780600319360112610135576101cf610335565b60243590338452600360205281838520541061023e57338452600360205282842080549083820391821161022a57556001600160a01b0316835260036020908152928290208054909161022191610395565b90555160018152f35b634e487b7160e01b86526011600452602486fd5b825162461bcd60e51b815260206004820152600f60248201526e0496e73756666696369656e74204c5608c1b6044820152606490fd5b50346101355760203660031901126101355760209181906001600160a01b0361029b610335565b1681526003845220549051908152f35b50346101355781600319360112610135576020906001549051908152f35b503461013557816003193601126101355760025490516001600160a01b039091168152602090f35b5034610135578160031936011261013557602091549051908152f35b91905034610331573660031901126101355760209061032a610335565b5060018152f35b8280fd5b600435906001600160a01b038216820361034b57565b600080fd5b3461034b57600036600319011261034b576040517f00000000000000000000000000000000000000000000000000000000000000006001600160a01b03168152602090f35b919082018092116103a257565b634e487b7160e01b600052601160045260246000fdfea2646970667358221220daa40b772ac81b7a0a18da91e673d10535364b28cea9471099feb3aadcc805e864736f6c63430008140033","opcodes":"PUSH1 0xC0 CALLVALUE PUSH2 0x77 JUMPI PUSH1 0x1F PUSH2 0x481 CODESIZE DUP2 SWAP1 SUB SWAP2 DUP3 ADD PUSH1 0x1F NOT AND DUP4 ADD SWAP2 PUSH1 0x1 PUSH1 0x1 PUSH1 0x40 SHL SUB DUP4 GT DUP5 DUP5 LT OR PUSH2 0x7C JUMPI DUP1 DUP5 SWAP3 PUSH1 0x20 SWAP5 PUSH1 0x40 MSTORE DUP4 CODECOPY DUP2 ADD SUB SLT PUSH2 0x77 JUMPI MLOAD PUSH1 0x1 PUSH1 0x1 PUSH1 0xA0 SHL SUB DUP2 AND DUP2 SUB PUSH2 0x77 JUMPI PUSH1 0x80 MSTORE ADDRESS PUSH1 0xA0 MSTORE PUSH1 0x40 MLOAD PUSH2 0x3EE SWAP1 DUP2 PUSH2 0x93 DUP3 CODECOPY PUSH1 0x80 MLOAD DUP2 PUSH2 0x187 ADD MSTORE PUSH1 0xA0 MLOAD DUP2 PUSH2 0x366 ADD MSTORE RETURN JUMPDEST PUSH1 0x0 DUP1 REVERT JUMPDEST PUSH4 0x4E487B71 PUSH1 0xE0 SHL PUSH1 0x0 MSTORE PUSH1 0x41 PUSH1 0x4 MSTORE PUSH1 0x24 PUSH1 0x0 REVERT INVALID PUSH1 0x80 PUSH1 0x40 DUP2 DUP2 MSTORE PUSH1 0x4 CALLDATASIZE LT ISZERO PUSH2 0x1F JUMPI JUMPDEST POP POP CALLDATASIZE ISZERO PUSH2 0x1D JUMPI PUSH1 0x0 DUP1 REVERT JUMPDEST STOP JUMPDEST PUSH1 0x0 SWAP2 DUP3 CALLDATALOAD PUSH1 0xE0 SHR SWAP1 DUP2 PUSH4 0x95EA7B3 EQ PUSH2 0x30D JUMPI POP DUP1 PUSH4 0xDFE1681 EQ PUSH2 0x2C9 JUMPI DUP1 PUSH4 0x12AC6EAD EQ PUSH2 0x2F1 JUMPI DUP1 PUSH4 0x2F796F50 EQ PUSH2 0x2C9 JUMPI DUP1 PUSH4 0x3E539329 EQ PUSH2 0x2AB JUMPI DUP1 PUSH4 0x70A08231 EQ PUSH2 0x274 JUMPI DUP1 PUSH4 0xA9059CBB EQ PUSH2 0x1B6 JUMPI DUP1 PUSH4 0xAD5C4648 EQ PUSH2 0x173 JUMPI DUP1 PUSH4 0xC45A0155 EQ PUSH2 0x16E JUMPI DUP1 PUSH4 0xC5CC6B6A EQ PUSH2 0x16E JUMPI DUP1 PUSH4 0xE6A43905 EQ PUSH2 0x139 JUMPI PUSH4 0xF305D719 SUB PUSH2 0x10 JUMPI PUSH1 0xC0 CALLDATASIZE PUSH1 0x3 NOT ADD SLT PUSH2 0x135 JUMPI PUSH2 0xC0 PUSH2 0x335 JUMP JUMPDEST PUSH1 0x24 CALLDATALOAD SWAP2 PUSH1 0x1 PUSH1 0x1 PUSH1 0xA0 SHL SUB PUSH1 0x84 CALLDATALOAD DUP2 DUP2 AND SWAP4 SWAP1 DUP5 SWAP1 SUB PUSH2 0x131 JUMPI SWAP5 DUP3 SWAP2 PUSH1 0x60 SWAP7 AND PUSH12 0xFFFFFFFFFFFFFFFFFFFFFFFF PUSH1 0xA0 SHL PUSH1 0x2 SLOAD AND OR PUSH1 0x2 SSTORE DUP5 DUP2 SSTORE CALLVALUE PUSH1 0x1 SSTORE PUSH2 0x10B CALLVALUE DUP7 PUSH2 0x395 JUMP JUMPDEST SWAP4 DUP2 MSTORE PUSH1 0x3 PUSH1 0x20 MSTORE KECCAK256 PUSH2 0x11F DUP4 DUP3 SLOAD PUSH2 0x395 JUMP JUMPDEST SWAP1 SSTORE DUP1 MLOAD SWAP3 DUP4 MSTORE CALLVALUE PUSH1 0x20 DUP5 ADD MSTORE DUP3 ADD MSTORE RETURN JUMPDEST DUP6 DUP1 REVERT JUMPDEST POP DUP1 REVERT JUMPDEST POP CALLVALUE PUSH2 0x135 JUMPI DUP1 PUSH1 0x3 NOT CALLDATASIZE ADD SLT PUSH2 0x135 JUMPI PUSH2 0x152 PUSH2 0x335 JUMP JUMPDEST POP PUSH1 0x24 CALLDATALOAD PUSH1 0x1 PUSH1 0x1 PUSH1 0xA0 SHL SUB DUP2 AND SUB PUSH2 0x135 JUMPI PUSH1 0x20 SWAP1 MLOAD ADDRESS DUP2 MSTORE RETURN JUMPDEST PUSH2 0x350 JUMP JUMPDEST POP CALLVALUE PUSH2 0x135 JUMPI DUP2 PUSH1 0x3 NOT CALLDATASIZE ADD SLT PUSH2 0x135 JUMPI MLOAD PUSH32 0x0 PUSH1 0x1 PUSH1 0x1 PUSH1 0xA0 SHL SUB AND DUP2 MSTORE PUSH1 0x20 SWAP1 RETURN JUMPDEST POP CALLVALUE PUSH2 0x135 JUMPI DUP1 PUSH1 0x3 NOT CALLDATASIZE ADD SLT PUSH2 0x135 JUMPI PUSH2 0x1CF PUSH2 0x335 JUMP JUMPDEST PUSH1 0x24 CALLDATALOAD SWAP1 CALLER DUP5 MSTORE PUSH1 0x3 PUSH1 0x20 MSTORE DUP2 DUP4 DUP6 KECCAK256 SLOAD LT PUSH2 0x23E JUMPI CALLER DUP5 MSTORE PUSH1 0x3 PUSH1 0x20 MSTORE DUP3 DUP5 KECCAK256 DUP1 SLOAD SWAP1 DUP4 DUP3 SUB SWAP2 DUP3 GT PUSH2 0x22A JUMPI SSTORE PUSH1 0x1 PUSH1 0x1 PUSH1 0xA0 SHL SUB AND DUP4 MSTORE PUSH1 0x3 PUSH1 0x20 SWAP1 DUP2 MSTORE SWAP3 DUP3 SWAP1 KECCAK256 DUP1 SLOAD SWAP1 SWAP2 PUSH2 0x221 SWAP2 PUSH2 0x395 JUMP JUMPDEST SWAP1 SSTORE MLOAD PUSH1 0x1 DUP2 MSTORE RETURN JUMPDEST PUSH4 0x4E487B71 PUSH1 0xE0 SHL DUP7 MSTORE PUSH1 0x11 PUSH1 0x4 MSTORE PUSH1 0x24 DUP7 REVERT JUMPDEST DUP3 MLOAD PUSH3 0x461BCD PUSH1 0xE5 SHL DUP2 MSTORE PUSH1 0x20 PUSH1 0x4 DUP3 ADD MSTORE PUSH1 0xF PUSH1 0x24 DUP3 ADD MSTORE PUSH15 0x496E73756666696369656E74204C5 PUSH1 0x8C SHL PUSH1 0x44 DUP3 ADD MSTORE PUSH1 0x64 SWAP1 REVERT JUMPDEST POP CALLVALUE PUSH2 0x135 JUMPI PUSH1 0x20 CALLDATASIZE PUSH1 0x3 NOT ADD SLT PUSH2 0x135 JUMPI PUSH1 0x20 SWAP2 DUP2 SWAP1 PUSH1 0x1 PUSH1 0x1 PUSH1 0xA0 SHL SUB PUSH2 0x29B PUSH2 0x335 JUMP JUMPDEST AND DUP2 MSTORE PUSH1 0x3 DUP5 MSTORE KECCAK256 SLOAD SWAP1 MLOAD SWAP1 DUP2 MSTORE RETURN JUMPDEST POP CALLVALUE PUSH2 0x135 JUMPI DUP2 PUSH1 0x3 NOT CALLDATASIZE ADD SLT PUSH2 0x135 JUMPI PUSH1 0x20 SWAP1 PUSH1 0x1 SLOAD SWAP1 MLOAD SWAP1 DUP2 MSTORE RETURN JUMPDEST POP CALLVALUE PUSH2 0x135 JUMPI DUP2 PUSH1 0x3 NOT CALLDATASIZE ADD SLT PUSH2 0x135 JUMPI PUSH1 0x2 SLOAD SWAP1 MLOAD PUSH1 0x1 PUSH1 0x1 PUSH1 0xA0 SHL SUB SWAP1 SWAP2 AND DUP2 MSTORE PUSH1 0x20 SWAP1 RETURN JUMPDEST POP CALLVALUE PUSH2 0x135 JUMPI DUP2 PUSH1 0x3 NOT CALLDATASIZE ADD SLT PUSH2 0x135 JUMPI PUSH1 0x20 SWAP2 SLOAD SWAP1 MLOAD SWAP1 DUP2 MSTORE RETURN JUMPDEST SWAP2 SWAP1 POP CALLVALUE PUSH2 0x331 JUMPI CALLDATASIZE PUSH1 0x3 NOT ADD SLT PUSH2 0x135 JUMPI PUSH1 0x20 SWAP1 PUSH2 0x32A PUSH2 0x335 JUMP JUMPDEST POP PUSH1 0x1 DUP2 MSTORE RETURN JUMPDEST DUP3 DUP1 REVERT JUMPDEST PUSH1 0x4 CALLDATALOAD SWAP1 PUSH1 0x1 PUSH1 0x1 PUSH1 0xA0 SHL SUB DUP3 AND DUP3 SUB PUSH2 0x34B JUMPI JUMP JUMPDEST PUSH1 0x0 DUP1 REVERT JUMPDEST CALLVALUE PUSH2 0x34B JUMPI PUSH1 0x0 CALLDATASIZE PUSH1 0x3 NOT ADD SLT PUSH2 0x34B JUMPI PUSH1 0x40 MLOAD PUSH32 0x0 PUSH1 0x1 PUSH1 0x1 PUSH1 0xA0 SHL SUB AND DUP2 MSTORE PUSH1 0x20 SWAP1 RETURN JUMPDEST SWAP2 SWAP1 DUP3 ADD DUP1 SWAP3 GT PUSH2 0x3A2 JUMPI JUMP JUMPDEST PUSH4 0x4E487B71 PUSH1 0xE0 SHL PUSH1 0x0 MSTORE PUSH1 0x11 PUSH1 0x4 MSTORE PUSH1 0x24 PUSH1 0x0 REVERT INVALID LOG2 PUSH5 0x6970667358 0x22 SLT KECCAK256 0xDA LOG4 SIGNEXTEND PUSH24 0x2AC81B7A0A18DA91E673D10535364B28CEA9471099FEB3AA 0xDC 0xC8 SDIV 0xE8 PUSH5 0x736F6C6343 STOP ADDMOD EQ STOP CALLER "},"methodIdentifiers":{"WETH()":"ad5c4648","_factory()":"c5cc6b6a","addLiquidityETH(address,uint256,uint256,uint256,address,uint256)":"f305d719","approve(address,uint256)":"095ea7b3","balanceOf(address)":"70a08231","factory()":"c45a0155","getPair(address,address)":"e6a43905","lastAmountETH()":"3e539329","lastAmountToken()":"12ac6ead","lastToken()":"2f796f50","token0()":"0dfe1681","transfer(address,uint256)":"a9059cbb"}}}}}