{
  "_format": "hh-sol-artifact-1",
  "contractName": "LaunchpadToken",
  "sourceName": "contracts/LaunchpadToken.sol",
  "abi": [
    {
      "inputs": [
        {
          "internalType": "string",
          "name": "name_",
          "type": "string"
        },
        {
          "internalType": "string",
          "name": "symbol_",
          "type": "string"
        },
        {
          "internalType": "uint256",
          "name": "_maxSupply",
          "type": "uint256"
        },
        {
          "internalType": "address",
          "name": "_platformWallet",
          "type": "address"
        },
        {
          "internalType": "address",
          "name": "_creator",
          "type": "address"
        },
        {
          "internalType": "uint256",
          "name": "_launchDate",
          "type": "uint256"
        }
      ],
      "stateMutability": "nonpayable",
      "type": "constructor"
    },
    {
      "anonymous": false,
      "inputs": [
        {
          "indexed": true,
          "internalType": "address",
          "name": "owner",
          "type": "address"
        },
        {
          "indexed": true,
          "internalType": "address",
          "name": "spender",
          "type": "address"
        },
        {
          "indexed": false,
          "internalType": "uint256",
          "name": "value",
          "type": "uint256"
        }
      ],
      "name": "Approval",
      "type": "event"
    },
    {
      "anonymous": false,
      "inputs": [
        {
          "indexed": false,
          "internalType": "uint256",
          "name": "timestamp",
          "type": "uint256"
        }
      ],
      "name": "CreatorTokensUnlocked",
      "type": "event"
    },
    {
      "anonymous": false,
      "inputs": [
        {
          "indexed": true,
          "internalType": "address",
          "name": "previousOwner",
          "type": "address"
        },
        {
          "indexed": true,
          "internalType": "address",
          "name": "newOwner",
          "type": "address"
        }
      ],
      "name": "OwnershipTransferred",
      "type": "event"
    },
    {
      "anonymous": false,
      "inputs": [
        {
          "indexed": true,
          "internalType": "address",
          "name": "oldWallet",
          "type": "address"
        },
        {
          "indexed": true,
          "internalType": "address",
          "name": "newWallet",
          "type": "address"
        }
      ],
      "name": "PlatformWalletUpdated",
      "type": "event"
    },
    {
      "anonymous": false,
      "inputs": [
        {
          "indexed": true,
          "internalType": "address",
          "name": "from",
          "type": "address"
        },
        {
          "indexed": false,
          "internalType": "uint256",
          "name": "amount",
          "type": "uint256"
        }
      ],
      "name": "TokensBurned",
      "type": "event"
    },
    {
      "anonymous": false,
      "inputs": [
        {
          "indexed": true,
          "internalType": "address",
          "name": "from",
          "type": "address"
        },
        {
          "indexed": true,
          "internalType": "address",
          "name": "to",
          "type": "address"
        },
        {
          "indexed": false,
          "internalType": "uint256",
          "name": "value",
          "type": "uint256"
        }
      ],
      "name": "Transfer",
      "type": "event"
    },
    {
      "inputs": [],
      "name": "BONDING_CURVE_PERCENT",
      "outputs": [
        {
          "internalType": "uint256",
          "name": "",
          "type": "uint256"
        }
      ],
      "stateMutability": "view",
      "type": "function"
    },
    {
      "inputs": [],
      "name": "CREATOR_RESERVE_PERCENT",
      "outputs": [
        {
          "internalType": "uint256",
          "name": "",
          "type": "uint256"
        }
      ],
      "stateMutability": "view",
      "type": "function"
    },
    {
      "inputs": [],
      "name": "PLATFORM_RESERVE_PERCENT",
      "outputs": [
        {
          "internalType": "uint256",
          "name": "",
          "type": "uint256"
        }
      ],
      "stateMutability": "view",
      "type": "function"
    },
    {
      "inputs": [],
      "name": "VESTING_DURATION",
      "outputs": [
        {
          "internalType": "uint256",
          "name": "",
          "type": "uint256"
        }
      ],
      "stateMutability": "view",
      "type": "function"
    },
    {
      "inputs": [
        {
          "internalType": "address",
          "name": "account",
          "type": "address"
        }
      ],
      "name": "addVestingExempt",
      "outputs": [],
      "stateMutability": "nonpayable",
      "type": "function"
    },
    {
      "inputs": [
        {
          "internalType": "address",
          "name": "owner",
          "type": "address"
        },
        {
          "internalType": "address",
          "name": "spender",
          "type": "address"
        }
      ],
      "name": "allowance",
      "outputs": [
        {
          "internalType": "uint256",
          "name": "",
          "type": "uint256"
        }
      ],
      "stateMutability": "view",
      "type": "function"
    },
    {
      "inputs": [
        {
          "internalType": "address",
          "name": "spender",
          "type": "address"
        },
        {
          "internalType": "uint256",
          "name": "amount",
          "type": "uint256"
        }
      ],
      "name": "approve",
      "outputs": [
        {
          "internalType": "bool",
          "name": "",
          "type": "bool"
        }
      ],
      "stateMutability": "nonpayable",
      "type": "function"
    },
    {
      "inputs": [
        {
          "internalType": "address",
          "name": "account",
          "type": "address"
        }
      ],
      "name": "balanceOf",
      "outputs": [
        {
          "internalType": "uint256",
          "name": "",
          "type": "uint256"
        }
      ],
      "stateMutability": "view",
      "type": "function"
    },
    {
      "inputs": [
        {
          "internalType": "uint256",
          "name": "amount",
          "type": "uint256"
        }
      ],
      "name": "burn",
      "outputs": [],
      "stateMutability": "nonpayable",
      "type": "function"
    },
    {
      "inputs": [],
      "name": "creator",
      "outputs": [
        {
          "internalType": "address",
          "name": "",
          "type": "address"
        }
      ],
      "stateMutability": "view",
      "type": "function"
    },
    {
      "inputs": [],
      "name": "creatorUnlockDate",
      "outputs": [
        {
          "internalType": "uint256",
          "name": "",
          "type": "uint256"
        }
      ],
      "stateMutability": "view",
      "type": "function"
    },
    {
      "inputs": [],
      "name": "creatorVestingRemaining",
      "outputs": [
        {
          "internalType": "uint256",
          "name": "",
          "type": "uint256"
        }
      ],
      "stateMutability": "view",
      "type": "function"
    },
    {
      "inputs": [],
      "name": "decimals",
      "outputs": [
        {
          "internalType": "uint8",
          "name": "",
          "type": "uint8"
        }
      ],
      "stateMutability": "view",
      "type": "function"
    },
    {
      "inputs": [
        {
          "internalType": "address",
          "name": "spender",
          "type": "address"
        },
        {
          "internalType": "uint256",
          "name": "subtractedValue",
          "type": "uint256"
        }
      ],
      "name": "decreaseAllowance",
      "outputs": [
        {
          "internalType": "bool",
          "name": "",
          "type": "bool"
        }
      ],
      "stateMutability": "nonpayable",
      "type": "function"
    },
    {
      "inputs": [
        {
          "internalType": "address",
          "name": "spender",
          "type": "address"
        },
        {
          "internalType": "uint256",
          "name": "addedValue",
          "type": "uint256"
        }
      ],
      "name": "increaseAllowance",
      "outputs": [
        {
          "internalType": "bool",
          "name": "",
          "type": "bool"
        }
      ],
      "stateMutability": "nonpayable",
      "type": "function"
    },
    {
      "inputs": [],
      "name": "initialized",
      "outputs": [
        {
          "internalType": "bool",
          "name": "",
          "type": "bool"
        }
      ],
      "stateMutability": "view",
      "type": "function"
    },
    {
      "inputs": [],
      "name": "isCreatorUnlocked",
      "outputs": [
        {
          "internalType": "bool",
          "name": "",
          "type": "bool"
        }
      ],
      "stateMutability": "view",
      "type": "function"
    },
    {
      "inputs": [],
      "name": "launchDate",
      "outputs": [
        {
          "internalType": "uint256",
          "name": "",
          "type": "uint256"
        }
      ],
      "stateMutability": "view",
      "type": "function"
    },
    {
      "inputs": [],
      "name": "markInitialized",
      "outputs": [],
      "stateMutability": "nonpayable",
      "type": "function"
    },
    {
      "inputs": [],
      "name": "maxSupply",
      "outputs": [
        {
          "internalType": "uint256",
          "name": "",
          "type": "uint256"
        }
      ],
      "stateMutability": "view",
      "type": "function"
    },
    {
      "inputs": [],
      "name": "name",
      "outputs": [
        {
          "internalType": "string",
          "name": "",
          "type": "string"
        }
      ],
      "stateMutability": "view",
      "type": "function"
    },
    {
      "inputs": [],
      "name": "owner",
      "outputs": [
        {
          "internalType": "address",
          "name": "",
          "type": "address"
        }
      ],
      "stateMutability": "view",
      "type": "function"
    },
    {
      "inputs": [],
      "name": "platformWallet",
      "outputs": [
        {
          "internalType": "address",
          "name": "",
          "type": "address"
        }
      ],
      "stateMutability": "view",
      "type": "function"
    },
    {
      "inputs": [
        {
          "internalType": "address",
          "name": "account",
          "type": "address"
        }
      ],
      "name": "removeVestingExempt",
      "outputs": [],
      "stateMutability": "nonpayable",
      "type": "function"
    },
    {
      "inputs": [],
      "name": "renounceOwnership",
      "outputs": [],
      "stateMutability": "nonpayable",
      "type": "function"
    },
    {
      "inputs": [
        {
          "internalType": "address",
          "name": "_newWallet",
          "type": "address"
        }
      ],
      "name": "setPlatformWallet",
      "outputs": [],
      "stateMutability": "nonpayable",
      "type": "function"
    },
    {
      "inputs": [],
      "name": "symbol",
      "outputs": [
        {
          "internalType": "string",
          "name": "",
          "type": "string"
        }
      ],
      "stateMutability": "view",
      "type": "function"
    },
    {
      "inputs": [],
      "name": "totalSupply",
      "outputs": [
        {
          "internalType": "uint256",
          "name": "",
          "type": "uint256"
        }
      ],
      "stateMutability": "view",
      "type": "function"
    },
    {
      "inputs": [
        {
          "internalType": "address",
          "name": "to",
          "type": "address"
        },
        {
          "internalType": "uint256",
          "name": "amount",
          "type": "uint256"
        }
      ],
      "name": "transfer",
      "outputs": [
        {
          "internalType": "bool",
          "name": "",
          "type": "bool"
        }
      ],
      "stateMutability": "nonpayable",
      "type": "function"
    },
    {
      "inputs": [
        {
          "internalType": "address",
          "name": "from",
          "type": "address"
        },
        {
          "internalType": "address",
          "name": "to",
          "type": "address"
        },
        {
          "internalType": "uint256",
          "name": "amount",
          "type": "uint256"
        }
      ],
      "name": "transferFrom",
      "outputs": [
        {
          "internalType": "bool",
          "name": "",
          "type": "bool"
        }
      ],
      "stateMutability": "nonpayable",
      "type": "function"
    },
    {
      "inputs": [
        {
          "internalType": "address",
          "name": "newOwner",
          "type": "address"
        }
      ],
      "name": "transferOwnership",
      "outputs": [],
      "stateMutability": "nonpayable",
      "type": "function"
    },
    {
      "inputs": [
        {
          "internalType": "address",
          "name": "",
          "type": "address"
        }
      ],
      "name": "vestingExempt",
      "outputs": [
        {
          "internalType": "bool",
          "name": "",
          "type": "bool"
        }
      ],
      "stateMutability": "view",
      "type": "function"
    }
  ],
  "bytecode": "0x604060c081523462000564576200193f803803806200001e8162000569565b928339810160c082820312620005645781516001600160401b03908181116200056457826200004f9185016200058f565b90602092838501519082821162000564576200006d9186016200058f565b918585015194620000816060820162000601565b60a0620000916080840162000601565b92015192805194808611620004615760038054966001938489811c9916801562000559575b8b8a1014620005435781908b601f9a8b8111620004ea575b50508b908a8311600114620004835760009262000477575b505060001982841b1c191690841b1781555b8751918211620004615760049788548481811c9116801562000456575b8b8210146200044157888111620003f6575b50899088841160011462000389579383949184926000956200037d575b50501b92600019911b1c19161785555b6005549160018060a01b0319913383851617600555895160018060a01b0394853391167f8be0079c531659141344cd1fd0a4f28419497f9722a3daafe3b4186f6b6457e0600080a3891562000347575083169283156200030457811615620002cf578760805260a05260065416176006558060075562ed4e008101809111620002ba5760085533156200027b5750600254908382018092116200026657506000917fddf252ad1be2c89b69c2b068fc378daa952ba7f163c4a11628f55a4df523b3ef9160025533835282815284832084815401905584519384523393a3516113289081620006178239608051816103b5015260a05181818161065d0152818161078701528181610e6701526110780152f35b601190634e487b7160e01b6000525260246000fd5b60649285519262461bcd60e51b845283015260248201527f45524332303a206d696e7420746f20746865207a65726f2061646472657373006044820152fd5b601183634e487b7160e01b6000525260246000fd5b885162461bcd60e51b8152808701889052600f60248201526e24b73b30b634b21031b932b0ba37b960891b6044820152606490fd5b895162461bcd60e51b8152808801899052601760248201527f496e76616c696420706c6174666f726d2077616c6c65740000000000000000006044820152606490fd5b62461bcd60e51b815287810189905260126024820152710537570706c79206d757374206265203e20360741b6044820152606490fd5b01519350388062000144565b9190601f198416928a600052848c600020948d6000905b89838310620003dd5750505010620003c2575b50505050811b01855562000154565b01519060f884600019921b161c1916905538808080620003b3565b8686015189559097019694850194889350018e620003a0565b896000528a6000208980860160051c8201928d871062000437575b0160051c019085905b8281106200042a57505062000127565b600081550185906200041a565b9250819262000411565b60228a634e487b7160e01b6000525260246000fd5b90607f169062000115565b634e487b7160e01b600052604160045260246000fd5b015190503880620000e6565b60008581528d8120889550929190601f198516908f5b828210620004d25750508411620004b9575b505050811b018155620000f8565b015160001983861b60f8161c19169055388080620004ab565b8385015186558a979095019493840193018f62000499565b90919250846000528a826000209181860160051c830193861062000539575b918891869594930160051c01915b8281106200052957508d9150620000ce565b6000815585945088910162000517565b9250819262000509565b634e487b7160e01b600052602260045260246000fd5b98607f1698620000b6565b600080fd5b6040519190601f01601f191682016001600160401b038111838210176200046157604052565b919080601f84011215620005645782516001600160401b0381116200046157602090620005c5601f8201601f1916830162000569565b92818452828287010111620005645760005b818110620005ed57508260009394955001015290565b8581018301518482018401528201620005d7565b51906001600160a01b0382168203620005645756fe608060408181526004918236101561001657600080fd5b600092833560e01c91826302d05d3f14610e535750816306fdde0314610d79578163095ea7b314610d4f578163158ef93e14610d2b57816318160ddd14610d0c57816323b872dd14610c42578163313ce56714610c265781633150344a14610c0a5781633950935114610ba357816342966c68146109e35781634cfc4d30146109c5578163554bb2b0146109a357816358e5c3fb146109875781636f293d591461096b57816370a0823114610934578163715018a6146108d757816373346abc146108495781638611f0151461080b578163882c17e9146107555781638831e9cf146106185781638da5cb5b146105ef57816395d89b41146104d0578163a457c2d714610428578163a9059cbb146103f7578163d207b672146103d8578163d5abeb011461039d578163dd62ed3e14610354578163e46e46df14610330578163f2c5c06d1461029e578163f2fde38b146101ce57508063f8eeed62146101b05763fa2af9da1461018557600080fd5b346101ac57816003193601126101ac5760065490516001600160a01b039091168152602090f35b5080fd5b50346101ac57816003193601126101ac576020906007549051908152f35b90503461029a57602036600319011261029a576101e9610edf565b906101f2610f10565b6001600160a01b03918216928315610248575050600554826bffffffffffffffffffffffff60a01b821617600555167f8be0079c531659141344cd1fd0a4f28419497f9722a3daafe3b4186f6b6457e08380a380f35b906020608492519162461bcd60e51b8352820152602660248201527f4f776e61626c653a206e6577206f776e657220697320746865207a65726f206160448201526564647265737360d01b6064820152fd5b8280fd5b90503461029a57602036600319011261029a576102b9610edf565b906102c2610f10565b6006546001600160a01b03928316921682146102ed5750825260096020528120805460ff1916905580f35b606490602084519162461bcd60e51b8352820152602060248201527f43616e6e6f742072656d6f766520706c6174666f726d206578656d7074696f6e6044820152fd5b5050346101ac57816003193601126101ac5760209061034d611280565b9051908152f35b5050346101ac57806003193601126101ac5780602092610372610edf565b61037a610efa565b6001600160a01b0391821683526001865283832091168252845220549051908152f35b5050346101ac57816003193601126101ac57602090517f00000000000000000000000000000000000000000000000000000000000000008152f35b5050346101ac57816003193601126101ac576020906008549051908152f35b5050346101ac57806003193601126101ac57602090610421610417610edf565b602435903361106a565b5160018152f35b905082346104cd57826003193601126104cd57610443610edf565b918360243592338152600160205281812060018060a01b038616825260205220549082821061047c576020856104218585038733610f68565b608490602086519162461bcd60e51b8352820152602560248201527f45524332303a2064656372656173656420616c6c6f77616e63652062656c6f77604482015264207a65726f60d81b6064820152fd5b80fd5b8383346101ac57816003193601126101ac57805190828454600181811c908083169283156105e5575b60209384841081146105d2578388529081156105b65750600114610561575b505050829003601f01601f191682019267ffffffffffffffff84118385101761054e575082918261054a925282610e96565b0390f35b634e487b7160e01b815260418552602490fd5b8787529192508591837f8a35acfbc15ff81a39ae7d344fd709f28e8600b4aa8c65c6b64bfe7fe36bd19b5b8385106105a25750505050830101858080610518565b80548886018301529301928490820161058c565b60ff1916878501525050151560051b8401019050858080610518565b634e487b7160e01b895260228a52602489fd5b91607f16916104f9565b5050346101ac57816003193601126101ac5760055490516001600160a01b039091168152602090f35b9190503461029a57602036600319011261029a57610634610edf565b6006546001600160a01b039384821693923385900361071b5785169461065b8615156112b4565b7f00000000000000000000000000000000000000000000000000000000000000001685146106e057506001600160a01b03191683176006558184526009602052808420805460ff19908116909155838552908420805490911660011790557ff84f6b525c89a18c80bbbc0c62a7eb5390956d6b8432ab067b49963a98f8c38f8380a380f35b606490602084519162461bcd60e51b8352820152601560248201527421b0b73737ba1039b2ba103a379031b932b0ba37b960591b6044820152fd5b835162461bcd60e51b8152602081840152601460248201527313db9b1e481c1b185d199bdc9b481dd85b1b195d60621b6044820152606490fd5b90503461029a57602036600319011261029a57610770610edf565b90610779610f10565b6001600160a01b03918216917f00000000000000000000000000000000000000000000000000000000000000001682146107d057506107b98115156112b4565b825260096020528120805460ff1916600117905580f35b606490602084519162461bcd60e51b8352820152601560248201527421b0b73737ba1032bc32b6b83a1031b932b0ba37b960591b6044820152fd5b5050346101ac5760203660031901126101ac5760209160ff9082906001600160a01b03610836610edf565b1681526009855220541690519015158152f35b9190503461029a578260031936011261029a57610864610f10565b600a549160ff831661089f5750600160ff199283168117600a556006546001600160a01b031684526009602052908320805490921617905580f35b6020606492519162461bcd60e51b83528201526013602482015272105b1c9958591e481a5b9a5d1a585b1a5e9959606a1b6044820152fd5b83346104cd57806003193601126104cd576108f0610f10565b600580546001600160a01b0319811690915581906001600160a01b03167f8be0079c531659141344cd1fd0a4f28419497f9722a3daafe3b4186f6b6457e08280a380f35b5050346101ac5760203660031901126101ac5760209181906001600160a01b0361095c610edf565b16815280845220549051908152f35b5050346101ac57816003193601126101ac576020905160508152f35b5050346101ac57816003193601126101ac5760209051600f8152f35b5050346101ac57816003193601126101ac576020906008544210159051908152f35b5050346101ac57816003193601126101ac576020905162ed4e008152f35b9190503461029a5760209081600319360112610b9f578235928315610b6957338552848352838286205410610b31573315610ae6573385528483528185205490848210610a98575090837ffd38818f5291bf0bb3a2a48aadc06ba8757865d1dabd804585338aab3009dcb69392338752868452038186205583600254036002558481518581527fddf252ad1be2c89b69c2b068fc378daa952ba7f163c4a11628f55a4df523b3ef843392a3519283523392a280f35b825162461bcd60e51b8152908101849052602260248201527f45524332303a206275726e20616d6f756e7420657863656564732062616c616e604482015261636560f01b6064820152608490fd5b82608492519162461bcd60e51b8352820152602160248201527f45524332303a206275726e2066726f6d20746865207a65726f206164647265736044820152607360f81b6064820152fd5b82606492519162461bcd60e51b83528201526014602482015273496e73756666696369656e742062616c616e636560601b6044820152fd5b82606492519162461bcd60e51b835282015260126024820152710416d6f756e74206d757374206265203e20360741b6044820152fd5b8380fd5b8284346104cd57816003193601126104cd57610bbd610edf565b338252600160209081528383206001600160a01b0383168452905282822054602435810192908310610bf757602084610421858533610f68565b634e487b7160e01b815260118552602490fd5b5050346101ac57816003193601126101ac576020905160058152f35b5050346101ac57816003193601126101ac576020905160128152f35b839150346101ac5760603660031901126101ac57610c5e610edf565b610c66610efa565b91846044359460018060a01b038416815260016020528181203382526020522054906000198203610ca0575b60208661042187878761106a565b848210610cc95750918391610cbe6020969561042195033383610f68565b919394819350610c92565b606490602087519162461bcd60e51b8352820152601d60248201527f45524332303a20696e73756666696369656e7420616c6c6f77616e63650000006044820152fd5b5050346101ac57816003193601126101ac576020906002549051908152f35b5050346101ac57816003193601126101ac5760209060ff600a541690519015158152f35b5050346101ac57806003193601126101ac57602090610421610d6f610edf565b6024359033610f68565b8383346101ac57816003193601126101ac5780519082600354600181811c90808316928315610e49575b60209384841081146105d2578388529081156105b65750600114610df357505050829003601f01601f191682019267ffffffffffffffff84118385101761054e575082918261054a925282610e96565b600387529192508591837fc2575a0e9e593c00f959f8c92f12db2869c3395a3b0502d05e2516446f71f85b5b838510610e355750505050830101858080610518565b805488860183015293019284908201610e1f565b91607f1691610da3565b8490346101ac57816003193601126101ac577f00000000000000000000000000000000000000000000000000000000000000006001600160a01b03168152602090f35b6020808252825181830181905290939260005b828110610ecb57505060409293506000838284010152601f8019910116010190565b818101860151848201604001528501610ea9565b600435906001600160a01b0382168203610ef557565b600080fd5b602435906001600160a01b0382168203610ef557565b6005546001600160a01b03163303610f2457565b606460405162461bcd60e51b815260206004820152602060248201527f4f776e61626c653a2063616c6c6572206973206e6f7420746865206f776e65726044820152fd5b6001600160a01b039081169182156110195716918215610fc95760207f8c5be1e5ebec7d5bd14f71427d1e84f3dd0314c0f7b2291e5b200ac8c7c3b925918360005260018252604060002085600052825280604060002055604051908152a3565b60405162461bcd60e51b815260206004820152602260248201527f45524332303a20617070726f766520746f20746865207a65726f206164647265604482015261737360f01b6064820152608490fd5b60405162461bcd60e51b8152602060048201526024808201527f45524332303a20617070726f76652066726f6d20746865207a65726f206164646044820152637265737360e01b6064820152608490fd5b6001600160a01b03908116917f00000000000000000000000000000000000000000000000000000000000000008216831480611267575b611208575b82156111b557169182156111645760008281528060205260408120549180831061111057604082827fddf252ad1be2c89b69c2b068fc378daa952ba7f163c4a11628f55a4df523b3ef958760209652828652038282205586815220818154019055604051908152a3565b60405162461bcd60e51b815260206004820152602660248201527f45524332303a207472616e7366657220616d6f756e7420657863656564732062604482015265616c616e636560d01b6064820152608490fd5b60405162461bcd60e51b815260206004820152602360248201527f45524332303a207472616e7366657220746f20746865207a65726f206164647260448201526265737360e81b6064820152608490fd5b60405162461bcd60e51b815260206004820152602560248201527f45524332303a207472616e736665722066726f6d20746865207a65726f206164604482015264647265737360d81b6064820152608490fd5b6008544210156110a65760405162461bcd60e51b815260206004820152602760248201527f43726561746f7220746f6b656e73206c6f636b656420756e74696c20756e6c6f604482015266636b206461746560c81b6064820152608490fd5b5082600052600960205260ff60406000205416156110a1565b600854804210156112ae574281039081116112985790565b634e487b7160e01b600052601160045260246000fd5b50600090565b156112bb57565b60405162461bcd60e51b815260206004820152600f60248201526e496e76616c6964206164647265737360881b6044820152606490fdfea2646970667358221220584f7980b773e5e380c2d4700d05a3f352fa319f8801f12225cef79d58a3b22f64736f6c63430008140033",
  "linkReferences": {},
  "deployedLinkReferences": {}
}