{
  "_format": "hh-sol-artifact-1",
  "contractName": "BondingCurve",
  "sourceName": "contracts/BondingCurve.sol",
  "abi": [
    {
      "inputs": [
        {
          "internalType": "address",
          "name": "_token",
          "type": "address"
        },
        {
          "internalType": "address",
          "name": "_platformWallet",
          "type": "address"
        },
        {
          "internalType": "address",
          "name": "_creator",
          "type": "address"
        },
        {
          "internalType": "uint256",
          "name": "_basePrice",
          "type": "uint256"
        },
        {
          "internalType": "uint256",
          "name": "_slope",
          "type": "uint256"
        },
        {
          "internalType": "uint256",
          "name": "_graduationCap",
          "type": "uint256"
        },
        {
          "internalType": "address",
          "name": "_dexRouter",
          "type": "address"
        }
      ],
      "stateMutability": "nonpayable",
      "type": "constructor"
    },
    {
      "anonymous": false,
      "inputs": [
        {
          "indexed": false,
          "internalType": "uint256",
          "name": "tokenAmount",
          "type": "uint256"
        },
        {
          "indexed": false,
          "internalType": "uint256",
          "name": "ethAmount",
          "type": "uint256"
        },
        {
          "indexed": false,
          "internalType": "uint256",
          "name": "liquidity",
          "type": "uint256"
        }
      ],
      "name": "DEXLiquidityAdded",
      "type": "event"
    },
    {
      "anonymous": false,
      "inputs": [
        {
          "indexed": false,
          "internalType": "address",
          "name": "pairAddress",
          "type": "address"
        }
      ],
      "name": "DEXLiquidityBurned",
      "type": "event"
    },
    {
      "anonymous": false,
      "inputs": [
        {
          "indexed": false,
          "internalType": "uint256",
          "name": "executeAfter",
          "type": "uint256"
        }
      ],
      "name": "EmergencyInitiated",
      "type": "event"
    },
    {
      "anonymous": false,
      "inputs": [
        {
          "indexed": true,
          "internalType": "address",
          "name": "recipient",
          "type": "address"
        },
        {
          "indexed": false,
          "internalType": "uint256",
          "name": "amount",
          "type": "uint256"
        }
      ],
      "name": "FeeFailed",
      "type": "event"
    },
    {
      "anonymous": false,
      "inputs": [
        {
          "indexed": false,
          "internalType": "uint256",
          "name": "ethLiquidity",
          "type": "uint256"
        },
        {
          "indexed": false,
          "internalType": "uint256",
          "name": "tokenLiquidity",
          "type": "uint256"
        }
      ],
      "name": "Graduated",
      "type": "event"
    },
    {
      "anonymous": false,
      "inputs": [
        {
          "indexed": true,
          "internalType": "address",
          "name": "previousOwner",
          "type": "address"
        },
        {
          "indexed": true,
          "internalType": "address",
          "name": "newOwner",
          "type": "address"
        }
      ],
      "name": "OwnershipTransferred",
      "type": "event"
    },
    {
      "anonymous": false,
      "inputs": [
        {
          "indexed": false,
          "internalType": "bool",
          "name": "paused",
          "type": "bool"
        }
      ],
      "name": "PauseToggled",
      "type": "event"
    },
    {
      "anonymous": false,
      "inputs": [
        {
          "indexed": true,
          "internalType": "address",
          "name": "buyer",
          "type": "address"
        },
        {
          "indexed": false,
          "internalType": "uint256",
          "name": "ethIn",
          "type": "uint256"
        },
        {
          "indexed": false,
          "internalType": "uint256",
          "name": "fee",
          "type": "uint256"
        },
        {
          "indexed": false,
          "internalType": "uint256",
          "name": "tokensOut",
          "type": "uint256"
        },
        {
          "indexed": false,
          "internalType": "uint256",
          "name": "newPrice",
          "type": "uint256"
        }
      ],
      "name": "TokenPurchased",
      "type": "event"
    },
    {
      "anonymous": false,
      "inputs": [
        {
          "indexed": true,
          "internalType": "address",
          "name": "seller",
          "type": "address"
        },
        {
          "indexed": false,
          "internalType": "uint256",
          "name": "tokensIn",
          "type": "uint256"
        },
        {
          "indexed": false,
          "internalType": "uint256",
          "name": "ethOut",
          "type": "uint256"
        },
        {
          "indexed": false,
          "internalType": "uint256",
          "name": "fee",
          "type": "uint256"
        },
        {
          "indexed": false,
          "internalType": "uint256",
          "name": "newPrice",
          "type": "uint256"
        }
      ],
      "name": "TokenSold",
      "type": "event"
    },
    {
      "inputs": [],
      "name": "EMERGENCY_DELAY",
      "outputs": [
        {
          "internalType": "uint256",
          "name": "",
          "type": "uint256"
        }
      ],
      "stateMutability": "view",
      "type": "function"
    },
    {
      "inputs": [],
      "name": "FEE_SPLIT_CREATOR_BPS",
      "outputs": [
        {
          "internalType": "uint256",
          "name": "",
          "type": "uint256"
        }
      ],
      "stateMutability": "view",
      "type": "function"
    },
    {
      "inputs": [],
      "name": "FEE_SPLIT_PLATFORM_BPS",
      "outputs": [
        {
          "internalType": "uint256",
          "name": "",
          "type": "uint256"
        }
      ],
      "stateMutability": "view",
      "type": "function"
    },
    {
      "inputs": [],
      "name": "TRADING_FEE_BPS",
      "outputs": [
        {
          "internalType": "uint256",
          "name": "",
          "type": "uint256"
        }
      ],
      "stateMutability": "view",
      "type": "function"
    },
    {
      "inputs": [],
      "name": "basePrice",
      "outputs": [
        {
          "internalType": "uint256",
          "name": "",
          "type": "uint256"
        }
      ],
      "stateMutability": "view",
      "type": "function"
    },
    {
      "inputs": [],
      "name": "buy",
      "outputs": [],
      "stateMutability": "payable",
      "type": "function"
    },
    {
      "inputs": [
        {
          "internalType": "uint256",
          "name": "tokenAmount",
          "type": "uint256"
        }
      ],
      "name": "buyExact",
      "outputs": [],
      "stateMutability": "payable",
      "type": "function"
    },
    {
      "inputs": [],
      "name": "canGraduate",
      "outputs": [
        {
          "internalType": "bool",
          "name": "",
          "type": "bool"
        }
      ],
      "stateMutability": "view",
      "type": "function"
    },
    {
      "inputs": [],
      "name": "claimFees",
      "outputs": [],
      "stateMutability": "nonpayable",
      "type": "function"
    },
    {
      "inputs": [],
      "name": "creator",
      "outputs": [
        {
          "internalType": "address",
          "name": "",
          "type": "address"
        }
      ],
      "stateMutability": "view",
      "type": "function"
    },
    {
      "inputs": [],
      "name": "currentPrice",
      "outputs": [
        {
          "internalType": "uint256",
          "name": "",
          "type": "uint256"
        }
      ],
      "stateMutability": "view",
      "type": "function"
    },
    {
      "inputs": [],
      "name": "dexLiquidityAdded",
      "outputs": [
        {
          "internalType": "bool",
          "name": "",
          "type": "bool"
        }
      ],
      "stateMutability": "view",
      "type": "function"
    },
    {
      "inputs": [],
      "name": "dexPairAddress",
      "outputs": [
        {
          "internalType": "address",
          "name": "",
          "type": "address"
        }
      ],
      "stateMutability": "view",
      "type": "function"
    },
    {
      "inputs": [],
      "name": "dexRouter",
      "outputs": [
        {
          "internalType": "address",
          "name": "",
          "type": "address"
        }
      ],
      "stateMutability": "view",
      "type": "function"
    },
    {
      "inputs": [],
      "name": "emergencyTimelock",
      "outputs": [
        {
          "internalType": "uint256",
          "name": "",
          "type": "uint256"
        }
      ],
      "stateMutability": "view",
      "type": "function"
    },
    {
      "inputs": [],
      "name": "emergencyWithdraw",
      "outputs": [],
      "stateMutability": "nonpayable",
      "type": "function"
    },
    {
      "inputs": [
        {
          "internalType": "uint256",
          "name": "tokenAmount",
          "type": "uint256"
        }
      ],
      "name": "estimateEthForTokens",
      "outputs": [
        {
          "internalType": "uint256",
          "name": "",
          "type": "uint256"
        }
      ],
      "stateMutability": "view",
      "type": "function"
    },
    {
      "inputs": [
        {
          "internalType": "uint256",
          "name": "ethAmount",
          "type": "uint256"
        }
      ],
      "name": "estimateTokensForEth",
      "outputs": [
        {
          "internalType": "uint256",
          "name": "",
          "type": "uint256"
        }
      ],
      "stateMutability": "view",
      "type": "function"
    },
    {
      "inputs": [],
      "name": "getDexPair",
      "outputs": [
        {
          "internalType": "address",
          "name": "",
          "type": "address"
        }
      ],
      "stateMutability": "view",
      "type": "function"
    },
    {
      "inputs": [],
      "name": "graduateToDEX",
      "outputs": [],
      "stateMutability": "nonpayable",
      "type": "function"
    },
    {
      "inputs": [],
      "name": "graduationCap",
      "outputs": [
        {
          "internalType": "uint256",
          "name": "",
          "type": "uint256"
        }
      ],
      "stateMutability": "view",
      "type": "function"
    },
    {
      "inputs": [],
      "name": "graduationProgress",
      "outputs": [
        {
          "internalType": "uint256",
          "name": "",
          "type": "uint256"
        }
      ],
      "stateMutability": "view",
      "type": "function"
    },
    {
      "inputs": [],
      "name": "initialize",
      "outputs": [],
      "stateMutability": "nonpayable",
      "type": "function"
    },
    {
      "inputs": [],
      "name": "initialized",
      "outputs": [
        {
          "internalType": "bool",
          "name": "",
          "type": "bool"
        }
      ],
      "stateMutability": "view",
      "type": "function"
    },
    {
      "inputs": [],
      "name": "initiateEmergency",
      "outputs": [],
      "stateMutability": "nonpayable",
      "type": "function"
    },
    {
      "inputs": [],
      "name": "isGraduated",
      "outputs": [
        {
          "internalType": "bool",
          "name": "",
          "type": "bool"
        }
      ],
      "stateMutability": "view",
      "type": "function"
    },
    {
      "inputs": [],
      "name": "owner",
      "outputs": [
        {
          "internalType": "address",
          "name": "",
          "type": "address"
        }
      ],
      "stateMutability": "view",
      "type": "function"
    },
    {
      "inputs": [],
      "name": "paused",
      "outputs": [
        {
          "internalType": "bool",
          "name": "",
          "type": "bool"
        }
      ],
      "stateMutability": "view",
      "type": "function"
    },
    {
      "inputs": [
        {
          "internalType": "address",
          "name": "",
          "type": "address"
        }
      ],
      "name": "pendingFees",
      "outputs": [
        {
          "internalType": "uint256",
          "name": "",
          "type": "uint256"
        }
      ],
      "stateMutability": "view",
      "type": "function"
    },
    {
      "inputs": [],
      "name": "platformWallet",
      "outputs": [
        {
          "internalType": "address",
          "name": "",
          "type": "address"
        }
      ],
      "stateMutability": "view",
      "type": "function"
    },
    {
      "inputs": [],
      "name": "renounceOwnership",
      "outputs": [],
      "stateMutability": "nonpayable",
      "type": "function"
    },
    {
      "inputs": [
        {
          "internalType": "uint256",
          "name": "tokenAmount",
          "type": "uint256"
        }
      ],
      "name": "sell",
      "outputs": [],
      "stateMutability": "nonpayable",
      "type": "function"
    },
    {
      "inputs": [
        {
          "internalType": "address",
          "name": "_wallet",
          "type": "address"
        }
      ],
      "name": "setPlatformWallet",
      "outputs": [],
      "stateMutability": "nonpayable",
      "type": "function"
    },
    {
      "inputs": [],
      "name": "slope",
      "outputs": [
        {
          "internalType": "uint256",
          "name": "",
          "type": "uint256"
        }
      ],
      "stateMutability": "view",
      "type": "function"
    },
    {
      "inputs": [],
      "name": "togglePause",
      "outputs": [],
      "stateMutability": "nonpayable",
      "type": "function"
    },
    {
      "inputs": [],
      "name": "token",
      "outputs": [
        {
          "internalType": "contract IERC20",
          "name": "",
          "type": "address"
        }
      ],
      "stateMutability": "view",
      "type": "function"
    },
    {
      "inputs": [],
      "name": "tokenBalance",
      "outputs": [
        {
          "internalType": "uint256",
          "name": "",
          "type": "uint256"
        }
      ],
      "stateMutability": "view",
      "type": "function"
    },
    {
      "inputs": [],
      "name": "totalRaised",
      "outputs": [
        {
          "internalType": "uint256",
          "name": "",
          "type": "uint256"
        }
      ],
      "stateMutability": "view",
      "type": "function"
    },
    {
      "inputs": [],
      "name": "totalSold",
      "outputs": [
        {
          "internalType": "uint256",
          "name": "",
          "type": "uint256"
        }
      ],
      "stateMutability": "view",
      "type": "function"
    },
    {
      "inputs": [
        {
          "internalType": "address",
          "name": "newOwner",
          "type": "address"
        }
      ],
      "name": "transferOwnership",
      "outputs": [],
      "stateMutability": "nonpayable",
      "type": "function"
    },
    {
      "inputs": [],
      "name": "withdrawForLiquidity",
      "outputs": [],
      "stateMutability": "nonpayable",
      "type": "function"
    }
  ],
  "bytecode": "0x60a034620002c757601f6200283e38819003918201601f191683019291906001600160401b03841183851017620002cc578160e09284926040968752833981010312620002c7576200005181620002e2565b90602062000061818301620002e2565b6200006e858401620002e2565b916060840151916080850151936200008e60c060a08801519701620002e2565b60008054336001600160a01b0319808316821784558c51949b90966001600160a01b03949093859391908416907f8be0079c531659141344cd1fd0a4f28419497f9722a3daafe3b4186f6b6457e09080a3600180551692831562000295575081169283156200025157169384156200021c578515620001d95787156200019657506080528160025416176002556003541617600355600455600555600655600a5490610100600160a81b039060081b1690610100600160a81b03191617600a55516125469081620002f882396080518181816101f80152818161045301528181610a3e01528181610d3901528181610f48015281816112e50152818161144901526123cf0152f35b6064908a519062461bcd60e51b82526004820152601a60248201527f47726164756174696f6e20636170206d757374206265203e20300000000000006044820152fd5b6064908a519062461bcd60e51b82526004820152601660248201527f42617365207072696365206d757374206265203e2030000000000000000000006044820152fd5b6064908a519062461bcd60e51b82526004820152600f60248201526e24b73b30b634b21031b932b0ba37b960891b6044820152fd5b8a5162461bcd60e51b815260048101879052601760248201527f496e76616c696420706c6174666f726d2077616c6c65740000000000000000006044820152606490fd5b62461bcd60e51b815260048101879052600d60248201526c24b73b30b634b2103a37b5b2b760991b6044820152606490fd5b600080fd5b634e487b7160e01b600052604160045260246000fd5b51906001600160a01b0382168203620002c75756fe6040608081526004908136101561001557600080fd5b600091823560e01c908162f2d656146113fb57816302d05d3f146113d257816305eb6f0e146112365781630758d924146112095781630d4b0a54146111e0578163158ef93e146111b957816325d2a3f31461117f578163340478a51461115857816335486a2f1461109b5781633fb168c414610f0157816342b07a4b14610ed35781635bd9328214610bc75781635c975abb14610eac57816360a97e9514610e8d578163715018a614610e335781638129fc1c14610cf757816382944e2d14610cd957816383c4613714610c9f57816383caf27514610c805781638831e9cf14610bf45781638da5cb5b14610bcc57816390165dd714610bc75781639106d7ba14610ba85781639d1b464a14610b8b5781639e1a4d1914610b6c5781639e5f260214610b48578163a6f2ae3a14610985578163a8808d0814610966578163bf65073e14610924578163c4ae3168146108b7578163c5c4744c14610898578163c7876ea41461087a578163c8ae000c1461085d578163d294f093146107a3578163db2e21bc14610653578163dd4d7bf714610637578163e4849b3214610381578163eb5b7cc214610322578163f2fde38b1461025357508063fa2af9da1461022b5763fc0c546a146101e557600080fd5b34610227578160031936011261022757517f00000000000000000000000000000000000000000000000000000000000000006001600160a01b03168152602090f35b5080fd5b503461022757816003193601126102275760025490516001600160a01b039091168152602090f35b9190503461031e57602036600319011261031e576001600160a01b0382358181169391929084900361031a57610287611a9e565b83156102c857505082546001600160a01b0319811683178455167f8be0079c531659141344cd1fd0a4f28419497f9722a3daafe3b4186f6b6457e08380a380f35b906020608492519162461bcd60e51b8352820152602660248201527f4f776e61626c653a206e6577206f776e657220697320746865207a65726f206160448201526564647265737360d01b6064820152fd5b8480fd5b8280fd5b82843461037e57602036600319011261037e5782359060648202908282046064148315171561036b5760208461036461035f612710860487611bf8565b611fa6565b9051908152f35b634e487b7160e01b815260118552602490fd5b80fd5b839150346102275760208060031936011261031e578135916103a1611c51565b60ff600a546103b5828260a81c1615611b2e565b166105f6576103c5831515611f06565b82600754106105bf576103d783612139565b908115610583574780831161057b575b5060648202828104606414831517156105685761271090049261040a8484611bf8565b87516323b872dd60e01b838201523360248201523060448201526064808201889052815260a0810167ffffffffffffffff81118282101761055557888093610477829483948e527f0000000000000000000000000000000000000000000000000000000000000000611cfa565b6104838a600754611bf8565b60075561049288600854611bf8565b6008556104a18a600954611c44565b600955335af16104af611df2565b501561051d5750506105137f910f01659f782fde3d5c0ee026adfbae451c6accad6884192f12bcfb9b2f13e59394956104e78461216f565b6104ef611f88565b90519384933397859094939260609260808301968352602083015260408201520152565b0390a26001805580f35b865162461bcd60e51b8152918201526013602482015272115512081d1c985b9cd9995c8819985a5b1959606a1b604482015260649150fd5b634e487b7160e01b895260418552602489fd5b634e487b7160e01b865260118252602486fd5b9150866103e7565b855162461bcd60e51b81529081018390526016602482015275151bdad95b88185b5bdd5b9d081d1bdbc81cdb585b1b60521b6044820152606490fd5b60649185519162461bcd60e51b83528201526013602482015272115e18d959591cc81cdbdb1908185b5bdd5b9d606a1b6044820152fd5b60649185519162461bcd60e51b8352820152601e60248201527f416c7265616479206772616475617465642c2073656c6c206f6e2044455800006044820152fd5b5050346102275781600319360112610227576020905160648152f35b9190503461031e578260031936011261031e5761066e611a9e565b61067f60ff600a5460a81c1661248f565b600c5480156107605742106107265782600c554780156106f65760025484918291829182916001600160a01b03165af16106b7611df2565b50156106c1578280f35b906020606492519162461bcd60e51b8352820152600f60248201526e15da5d1a191c985dc819985a5b1959608a1b6044820152fd5b815162461bcd60e51b8152602081850152600a6024820152694e6f2062616c616e636560b01b6044820152606490fd5b906020606492519162461bcd60e51b83528201526014602482015273151a5b595b1bd8dac81b9bdd08195e1c1a5c995960621b6044820152fd5b815162461bcd60e51b8152602081850152601760248201527f456d657267656e6379206e6f7420696e697469617465640000000000000000006044820152606490fd5b9190503461031e578260031936011261031e57338352600b602052808320548015610828578380808093338252600b6020528186812055335af16107e5611df2565b50156107ef578280f35b602090606493339052600b8252519162461bcd60e51b8352820152600c60248201526b10db185a5b4819985a5b195960a21b6044820152fd5b815162461bcd60e51b8152602081850152600f60248201526e4e6f2070656e64696e67206665657360881b6044820152606490fd5b505034610227578160031936011261022757602090610364611f47565b90503461031e578260031936011261031e5760209250549051908152f35b5050346102275781600319360112610227576020906008549051908152f35b50503461022757816003193601126102275760207f9077d36bc00859b5c3f320310707208543dd35092cb0a0fe117d0c6a558b148b916108f5611a9e565b60ff600a548160a81b828260a81c161560a81b16908260a81b1916179182600a55519160a81c1615158152a180f35b82843461037e57602036600319011261037e5761094183356120d5565b9060648202908282046064148315171561036b576020846103646126ac850486611c44565b505034610227578160031936011261022757602090600c549051908152f35b9190508260031936011261031e5761099b611c51565b6109b960ff600a546109b2828260a81c1615611b2e565b1615611b6f565b3415610b155760643402348104606403610b02576127109004916109e061035f8434611bf8565b906109ec821515611c05565b6009548211610abf57509081610a257f7ca4a3cad3bac410861af1b25202900ff3c8dd2174eaaa6c0ef89f2a04e65fd593600754611c44565b600755610a3434600854611c44565b600855610a6281337f0000000000000000000000000000000000000000000000000000000000000000611ca7565b610a6b8461216f565b610a9b610a76611f88565b9251928392339634859094939260609260808301968352602083015260408201520152565b0390a26008546006541115610ab2575b6001805580f35b610aba61229f565b610aab565b606490602084519162461bcd60e51b8352820152601860248201527f4578636565647320617661696c61626c6520737570706c7900000000000000006044820152fd5b634e487b7160e01b845260118352602484fd5b906020606492519162461bcd60e51b8352820152600d60248201526c09aeae6e840e6cadcc8408aa89609b1b6044820152fd5b50503461022757816003193601126102275760209060ff600a541690519015158152f35b5050346102275781600319360112610227576020906009549051908152f35b505034610227578160031936011261022757602090610364611f88565b5050346102275781600319360112610227576020906007549051908152f35b611a7c565b505034610227578160031936011261022757905490516001600160a01b039091168152602090f35b90503461031e57602036600319011261031e5780356001600160a01b0381169290839003610c7c57610c24611a9e565b8215610c475750506bffffffffffffffffffffffff60a01b600254161760025580f35b906020606492519162461bcd60e51b8352820152600f60248201526e496e76616c6964206164647265737360881b6044820152fd5b8380fd5b5050346102275781600319360112610227576020906005549051908152f35b50503461022757816003193601126102275760209060ff600a5416159081610cca575b519015158152f35b60085460065411159150610cc2565b505034610227578160031936011261022757602090516202a3008152f35b90503461031e578260031936011261031e57610d11611a9e565b600d549160ff8360a81c16610dfa5780516370a0823160e01b815230838201526020816024817f00000000000000000000000000000000000000000000000000000000000000006001600160a01b03165afa908115610df0578591610dbf575b508060095515610d9057505060ff60a81b1916600160a81b17600d5580f35b906020606492519162461bcd60e51b835282015260096024820152684e6f20746f6b656e7360b81b6044820152fd5b90506020813d8211610de8575b81610dd960209383611af6565b8101031261031a575138610d71565b3d9150610dcc565b82513d87823e3d90fd5b906020606492519162461bcd60e51b83528201526013602482015272105b1c9958591e481a5b9a5d1a585b1a5e9959606a1b6044820152fd5b833461037e578060031936011261037e57610e4c611a9e565b80546001600160a01b03198116825581906001600160a01b03167f8be0079c531659141344cd1fd0a4f28419497f9722a3daafe3b4186f6b6457e08280a380f35b5050346102275781600319360112610227576020906006549051908152f35b50503461022757816003193601126102275760209060ff600a5460a81c1690519015158152f35b505034610227578160031936011261022757602090610ef061233b565b90516001600160a01b039091168152f35b9190503461031e578260031936011261031e57610f1c611a9e565b610f2a60ff600a54166122e0565b80516370a0823160e01b815230818401526001600160a01b039290917f000000000000000000000000000000000000000000000000000000000000000091906020904782866024818a89165afa95861561109157889661105e575b50801580158091611055575b1561101c57908891610fc5575b505050505081610fac578380f35b610fbe92846009556002541690611ca7565b3880808380f35b818080928a600254165af1610fd8611df2565b5015610fe5578681610f9e565b5162461bcd60e51b8152918201526013602482015272115512081dda5d1a191c985dc819985a5b1959606a1b604482015260649150fd5b50505162461bcd60e51b81529182015260136024820152724e6f7468696e6720746f20776974686472617760681b604482015260649150fd5b50861515610f91565b9095508281813d831161108a575b6110768183611af6565b8101031261108657519438610f85565b8780fd5b503d61106c565b82513d8a823e3d90fd5b9190503461031e578260031936011261031e576110b6611a9e565b6110c760ff600a5460a81c1661248f565b600c54611121576202a30042019182421161110e5750816020917f321e4e6edd055ebd12e269436c1562c06efff25f3532cc5fdcb9909193e3031493600c5551908152a180f35b634e487b7160e01b845260119052602483fd5b906020606492519162461bcd60e51b83528201526011602482015270105b1c9958591e481a5b9a5d1a585d1959607a1b6044820152fd5b50503461022757816003193601126102275760209060ff600d5460a01c1690519015158152f35b90503461031e57602036600319011261031e57356001600160a01b0381169081900361031e5782829160209452600b845220549051908152f35b50503461022757816003193601126102275760209060ff600d5460a81c1690519015158152f35b505034610227578160031936011261022757600d5490516001600160a01b039091168152602090f35b505034610227578160031936011261022757600a54905160089190911c6001600160a01b03168152602090f35b839150602036600319011261022757803561124f611c51565b61126660ff600a546109b2828260a81c1615611b2e565b611271811515611f06565b6009549182821161139b57611285826120d5565b90606482028281046064148315171561056857836112ab6126ac6112db93048095611c44565b956112b887341015611c05565b6112c482600754611c44565b6007556112d387600854611c44565b600855611bf8565b60095561130983337f0000000000000000000000000000000000000000000000000000000000000000611ca7565b6113128261216f565b83341161134a575b50610a9b7f7ca4a3cad3bac410861af1b25202900ff3c8dd2174eaaa6c0ef89f2a04e65fd59394956104ef611f88565b848080806113588834611bf8565b335af1611363611df2565b5061131a57606490602087519162461bcd60e51b8352820152600d60248201526c1499599d5b990819985a5b1959609a1b6044820152fd5b606490602086519162461bcd60e51b835282015260116024820152704578636565647320617661696c61626c6560781b6044820152fd5b50503461022757816003193601126102275760035490516001600160a01b039091168152602090f35b9190503461031e578260031936011261031e57611416611a9e565b600a5461142560ff82166122e0565b60081c6001600160a01b03908116918215611a455760ff600d5460a01c16611a13577f000000000000000000000000000000000000000000000000000000000000000092828416908251936370a0823160e01b92838652308887015260209660249388888681865afa978815611a09578b986119d6575b504791881580159081806119cd575b1561199c579061191b575b156118ba57875163095ea7b360e01b818c01526001600160a01b03909216868301908152602081018a90526115049291906114ff9083906040015b03601f198101845283611af6565b611cfa565b82600a5460081c16610e1042018042116118a8579260c48b82946060948f98978c519d8e96879563f305d71960e01b8752860152808c860152604485015282606485015230608485015260a48401525af1801561189e57839084988591611842575b507f7d6df569e0f84786358976a64cd2b9d072436fdd44c7eaeafc6859e69e751b5f91606091600d549a600160a01b97888d60ff60a01b191617600d556009558a519283528c83015289820152a1600a54865163c45a015560e01b8152919060081c831689838c81845afa928c841561181857918b918d95949394611823575b5089516315ab88c960e31b815294859182905afa928c841561181857918b9391611647956117f9575b50895163e6a4390560e01b81526001600160a01b039182168e8201908152939091166020840152938492839187918391604090910190565b0392165afa9081156117ef578a916117c2575b501694851561178d576001600160a81b031916851717600d558251918252308683015284828281875afa918215611783578792611750575b50816116c6575b50507fc950eca7ebef0c17a14892ff3f205bb3188bc3ddcd1d50f7e72595ebe8e913fa935051908152a180f35b61dead83519663a9059cbb60e01b8852870152850152828460448188865af1938415611746577fc950eca7ebef0c17a14892ff3f205bb3188bc3ddcd1d50f7e72595ebe8e913fa94611719575b80611699565b61173890843d861161173f575b6117308183611af6565b810190611ce2565b5038611713565b503d611726565b81513d87823e3d90fd5b9091508481813d831161177c575b6117688183611af6565b8101031261177857519038611692565b8680fd5b503d61175e565b83513d89823e3d90fd5b845162461bcd60e51b81528089018890526010818501526f14185a5c881b9bdd0818dc99585d195960821b6044820152606490fd5b6117e29150883d8a116117e8575b6117da8183611af6565b81019061231c565b3861165a565b503d6117d0565b86513d8c823e3d90fd5b611811919350843d86116117e8576117da8183611af6565b913861160f565b8951903d90823e3d90fd5b61183b919450823d84116117e8576117da8183611af6565b92386115e6565b985050506060873d8211611896575b8161185e60609383611af6565b8101031261031e57865188880151978701517f7d6df569e0f84786358976a64cd2b9d072436fdd44c7eaeafc6859e69e751b5f611566565b3d9150611851565b86513d85823e3d90fd5b634e487b7160e01b8c5260118b52858cfd5b875162461bcd60e51b8152808c018b90526036818801527f5361666545524332303a20617070726f76652066726f6d206e6f6e2d7a65726f60448201527520746f206e6f6e2d7a65726f20616c6c6f77616e636560501b6064820152608490fd5b508751636eb1769f60e11b815230818d019081526001600160a01b03841660208201528b90829081906040010381885afa908115611992578d91611961575b50156114b6565b90508a81813d831161198b575b6119788183611af6565b8101031261198757513861195a565b8c80fd5b503d61196e565b89513d8f823e3d90fd5b895162461bcd60e51b8152808e018d9052600c818a01526b4e6f206c697175696469747960a01b6044820152606490fd5b508415156114ab565b9097508881813d8311611a02575b6119ee8183611af6565b810103126119fe5751963861149c565b8a80fd5b503d6119e4565b87513d8d823e3d90fd5b5162461bcd60e51b8152602081850152600d60248201526c105b1c9958591e481859191959609a1b6044820152606490fd5b5162461bcd60e51b81526020818501526012602482015271111156081c9bdd5d195c881b9bdd081cd95d60721b6044820152606490fd5b34611a99576000366003190112611a995760206040516113888152f35b600080fd5b6000546001600160a01b03163303611ab257565b606460405162461bcd60e51b815260206004820152602060248201527f4f776e61626c653a2063616c6c6572206973206e6f7420746865206f776e65726044820152fd5b90601f8019910116810190811067ffffffffffffffff821117611b1857604052565b634e487b7160e01b600052604160045260246000fd5b15611b3557565b60405162461bcd60e51b815260206004820152601260248201527110dbdb9d1c9858dd081a5cc81c185d5cd95960721b6044820152606490fd5b15611b7657565b60405162461bcd60e51b8152602060048201526011602482015270105b1c9958591e4819dc98591d585d1959607a1b6044820152606490fd5b81810292918115918404141715611bc257565b634e487b7160e01b600052601160045260246000fd5b8115611be2570490565b634e487b7160e01b600052601260045260246000fd5b91908203918211611bc257565b15611c0c57565b60405162461bcd60e51b815260206004820152601060248201526f092dce6eaccccd2c6d2cadce8408aa8960831b6044820152606490fd5b91908201809211611bc257565b600260015414611c62576002600155565b60405162461bcd60e51b815260206004820152601f60248201527f5265656e7472616e637947756172643a207265656e7472616e742063616c6c006044820152606490fd5b60405163a9059cbb60e01b60208201526001600160a01b0390921660248301526044820192909252611ce0916114ff82606481016114f1565b565b90816020910312611a9957518015158103611a995790565b60408051908101916001600160a01b031667ffffffffffffffff831182841017611b1857611d6a926040526000806020958685527f5361666545524332303a206c6f772d6c6576656c2063616c6c206661696c656487860152868151910182855af1611d64611df2565b91611e32565b805190828215928315611dda575b50505015611d835750565b6084906040519062461bcd60e51b82526004820152602a60248201527f5361666545524332303a204552433230206f7065726174696f6e20646964206e6044820152691bdd081cdd58d8d9595960b21b6064820152fd5b611dea9350820181019101611ce2565b388281611d78565b3d15611e2d573d9067ffffffffffffffff8211611b185760405191611e21601f8201601f191660200184611af6565b82523d6000602084013e565b606090565b91929015611e945750815115611e46575090565b3b15611e4f5790565b60405162461bcd60e51b815260206004820152601d60248201527f416464726573733a2063616c6c20746f206e6f6e2d636f6e74726163740000006044820152606490fd5b825190915015611ea75750805190602001fd5b6040519062461bcd60e51b82528160208060048301528251908160248401526000935b828510611eed575050604492506000838284010152601f80199101168101030190fd5b8481018201518686016044015293810193859350611eca565b15611f0d57565b60405162461bcd60e51b81526020600482015260126024820152710416d6f756e74206d757374206265203e20360741b6044820152606490fd5b6006548015611f82576008546127109182820291808304841490151715611bc257611f7191611bd8565b81811115611f7d575090565b905090565b50600090565b611fa3600454611f9d60055460075490611baf565b90611c44565b90565b8015611f8257670de0b6b3a7640000908160075404906005546004928354908160011b91808304600214901517156120c057611fe29083611baf565b908160011b91808304600214901517156120c0579061200091611c44565b918060031b9081046008036120ab5761202a61202f91611f9d6120238680611baf565b9185611baf565b6124cc565b60009290818111156120a357612046929350611bf8565b906001600160ff1b038116810361208e57906120659160011b90611bd8565b828102928184041490151715612079575090565b601190634e487b7160e01b6000525260246000fd5b601183634e487b7160e01b6000525260246000fd5b505050612065565b601184634e487b7160e01b6000525260246000fd5b601185634e487b7160e01b6000525260246000fd5b670de0b6b3a76400008091049060075404906120f381600454611baf565b6005549091906001600160ff1b0384168403611bc25761212a82611f9d61212361213095611fa39860011b611baf565b9180611baf565b90611baf565b60011c90611c44565b600754818110612168578190612159670de0b6b3a7640000928392611bf8565b0491046120f381600454611baf565b5050600090565b801561229c5761138881026113871982820401611bc25761271061219591048092611bf8565b908061221c575b50806121a55750565b600060018060a01b0390808080808686600254165af16121c3611df2565b50156121ce57505050565b8160406020927fb34171a8c0ed2c9d3b07233081b6aa6240a6e90cff3f7bfad76b07664538197b94600254168152600b84522061220c858254611c44565b90556002541692604051908152a2565b600060018060a01b0390808080808686600354165af161223a611df2565b5015612248575b505061219c565b8160406020927fb34171a8c0ed2c9d3b07233081b6aa6240a6e90cff3f7bfad76b07664538197b94600354168152600b845220612286858254611c44565b90556003541692604051908152a2388080612241565b50565b600160ff19600a541617600a557facfdce92da76539f5af2efc3aa76d42a7a92af4d723a23d144f58fdf1472921e60404760095482519182526020820152a1565b156122e757565b60405162461bcd60e51b815260206004820152600d60248201526c139bdd0819dc98591d585d1959609a1b6044820152606490fd5b90816020910312611a9957516001600160a01b0381168103611a995790565b600d546001600160a01b0390811680611f7d575080600a5460081c16908115612168576040805163c45a015560e01b815290926020918281600481855afa90811561246457839060009261246f575b5085516315ab88c960e31b81529192829060049082905afa908115612464579161240e918493600091612447575b50865163e6a4390560e01b81526001600160a01b037f0000000000000000000000000000000000000000000000000000000000000000881681166004830152909116602482015294859283919082906044820190565b0392165afa92831561243d575060009261242757505090565b611fa39250803d106117e8576117da8183611af6565b513d6000823e3d90fd5b61245e9150843d86116117e8576117da8183611af6565b386123b8565b85513d6000823e3d90fd5b6004925061248990823d84116117e8576117da8183611af6565b9161238a565b1561249657565b60405162461bcd60e51b815260206004820152600e60248201526d135d5cdd081899481c185d5cd95960921b6044820152606490fd5b8015611f82576001808201808311611bc257811c90825b8383106124f05750505090565b90919250612507836125028184611bd8565b611c44565b821c91906124e356fea26469706673582212205d0e147b7622b5e5846cbb5361929295e02faf1988192af22e83d7c4fc6345ff64736f6c63430008140033",
  "linkReferences": {},
  "deployedLinkReferences": {}
}