{
  "_format": "hh-sol-artifact-1",
  "contractName": "LaunchpadFactory",
  "sourceName": "contracts/LaunchpadFactory.sol",
  "abi": [
    {
      "inputs": [
        {
          "internalType": "address",
          "name": "_platformWallet",
          "type": "address"
        },
        {
          "internalType": "address",
          "name": "_dexRouter",
          "type": "address"
        }
      ],
      "stateMutability": "nonpayable",
      "type": "constructor"
    },
    {
      "anonymous": false,
      "inputs": [
        {
          "indexed": true,
          "internalType": "address",
          "name": "token",
          "type": "address"
        },
        {
          "indexed": true,
          "internalType": "address",
          "name": "bondingCurve",
          "type": "address"
        },
        {
          "indexed": true,
          "internalType": "address",
          "name": "creator",
          "type": "address"
        },
        {
          "indexed": false,
          "internalType": "string",
          "name": "tokenName",
          "type": "string"
        },
        {
          "indexed": false,
          "internalType": "string",
          "name": "tokenSymbol",
          "type": "string"
        },
        {
          "indexed": false,
          "internalType": "uint256",
          "name": "totalSupply",
          "type": "uint256"
        },
        {
          "indexed": false,
          "internalType": "uint256",
          "name": "basePrice",
          "type": "uint256"
        },
        {
          "indexed": false,
          "internalType": "uint256",
          "name": "graduationCap",
          "type": "uint256"
        }
      ],
      "name": "LaunchCreated",
      "type": "event"
    },
    {
      "anonymous": false,
      "inputs": [
        {
          "indexed": true,
          "internalType": "address",
          "name": "previousOwner",
          "type": "address"
        },
        {
          "indexed": true,
          "internalType": "address",
          "name": "newOwner",
          "type": "address"
        }
      ],
      "name": "OwnershipTransferred",
      "type": "event"
    },
    {
      "anonymous": false,
      "inputs": [
        {
          "indexed": false,
          "internalType": "bool",
          "name": "paused",
          "type": "bool"
        }
      ],
      "name": "PauseToggled",
      "type": "event"
    },
    {
      "anonymous": false,
      "inputs": [
        {
          "indexed": true,
          "internalType": "address",
          "name": "oldWallet",
          "type": "address"
        },
        {
          "indexed": true,
          "internalType": "address",
          "name": "newWallet",
          "type": "address"
        }
      ],
      "name": "PlatformWalletUpdated",
      "type": "event"
    },
    {
      "inputs": [],
      "name": "MAX_LAUNCHES_PER_CREATOR",
      "outputs": [
        {
          "internalType": "uint256",
          "name": "",
          "type": "uint256"
        }
      ],
      "stateMutability": "view",
      "type": "function"
    },
    {
      "inputs": [],
      "name": "MIN_BASE_PRICE",
      "outputs": [
        {
          "internalType": "uint256",
          "name": "",
          "type": "uint256"
        }
      ],
      "stateMutability": "view",
      "type": "function"
    },
    {
      "inputs": [],
      "name": "MIN_GRADUATION_CAP",
      "outputs": [
        {
          "internalType": "uint256",
          "name": "",
          "type": "uint256"
        }
      ],
      "stateMutability": "view",
      "type": "function"
    },
    {
      "inputs": [],
      "name": "MIN_SUPPLY",
      "outputs": [
        {
          "internalType": "uint256",
          "name": "",
          "type": "uint256"
        }
      ],
      "stateMutability": "view",
      "type": "function"
    },
    {
      "inputs": [
        {
          "internalType": "uint256",
          "name": "",
          "type": "uint256"
        }
      ],
      "name": "allLaunches",
      "outputs": [
        {
          "internalType": "address",
          "name": "",
          "type": "address"
        }
      ],
      "stateMutability": "view",
      "type": "function"
    },
    {
      "inputs": [
        {
          "internalType": "string",
          "name": "name",
          "type": "string"
        },
        {
          "internalType": "string",
          "name": "symbol",
          "type": "string"
        },
        {
          "internalType": "uint256",
          "name": "totalSupply",
          "type": "uint256"
        },
        {
          "internalType": "uint256",
          "name": "basePrice",
          "type": "uint256"
        },
        {
          "internalType": "uint256",
          "name": "slope",
          "type": "uint256"
        },
        {
          "internalType": "uint256",
          "name": "graduationCap",
          "type": "uint256"
        },
        {
          "internalType": "bytes32",
          "name": "salt",
          "type": "bytes32"
        },
        {
          "internalType": "uint256",
          "name": "launchDate",
          "type": "uint256"
        }
      ],
      "name": "createLaunch",
      "outputs": [
        {
          "internalType": "address",
          "name": "token",
          "type": "address"
        },
        {
          "internalType": "address",
          "name": "bondingCurve",
          "type": "address"
        }
      ],
      "stateMutability": "nonpayable",
      "type": "function"
    },
    {
      "inputs": [
        {
          "internalType": "address",
          "name": "",
          "type": "address"
        },
        {
          "internalType": "uint256",
          "name": "",
          "type": "uint256"
        }
      ],
      "name": "creatorLaunches",
      "outputs": [
        {
          "internalType": "address",
          "name": "",
          "type": "address"
        }
      ],
      "stateMutability": "view",
      "type": "function"
    },
    {
      "inputs": [],
      "name": "dexRouter",
      "outputs": [
        {
          "internalType": "address",
          "name": "",
          "type": "address"
        }
      ],
      "stateMutability": "view",
      "type": "function"
    },
    {
      "inputs": [
        {
          "internalType": "uint256",
          "name": "offset",
          "type": "uint256"
        },
        {
          "internalType": "uint256",
          "name": "limit",
          "type": "uint256"
        }
      ],
      "name": "getAllLaunches",
      "outputs": [
        {
          "internalType": "address[]",
          "name": "",
          "type": "address[]"
        }
      ],
      "stateMutability": "view",
      "type": "function"
    },
    {
      "inputs": [
        {
          "internalType": "address",
          "name": "creator",
          "type": "address"
        }
      ],
      "name": "getCreatorLaunches",
      "outputs": [
        {
          "internalType": "address[]",
          "name": "",
          "type": "address[]"
        }
      ],
      "stateMutability": "view",
      "type": "function"
    },
    {
      "inputs": [],
      "name": "getLaunchCount",
      "outputs": [
        {
          "internalType": "uint256",
          "name": "",
          "type": "uint256"
        }
      ],
      "stateMutability": "view",
      "type": "function"
    },
    {
      "inputs": [
        {
          "internalType": "address",
          "name": "",
          "type": "address"
        }
      ],
      "name": "launches",
      "outputs": [
        {
          "internalType": "address",
          "name": "token",
          "type": "address"
        },
        {
          "internalType": "address",
          "name": "bondingCurve",
          "type": "address"
        },
        {
          "internalType": "address",
          "name": "creator",
          "type": "address"
        },
        {
          "internalType": "string",
          "name": "tokenName",
          "type": "string"
        },
        {
          "internalType": "string",
          "name": "tokenSymbol",
          "type": "string"
        },
        {
          "internalType": "uint256",
          "name": "totalSupply",
          "type": "uint256"
        },
        {
          "internalType": "uint256",
          "name": "basePrice",
          "type": "uint256"
        },
        {
          "internalType": "uint256",
          "name": "graduationCap",
          "type": "uint256"
        },
        {
          "internalType": "uint256",
          "name": "createdAt",
          "type": "uint256"
        },
        {
          "internalType": "bool",
          "name": "exists",
          "type": "bool"
        }
      ],
      "stateMutability": "view",
      "type": "function"
    },
    {
      "inputs": [],
      "name": "owner",
      "outputs": [
        {
          "internalType": "address",
          "name": "",
          "type": "address"
        }
      ],
      "stateMutability": "view",
      "type": "function"
    },
    {
      "inputs": [],
      "name": "paused",
      "outputs": [
        {
          "internalType": "bool",
          "name": "",
          "type": "bool"
        }
      ],
      "stateMutability": "view",
      "type": "function"
    },
    {
      "inputs": [],
      "name": "platformWallet",
      "outputs": [
        {
          "internalType": "address",
          "name": "",
          "type": "address"
        }
      ],
      "stateMutability": "view",
      "type": "function"
    },
    {
      "inputs": [
        {
          "internalType": "bytes32",
          "name": "salt",
          "type": "bytes32"
        },
        {
          "internalType": "string",
          "name": "name",
          "type": "string"
        },
        {
          "internalType": "string",
          "name": "symbol",
          "type": "string"
        },
        {
          "internalType": "uint256",
          "name": "totalSupply",
          "type": "uint256"
        },
        {
          "internalType": "uint256",
          "name": "launchDate",
          "type": "uint256"
        },
        {
          "internalType": "address",
          "name": "creator",
          "type": "address"
        }
      ],
      "name": "precomputeTokenAddress",
      "outputs": [
        {
          "internalType": "address",
          "name": "predictedToken",
          "type": "address"
        }
      ],
      "stateMutability": "view",
      "type": "function"
    },
    {
      "inputs": [],
      "name": "renounceOwnership",
      "outputs": [],
      "stateMutability": "nonpayable",
      "type": "function"
    },
    {
      "inputs": [
        {
          "internalType": "bytes32",
          "name": "",
          "type": "bytes32"
        }
      ],
      "name": "saltUsed",
      "outputs": [
        {
          "internalType": "bool",
          "name": "",
          "type": "bool"
        }
      ],
      "stateMutability": "view",
      "type": "function"
    },
    {
      "inputs": [
        {
          "internalType": "address",
          "name": "_router",
          "type": "address"
        }
      ],
      "name": "setDexRouter",
      "outputs": [],
      "stateMutability": "nonpayable",
      "type": "function"
    },
    {
      "inputs": [
        {
          "internalType": "address",
          "name": "_wallet",
          "type": "address"
        }
      ],
      "name": "setPlatformWallet",
      "outputs": [],
      "stateMutability": "nonpayable",
      "type": "function"
    },
    {
      "inputs": [],
      "name": "togglePause",
      "outputs": [],
      "stateMutability": "nonpayable",
      "type": "function"
    },
    {
      "inputs": [
        {
          "internalType": "address",
          "name": "newOwner",
          "type": "address"
        }
      ],
      "name": "transferOwnership",
      "outputs": [],
      "stateMutability": "nonpayable",
      "type": "function"
    }
  ],
  "bytecode": "0x6080346200011b57601f62005d1e38819003918201601f19168301916001600160401b03831184841017620001205780849260409485528339810103126200011b576200005a6020620000528362000136565b920162000136565b60008054336001600160a01b03198083168217845560405190956001600160a01b039594919386939192908416907f8be0079c531659141344cd1fd0a4f28419497f9722a3daafe3b4186f6b6457e09080a316908115620000d9575083600154161760015516906002541617600255604051615bd290816200014c8239f35b62461bcd60e51b815260206004820152601760248201527f496e76616c696420706c6174666f726d2077616c6c65740000000000000000006044820152606490fd5b600080fd5b634e487b7160e01b600052604160045260246000fd5b51906001600160a01b03821682036200011b5756fe60808060405260043610156200001457600080fd5b600090813560e01c9081630758d9241462001466575080631a60be5714620014485780631f2d8550146200136657806335917c64146200134757806340ab1873146200121357806341d6e9d314620011ca578063422551bb14620011995780635c975abb14620011715780635d7587af146200110f5780636b3a98f4146200108e578063715018a6146200103057806378aba8ea14620010125780638831e9cf1462000f635780638da5cb5b1462000f3a578063947df097146200035a5780639f1c2d8814620003365780639ff0251f1462000316578063c4ae316814620002a3578063cf7734c5146200026a578063f2fde38b146200019d578063f72f863b14620001575763fa2af9da146200012a57600080fd5b3462000154578060031936011262000154576001546040516001600160a01b039091168152602090f35b80fd5b5034620001545760203660031901126200015457620001756200148d565b6200017f6200173e565b60018060a01b03166001600160601b0360a01b600254161760025580f35b5034620001545760203660031901126200015457620001bb6200148d565b620001c56200173e565b6001600160a01b039081169081156200021657600054826001600160601b0360a01b821617600055167f8be0079c531659141344cd1fd0a4f28419497f9722a3daafe3b4186f6b6457e0600080a380f35b60405162461bcd60e51b815260206004820152602660248201527f4f776e61626c653a206e6577206f776e657220697320746865207a65726f206160448201526564647265737360d01b6064820152608490fd5b50346200015457604036600319011262000154576200029f62000292602435600435620018cf565b60405191829182620016f8565b0390f35b50346200015457806003193601126200015457620002c06200173e565b7f9077d36bc00859b5c3f320310707208543dd35092cb0a0fe117d0c6a558b148b602060025460ff60a01b60ff8260a01c161560a01b169060ff60a01b1916178060025560ff6040519160a01c1615158152a180f35b503462000154578060031936011262000154576020600454604051908152f35b503462000154578060031936011262000154576020604051662386f26fc100008152f35b5034620001545761010036600319011262000154576004356001600160401b03811162000c39576200039190369060040162001636565b6024356001600160401b03811162000f3657620003b390369060040162001636565b9160ff60025460a01c1662000efc578151801515908162000eef575b501562000ebb578251801515908162000eae575b501562000e78576103e86044351062000e425760016064351062000e08576084351562000dcf57662386f26fc1000060a4351062000d91574260e435111562000d425760c4358152600660205260ff60408220541662000d09573381526005602052600a6040822054101562000cd05760c4358152600660205260408120600160ff19825416179055604051602081019060c4358252643a37b5b2b760d91b6040820152602581526200049681620014fa565b51902091604051602081019060c435825264637572766560d81b604082015260258152620004c481620014fa565b519020926200057b6200055f6200056c602061193f60405190620004eb8382018362001516565b8082526200425e8383013960018060a01b036001541687620005358c620005266040519384928884019660e435923392604435918a62001797565b03601f19810183528262001516565b60405195836200054f8895518092888089019101620015ea565b84019151809386840190620015ea565b0103808452018262001516565b6001600160a01b0392620017e5565b1692831562000c95576040519062000599602061283e018362001516565b61283e825261283e62001a20602084013960018060a01b03600154169160018060a01b0360025416604051938760208601526040850152336060850152606435608085015260843560a085015260a43560c085015260e084015260e08352826101008101106001600160401b036101008501111762000ae557906200066a6020846200067e9461010082016040526200063d815180928561012086019101620015ea565b810181519062000655826101208301868601620015ea565b01038061010087015201610100850162001516565b6001600160a01b03926101000190620017e5565b1691821562000c5a576044356050604435020460501460443515171562000c465760405163a9059cbb60e01b8152836004820152606460506044350204602482015260208160448185895af1801562000be65762000c03575b50823b15620001545760405163204a7f0760e21b8152818160048183885af1801562000be65762000bf1575b50833b15620001545760405163f2fde38b60e01b8152336004820152818160248183895af1801562000be65790829162000bce575b5050604051806101408101106001600160401b036101408301111762000a0257610140810160405284815283602082015233604082015282606082015285608082015260443560a082015260643560c082015260a43560e082015242610100820152600161012082015284825260036020526040822060018060a01b038251166001600160601b0360a01b90818354161782556001820160018060a01b0360208501511682825416179055600282019060018060a01b036040850151169082541617905560608201518051906001600160401b03821162000ae5578190620008246003850154620014a9565b601f811162000b79575b50602090601f831160011462000b0557869262000af9575b50508160011b916000199060031b1c19161760038201555b60808201518051906001600160401b03821162000ae557620008846004840154620014a9565b601f811162000a9c575b50602090601f831160011462000a245791806101209492600994889262000a18575b50508160011b916000199060031b1c19161760048201555b60a0840151600582015560c0840151600682015560e08401516007820155610100840151600882015501910151151560ff8019835416911617905560045490600160401b82101562000a0257620009288260016040940160045562001691565b81546001600160a01b0360039290921b91821b19169087901b17905533815260056020522080549094600160401b82101562000a02577ff895513ebe0cc201f473504ee6b316fc136a93b62ba5f80d6dfaf6bc3ccef073620009d886926200099a8560409a60018a98018155620016df565b81549060031b9086821b9160018060a01b03901b1916179055620009c989519660a0885260a08801906200160f565b9086820360208801526200160f565b9360443588820152606435606082015260a43560808201528033950390a482519182526020820152f35b634e487b7160e01b600052604160045260246000fd5b015190503880620008b0565b906004840186526020862091865b601f198516811062000a83575092610120949260019260099583601f1981161062000a69575b505050811b016004820155620008c8565b015160001960f88460031b161c1916905538808062000a58565b9192602060018192868501518155019401920162000a32565b60048401865260208620601f840160051c81016020851062000add575b601f830160051c8201811062000ad15750506200088e565b87815560010162000ab9565b508062000ab9565b634e487b7160e01b85526041600452602485fd5b01519050388062000846565b9250600384018652602086209086935b601f198416851062000b5d576001945083601f1981161062000b43575b505050811b0160038201556200085e565b015160001960f88460031b161c1916905538808062000b32565b8181015183556020948501946001909301929091019062000b15565b90915060038401865260208620601f840160051c81016020851062000bc6575b90849392915b601f830160051c8201811062000bb75750506200082e565b88815585945060010162000b9f565b508062000b99565b62000bd990620014e6565b6200015457803862000738565b6040513d84823e3d90fd5b62000bfc90620014e6565b3862000703565b6020813d60201162000c3d575b8162000c1f6020938362001516565b8101031262000c39575180151503620001545738620006d7565b5080fd5b3d915062000c10565b634e487b7160e01b81526011600452602490fd5b60405162461bcd60e51b815260206004820152601360248201527210dd5c9d994819195c1b1bde4819985a5b1959606a1b6044820152606490fd5b60405162461bcd60e51b8152602060048201526013602482015272151bdad95b8819195c1b1bde4819985a5b1959606a1b6044820152606490fd5b60405162461bcd60e51b8152602060048201526011602482015270546f6f206d616e79206c61756e6368657360781b6044820152606490fd5b60405162461bcd60e51b815260206004820152601160248201527014d85b1d08185b1c9958591e481d5cd959607a1b6044820152606490fd5b60405162461bcd60e51b815260206004820152602160248201527f4c61756e63682064617465206d75737420626520696e207468652066757475726044820152606560f81b6064820152608490fd5b60405162461bcd60e51b815260206004820152601660248201527547726164756174696f6e2063617020746f6f206c6f7760501b6044820152606490fd5b60405162461bcd60e51b81526020600482015260116024820152700536c6f7065206d757374206265203e203607c1b6044820152606490fd5b60405162461bcd60e51b81526020600482015260126024820152714261736520707269636520746f6f206c6f7760701b6044820152606490fd5b60405162461bcd60e51b815260206004820152600e60248201526d537570706c7920746f6f206c6f7760901b6044820152606490fd5b60405162461bcd60e51b815260206004820152600e60248201526d125b9d985b1a59081cde5b589bdb60921b6044820152606490fd5b600a9150111538620003e3565b60405162461bcd60e51b815260206004820152600c60248201526b496e76616c6964206e616d6560a01b6044820152606490fd5b60329150111538620003cf565b60405162461bcd60e51b815260206004820152601260248201527110dbdb9d1c9858dd081a5cc81c185d5cd95960721b6044820152606490fd5b8280fd5b50346200015457806003193601126200015457546040516001600160a01b039091168152602090f35b503462000154576020366003190112620001545762000f816200148d565b62000f8b6200173e565b6001600160a01b0390811690811562000fdb57600154826001600160601b0360a01b821617600155167ff84f6b525c89a18c80bbbc0c62a7eb5390956d6b8432ab067b49963a98f8c38f8380a380f35b60405162461bcd60e51b815260206004820152600f60248201526e496e76616c6964206164647265737360881b6044820152606490fd5b503462000154578060031936011262000154576020604051600a8152f35b503462000154578060031936011262000154576200104d6200173e565b80546001600160a01b03198116825581906001600160a01b03167f8be0079c531659141344cd1fd0a4f28419497f9722a3daafe3b4186f6b6457e08280a380f35b5034620001545760208060031936011262000c39576001600160a01b039182620010b76200148d565b168152600582526040812092604051908193808654938481520195845280842093915b838310620010f5576200029f8662000292818a038262001516565b8454811687529581019560019485019490920191620010da565b50346200015457604036600319011262000154576200112d6200148d565b6001600160a01b039081168252600560205260408220805460243593908410156200015457506020926200116191620016df565b9190546040519260031b1c168152f35b50346200015457806003193601126200015457602060ff60025460a01c166040519015158152f35b503462000154576020366003190112620001545760ff60406020926004358152600684522054166040519015158152f35b50346200015457602036600319011262000154576004359060045482101562000154576020620011fa8362001691565b905460405160039290921b1c6001600160a01b03168152f35b5034620001545760c036600319011262000154576001600160401b039060243582811162000c39576200124b90369060040162001636565b9160443590811162000c39576200126790369060040162001636565b916001600160a01b039160a435908382168203620001545750605591600b916200055f62001324604051602098818a809301906004358252643a37b5b2b760d91b604082015260258152620012bc81620014fa565b5190209561193f956200130a60405193620012da868a018662001516565b888552858501986200425e8a39620005268d60015416916040519485938985019760843593606435918a62001797565b6040519586936200054f868601998a9251928391620015ea565b51902090604051916040830152858201523081520160ff81532060405191168152f35b5034620001545780600319360112620001545760206040516103e88152f35b50346200015457602036600319011262000154576001600160a01b039060409082620013916200148d565b16815260036020522081815416908260018201541692600282015416620013bb6003830162001538565b91620013ca6004820162001538565b92600582015493620014266006840154916200141760078601549460ff6009600889015498015416976040519b8c9b8c5260208c015260408b01526101408060608c01528a01906200160f565b9088820360808a01526200160f565b9460a087015260c086015260e085015261010084015215156101208301520390f35b50346200015457806003193601126200015457602060405160018152f35b90503462000c39578160031936011262000c39576002546001600160a01b03168152602090f35b600435906001600160a01b0382168203620014a457565b600080fd5b90600182811c92168015620014db575b6020831014620014c557565b634e487b7160e01b600052602260045260246000fd5b91607f1691620014b9565b6001600160401b03811162000a0257604052565b606081019081106001600160401b0382111762000a0257604052565b90601f801991011681019081106001600160401b0382111762000a0257604052565b90604051918260008254926200154e84620014a9565b908184526001948581169081600014620015c557506001146200157e575b50506200157c9250038362001516565b565b9093915060005260209081600020936000915b818310620015ac5750506200157c935082010138806200156c565b8554888401850152948501948794509183019162001591565b9150506200157c94506020925060ff191682840152151560051b82010138806200156c565b60005b838110620015fe5750506000910152565b8181015183820152602001620015ed565b906020916200162a81518092818552858086019101620015ea565b601f01601f1916010190565b81601f82011215620014a4578035906001600160401b03821162000a0257604051926200166e601f8401601f19166020018562001516565b82845260208383010111620014a457816000926020809301838601378301015290565b600454811015620016c95760046000527f8a35acfbc15ff81a39ae7d344fd709f28e8600b4aa8c65c6b64bfe7fe36bd19b0190600090565b634e487b7160e01b600052603260045260246000fd5b8054821015620016c95760005260206000200190600090565b6020908160408183019282815285518094520193019160005b82811062001720575050505090565b83516001600160a01b03168552938101939281019260010162001711565b6000546001600160a01b031633036200175357565b606460405162461bcd60e51b815260206004820152602060248201527f4f776e61626c653a2063616c6c6572206973206e6f7420746865206f776e65726044820152fd5b929695949060a09492620017b8620017c79260c0875260c08701906200160f565b9085820360208701526200160f565b966040840152600180851b0380921660608401521660808201520152565b908051156200184f576020815191016000f5906001600160a01b038216156200180a57565b60405162461bcd60e51b815260206004820152601960248201527f437265617465323a204661696c6564206f6e206465706c6f79000000000000006044820152606490fd5b606460405162461bcd60e51b815260206004820152602060248201527f437265617465323a2062797465636f6465206c656e677468206973207a65726f6044820152fd5b91908201809211620018a157565b634e487b7160e01b600052601160045260246000fd5b6001600160401b03811162000a025760051b60200190565b90620018dc908262001893565b6004805480831162001a16575b831015620019d357828203918211620019be576200190782620018b7565b9262001917604051948562001516565b828452601f196200192884620018b7565b0190602091368387013760005b8481106200194557505050505090565b6200195b62001955828462001893565b62001691565b90548751831015620019a95760039190911b1c6001600160a01b0316600582901b87018401526000198114620019945760010162001935565b601184634e487b7160e01b6000525260246000fd5b603286634e487b7160e01b6000525260246000fd5b601190634e487b7160e01b6000525260246000fd5b60405192506020830191506001600160401b0382118383101762001a01575060405260008152600036813790565b604190634e487b7160e01b6000525260246000fd5b915081620018e956fe60a034620002c757601f6200283e38819003918201601f191683019291906001600160401b03841183851017620002cc578160e09284926040968752833981010312620002c7576200005181620002e2565b90602062000061818301620002e2565b6200006e858401620002e2565b916060840151916080850151936200008e60c060a08801519701620002e2565b60008054336001600160a01b0319808316821784558c51949b90966001600160a01b03949093859391908416907f8be0079c531659141344cd1fd0a4f28419497f9722a3daafe3b4186f6b6457e09080a3600180551692831562000295575081169283156200025157169384156200021c578515620001d95787156200019657506080528160025416176002556003541617600355600455600555600655600a5490610100600160a81b039060081b1690610100600160a81b03191617600a55516125469081620002f882396080518181816101f80152818161045301528181610a3e01528181610d3901528181610f48015281816112e50152818161144901526123cf0152f35b6064908a519062461bcd60e51b82526004820152601a60248201527f47726164756174696f6e20636170206d757374206265203e20300000000000006044820152fd5b6064908a519062461bcd60e51b82526004820152601660248201527f42617365207072696365206d757374206265203e2030000000000000000000006044820152fd5b6064908a519062461bcd60e51b82526004820152600f60248201526e24b73b30b634b21031b932b0ba37b960891b6044820152fd5b8a5162461bcd60e51b815260048101879052601760248201527f496e76616c696420706c6174666f726d2077616c6c65740000000000000000006044820152606490fd5b62461bcd60e51b815260048101879052600d60248201526c24b73b30b634b2103a37b5b2b760991b6044820152606490fd5b600080fd5b634e487b7160e01b600052604160045260246000fd5b51906001600160a01b0382168203620002c75756fe6040608081526004908136101561001557600080fd5b600091823560e01c908162f2d656146113fb57816302d05d3f146113d257816305eb6f0e146112365781630758d924146112095781630d4b0a54146111e0578163158ef93e146111b957816325d2a3f31461117f578163340478a51461115857816335486a2f1461109b5781633fb168c414610f0157816342b07a4b14610ed35781635bd9328214610bc75781635c975abb14610eac57816360a97e9514610e8d578163715018a614610e335781638129fc1c14610cf757816382944e2d14610cd957816383c4613714610c9f57816383caf27514610c805781638831e9cf14610bf45781638da5cb5b14610bcc57816390165dd714610bc75781639106d7ba14610ba85781639d1b464a14610b8b5781639e1a4d1914610b6c5781639e5f260214610b48578163a6f2ae3a14610985578163a8808d0814610966578163bf65073e14610924578163c4ae3168146108b7578163c5c4744c14610898578163c7876ea41461087a578163c8ae000c1461085d578163d294f093146107a3578163db2e21bc14610653578163dd4d7bf714610637578163e4849b3214610381578163eb5b7cc214610322578163f2fde38b1461025357508063fa2af9da1461022b5763fc0c546a146101e557600080fd5b34610227578160031936011261022757517f00000000000000000000000000000000000000000000000000000000000000006001600160a01b03168152602090f35b5080fd5b503461022757816003193601126102275760025490516001600160a01b039091168152602090f35b9190503461031e57602036600319011261031e576001600160a01b0382358181169391929084900361031a57610287611a9e565b83156102c857505082546001600160a01b0319811683178455167f8be0079c531659141344cd1fd0a4f28419497f9722a3daafe3b4186f6b6457e08380a380f35b906020608492519162461bcd60e51b8352820152602660248201527f4f776e61626c653a206e6577206f776e657220697320746865207a65726f206160448201526564647265737360d01b6064820152fd5b8480fd5b8280fd5b82843461037e57602036600319011261037e5782359060648202908282046064148315171561036b5760208461036461035f612710860487611bf8565b611fa6565b9051908152f35b634e487b7160e01b815260118552602490fd5b80fd5b839150346102275760208060031936011261031e578135916103a1611c51565b60ff600a546103b5828260a81c1615611b2e565b166105f6576103c5831515611f06565b82600754106105bf576103d783612139565b908115610583574780831161057b575b5060648202828104606414831517156105685761271090049261040a8484611bf8565b87516323b872dd60e01b838201523360248201523060448201526064808201889052815260a0810167ffffffffffffffff81118282101761055557888093610477829483948e527f0000000000000000000000000000000000000000000000000000000000000000611cfa565b6104838a600754611bf8565b60075561049288600854611bf8565b6008556104a18a600954611c44565b600955335af16104af611df2565b501561051d5750506105137f910f01659f782fde3d5c0ee026adfbae451c6accad6884192f12bcfb9b2f13e59394956104e78461216f565b6104ef611f88565b90519384933397859094939260609260808301968352602083015260408201520152565b0390a26001805580f35b865162461bcd60e51b8152918201526013602482015272115512081d1c985b9cd9995c8819985a5b1959606a1b604482015260649150fd5b634e487b7160e01b895260418552602489fd5b634e487b7160e01b865260118252602486fd5b9150866103e7565b855162461bcd60e51b81529081018390526016602482015275151bdad95b88185b5bdd5b9d081d1bdbc81cdb585b1b60521b6044820152606490fd5b60649185519162461bcd60e51b83528201526013602482015272115e18d959591cc81cdbdb1908185b5bdd5b9d606a1b6044820152fd5b60649185519162461bcd60e51b8352820152601e60248201527f416c7265616479206772616475617465642c2073656c6c206f6e2044455800006044820152fd5b5050346102275781600319360112610227576020905160648152f35b9190503461031e578260031936011261031e5761066e611a9e565b61067f60ff600a5460a81c1661248f565b600c5480156107605742106107265782600c554780156106f65760025484918291829182916001600160a01b03165af16106b7611df2565b50156106c1578280f35b906020606492519162461bcd60e51b8352820152600f60248201526e15da5d1a191c985dc819985a5b1959608a1b6044820152fd5b815162461bcd60e51b8152602081850152600a6024820152694e6f2062616c616e636560b01b6044820152606490fd5b906020606492519162461bcd60e51b83528201526014602482015273151a5b595b1bd8dac81b9bdd08195e1c1a5c995960621b6044820152fd5b815162461bcd60e51b8152602081850152601760248201527f456d657267656e6379206e6f7420696e697469617465640000000000000000006044820152606490fd5b9190503461031e578260031936011261031e57338352600b602052808320548015610828578380808093338252600b6020528186812055335af16107e5611df2565b50156107ef578280f35b602090606493339052600b8252519162461bcd60e51b8352820152600c60248201526b10db185a5b4819985a5b195960a21b6044820152fd5b815162461bcd60e51b8152602081850152600f60248201526e4e6f2070656e64696e67206665657360881b6044820152606490fd5b505034610227578160031936011261022757602090610364611f47565b90503461031e578260031936011261031e5760209250549051908152f35b5050346102275781600319360112610227576020906008549051908152f35b50503461022757816003193601126102275760207f9077d36bc00859b5c3f320310707208543dd35092cb0a0fe117d0c6a558b148b916108f5611a9e565b60ff600a548160a81b828260a81c161560a81b16908260a81b1916179182600a55519160a81c1615158152a180f35b82843461037e57602036600319011261037e5761094183356120d5565b9060648202908282046064148315171561036b576020846103646126ac850486611c44565b505034610227578160031936011261022757602090600c549051908152f35b9190508260031936011261031e5761099b611c51565b6109b960ff600a546109b2828260a81c1615611b2e565b1615611b6f565b3415610b155760643402348104606403610b02576127109004916109e061035f8434611bf8565b906109ec821515611c05565b6009548211610abf57509081610a257f7ca4a3cad3bac410861af1b25202900ff3c8dd2174eaaa6c0ef89f2a04e65fd593600754611c44565b600755610a3434600854611c44565b600855610a6281337f0000000000000000000000000000000000000000000000000000000000000000611ca7565b610a6b8461216f565b610a9b610a76611f88565b9251928392339634859094939260609260808301968352602083015260408201520152565b0390a26008546006541115610ab2575b6001805580f35b610aba61229f565b610aab565b606490602084519162461bcd60e51b8352820152601860248201527f4578636565647320617661696c61626c6520737570706c7900000000000000006044820152fd5b634e487b7160e01b845260118352602484fd5b906020606492519162461bcd60e51b8352820152600d60248201526c09aeae6e840e6cadcc8408aa89609b1b6044820152fd5b50503461022757816003193601126102275760209060ff600a541690519015158152f35b5050346102275781600319360112610227576020906009549051908152f35b505034610227578160031936011261022757602090610364611f88565b5050346102275781600319360112610227576020906007549051908152f35b611a7c565b505034610227578160031936011261022757905490516001600160a01b039091168152602090f35b90503461031e57602036600319011261031e5780356001600160a01b0381169290839003610c7c57610c24611a9e565b8215610c475750506bffffffffffffffffffffffff60a01b600254161760025580f35b906020606492519162461bcd60e51b8352820152600f60248201526e496e76616c6964206164647265737360881b6044820152fd5b8380fd5b5050346102275781600319360112610227576020906005549051908152f35b50503461022757816003193601126102275760209060ff600a5416159081610cca575b519015158152f35b60085460065411159150610cc2565b505034610227578160031936011261022757602090516202a3008152f35b90503461031e578260031936011261031e57610d11611a9e565b600d549160ff8360a81c16610dfa5780516370a0823160e01b815230838201526020816024817f00000000000000000000000000000000000000000000000000000000000000006001600160a01b03165afa908115610df0578591610dbf575b508060095515610d9057505060ff60a81b1916600160a81b17600d5580f35b906020606492519162461bcd60e51b835282015260096024820152684e6f20746f6b656e7360b81b6044820152fd5b90506020813d8211610de8575b81610dd960209383611af6565b8101031261031a575138610d71565b3d9150610dcc565b82513d87823e3d90fd5b906020606492519162461bcd60e51b83528201526013602482015272105b1c9958591e481a5b9a5d1a585b1a5e9959606a1b6044820152fd5b833461037e578060031936011261037e57610e4c611a9e565b80546001600160a01b03198116825581906001600160a01b03167f8be0079c531659141344cd1fd0a4f28419497f9722a3daafe3b4186f6b6457e08280a380f35b5050346102275781600319360112610227576020906006549051908152f35b50503461022757816003193601126102275760209060ff600a5460a81c1690519015158152f35b505034610227578160031936011261022757602090610ef061233b565b90516001600160a01b039091168152f35b9190503461031e578260031936011261031e57610f1c611a9e565b610f2a60ff600a54166122e0565b80516370a0823160e01b815230818401526001600160a01b039290917f000000000000000000000000000000000000000000000000000000000000000091906020904782866024818a89165afa95861561109157889661105e575b50801580158091611055575b1561101c57908891610fc5575b505050505081610fac578380f35b610fbe92846009556002541690611ca7565b3880808380f35b818080928a600254165af1610fd8611df2565b5015610fe5578681610f9e565b5162461bcd60e51b8152918201526013602482015272115512081dda5d1a191c985dc819985a5b1959606a1b604482015260649150fd5b50505162461bcd60e51b81529182015260136024820152724e6f7468696e6720746f20776974686472617760681b604482015260649150fd5b50861515610f91565b9095508281813d831161108a575b6110768183611af6565b8101031261108657519438610f85565b8780fd5b503d61106c565b82513d8a823e3d90fd5b9190503461031e578260031936011261031e576110b6611a9e565b6110c760ff600a5460a81c1661248f565b600c54611121576202a30042019182421161110e5750816020917f321e4e6edd055ebd12e269436c1562c06efff25f3532cc5fdcb9909193e3031493600c5551908152a180f35b634e487b7160e01b845260119052602483fd5b906020606492519162461bcd60e51b83528201526011602482015270105b1c9958591e481a5b9a5d1a585d1959607a1b6044820152fd5b50503461022757816003193601126102275760209060ff600d5460a01c1690519015158152f35b90503461031e57602036600319011261031e57356001600160a01b0381169081900361031e5782829160209452600b845220549051908152f35b50503461022757816003193601126102275760209060ff600d5460a81c1690519015158152f35b505034610227578160031936011261022757600d5490516001600160a01b039091168152602090f35b505034610227578160031936011261022757600a54905160089190911c6001600160a01b03168152602090f35b839150602036600319011261022757803561124f611c51565b61126660ff600a546109b2828260a81c1615611b2e565b611271811515611f06565b6009549182821161139b57611285826120d5565b90606482028281046064148315171561056857836112ab6126ac6112db93048095611c44565b956112b887341015611c05565b6112c482600754611c44565b6007556112d387600854611c44565b600855611bf8565b60095561130983337f0000000000000000000000000000000000000000000000000000000000000000611ca7565b6113128261216f565b83341161134a575b50610a9b7f7ca4a3cad3bac410861af1b25202900ff3c8dd2174eaaa6c0ef89f2a04e65fd59394956104ef611f88565b848080806113588834611bf8565b335af1611363611df2565b5061131a57606490602087519162461bcd60e51b8352820152600d60248201526c1499599d5b990819985a5b1959609a1b6044820152fd5b606490602086519162461bcd60e51b835282015260116024820152704578636565647320617661696c61626c6560781b6044820152fd5b50503461022757816003193601126102275760035490516001600160a01b039091168152602090f35b9190503461031e578260031936011261031e57611416611a9e565b600a5461142560ff82166122e0565b60081c6001600160a01b03908116918215611a455760ff600d5460a01c16611a13577f000000000000000000000000000000000000000000000000000000000000000092828416908251936370a0823160e01b92838652308887015260209660249388888681865afa978815611a09578b986119d6575b504791881580159081806119cd575b1561199c579061191b575b156118ba57875163095ea7b360e01b818c01526001600160a01b03909216868301908152602081018a90526115049291906114ff9083906040015b03601f198101845283611af6565b611cfa565b82600a5460081c16610e1042018042116118a8579260c48b82946060948f98978c519d8e96879563f305d71960e01b8752860152808c860152604485015282606485015230608485015260a48401525af1801561189e57839084988591611842575b507f7d6df569e0f84786358976a64cd2b9d072436fdd44c7eaeafc6859e69e751b5f91606091600d549a600160a01b97888d60ff60a01b191617600d556009558a519283528c83015289820152a1600a54865163c45a015560e01b8152919060081c831689838c81845afa928c841561181857918b918d95949394611823575b5089516315ab88c960e31b815294859182905afa928c841561181857918b9391611647956117f9575b50895163e6a4390560e01b81526001600160a01b039182168e8201908152939091166020840152938492839187918391604090910190565b0392165afa9081156117ef578a916117c2575b501694851561178d576001600160a81b031916851717600d558251918252308683015284828281875afa918215611783578792611750575b50816116c6575b50507fc950eca7ebef0c17a14892ff3f205bb3188bc3ddcd1d50f7e72595ebe8e913fa935051908152a180f35b61dead83519663a9059cbb60e01b8852870152850152828460448188865af1938415611746577fc950eca7ebef0c17a14892ff3f205bb3188bc3ddcd1d50f7e72595ebe8e913fa94611719575b80611699565b61173890843d861161173f575b6117308183611af6565b810190611ce2565b5038611713565b503d611726565b81513d87823e3d90fd5b9091508481813d831161177c575b6117688183611af6565b8101031261177857519038611692565b8680fd5b503d61175e565b83513d89823e3d90fd5b845162461bcd60e51b81528089018890526010818501526f14185a5c881b9bdd0818dc99585d195960821b6044820152606490fd5b6117e29150883d8a116117e8575b6117da8183611af6565b81019061231c565b3861165a565b503d6117d0565b86513d8c823e3d90fd5b611811919350843d86116117e8576117da8183611af6565b913861160f565b8951903d90823e3d90fd5b61183b919450823d84116117e8576117da8183611af6565b92386115e6565b985050506060873d8211611896575b8161185e60609383611af6565b8101031261031e57865188880151978701517f7d6df569e0f84786358976a64cd2b9d072436fdd44c7eaeafc6859e69e751b5f611566565b3d9150611851565b86513d85823e3d90fd5b634e487b7160e01b8c5260118b52858cfd5b875162461bcd60e51b8152808c018b90526036818801527f5361666545524332303a20617070726f76652066726f6d206e6f6e2d7a65726f60448201527520746f206e6f6e2d7a65726f20616c6c6f77616e636560501b6064820152608490fd5b508751636eb1769f60e11b815230818d019081526001600160a01b03841660208201528b90829081906040010381885afa908115611992578d91611961575b50156114b6565b90508a81813d831161198b575b6119788183611af6565b8101031261198757513861195a565b8c80fd5b503d61196e565b89513d8f823e3d90fd5b895162461bcd60e51b8152808e018d9052600c818a01526b4e6f206c697175696469747960a01b6044820152606490fd5b508415156114ab565b9097508881813d8311611a02575b6119ee8183611af6565b810103126119fe5751963861149c565b8a80fd5b503d6119e4565b87513d8d823e3d90fd5b5162461bcd60e51b8152602081850152600d60248201526c105b1c9958591e481859191959609a1b6044820152606490fd5b5162461bcd60e51b81526020818501526012602482015271111156081c9bdd5d195c881b9bdd081cd95d60721b6044820152606490fd5b34611a99576000366003190112611a995760206040516113888152f35b600080fd5b6000546001600160a01b03163303611ab257565b606460405162461bcd60e51b815260206004820152602060248201527f4f776e61626c653a2063616c6c6572206973206e6f7420746865206f776e65726044820152fd5b90601f8019910116810190811067ffffffffffffffff821117611b1857604052565b634e487b7160e01b600052604160045260246000fd5b15611b3557565b60405162461bcd60e51b815260206004820152601260248201527110dbdb9d1c9858dd081a5cc81c185d5cd95960721b6044820152606490fd5b15611b7657565b60405162461bcd60e51b8152602060048201526011602482015270105b1c9958591e4819dc98591d585d1959607a1b6044820152606490fd5b81810292918115918404141715611bc257565b634e487b7160e01b600052601160045260246000fd5b8115611be2570490565b634e487b7160e01b600052601260045260246000fd5b91908203918211611bc257565b15611c0c57565b60405162461bcd60e51b815260206004820152601060248201526f092dce6eaccccd2c6d2cadce8408aa8960831b6044820152606490fd5b91908201809211611bc257565b600260015414611c62576002600155565b60405162461bcd60e51b815260206004820152601f60248201527f5265656e7472616e637947756172643a207265656e7472616e742063616c6c006044820152606490fd5b60405163a9059cbb60e01b60208201526001600160a01b0390921660248301526044820192909252611ce0916114ff82606481016114f1565b565b90816020910312611a9957518015158103611a995790565b60408051908101916001600160a01b031667ffffffffffffffff831182841017611b1857611d6a926040526000806020958685527f5361666545524332303a206c6f772d6c6576656c2063616c6c206661696c656487860152868151910182855af1611d64611df2565b91611e32565b805190828215928315611dda575b50505015611d835750565b6084906040519062461bcd60e51b82526004820152602a60248201527f5361666545524332303a204552433230206f7065726174696f6e20646964206e6044820152691bdd081cdd58d8d9595960b21b6064820152fd5b611dea9350820181019101611ce2565b388281611d78565b3d15611e2d573d9067ffffffffffffffff8211611b185760405191611e21601f8201601f191660200184611af6565b82523d6000602084013e565b606090565b91929015611e945750815115611e46575090565b3b15611e4f5790565b60405162461bcd60e51b815260206004820152601d60248201527f416464726573733a2063616c6c20746f206e6f6e2d636f6e74726163740000006044820152606490fd5b825190915015611ea75750805190602001fd5b6040519062461bcd60e51b82528160208060048301528251908160248401526000935b828510611eed575050604492506000838284010152601f80199101168101030190fd5b8481018201518686016044015293810193859350611eca565b15611f0d57565b60405162461bcd60e51b81526020600482015260126024820152710416d6f756e74206d757374206265203e20360741b6044820152606490fd5b6006548015611f82576008546127109182820291808304841490151715611bc257611f7191611bd8565b81811115611f7d575090565b905090565b50600090565b611fa3600454611f9d60055460075490611baf565b90611c44565b90565b8015611f8257670de0b6b3a7640000908160075404906005546004928354908160011b91808304600214901517156120c057611fe29083611baf565b908160011b91808304600214901517156120c0579061200091611c44565b918060031b9081046008036120ab5761202a61202f91611f9d6120238680611baf565b9185611baf565b6124cc565b60009290818111156120a357612046929350611bf8565b906001600160ff1b038116810361208e57906120659160011b90611bd8565b828102928184041490151715612079575090565b601190634e487b7160e01b6000525260246000fd5b601183634e487b7160e01b6000525260246000fd5b505050612065565b601184634e487b7160e01b6000525260246000fd5b601185634e487b7160e01b6000525260246000fd5b670de0b6b3a76400008091049060075404906120f381600454611baf565b6005549091906001600160ff1b0384168403611bc25761212a82611f9d61212361213095611fa39860011b611baf565b9180611baf565b90611baf565b60011c90611c44565b600754818110612168578190612159670de0b6b3a7640000928392611bf8565b0491046120f381600454611baf565b5050600090565b801561229c5761138881026113871982820401611bc25761271061219591048092611bf8565b908061221c575b50806121a55750565b600060018060a01b0390808080808686600254165af16121c3611df2565b50156121ce57505050565b8160406020927fb34171a8c0ed2c9d3b07233081b6aa6240a6e90cff3f7bfad76b07664538197b94600254168152600b84522061220c858254611c44565b90556002541692604051908152a2565b600060018060a01b0390808080808686600354165af161223a611df2565b5015612248575b505061219c565b8160406020927fb34171a8c0ed2c9d3b07233081b6aa6240a6e90cff3f7bfad76b07664538197b94600354168152600b845220612286858254611c44565b90556003541692604051908152a2388080612241565b50565b600160ff19600a541617600a557facfdce92da76539f5af2efc3aa76d42a7a92af4d723a23d144f58fdf1472921e60404760095482519182526020820152a1565b156122e757565b60405162461bcd60e51b815260206004820152600d60248201526c139bdd0819dc98591d585d1959609a1b6044820152606490fd5b90816020910312611a9957516001600160a01b0381168103611a995790565b600d546001600160a01b0390811680611f7d575080600a5460081c16908115612168576040805163c45a015560e01b815290926020918281600481855afa90811561246457839060009261246f575b5085516315ab88c960e31b81529192829060049082905afa908115612464579161240e918493600091612447575b50865163e6a4390560e01b81526001600160a01b037f0000000000000000000000000000000000000000000000000000000000000000881681166004830152909116602482015294859283919082906044820190565b0392165afa92831561243d575060009261242757505090565b611fa39250803d106117e8576117da8183611af6565b513d6000823e3d90fd5b61245e9150843d86116117e8576117da8183611af6565b386123b8565b85513d6000823e3d90fd5b6004925061248990823d84116117e8576117da8183611af6565b9161238a565b1561249657565b60405162461bcd60e51b815260206004820152600e60248201526d135d5cdd081899481c185d5cd95960921b6044820152606490fd5b8015611f82576001808201808311611bc257811c90825b8383106124f05750505090565b90919250612507836125028184611bd8565b611c44565b821c91906124e356fea26469706673582212205d0e147b7622b5e5846cbb5361929295e02faf1988192af22e83d7c4fc6345ff64736f6c63430008140033604060c081523462000564576200193f803803806200001e8162000569565b928339810160c082820312620005645781516001600160401b03908181116200056457826200004f9185016200058f565b90602092838501519082821162000564576200006d9186016200058f565b918585015194620000816060820162000601565b60a0620000916080840162000601565b92015192805194808611620004615760038054966001938489811c9916801562000559575b8b8a1014620005435781908b601f9a8b8111620004ea575b50508b908a8311600114620004835760009262000477575b505060001982841b1c191690841b1781555b8751918211620004615760049788548481811c9116801562000456575b8b8210146200044157888111620003f6575b50899088841160011462000389579383949184926000956200037d575b50501b92600019911b1c19161785555b6005549160018060a01b0319913383851617600555895160018060a01b0394853391167f8be0079c531659141344cd1fd0a4f28419497f9722a3daafe3b4186f6b6457e0600080a3891562000347575083169283156200030457811615620002cf578760805260a05260065416176006558060075562ed4e008101809111620002ba5760085533156200027b5750600254908382018092116200026657506000917fddf252ad1be2c89b69c2b068fc378daa952ba7f163c4a11628f55a4df523b3ef9160025533835282815284832084815401905584519384523393a3516113289081620006178239608051816103b5015260a05181818161065d0152818161078701528181610e6701526110780152f35b601190634e487b7160e01b6000525260246000fd5b60649285519262461bcd60e51b845283015260248201527f45524332303a206d696e7420746f20746865207a65726f2061646472657373006044820152fd5b601183634e487b7160e01b6000525260246000fd5b885162461bcd60e51b8152808701889052600f60248201526e24b73b30b634b21031b932b0ba37b960891b6044820152606490fd5b895162461bcd60e51b8152808801899052601760248201527f496e76616c696420706c6174666f726d2077616c6c65740000000000000000006044820152606490fd5b62461bcd60e51b815287810189905260126024820152710537570706c79206d757374206265203e20360741b6044820152606490fd5b01519350388062000144565b9190601f198416928a600052848c600020948d6000905b89838310620003dd5750505010620003c2575b50505050811b01855562000154565b01519060f884600019921b161c1916905538808080620003b3565b8686015189559097019694850194889350018e620003a0565b896000528a6000208980860160051c8201928d871062000437575b0160051c019085905b8281106200042a57505062000127565b600081550185906200041a565b9250819262000411565b60228a634e487b7160e01b6000525260246000fd5b90607f169062000115565b634e487b7160e01b600052604160045260246000fd5b015190503880620000e6565b60008581528d8120889550929190601f198516908f5b828210620004d25750508411620004b9575b505050811b018155620000f8565b015160001983861b60f8161c19169055388080620004ab565b8385015186558a979095019493840193018f62000499565b90919250846000528a826000209181860160051c830193861062000539575b918891869594930160051c01915b8281106200052957508d9150620000ce565b6000815585945088910162000517565b9250819262000509565b634e487b7160e01b600052602260045260246000fd5b98607f1698620000b6565b600080fd5b6040519190601f01601f191682016001600160401b038111838210176200046157604052565b919080601f84011215620005645782516001600160401b0381116200046157602090620005c5601f8201601f1916830162000569565b92818452828287010111620005645760005b818110620005ed57508260009394955001015290565b8581018301518482018401528201620005d7565b51906001600160a01b0382168203620005645756fe608060408181526004918236101561001657600080fd5b600092833560e01c91826302d05d3f14610e535750816306fdde0314610d79578163095ea7b314610d4f578163158ef93e14610d2b57816318160ddd14610d0c57816323b872dd14610c42578163313ce56714610c265781633150344a14610c0a5781633950935114610ba357816342966c68146109e35781634cfc4d30146109c5578163554bb2b0146109a357816358e5c3fb146109875781636f293d591461096b57816370a0823114610934578163715018a6146108d757816373346abc146108495781638611f0151461080b578163882c17e9146107555781638831e9cf146106185781638da5cb5b146105ef57816395d89b41146104d0578163a457c2d714610428578163a9059cbb146103f7578163d207b672146103d8578163d5abeb011461039d578163dd62ed3e14610354578163e46e46df14610330578163f2c5c06d1461029e578163f2fde38b146101ce57508063f8eeed62146101b05763fa2af9da1461018557600080fd5b346101ac57816003193601126101ac5760065490516001600160a01b039091168152602090f35b5080fd5b50346101ac57816003193601126101ac576020906007549051908152f35b90503461029a57602036600319011261029a576101e9610edf565b906101f2610f10565b6001600160a01b03918216928315610248575050600554826bffffffffffffffffffffffff60a01b821617600555167f8be0079c531659141344cd1fd0a4f28419497f9722a3daafe3b4186f6b6457e08380a380f35b906020608492519162461bcd60e51b8352820152602660248201527f4f776e61626c653a206e6577206f776e657220697320746865207a65726f206160448201526564647265737360d01b6064820152fd5b8280fd5b90503461029a57602036600319011261029a576102b9610edf565b906102c2610f10565b6006546001600160a01b03928316921682146102ed5750825260096020528120805460ff1916905580f35b606490602084519162461bcd60e51b8352820152602060248201527f43616e6e6f742072656d6f766520706c6174666f726d206578656d7074696f6e6044820152fd5b5050346101ac57816003193601126101ac5760209061034d611280565b9051908152f35b5050346101ac57806003193601126101ac5780602092610372610edf565b61037a610efa565b6001600160a01b0391821683526001865283832091168252845220549051908152f35b5050346101ac57816003193601126101ac57602090517f00000000000000000000000000000000000000000000000000000000000000008152f35b5050346101ac57816003193601126101ac576020906008549051908152f35b5050346101ac57806003193601126101ac57602090610421610417610edf565b602435903361106a565b5160018152f35b905082346104cd57826003193601126104cd57610443610edf565b918360243592338152600160205281812060018060a01b038616825260205220549082821061047c576020856104218585038733610f68565b608490602086519162461bcd60e51b8352820152602560248201527f45524332303a2064656372656173656420616c6c6f77616e63652062656c6f77604482015264207a65726f60d81b6064820152fd5b80fd5b8383346101ac57816003193601126101ac57805190828454600181811c908083169283156105e5575b60209384841081146105d2578388529081156105b65750600114610561575b505050829003601f01601f191682019267ffffffffffffffff84118385101761054e575082918261054a925282610e96565b0390f35b634e487b7160e01b815260418552602490fd5b8787529192508591837f8a35acfbc15ff81a39ae7d344fd709f28e8600b4aa8c65c6b64bfe7fe36bd19b5b8385106105a25750505050830101858080610518565b80548886018301529301928490820161058c565b60ff1916878501525050151560051b8401019050858080610518565b634e487b7160e01b895260228a52602489fd5b91607f16916104f9565b5050346101ac57816003193601126101ac5760055490516001600160a01b039091168152602090f35b9190503461029a57602036600319011261029a57610634610edf565b6006546001600160a01b039384821693923385900361071b5785169461065b8615156112b4565b7f00000000000000000000000000000000000000000000000000000000000000001685146106e057506001600160a01b03191683176006558184526009602052808420805460ff19908116909155838552908420805490911660011790557ff84f6b525c89a18c80bbbc0c62a7eb5390956d6b8432ab067b49963a98f8c38f8380a380f35b606490602084519162461bcd60e51b8352820152601560248201527421b0b73737ba1039b2ba103a379031b932b0ba37b960591b6044820152fd5b835162461bcd60e51b8152602081840152601460248201527313db9b1e481c1b185d199bdc9b481dd85b1b195d60621b6044820152606490fd5b90503461029a57602036600319011261029a57610770610edf565b90610779610f10565b6001600160a01b03918216917f00000000000000000000000000000000000000000000000000000000000000001682146107d057506107b98115156112b4565b825260096020528120805460ff1916600117905580f35b606490602084519162461bcd60e51b8352820152601560248201527421b0b73737ba1032bc32b6b83a1031b932b0ba37b960591b6044820152fd5b5050346101ac5760203660031901126101ac5760209160ff9082906001600160a01b03610836610edf565b1681526009855220541690519015158152f35b9190503461029a578260031936011261029a57610864610f10565b600a549160ff831661089f5750600160ff199283168117600a556006546001600160a01b031684526009602052908320805490921617905580f35b6020606492519162461bcd60e51b83528201526013602482015272105b1c9958591e481a5b9a5d1a585b1a5e9959606a1b6044820152fd5b83346104cd57806003193601126104cd576108f0610f10565b600580546001600160a01b0319811690915581906001600160a01b03167f8be0079c531659141344cd1fd0a4f28419497f9722a3daafe3b4186f6b6457e08280a380f35b5050346101ac5760203660031901126101ac5760209181906001600160a01b0361095c610edf565b16815280845220549051908152f35b5050346101ac57816003193601126101ac576020905160508152f35b5050346101ac57816003193601126101ac5760209051600f8152f35b5050346101ac57816003193601126101ac576020906008544210159051908152f35b5050346101ac57816003193601126101ac576020905162ed4e008152f35b9190503461029a5760209081600319360112610b9f578235928315610b6957338552848352838286205410610b31573315610ae6573385528483528185205490848210610a98575090837ffd38818f5291bf0bb3a2a48aadc06ba8757865d1dabd804585338aab3009dcb69392338752868452038186205583600254036002558481518581527fddf252ad1be2c89b69c2b068fc378daa952ba7f163c4a11628f55a4df523b3ef843392a3519283523392a280f35b825162461bcd60e51b8152908101849052602260248201527f45524332303a206275726e20616d6f756e7420657863656564732062616c616e604482015261636560f01b6064820152608490fd5b82608492519162461bcd60e51b8352820152602160248201527f45524332303a206275726e2066726f6d20746865207a65726f206164647265736044820152607360f81b6064820152fd5b82606492519162461bcd60e51b83528201526014602482015273496e73756666696369656e742062616c616e636560601b6044820152fd5b82606492519162461bcd60e51b835282015260126024820152710416d6f756e74206d757374206265203e20360741b6044820152fd5b8380fd5b8284346104cd57816003193601126104cd57610bbd610edf565b338252600160209081528383206001600160a01b0383168452905282822054602435810192908310610bf757602084610421858533610f68565b634e487b7160e01b815260118552602490fd5b5050346101ac57816003193601126101ac576020905160058152f35b5050346101ac57816003193601126101ac576020905160128152f35b839150346101ac5760603660031901126101ac57610c5e610edf565b610c66610efa565b91846044359460018060a01b038416815260016020528181203382526020522054906000198203610ca0575b60208661042187878761106a565b848210610cc95750918391610cbe6020969561042195033383610f68565b919394819350610c92565b606490602087519162461bcd60e51b8352820152601d60248201527f45524332303a20696e73756666696369656e7420616c6c6f77616e63650000006044820152fd5b5050346101ac57816003193601126101ac576020906002549051908152f35b5050346101ac57816003193601126101ac5760209060ff600a541690519015158152f35b5050346101ac57806003193601126101ac57602090610421610d6f610edf565b6024359033610f68565b8383346101ac57816003193601126101ac5780519082600354600181811c90808316928315610e49575b60209384841081146105d2578388529081156105b65750600114610df357505050829003601f01601f191682019267ffffffffffffffff84118385101761054e575082918261054a925282610e96565b600387529192508591837fc2575a0e9e593c00f959f8c92f12db2869c3395a3b0502d05e2516446f71f85b5b838510610e355750505050830101858080610518565b805488860183015293019284908201610e1f565b91607f1691610da3565b8490346101ac57816003193601126101ac577f00000000000000000000000000000000000000000000000000000000000000006001600160a01b03168152602090f35b6020808252825181830181905290939260005b828110610ecb57505060409293506000838284010152601f8019910116010190565b818101860151848201604001528501610ea9565b600435906001600160a01b0382168203610ef557565b600080fd5b602435906001600160a01b0382168203610ef557565b6005546001600160a01b03163303610f2457565b606460405162461bcd60e51b815260206004820152602060248201527f4f776e61626c653a2063616c6c6572206973206e6f7420746865206f776e65726044820152fd5b6001600160a01b039081169182156110195716918215610fc95760207f8c5be1e5ebec7d5bd14f71427d1e84f3dd0314c0f7b2291e5b200ac8c7c3b925918360005260018252604060002085600052825280604060002055604051908152a3565b60405162461bcd60e51b815260206004820152602260248201527f45524332303a20617070726f766520746f20746865207a65726f206164647265604482015261737360f01b6064820152608490fd5b60405162461bcd60e51b8152602060048201526024808201527f45524332303a20617070726f76652066726f6d20746865207a65726f206164646044820152637265737360e01b6064820152608490fd5b6001600160a01b03908116917f00000000000000000000000000000000000000000000000000000000000000008216831480611267575b611208575b82156111b557169182156111645760008281528060205260408120549180831061111057604082827fddf252ad1be2c89b69c2b068fc378daa952ba7f163c4a11628f55a4df523b3ef958760209652828652038282205586815220818154019055604051908152a3565b60405162461bcd60e51b815260206004820152602660248201527f45524332303a207472616e7366657220616d6f756e7420657863656564732062604482015265616c616e636560d01b6064820152608490fd5b60405162461bcd60e51b815260206004820152602360248201527f45524332303a207472616e7366657220746f20746865207a65726f206164647260448201526265737360e81b6064820152608490fd5b60405162461bcd60e51b815260206004820152602560248201527f45524332303a207472616e736665722066726f6d20746865207a65726f206164604482015264647265737360d81b6064820152608490fd5b6008544210156110a65760405162461bcd60e51b815260206004820152602760248201527f43726561746f7220746f6b656e73206c6f636b656420756e74696c20756e6c6f604482015266636b206461746560c81b6064820152608490fd5b5082600052600960205260ff60406000205416156110a1565b600854804210156112ae574281039081116112985790565b634e487b7160e01b600052601160045260246000fd5b50600090565b156112bb57565b60405162461bcd60e51b815260206004820152600f60248201526e496e76616c6964206164647265737360881b6044820152606490fdfea2646970667358221220584f7980b773e5e380c2d4700d05a3f352fa319f8801f12225cef79d58a3b22f64736f6c63430008140033a2646970667358221220c44ca15d484a2d5a74c5edc8c28f24e142d43a78685f961eedd5023167559be264736f6c63430008140033",
  "linkReferences": {},
  "deployedLinkReferences": {}
}